:100000000C9446000C9465000C9465000C946500FB
:100010000C9465000C9465000C9465000C946500CC
:100020000C9465000C9465000C9465000C946500BC
:100030000C9465000C94770F0C9465000C9465008B
:100040000C94C2120C9465000C9465000C9465002D
:100050000C94C7130C9465000C9465000C94650017
:100060000C9465000C9465000C9465000C9465007C
:100070000C9430140C9465000C9465000C9465008D
:100080000C9465000C9465000C94650011241FBE4F
:10009000C0E0D0E4DEBFCDBF11E0A0E0B1E0E8E514
:1000A000F9E300E00BBF02C007900D92A631B10743
:1000B000D9F714E0A6E1B1E001C01D92AC31B1075F
:1000C000E1F70E9499140C94AA1C0C9400001F9351
:1000D00080E06AE54AE520E00E94FF0811E08130F7
:1000E00009F010E081E06AE54AE520E00E94FF089F
:1000F000813009F4126082E06AE54AE520E00E945E
:10010000FF08813009F4146083E06AE54AE520E0E5
:100110000E94FF08813009F4186084E06AE54AE52E
:1001200020E00E94FF08813009F4106185E06AE553
:100130004AE520E00E94FF08813009F4106281E066
:100140001F3309F080E01F9108951092170110925B
:1001500018010E94F2070E94670008951F93CF9331
:10016000DF93EC0161E00E94E40A882309F428C7C8
:1001700080911701882389F480910001882309F474
:100180001DC70E946700813009F014C780911701D4
:10019000809300010E94170F0DC7853009F046C0FB
:1001A00080910001853009F40BC780E06AE542E3E5
:1001B00020E00E94BE0811E0813009F010E081E0EB
:1001C0006AE542E320E00E94BE08813009F4126033
:1001D00082E06AE542E320E00E94BE08813009F433
:1001E000146083E06AE542E820E00E94BE088130A6
:1001F00009F4186084E06AE542E820E00E94BE0845
:10020000813009F4106185E06AE542E820E00E944F
:10021000BE08813009F410621F3309F0CBC680910B
:100220001701809300010E94170FC4C6863009F0A1
:1002300046C080910001863009F4C2C680E06EE6B7
:100240004AE520E00E94BE0811E0813009F010E08C
:1002500081E06AE54AE520E00E94BE08813009F4A9
:10026000126082E066E44AE520E00E94BE08813028
:1002700009F4146083E066E44AE520E00E94BE08C9
:10028000813009F4186084E06AE54AE520E00E94C4
:10029000BE08813009F4106185E06EE64AE520E091
:1002A0000E94BE08813009F410621F3309F082C633
:1002B00080911701809300010E94170F7BC6813047
:1002C00009F079C180910001813061F00E946700DE
:1002D000813009F06FC680911701809300010E9460
:1002E000170F68C680911601882309F043C06AE59C
:1002F0004AE5209118010E94BE0811E0813009F002
:1003000010E081E06AE542E8209118010E94BE08F1
:10031000813009F4126082E06AE54AE52091180113
:100320000E94BE08813009F4146083E06AE542E36C
:10033000209118010E94BE08813009F4186084E001
:100340006AE54AE5209118010E94BE08813009F44F
:10035000106185E06AE542E3209118010E94BE0821
:10036000813009F410621F3309F01EC181E08093CF
:1003700016011AC1813009F044C080E066E44AE504
:10038000209118010E94BE0811E0813009F010E0B0
:1003900081E06EE642E8209118010E94BE0881309B
:1003A00009F4126082E066E44AE5209118010E9497
:1003B000BE08813009F4146083E066E442E32091D2
:1003C00018010E94BE08813009F4186084E06EE6CE
:1003D0004AE5209118010E94BE08813009F410619D
:1003E00085E066E442E3209118010E94BE08813056
:1003F00009F410621F3309F0D7C082E08093160120
:10040000D3C0823009F044C080E066E442E8209125
:1004100018010E94BE0811E0813009F010E081E06F
:100420006EE64AE5209118010E94BE08813009F469
:10043000126082E066E442E8209118010E94BE0842
:10044000813009F4146083E066E44AE520911801E4
:100450000E94BE08813009F4186084E06EE642E331
:10046000209118010E94BE08813009F4106185E0D6
:1004700066E44AE5209118010E94BE08813009F423
:1004800010621F3309F090C083E0809316018CC086
:10049000833009F044C080E06EE642E82091180104
:1004A0000E94BE0811E0813009F010E081E066E4AE
:1004B0004AE5209118010E94BE08813009F41260BB
:1004C00082E06EE642E8209118010E94BE08813069
:1004D00009F4146083E06EE64AE5209118010E9459
:1004E000BE08813009F4186084E066E442E320919C
:1004F00018010E94BE08813009F4106185E06EE6A3
:100500004AE5209118010E94BE08813009F410626A
:100510001F3309F049C084E08093160145C0843040
:1005200009F042C080E06EE64AE5209118010E9481
:10053000BE0811E0813009F010E081E066E442E895
:10054000209118010E94BE08813009F4126082E0F7
:100550006EE64AE5209118010E94BE08813009F438
:10056000146083E06EE642E3209118010E94BE0809
:10057000813009F4186084E066E44AE520911801AE
:100580000E94BE08813009F4106185E06EE642E306
:10059000209118010E94BE08813009F410621F33B7
:1005A00019F481E080931601809117018093000176
:1005B0000E94170FFFC4823009F079C180910001B9
:1005C000823061F00E946700813009F0F3C48091AD
:1005D0001701809300010E94170FECC4809116014F
:1005E000882309F043C06AE54AE5209118010E947A
:1005F000BE0811E0813009F010E081E06AE54EE6C6
:10060000209118010E94BE08813009F4126082E036
:100610006AE54AE5209118010E94BE08813009F47C
:10062000146083E06AE546E4209118010E94BE0848
:10063000813009F4186084E06AE54AE520911801E8
:100640000E94BE08813009F4106185E06AE542E34A
:10065000209118010E94BE08813009F410621F33F6
:1006600009F01EC181E0809316011AC1813009F0A2
:1006700044C080E06EE64AE5209118010E94BE0861
:1006800011E0813009F010E081E066E442E8209159
:1006900018010E94BE08813009F4126082E06EE603
:1006A0004AE5209118010E94BE08813009F41460C7
:1006B00083E06EE642E3209118010E94BE0881307B
:1006C00009F4186084E066E44AE5209118010E946C
:1006D000BE08813009F4106185E06EE642E32091A6
:1006E00018010E94BE08813009F410621F3309F01E
:1006F000D7C082E080931601D3C0823009F044C095
:1007000080E06EE642E8209118010E94BE0811E0E8
:10071000813009F010E081E066E44AE5209118019B
:100720000E94BE08813009F4126082E06EE642E861
:10073000209118010E94BE08813009F4146083E002
:100740006EE64AE5209118010E94BE08813009F446
:10075000186084E066E442E3209118010E94BE081C
:10076000813009F4106185E06EE64AE520911801B8
:100770000E94BE08813009F410621F3309F090C056
:1007800083E0809316018CC0833009F044C080E080
:1007900066E442E8209118010E94BE0811E0813011
:1007A00009F010E081E06EE64AE5209118010E9410
:1007B000BE08813009F4126082E066E442E82091CC
:1007C00018010E94BE08813009F4146083E066E4D9
:1007D0004AE5209118010E94BE08813009F4186092
:1007E00084E06EE642E3209118010E94BE08813049
:1007F00009F4106185E066E44AE5209118010E9441
:10080000BE08813009F410621F3309F049C084E04A
:100810008093160145C0843009F042C080E066E450
:100820004AE5209118010E94BE0811E0813009F0CC
:1008300010E081E06EE642E8209118010E94BE08B7
:10084000813009F4126082E066E44AE520911801E3
:100850000E94BE08813009F4146083E066E442E33C
:10086000209118010E94BE08813009F4186084E0CC
:100870006EE64AE5209118010E94BE08813009F415
:10088000106185E066E442E3209118010E94BE08F1
:10089000813009F410621F3319F481E0809316014E
:1008A00080911701809300010E94170F83C383304A
:1008B00009F0BFC180910001833061F00E946700A0
:1008C000813009F077C380911701809300010E9465
:1008D000170F70C380911601882309F043C06EE69C
:1008E0004AE5209118010E94BE0811E0813009F00C
:1008F00010E081E06EE64AE5209118010E94BE08F2
:10090000813009F4126082E06EE64AE52091180118
:100910000E94BE08813009F4146083E06EE64AE567
:10092000209118010E94BE08813009F4186084E00B
:100930006EE64AE5209118010E94BE08813009F454
:10094000106185E06EE64AE5209118010E94BE081C
:10095000813009F410621F3309F064C181E0809393
:10096000160160C1813009F044C080E06EE64AE5BE
:10097000209118010E94BE0811E0813009F010E0BA
:1009800081E06EE642E8209118010E94BE088130A5
:1009900009F4126082E06EE64AE5209118010E9497
:1009A000BE08813009F4146083E06EE642E32091D2
:1009B00018010E94BE08813009F4186084E06EE6D8
:1009C0004AE5209118010E94BE08813009F41061A7
:1009D00085E06EE642E3209118010E94BE08813056
:1009E00009F410621F3309F01DC182E080931601E3
:1009F00019C1823009F044C080E06EE64AE52091DA
:100A000018010E94BE0811E0813009F010E081E079
:100A100066E442E8209118010E94BE08813009F482
:100A2000126082E06EE64AE5209118010E94BE083D
:100A3000813009F4146083E066E442E320911801F8
:100A40000E94BE08813009F4186084E06EE64AE531
:100A5000209118010E94BE08813009F4106185E0E0
:100A600066E442E3209118010E94BE08813009F437
:100A700010621F3309F0D6C083E080931601D2C004
:100A8000833009F044C080E06EE642E8209118010E
:100A90000E94BE0811E0813009F010E081E066E4B8
:100AA0004AE5209118010E94BE08813009F41260C5
:100AB00082E06EE642E8209118010E94BE08813073
:100AC00009F4146083E066E44AE5209118010E946D
:100AD000BE08813009F4186084E06EE642E320919C
:100AE00018010E94BE08813009F4106185E066E4B7
:100AF0004AE5209118010E94BE08813009F4106275
:100B00001F3309F08FC084E0809316018BC08430BE
:100B100009F044C080E066E442E8209118010E9498
:100B2000BE0811E0813009F010E081E066E44AE59A
:100B3000209118010E94BE08813009F4126082E001
:100B400066E442E8209118010E94BE08813009F451
:100B5000146083E066E44AE5209118010E94BE0813
:100B6000813009F4186084E066E442E320911801C2
:100B70000E94BE08813009F4106185E066E44AE510
:100B8000209118010E94BE08813009F410621F33C1
:100B900009F048C085E08093160144C0853009F013
:100BA00041C080E066E44AE5209118010E94BE0839
:100BB00011E0813009F010E081E066E44AE520911F
:100BC00018010E94BE08813009F4126082E066E4D8
:100BD0004AE5209118010E94BE08813009F4146092
:100BE00083E066E44AE5209118010E94BE08813046
:100BF00009F4186084E066E44AE5209118010E9437
:100C0000BE08813009F4106185E066E44AE5209170
:100C100018010E94BE08813009F410621F3311F4DC
:100C20001092160180911701809300010E94170F06
:100C3000C1C1843009F0C4C180910001843061F0E9
:100C40000E946700813009F0B5C18091170180933F
:100C500000010E94170FAEC180911601882309F090
:100C600043C066E44AE5209118010E94BE0811E0E5
:100C7000813009F010E081E066E44AE52091180136
:100C80000E94BE08813009F4126082E066E44AE501
:100C9000209118010E94BE08813009F4146083E09D
:100CA00066E44AE5209118010E94BE08813009F4EB
:100CB000186084E066E44AE5209118010E94BE08AD
:100CC000813009F4106185E066E44AE5209118015D
:100CD0000E94BE08813009F410621F3309F064C11C
:100CE00081E08093160160C1813009F044C080E04A
:100CF00066E44AE5209118010E94BE0811E08130A7
:100D000009F010E081E066E442E8209118010E94B9
:100D1000BE08813009F4126082E066E44AE5209161
:100D200018010E94BE08813009F4146083E066E473
:100D300042E3209118010E94BE08813009F4186036
:100D400084E066E44AE5209118010E94BE088130E3
:100D500009F4106185E066E442E3209118010E94E5
:100D6000BE08813009F410621F3309F01DC182E012
:100D70008093160119C1823009F044C080E066E416
:100D80004AE5209118010E94BE0811E0813009F067
:100D900010E081E06EE642E8209118010E94BE0852
:100DA000813009F4126082E066E44AE5209118017E
:100DB0000E94BE08813009F4146083E06EE642E3CD
:100DC000209118010E94BE08813009F4186084E067
:100DD00066E44AE5209118010E94BE08813009F4BA
:100DE000106185E06EE642E3209118010E94BE0882
:100DF000813009F410621F3309F0D6C083E080937C
:100E00001601D2C0833009F044C080E066E442E8B5
:100E1000209118010E94BE0811E0813009F010E015
:100E200081E06EE64AE5209118010E94BE088130FB
:100E300009F4126082E066E442E8209118010E9401
:100E4000BE08813009F4146083E06EE64AE5209123
:100E500018010E94BE08813009F4186084E066E43D
:100E600042E3209118010E94BE08813009F410610C
:100E700085E06EE64AE5209118010E94BE088130A7
:100E800009F410621F3309F08FC084E080931601CB
:100E90008BC0843009F044C080E06EE642E82091C7
:100EA00018010E94BE0811E0813009F010E081E0D5
:100EB0006EE64AE5209118010E94BE08813009F4CF
:100EC000126082E06EE642E8209118010E94BE089E
:100ED000813009F4146083E06EE64AE52091180140
:100EE0000E94BE08813009F4186084E06EE642E397
:100EF000209118010E94BE08813009F4106185E03C
:100F00006EE64AE5209118010E94BE08813009F47E
:100F100010621F3309F048C085E08093160144C079
:100F2000853009F041C080E06EE64AE52091180165
:100F30000E94BE0811E0813009F010E081E06EE609
:100F40004AE5209118010E94BE08813009F4126020
:100F500082E06EE64AE5209118010E94BE088130C9
:100F600009F4146083E06EE64AE5209118010E94BE
:100F7000BE08813009F4186084E06EE64AE52091ED
:100F800018010E94BE08813009F4106185E06EE608
:100F90004AE5209118010E94BE08813009F41062D0
:100FA0001F3311F4109216018091170180930001F4
:100FB0000E94170F80911701882311F40E94170FC8
:100FC000CE0161E00E94E40ADF91CF911F91089564
:100FD00087E191E0089510921601809317016093C4
:100FE00018010895BF92CF92DF92EF92FF920F9374
:100FF0001F930F2EFAE0EF2EF02DE0921901BB2483
:101000006894B1F8B0921A011AE510931B0110927E
:101010001C018AE06AE570E00E94550C0F2EFBE08F
:10102000FF2EF02DF0921D0183E080931E0110939E
:101030001F0104E0009320018BE06AE570E00E944C
:10104000550C0F2EFDE0CF2EF02DC0922101009304
:101050002201109323018DEF809324018DE06AE536
:1010600070E00E94550C0CE00093250185E0809310
:10107000260110932701109228018CE06AE570E0A8
:101080000E94550C8FE08093290186E080932A010D
:1010900010932B0110922C018FE06AE570E00E9402
:1010A000550C8EE080932D0187E080932E011093E4
:1010B0002F01109230018EE06AE570E00E94550C1D
:1010C00086E18093310188E08093320110933301EF
:1010D0000F2EF9EFDF2EF02DD092340186E16AE574
:1010E00070E00E94550C87E18093350189E0809380
:1010F0003601109337011092380187E16AE570E0FC
:101100000E94550C8EE180933901E0923A011093D0
:101110003B0110923C016AE570E00E94550C8FE1A2
:1011200080933D01F0923E0110933F0110924001E7
:101130006AE570E00E94550C8CE1809341010093B8
:10114000420110934301D09244016AE570E00E948D
:10115000550C8DE180934501C092460110934701E3
:10116000B09248016AE570E00E94550C1F910F9102
:10117000FF90EF90DF90CF90BF9008950F931F9353
:10118000CF93DF93022FC82FD0E0FE01EE0FFF1F99
:10119000EE0FFF1FEE0FFF1FE75EFE4F62834683D9
:1011A0008381992787FD90959C01260F311DB901F8
:1011B0008181402F0E94D50E11E0813009F010E0AE
:1011C000CC0FDD1FCC0FDD1FCC0FDD1FC75EDE4F48
:1011D0006F81772767FD70958E81680F711D8D81F6
:1011E000402F0E94D50E813009F4126081E0133047
:1011F00009F080E0DF91CF911F910F9108950F9337
:101200001F93CF93DF93022FC82FD0E0FE01EE0F84
:10121000FF1FEE0FFF1FEE0FFF1FE75EFE4F628303
:1012200046838381992787FD90959C01260F311D68
:10123000B9018181402F0E945F0D11E0813009F0DA
:1012400010E0CC0FDD1FCC0FDD1FCC0FDD1FC75E04
:10125000DE4F6F81772767FD70958E81680F711D56
:101260008D81402F0E945F0D813009F4126081E072
:10127000133009F080E0DF91CF911F910F91089515
:10128000CF93DF9310924C0110924901CAE4D1E050
:1012900083E5888386E9898388E063E570E00E94BE
:1012A000550C698189E070E00E94550CDF91CF9167
:1012B000089562E00E94E40A8823F9F080914C01CD
:1012C0008130D9F480914901E1E0F1E0E80FF11DAE
:1012D000608180E070E040E00E94D50E813029F40A
:1012E000809149018F5F80934901809149018B3042
:1012F00021F41092490110924C0108951092490175
:1013000081E080934C01089510924C0108958AE485
:1013100091E008951F93982F142F80934A016093B2
:101320004B0180E0692F70E00E94D50E60914B0167
:1013300081E070E0412F0E94D50E1F91089508951D
:101340000F931F93CF93DF93EC0166E00E94E40AB2
:10135000882321F182E00E940D0B0EE112E0C8010A
:101360006EE471E00E946113C80160914E010E9419
:10137000B11380914E01882371F08091200288235F
:1013800051F48091220280934F011092500187E026
:1013900090E00E94F50A82E00E94460BCE0165E0D3
:1013A0000E94E40A882309F4CFC083E00E940D0B59
:1013B0008CEE91E06DE471E00E94941360914D0118
:1013C000662309F4BEC08091ED01813009F0B5C0FB
:1013D0008091EE01882309F089C08091F101882372
:1013E00051F0813051F0823051F0833051F084302F
:1013F00051F444E109C044E607C040E505C04CE3B0
:1014000003C048E201C040E08091EF01882331F43D
:101410006091F00170E00E94D50E93C0813031F4EC
:101420006091F00170E00E94D50E8BC0823031F4E3
:101430006091F00170E00E94D50E83C0833031F4DA
:101440006091F00170E00E94D50E7BC0843031F4D1
:101450006091F00170E00E94D50E73C0853031F4C8
:101460006091F00170E00E94D50E6BC0863031F4BF
:101470006091F00170E00E94D50E63C0873031F4B6
:101480006091F00170E00E94D50E5BC0883031F4AD
:101490006091F00170E00E94D50E53C0893031F4A4
:1014A0006091F00170E00E94D50E4BC08A3031F49B
:1014B0006091F00170E00E94D50E43C08B3031F492
:1014C0006091F00170E00E94D50E3BC08C3031F489
:1014D0006091F00170E00E94D50E33C08D3089F527
:1014E0006091F00170E00E94D50E2BC0813039F47C
:1014F0008091EF01882329F50E947E0922C0823065
:1015000001F58091F001882351F0813051F0823053
:1015100051F0833051F0843051F464E109C064E645
:1015200007C060E505C06CE303C068E201C060E08D
:101530008091EF010E94EB0704C08CEE91E00E94C5
:101540007E1383E00E94460BDF91CF911F910F9194
:10155000089580914F01909150010895DF93CF93AA
:1015600000D000D00F92CDB7DEB7DE011196ECE0CF
:10157000F1E085E001900D928150E1F7CE010196F6
:1015800065E00E947E130F900F900F900F900F90C8
:10159000CF91DF9108951092520110925101089558
:1015A000F8942091510130915201809590958223B9
:1015B00093239093520180935101789408958091E0
:1015C000510190915201089521E030E0A90102C03B
:1015D000440F551F6A95E2F7BA016823792381E029
:1015E0006115710509F480E0089521E030E0A9015A
:1015F00002C0440F551F8A95E2F7209151013091A6
:101600005201242B352B309352012093510181E05C
:101610000895F89408957894089590E09C01220F1D
:10162000331F280F391FF901EE0FFF1FEE0FFF1FA9
:101630002E0F3F1FF901E05BFD4F2181213099F40E
:101640009C01220F331F820F931FFC01EE0FFF1F1F
:10165000EE0FFF1F8E0F9F1FFC01E05BFD4F80818F
:101660000E94C81708959C01220F331F820F931FF9
:10167000FC01EE0FFF1FEE0FFF1F8E0F9F1FFC01DF
:10168000E05BFD4F80810E94D217089590E09C019D
:10169000220F331F280F391FF901EE0FFF1FEE0F26
:1016A000FF1F2E0F3F1FF901E05BFD4F218121300D
:1016B00099F49C01220F331F820F931FFC01EE0F40
:1016C000FF1FEE0FFF1F8E0F9F1FFC01E05BFD4F02
:1016D00080810E94D21708959C01220F331F820F30
:1016E000931FFC01EE0FFF1FEE0FFF1F8E0F9F1FBA
:1016F000FC01E05BFD4F80810E94C8170895EF92C6
:10170000FF920F931F93CF93DF93C3E5D2E010E0D6
:1017100001E07E0189818130C9F59B858A85981712
:1017200050F58881813089F488859985019699875B
:1017300088872E813F818217930741F5812F0E9470
:101740000D0B18821986188621C0F70184819581B6
:101750000196958384832281338182179307B1F4A4
:10176000812F0E94460BF701008315821482838526
:101770008F5F83870BC019821B821A821D821C8295
:101780001F821E82198618861A861B861F5F2F9657
:10179000143009F0BECFDF91CF911F910F91FF90D0
:1017A000EF900895EF92FF920F931F93CF93DF93E3
:1017B0000F2EF1E1EF2EF1E0FF2EF02DC0E5D2E08B
:1017C00010E001E0F70181917F01888319820A838B
:1017D0000B831C821E821D8218861F821A86198620
:1017E0001C861B861D861E860E943B188A818823C4
:1017F00021F4812F0E940D0B03C0812F0E94460B04
:101800001F5F2F961430F1F681E061E070E041E057
:101810002FE73BE00E94E311DF91CF911F910F91E1
:10182000FF90EF90089590E09C01220F331F820FEC
:10183000931FFC01EE0FFF1FEE0FFF1F8E0F9F1F68
:10184000FC01E05BFD4F80810E942C16089590E022
:10185000FC01EE0FFF1FE80FF91FCF01880F991F42
:10186000880F991FE80FF91FE05BFD4F56834583F2
:10187000108617823287218714861386658716861D
:1018800081E08483089510928000E1E8F0E0808197
:10189000826080831092850010928400B19AEFE6F6
:1018A000F0E08081826080830895E82F4091DF011D
:1018B00023E531E0842F90E0DC01AA0FBB1F880FE5
:1018C000991F880F991F880F991FA80FB91FA20F82
:1018D000B31F81E019968C934091DF01842F90E033
:1018E000DC01AA0FBB1F880F991F880F991F880F53
:1018F000991FA80FB91FA20FB31F18961C924091F1
:10190000DF01842F90E0DC01AA0FBB1F880F991F15
:10191000880F991F880F991FA80FB91FA20FB31F17
:10192000EC93F091DF014EEB50E0649FC001659FA6
:10193000900D749F900D112462E170E00E94741C60
:1019400060577E4F660F771F4F2F50E0DA01AA0FC6
:10195000BB1F440F551F440F551F440F551FA40FA5
:10196000B51FA20FB31F12967C936E9311976091CF
:10197000DF018091DF01482F50E0DA01AA0FBB1F81
:10198000440F551F440F551F440F551FA40FB51F7B
:10199000A20FB31F11968D919C911297462F50E084
:1019A000DA01AA0FBB1F440F551F440F551F440FE8
:1019B000551FA40FB51FA20FB31F14969C938E93AF
:1019C00013978091DF01482F50E0CA01880F991FBB
:1019D000440F551F440F551F440F551F480F591FE3
:1019E000240F351F84E6D90115968C938E2F0E9403
:1019F0003B188091DF018F5F8093DF0108950F9383
:101A00001F939091DF01992309F456C090E01FEFD6
:101A100063E571E00AE04091DF01242F30E0F90135
:101A2000EE0FFF1F220F331F220F331F220F331F12
:101A3000E20FF31FE60FF71F2081281719F0911707
:101A400030F101C0192F292F30E0A9014F5F5F4FFE
:101A5000D901AA0FBB1F220F331F220F331F220FE2
:101A6000331FA20FB31FFA01EE0FFF1F440F551FC4
:101A7000440F551F440F551FE40FF51FAD5ABE4FBD
:101A8000ED5AFE4F202F01900D922150E1F7209149
:101A9000DF01492F50E030E021503040421753071A
:101AA00029F42091DF0121502093DF019F5F2091D5
:101AB000DF01921708F4AFCF1F910F910895CF93D4
:101AC000DF93E82F2EEB30E0629FC001639F900D03
:101AD000729F900D112462E170E00E94741C6057A7
:101AE0007E4F660F771FA3E5B1E02E2F30E0E901AE
:101AF000CC0FDD1F220F331F220F331F220F331F86
:101B0000C20FD31FCA0FDB1F7C836B832E2F30E0E5
:101B1000E901CC0FDD1F220F331F220F331F220FCD
:101B2000331FC20FD31FCA0FDB1F2B813C818E2FA7
:101B300090E0BC01660F771F880F991F880F991FCF
:101B4000880F991F860F971FA80FB91F11968D91A7
:101B50009C9112972817390709F421C183E591E078
:101B60002E2F30E0D901AA0FBB1F220F331F220FE7
:101B7000331F220F331FA20FB31FA80FB91F1596D3
:101B80004C932E2F30E0D901AA0FBB1F220F331F19
:101B9000220F331F220F331FA20FB31FA80FB91F2D
:101BA00021E018962C932E2F30E0D901AA0FBB1FED
:101BB000220F331F220F331F220F331FA20FB31F19
:101BC000A80FB91F11964D915C9112972E2F30E0FE
:101BD000B901660F771F220F331F220F331F220F09
:101BE000331F260F371F820F931FDC0113968D9131
:101BF0009C9114974817590708F054C023E531E029
:101C00008E2F90E0DC01AA0FBB1F880F991F880F51
:101C1000991F880F991FA80FB91FA20FB31F139602
:101C20008D919C9114974E2F50E0DA01AA0FBB1FA3
:101C3000440F551F440F551F440F551FA40FB51FC8
:101C4000A20FB31F11960D90BC91A02D4E2F50E006
:101C5000EA01CC0FDD1F440F551F440F551F440FE1
:101C6000551FC40FD51FC20FD31F6D818A1B9B0B3D
:101C700070E06F5F7F4F0E94741C8E2F90E0AC016C
:101C8000440F551F880F991F880F991F880F991FA0
:101C9000840F951F280F391FD90117967C936E93D7
:101CA000169753C023E531E08E2F90E0DC01AA0F98
:101CB000BB1F880F991F880F991F880F991FA80FA6
:101CC000B91FA20FB31F11968D919C9112974E2FA1
:101CD00050E0DA01AA0FBB1F440F551F440F551FD8
:101CE000440F551FA40FB51FA20FB31F13960D90DD
:101CF000BC91A02D4E2F50E0EA01CC0FDD1F440F08
:101D0000551F440F551F440F551FC40FD51FC20F39
:101D1000D31F6D818A1B9B0B70E06F5F7F4F0E940A
:101D2000741C8E2F90E0AC01440F551F880F991F33
:101D3000880F991F880F991F840F951F280F391F2F
:101D4000D90117967C936E9316978E2F90E0DC0145
:101D5000AA0FBB1F880F991F880F991F880F991F03
:101D6000A80FB91FAD5ABE4F16968D919C9117972B
:101D70000097B9F48E2F90E0FC01EE0FFF1F880F43
:101D8000991F880F991F880F991FE80FF91FED5AA7
:101D9000FE4F81E090E09783868380E003C081E07E
:101DA00001C080E0DF91CF910895282F30E0F90144
:101DB000EE0FFF1F220F331F220F331F220F331F7F
:101DC000E20FF31FED5AFE4F9085913019F00E94FB
:101DD0005F0D089580E00895282F30E0F901EE0F9F
:101DE000FF1F220F331F220F331F220F331FE20F5B
:101DF000F31FED5AFE4F80850895282F30E0F9013A
:101E0000EE0FFF1F220F331F220F331F220F331F2E
:101E1000E20FF31FED5AFE4F818192818052934071
:101E200065E170E00E94741C862F972F0895EF9251
:101E3000FF920F931F93DF93CF93CDB7DEB76397D6
:101E40000FB6F894DEBF0FBECDBF8AE2898381E072
:101E50008A831B828091DF01882351F140E003E5F2
:101E600011E0EE24FF246894E2F8EC0EFD1E25E15B
:101E700030E0842F90E0FC01EE0FFF1F880F991FC8
:101E8000880F991F880F991FE80FF91FE00FF11FA6
:101E900083819481F701E40FF11D80529340B901D1
:101EA0000E94741C60834F5F8091DF01481708F324
:101EB0008091DF01FE01E80FF11D83E284839091A0
:101EC000DF01FE01E90FF11D8583CE01019663E17B
:101ED0000E94B11363960FB6F894DEBF0FBECDBF5C
:101EE000CF91DF911F910F91FF90EF9008951F9276
:101EF0000F920FB60F920BB60F9211242F933F93B0
:101F00004F935F936F937F938F939F93AF93BF9301
:101F1000CF93DF93EF93FF938091150188232CF4E7
:101F2000109285001092840035C080911501992788
:101F300087FD9095FC01EE0FFF1F880F991F880FFA
:101F4000991F880F991FE80FF91FED5AFE4F8185E1
:101F5000813001F5209115018091DF01332727FDA4
:101F6000309590E028173907ACF480911501992736
:101F700087FD9095FC01EE0FFF1F880F991F880FBA
:101F8000991F880F991FE80FF91FED5AFE4F8081A6
:101F90000E94D217809115018F5F809315012091C7
:101FA00015018091DF01332727FD309590E0281738
:101FB00039070CF0D8C140918400509185002091E0
:101FC0001501332727FD309583E591E0F901EE0FE8
:101FD000FF1F220F331F220F331F220F331FE20F69
:101FE000F31FE80FF91F21813281240F351F309331
:101FF00089002093880020911501332727FD309513
:10200000A901440F551F220F331F220F331F220F28
:10201000331F240F351F820F931FFC0181858130F0
:1020200009F0BCC1209115018091DF01332727FD04
:10203000309590E0281739070CF0B0C18091150158
:10204000992787FD9095C3E5D1E0FC01EE0FFF1FB6
:10205000880F991F880F991F880F991FE80FF91F84
:10206000EC0FFD1F80810E94C817809115019927F0
:1020700087FD90959C01220F331F880F991F880FB1
:10208000991F880F991F820F931FC80FD91F88852A
:10209000813009F083C120911501332727FD309548
:1020A00083E591E0F901EE0FFF1F220F331F220F8E
:1020B000331F220F331FE20FF31FE80FF91F418177
:1020C000528120911501332727FD3095B901660F04
:1020D000771F220F331F220F331F220F331F260FAC
:1020E000371F820F931FFC01838194814817590782
:1020F00008F09CC020911501332727FD309583E51A
:1021000091E0F901EE0FFF1F220F331F220F331F43
:10211000220F331FE20FF31FE80FF91F4181528195
:1021200020911501332727FD3095D901AA0FBB1F38
:10213000220F331F220F331F220F331FA20FB31F93
:10214000A80FB91F16962D913C911797240F351F94
:102150003283218320911501332727FD3095F90122
:10216000EE0FFF1F220F331F220F331F220F331FCB
:10217000E20FF31FE80FF91F4181528120911501F1
:10218000332727FD3095B901660F771F220F331FC4
:10219000220F331F220F331F260F371F820F931F6B
:1021A000FC01838194814817590708F4F7C02091F6
:1021B0001501332727FD309540911501552747FD1F
:1021C000509583E591E0FA01EE0FFF1F440F551F74
:1021D000440F551F440F551FE40FF51FE80FF91F5B
:1021E00043815481F901EE0FFF1F220F331F220F8D
:1021F000331F220F331FE20FF31FE80FF91F528323
:10220000418320911501332727FD3095A901440F03
:10221000551F220F331F220F331F220F331F240F8E
:10222000351F820F931FFC011086B8C02091150145
:10223000332727FD309583E591E0F901EE0FFF1F6D
:10224000220F331F220F331F220F331FE20FF31F02
:10225000E80FF91F6181728120911501332727FD55
:102260003095D901AA0FBB1F220F331F220F331F36
:10227000220F331FA20FB31FA80FB91F16964D913F
:102280005C9117979B01241B350B3283218320918E
:102290001501332727FD3095F901EE0FFF1F220F9F
:1022A000331F220F331F220F331FE20FF31FE80FDC
:1022B000F91F4181528120911501332727FD309567
:1022C000B901660F771F220F331F220F331F220F12
:1022D000331F260F371F820F931FFC0183819481C8
:1022E0008417950708F45AC020911501332727FD5C
:1022F000309540911501552747FD509583E591E0B4
:10230000FA01EE0FFF1F440F551F440F551F440FD6
:10231000551FE40FF51FE80FF91F43815481F901A0
:10232000EE0FFF1F220F331F220F331F220F331F09
:10233000E20FF31FE80FF91F52834183209115012B
:10234000332727FD3095A901440F551F220F331F56
:10235000220F331F220F331F240F351F820F931FAD
:10236000FC0110861BC08091840090918500FEE4E2
:1023700087329F0738F480E29EE49093890080932F
:10238000880009C080918400909185000796909301
:102390008900809388008FEF80931501FF91EF9162
:1023A000DF91CF91BF91AF919F918F917F916F916D
:1023B0005F914F913F912F910F900BBE0F900FBEE9
:1023C0000F901F901895E82FF0E0EE0FFF1FEE0F13
:1023D000FF1FEE0FFF1FE457FD4F81E080837283E4
:1023E0006183148213824583378326830895E82FFF
:1023F000F0E0EE0FFF1FEE0FFF1FEE0FFF1FE45781
:10240000FD4F10820895E82FF0E0EE0FFF1FEE0F52
:10241000FF1FEE0FFF1FE457FD4F10821282118243
:102420001482138282E08583178216820895E82F32
:10243000F0E0EE0FFF1FEE0FFF1FEE0FFF1FE45740
:10244000FD4F148213820895E82FF0E0EE0FFF1F76
:10245000EE0FFF1FEE0FFF1FE457FD4F1482138294
:10246000728361830895AF92BF92CF92DF92EF9211
:10247000FF920F931F93CF93DF937B018C01EA01AF
:1024800020E83EE340E050E00E94491C6150784162
:102490008C4F9F4F20E038EE43E050E00E94881CB4
:1024A0002F3F310531F028F085E0888380E094E00B
:1024B0001CC02038310528F084E0888380E091E05A
:1024C00014C02830310528F083E0888380E490E050
:1024D0000CC02230310528F082E0888388E090E04B
:1024E00004C081E0888381E090E05C01AA0CBB1C01
:1024F000CC24DD2460E472E48FE090E0A801970131
:102500000E94881CC601B5010E94491C9B01AC01B8
:1025100060E074E284EF90E00E94881C220F331F79
:10252000441F551F822F932FDF91CF911F910F9141
:10253000FF90EF90DF90CF90BF90AF900895DF9322
:10254000CF930F92CDB7DEB768EE73E080E090E0F6
:10255000AE014F5F5F4F0E9433120E94B019898114
:102560000E94A61982E00E94831982E00E94C71986
:1025700082E00E94B8190F90CF91DF9108950E94D8
:102580009F1208951F920F920FB60F920BB60F92E3
:1025900011242F933F934F935F936F937F938F9368
:1025A0009F93AF93BF93EF93FF938091E0018F5F71
:1025B0008093E0018091E0018436A1F51092E00162
:1025C00081E090E00E94F50A8091E1018F5F8093A5
:1025D000E1018091E1018A3059F41092E10180918A
:1025E000E2018F5F8093E20182E090E00E94F50AB1
:1025F0008091E201853059F41092E2018091E3016B
:102600008F5F8093E30183E090E00E94F50A809160
:10261000E301823091F41092E30184E090E00E94A3
:10262000F50A0BC08091E0016AE00E94681C9923C2
:1026300021F480E090E00E94F50AFF91EF91BF91B4
:10264000AF919F918F917F916F915F914F913F914A
:102650002F910F900BBE0F900FBE0F901F901895EB
:1026600080E190E09093C5008093C400E1ECF0E03D
:1026700020812061208320812860208320812068A0
:102680002083E2ECF0E0208122602083208124601E
:1026900020839093CD008093CC00E9ECF0E0808122
:1026A000806180838081886080838081806880836E
:1026B000EAECF0E0808182608083808184608083A6
:1026C0000895CF93DF932091E401222391F0A0E0BD
:1026D00044E553E02A2F30E0FC01E20FF31F240F02
:1026E000351FE90128812083AF5F2091E401A21703
:1026F00088F3FB012083DF91CF910895CF93DF937F
:10270000662379F0A82FB92F90E0E0ECF0E0C6EC5A
:10271000D0E0808185FFFDCF8D9188839F5F9617E4
:10272000C0F3DF91CF910895CF93DF932091E7011C
:10273000222391F0A0E040EF52E02A2F30E0FC018C
:10274000E20FF31F240F351FE90128812083AF5FBB
:102750002091E701A21788F3FB012083DF91CF913D
:102760000895CF93DF93662379F0A82FB92F90E0D7
:10277000E8ECF0E0CEECD0E0808185FFFDCF8D91DC
:1027800088839F5F9617C0F3DF91CF9108951F92C2
:102790000F920FB60F920BB60F9211242F933F9307
:1027A0004F935F936F937F938F939F93AF93BF9359
:1027B000EF93FF932091C6008091E601882359F49E
:1027C0002A32D9F58AE28093B80381E08093E5014B
:1027D0008093E60132C05091E50188EB93E0FC0163
:1027E000E50FF11D2083452F4F5F4093E501242F16
:1027F00030E0820F931FFC01319780818332E9F42E
:102800002A543C4FF90180818332B9F4442369F0A2
:10281000E8EBF3E0A4E5B3E0CF010196850F911D4D
:1028200021912D93E817F907D9F74093E40110920D
:10283000E60186E090E00E94F50AFF91EF91BF91DA
:10284000AF919F918F917F916F915F914F913F9148
:102850002F910F900BBE0F900FBE0F901F901895E9
:102860001F920F920FB60F920BB60F9211242F9357
:102870003F934F935F936F937F938F939F93AF9308
:10288000BF93EF93FF932091CE008091E9018823BD
:1028900059F42A32D9F58AE280938C0281E0809340
:1028A000E8018093E90132C05091E8018CE892E0A0
:1028B000FC01E50FF11D2083452F4F5F4093E80198
:1028C000242F30E0820F931FFC01319780818332E7
:1028D000E9F426573D4FF90180818332B9F444234E
:1028E00069F0ECE8F2E0A0EFB2E0CF010196850FCD
:1028F000911D21912D93E817F907D9F74093E7012E
:102900001092E90185E090E00E94F50AFF91EF91B5
:10291000BF91AF919F918F917F916F915F914F91F7
:102920003F912F910F900BBE0F900FBE0F901F90F5
:1029300018950E94BF120E94CB0A0E94D20B0E94DF
:1029400030130E94430C0E949F090E9440090E947C
:10295000A5000E940B0B0E94DF0A9093EB0180936D
:10296000EA018091EA019091EB010097F1F08091EA
:10297000EA019091EB010E94A0098091EA019091F7
:10298000EB010E94AE008091EA019091EB010E9460
:1029900059098091EA019091EB0162E00E94E40AFA
:1029A000882319F081E00E94130C8091EA01909134
:1029B000EB010E94D00A80E00E94130CCCCFECE720
:1029C000F0E09081807C9F73982B908381E0089544
:1029D000ECE7F0E080818062808381E0089580915F
:1029E0007C0081700895ECE7F0E080818F7D80832A
:1029F00081E00895ECE7F0E090818F71907E982B54
:102A0000908381E0089580917C008F710895EAE7BA
:102A1000F0E080818068808381E00895EAE7F0E05B
:102A200080818F77808381E00895EAE7F0E08081FC
:102A30008064808381E00895EAE7F0E0808180622D
:102A4000808381E00895EAE7F0E080818F7D8083D4
:102A500081E00895EAE7F0E080818F7A80618083E9
:102A600081E00895EAE7F0E080818860808381E07A
:102A70000895EAE7F0E08081877F808381E0089510
:102A8000EAE7F0E090818770987F982B908381E04F
:102A90000895EBE7F0E090818770987F982B908302
:102AA00081E008950E94EF14813019F4809179003B
:102AB00008958091780008952091780030917900F0
:102AC000822F932F0895882321F085B7826085BFD8
:102AD00003C085B78D7F85BF81E00895882321F0ED
:102AE00085B7816085BF03C085B78E7F85BF81E0D4
:102AF0000895E9E6F0E09081892B808381E00895D4
:102B0000E9E6F0E09081892B808381E00895E9E691
:102B1000F0E09081892B808381E00895882311F073
:102B2000E89A01C0E89881E00895882311F0E99AB5
:102B300001C0E99881E00895882311F0EA9A01C064
:102B4000EA9881E00895882311F0E09A01C0E098A6
:102B500081E00895882311F0E19A01C0E19881E0B5
:102B60000895882311F0E29A01C0E29881E0089567
:102B7000882331F0E8E6F0E080818160808305C041
:102B8000E8E6F0E080818E7F808381E008958823ED
:102B900031F0E8E6F0E080818260808305C0E8E6FD
:102BA000F0E080818D7F808381E00895882331F07B
:102BB000E8E6F0E080818460808305C0E8E6F0E02C
:102BC00080818B7F808381E00895882331F0E8E65F
:102BD000F0E080818860808305C0E8E6F0E08081D5
:102BE000877F808381E00895882311F0D89A01C0FF
:102BF000D89881E00895882311F0D99A01C0D99816
:102C000081E00895882311F0DA9A01C0DA9881E012
:102C10000895882311F0DB9A01C0DB9881E00895C4
:102C2000E3E7F0E09081892B808381E00895EDE671
:102C3000F0E09081892B808381E00895ECE6F0E05C
:102C40009081892B808381E00895EBE6F0E090810C
:102C5000892B808381E00895982F96959695969577
:102C60008770992369F442B121E030E0B90102C0D4
:102C7000660F771F8A95E2F7CB01842782B92CC0B3
:102C8000913069F445B121E030E0B90102C0660F2E
:102C9000771F8A95E2F7CB01842785B91DC0923052
:102CA00069F448B121E030E0B90102C0660F771F36
:102CB0008A95E2F7CB01842788B90EC0933061F47E
:102CC0004BB121E030E0B90102C0660F771F8A9551
:102CD000E2F7CB0184278BB981E00895882321F0A6
:102CE00085B7806185BF03C085B78F7E85BF81E0D2
:102CF0000895662369F042B121E030E0B90102C0D5
:102D0000660F771F8A95E2F7CB01842B82B90DC03D
:102D100042B121E030E0B90102C0660F771F8A9509
:102D2000E2F7CB018095842382B981E0089582B1D6
:102D30000895662369F041B121E030E0B90102C095
:102D4000660F771F8A95E2F7CB01842B81B90DC0FE
:102D500041B121E030E0B90102C0660F771F8A95CA
:102D6000E2F7CB018095842381B981E00895662341
:102D700069F040B121E030E0B90102C0660F771F71
:102D80008A95E2F7CB01842B80B90DC040B121E0D8
:102D900030E0B90102C0660F771F8A95E2F7CB01D8
:102DA0008095842380B981E00895662369F045B158
:102DB00021E030E0B90102C0660F771F8A95E2F783
:102DC000CB01842B85B90DC045B121E030E0B901BC
:102DD00002C0660F771F8A95E2F7CB0180958423A6
:102DE00085B981E0089585B10895662369F044B1FD
:102DF00021E030E0B90102C0660F771F8A95E2F743
:102E0000CB01842B84B90DC044B121E030E0B9017D
:102E100002C0660F771F8A95E2F7CB018095842365
:102E200084B981E00895662369F043B121E030E080
:102E3000B90102C0660F771F8A95E2F7CB01842B98
:102E400083B90DC043B121E030E0B90102C0660F83
:102E5000771F8A95E2F7CB018095842383B981E0BF
:102E60000895662369F048B121E030E0B90102C05D
:102E7000660F771F8A95E2F7CB01842B88B90DC0C6
:102E800048B121E030E0B90102C0660F771F8A9592
:102E9000E2F7CB018095842388B981E0089588B159
:102EA0000895662369F047B121E030E0B90102C01E
:102EB000660F771F8A95E2F7CB01842B87B90DC087
:102EC00047B121E030E0B90102C0660F771F8A9553
:102ED000E2F7CB018095842387B981E008956623CA
:102EE00069F046B121E030E0B90102C0660F771FFA
:102EF0008A95E2F7CB01842B86B90DC046B121E05B
:102F000030E0B90102C0660F771F8A95E2F7CB0166
:102F10008095842386B981E00895662369F04BB1DA
:102F200021E030E0B90102C0660F771F8A95E2F711
:102F3000CB01842B8BB90DC04BB121E030E0B9013E
:102F400002C0660F771F8A95E2F7CB018095842334
:102F50008BB981E00895882329F4862F642F0E947D
:102F6000791614C0813029F4862F642F0E94D5165B
:102F70000DC0823029F4862F642F0E94311706C0BD
:102F8000833021F4862F642F0E948D1781E00895ED
:102F9000682F677086958695869541E00E94AB17ED
:102FA00081E00895682F677086958695869540E044
:102FB0000E94AB1781E008958BB10895662369F0F4
:102FC0004AB121E030E0B90102C0660F771F8A954F
:102FD000E2F7CB01842B8AB90DC04AB121E030E081
:102FE000B90102C0660F771F8A95E2F7CB01809581
:102FF00084238AB981E00895882329F4862F642FD9
:103000000E94991614C0813029F4862F642F0E94E3
:10301000F5160DC0823029F4862F642F0E945117B7
:1030200006C0833021F4862F642F0E94DE1781E0D2
:103030000895FF920F931F93F62E082F069506957D
:103040000695182F1770802F612F40E00E94FC1703
:103050008F2D813031F4802F612F41E00E94AB171A
:1030600005C0802F612F40E00E94AB1781E01F91C7
:103070000F91FF900895682F6770869586958695C5
:1030800041E00E94FC1781E00895662369F049B190
:1030900021E030E0B90102C0660F771F8A95E2F7A0
:1030A000CB01842B89B90DC049B121E030E0B901D1
:1030B00002C0660F771F8A95E2F7CB0180958423C3
:1030C00089B981E00895882329F4862F642F0E940E
:1030D000B71614C0813029F4862F642F0E9413176D
:1030E0000DC0823029F4862F642F0E946F1706C00E
:1030F000833021F4862F642F0E94451881E00895C3
:1031000093B7892B83BF81E00895882321F083B78B
:10311000816083BF03C083B78E7F83BF81E0089542
:10312000882321F085B7806485BF03C085B78F7B76
:1031300085BF81E00895882321F085B7806285BF2F
:1031400003C085B78F7D85BF81E00895882331F066
:10315000E4E6F0E080818068808305C0E4E6F0E08A
:1031600080818F77808381E00895882331F0E4E6C1
:10317000F0E080818064808305C0E4E6F0E0808137
:103180008F7B808381E00895882331F0E4E6F0E0CE
:1031900080818062808305C0E4E6F0E080818F7DDD
:1031A000808381E00895882331F0E4E6F0E08081B7
:1031B0008061808305C0E4E6F0E080818F7E8083BB
:1031C00081E00895882331F0E4E6F0E080818860B2
:1031D000808305C0E4E6F0E08081877F808381E022
:1031E0000895882331F0E4E6F0E0808184608083F4
:1031F00005C0E4E6F0E080818B7F808381E0089564
:10320000882331F0E4E6F0E080818260808305C0AD
:10321000E4E6F0E080818D7F808381E0089588235B
:1032200031F0E4E6F0E080818160808305C0E4E66F
:10323000F0E080818E7F808381E008958093660036
:1032400081E00895882331F0E1E6F0E08081806834
:10325000808305C0E1E6F0E080818F77808381E0A4
:103260000895E1E6F0E090818F70982B908381E0E3
:10327000089584B780E0089584B780E0089584B706
:1032800080E0089584B780E0089584B780E00895D1
:103290008091600080E00895882331F0E0E6F0E05E
:1032A00080818064808305C0E0E6F0E080818F7BD0
:1032B000808381E008958091600080E008958823F4
:1032C00031F0E0E6F0E080818860808305C0E0E6D0
:1032D000F0E08081877F808381E00895E0E6F0E080
:1032E0009081892B808381E0089594B5807C9F73C1
:1032F000982B94BD81E0089595B580739F7C982BA1
:1033000095BD81E0089580FF04C094B5916094BD9F
:1033100003C094B59E7F94BD81FF04C094B59260B4
:1033200094BD03C094B59D7F94BD83FF04C085B553
:10333000886085BD03C085B5877F85BD81E0089520
:1033400095B5807C982B95BD81E0089595B58770E3
:10335000987F982B95BD089586BD089586B50895EC
:1033600087BD089587B5089588BD089588B50895E7
:10337000EEE6F0E090818770982B90830895EEE65A
:10338000F0E0908187708095982390830895EEE611
:10339000F0E09081877080959823908308958093C2
:1033A000C60081E008958093CE0081E00895809169
:1033B000C60008958091CE0008958091C00080726B
:1033C00008958091C800807208958091C0008C712A
:1033D00008958091C8008C710895882329F4E0EC49
:1033E000F0E0808180830895E0ECF0E09081892B0B
:1033F00080830895882329F4E8ECF0E080818083BD
:103400000895E8ECF0E09081892B80830895809105
:10341000C000827008958091C80082700895E0EC29
:10342000F0E080818160808381E00895E8ECF0E045
:1034300080818160808381E008958091C0008170E7
:1034400008958091C800817008958091C0008078AF
:1034500008958091C80080780895E0ECF0E08081C4
:103460008064808381E00895E8ECF0E080818064EE
:10347000808381E008958091C000807408958091D8
:10348000C800807408958091C00080720895809172
:10349000C80080720895E1ECF0E08081886080834C
:1034A00081E00895E9ECF0E080818860808381E02C
:1034B0000895E1ECF0E08081877F808381E00895CA
:1034C000E9ECF0E08081877F808381E00895E1EC82
:1034D000F0E080818061808381E00895E9ECF0E094
:1034E00080818061808381E00895E1ECF0E080815B
:1034F0008F7E808381E00895E9ECF0E080818F7E0B
:10350000808381E00895E1ECF0E09081282F247021
:103510009B7F922B9083E2ECF0E09081880F867085
:10352000997F892B808381E00895E9ECF0E0908118
:10353000282F24709B7F922B9083EAECF0E09081FF
:10354000880F8670997F892B808381E00895E2EC53
:10355000F0E0908180739F7C982B908381E00895A8
:10356000EAECF0E0908180739F7C982B908381E05F
:103570000895E2ECF0E090818870977F982B90831B
:1035800081E00895EAECF0E090818870977F982BB5
:10359000908381E00895E1ECF0E080818068808391
:1035A00081E00895E9ECF0E080818068808381E02B
:1035B0000895E1ECF0E080818F77808381E00895C9
:1035C000E9ECF0E080818F77808381E00895E1EC81
:1035D000F0E080818064808381E00895E9ECF0E090
:1035E00080818064808381E00895E1ECF0E0808157
:1035F0008F7B808381E00895E9ECF0E080818F7B10
:10360000808381E00895E1ECF0E080818062808336
:1036100081E00895E9ECF0E080818062808381E0C0
:103620000895E1ECF0E080818F7D808381E0089552
:10363000E9ECF0E080818F7D808381E00895E2EC09
:10364000F0E0908181709E7F982B908381E00895B7
:10365000EAECF0E0908181709E7F982B908381E06E
:103660000895EF92FF920F931F937B018C010E94AC
:103670001D1A882321F50E94071A882311F5EE0CE4
:10368000FF1C001F111FEE0CFF1C001F111FA801C3
:103690009701220F331F441F551F220F331F441F52
:1036A000551F60E074E284EF90E00E94881C215076
:1036B00030403093C5002093C40081E003C080E017
:1036C00001C080E01F910F91FF90EF900895EF925D
:1036D000FF920F931F937B018C010E94211A882374
:1036E00021F50E940B1A882311F5EE0CFF1C001F18
:1036F000111FEE0CFF1C001F111FA8019701220FC4
:10370000331F441F551F220F331F441F551F60E0F6
:1037100074E284EF90E00E94881C21503040309386
:10372000CD002093CC0081E003C080E001C080E0A8
:103730001F910F91FF90EF900895EF92FF920F93DA
:103740001F937B018C010E941D1A882301F50E94A2
:10375000071A8230F1F4EE0CFF1C001F111FEE0C53
:10376000FF1C001F111FA8019701220F331F441FC8
:10377000551F60E074E284EF90E00E94881C2150A5
:1037800030403093C5002093C40081E003C080E046
:1037900001C080E01F910F91FF90EF900895EF928C
:1037A000FF920F931F937B018C010E94211A8823A3
:1037B00001F50E940B1A8230F1F4EE0CFF1C001F81
:1037C000111FEE0CFF1C001F111FA8019701220FF3
:1037D000331F441F551F60E074E284EF90E00E94A5
:1037E000881C215030403093CD002093CC0081E0E4
:1037F00003C080E001C080E01F910F91FF90EF9027
:103800000895EF92FF920F931F937B018C010E940A
:103810001D1A8130A1F4A8019701220F331F441F04
:10382000551F60E074E284EF90E00E94881C2150F4
:1038300030403093C5002093C40081E001C080E097
:103840001F910F91FF90EF900895EF92FF920F93C9
:103850001F937B018C010E94211A8130A1F4A801E1
:103860009701220F331F441F551F60E074E284EF5D
:1038700090E00E94881C215030403093CD0020936E
:10388000CC0081E001C080E01F910F91FF90EF908C
:103890000895629FD001739FF001829FE00DF11D9A
:1038A000649FE00DF11D929FF00D839FF00D749FBA
:1038B000F00D659FF00D9927729FB00DE11DF91F66
:1038C000639FB00DE11DF91FBD01CF0111240895C3
:1038D000991B79E004C0991F961708F0961B881F62
:1038E0007A95C9F780950895AA1BBB1B51E107C0C3
:1038F000AA1FBB1FA617B70710F0A61BB70B881F80
:10390000991F5A95A9F780959095BC01CD0108950E
:10391000A1E21A2EAA1BBB1BFD010DC0AA1FBB1FD3
:10392000EE1FFF1FA217B307E407F50720F0A21B45
:10393000B30BE40BF50B661F771F881F991F1A94B2
:1039400069F760957095809590959B01AC01BD01DC
:08395000CF010895F894FFCFA8
:1039580007531717175353538F8F8F532A0000237A
:063968002307061011FF09
:00000001FF
