:100000000C9446000C9465000C9465000C946500FB
:100010000C9465000C9465000C9465000C946500CC
:100020000C9465000C9465000C9465000C946500BC
:100030000C9465000C9465000C9465000C946500AC
:100040000C94EF130C9465000C9465000C946500FF
:100050000C9432160C9465000C9465000C946500A9
:100060000C9465000C9465000C9465000C9465007C
:100070000C942F040C9465000C9465000C9465009E
:100080000C9465000C9465000C94650011241FBE4F
:10009000C0E0D0E4DEBFCDBF11E0A0E0B1E0EAE314
:1000A000F8E500E00BBF02C007900D92A232B10745
:1000B000D9F717E1A2E2B1E001C01D92A534B10762
:1000C000E1F70E942D2A0C941B2C0C940000DF9366
:1000D000CF93CDB7DEB7109225141092241410924E
:1000E0002714109226141092211410921A141092B0
:1000F0001B1410921C1410921D1410921E141092B6
:100100001F14109220141092231410922214109293
:10011000F41381E00E94AC008091F313482F50E06B
:1001200024E639E0429FC001439F900D529F900DFD
:100130001124855D9E4F0E94B9000E94A200CF91BC
:10014000DF910895DF93CF93CDB7DEB781E0809341
:100150002614CF91DF910895DF93CF930F92CDB7FF
:10016000DEB789838981809324140F90CF91DF912A
:100170000895DF93CF9300D0CDB7DEB79A838983FC
:1001800089819A8190931914809318140F900F907D
:10019000CF91DF910895DF93CF9300D0CDB7DEB735
:1001A0009A83898380912414813009F0BBC08981AE
:1001B0009A8161E00E949009882309F44EC08091E1
:1001C0002514813009F049C080912014813009F054
:1001D0003EC0109220148091F313882321F481E013
:1001E0008093F31305C01092F31381E08093F4130E
:1001F0008091F313482F50E024E639E0429FC0017C
:10020000439F900D529F900D1124855D9E4F0E943B
:10021000B9008091F413813031F40E94970181304C
:1002200011F40E9449038091181490911914FC0153
:10023000138212828091181490911914FC0111827A
:10024000108210921D1410921E1410921F1480918F
:100250002614813011F40E94BF0389819A8162E0E3
:100260000E949009882309F450C0809125148823A6
:1002700041F580912714833020F181E0809325148B
:10028000109227141092211410921A1410921B1419
:1002900010921C1410921D1410921E1410921F1410
:1002A0001092201410922314109222141092F4131E
:1002B00088E090E00E94381B88E090E00E945D1B7F
:1002C00024C0809125148130D9F480911D14882395
:1002D00089F480911E14813069F480912114823058
:1002E00048F088E090E00E94821B0E946700109214
:1002F00027140BC0809121148F5F8093211405C0B7
:10030000809127148F5F8093271489819A8168E0F8
:100310000E949009882331F080E00E943B0581E033
:10032000809320140F900F90CF91DF910895DF9369
:10033000CF93CDB7DEB727970FB6F894DEBF0FBEC9
:10034000CDBF1A8219821B821C821E821D821F82CF
:100350001A82198288C189819A81815D9E4FFC0130
:10036000808182958F708093F91389819A818D564F
:10037000954FFC01808182958F708093FA138C8158
:10038000883061F41C828D819E8101969E838D83CD
:100390008D819E81885D9B4EFC0110829091F913A6
:1003A0008091FA13891708F04FC08091F913282F14
:1003B00030E08091FA13882F90E0A901481B590B77
:1003C000CA018430910508F18D819E81885D9B4E24
:1003D000FC018081482F8C81882F90E027E030E05D
:1003E000281B390B81E090E002C0880F991F2A95E5
:1003F000E2F7842B282F8D819E81885D9B4EFC0126
:1004000020838B818F5F8B836DC08D819E81885D02
:100410009B4EFC018081482F8C81882F90E027E043
:1004200030E0281B390B81E090E002C0880F991F53
:100430002A95E2F780958423282F8D819E81885DFF
:100440009B4EFC0120834EC08091FA13282F30E090
:100450008091F913882F90E0A901481B590BCA011C
:100460008430910508F18D819E81885D9B4EFC0151
:100470008081482F8C81882F90E027E030E0281B76
:10048000390B81E090E002C0880F991F2A95E2F7AE
:10049000842B282F8D819E81885D9B4EFC012083BB
:1004A0008B818F5F8B831EC08D819E81885D9B4E6B
:1004B000FC018081482F8C81882F90E027E030E07C
:1004C000281B390B81E090E002C0880F991F2A9504
:1004D000E2F780958423282F8D819E81885D9B4E35
:1004E000FC0120838C818F5F8C8389819A81815D5F
:1004F0009E4FFC0180818F708093F91389819A81CE
:100500008D56954FFC0180818F708093FA139091E6
:10051000F9138091FA13891708F04FC08091F913ED
:10052000282F30E08091FA13882F90E0A901481B12
:10053000590BCA018430910508F18D819E81885D37
:100540009B4EFC018081482F8C81882F90E027E012
:1005500030E0281B390B81E090E002C0880F991F22
:100560002A95E2F7842B282F8D819E81885D9B4EF2
:10057000FC0120838B818F5F8B836DC08D819E8179
:10058000885D9B4EFC018081482F8C81882F90E0F4
:1005900027E030E0281B390B81E090E002C0880F93
:1005A000991F2A95E2F780958423282F8D819E81BB
:1005B000885D9B4EFC0120834EC08091FA13282F4A
:1005C00030E08091F913882F90E0A901481B590B66
:1005D000CA018430910508F18D819E81885D9B4E12
:1005E000FC018081482F8C81882F90E027E030E04B
:1005F000281B390B81E090E002C0880F991F2A95D3
:10060000E2F7842B282F8D819E81885D9B4EFC0113
:1006100020838B818F5F8B831EC08D819E81885D3F
:100620009B4EFC018081482F8C81882F90E027E031
:1006300030E0281B390B81E090E002C0880F991F41
:100640002A95E2F780958423282F8D819E81885DED
:100650009B4EFC0120838C818F5F8C8389819A81E2
:1006600001969A83898389819A81F9E080369F0770
:1006700008F471CE8B81863010F081E08F838F81FA
:1006800027960FB6F894DEBF0FBECDBFCF91DF9196
:100690000895DF93CF93CDB7DEB76B970FB6F8947D
:1006A000DEBF0FBECDBF1092F6131092F51355C0EA
:1006B0008AE289831A8281E08B838091F51390917D
:1006C000F613892F99278C838091F5139091F61357
:1006D0008D831092F8131092F71323C08091F713B3
:1006E0009091F81305964091F5135091F6132091CF
:1006F000F7133091F813240F351F285D3B4EF90195
:1007000040819E012F5F3F4F820F931FFC0140836A
:100710008091F7139091F81301969093F8138093BA
:10072000F7138091F7139091F81384319105B0F28B
:1007300083E28A8F83E28B8F80E09E012F5F3F4FA1
:10074000B9014BE10E9441158091F5139091F61388
:1007500044969093F6138093F5138091F51390913E
:10076000F613F2E088359F0708F4A2CF6B960FB618
:10077000F894DEBF0FBECDBFCF91DF910895DF9318
:10078000CF93CDB7DEB7809123148C3378F480916A
:100790001A14882359F480911B14813021F488E0C5
:1007A00090E00E945D1B0E944F0556C0809123146B
:1007B0008C3320F1109225141092241410922714D7
:1007C000109226141092211410921A1410921B14D5
:1007D00010921C1410921D1410921E1410921F14CB
:1007E0001092201410922314109222141092F413D9
:1007F00081E00E94AC000E94A2002EC080911A14D9
:10080000813051F480912714853030F48091271481
:100810008F5F8093271420C080911A14813049F48F
:1008200080911C14882329F4109227140E946405D7
:1008300013C080911C14813079F480911D14882399
:1008400059F480911E14882339F40E947405109283
:10085000211481E080931E14CF91DF9108951F929F
:100860000F920FB60F9200905B000F9211242F93FE
:100870003F934F935F936F937F938F939F93AF9328
:10088000BF93EF93FF93DF93CF930F92CDB7DEB774
:100890008EEC90E0FC018081898380911F1481306F
:1008A00071F5409118145091191480911814909179
:1008B0001914FC0120813181420F531F4C5F5F4F9F
:1008C0006981FA0160832F5F3F4FFC0131832083F0
:1008D0008091181490911914FC012081318180912C
:1008E000181490911914FC018281938128173907FB
:1008F00009F09CC088E090E00E94AB0997C080910D
:100900002201813009F07DC0809123019091240162
:100910009C012B5D3E4F4981F901408301969093E4
:10092000240180932301809123019091240186303A
:10093000910509F076C010922201809126018F3036
:1009400041F488E090E00E94821B81E080931B14B8
:100950006DC010921B1410922401109223018091FB
:1009600026018E3049F4809127018D3029F4809141
:100970002801809322145AC0809126018D3051F4B1
:10098000809122140E943B051092221481E08093F2
:100990001A144CC0809126018E3041F480912701B9
:1009A000813021F481E080931C1440C080912601A5
:1009B0008E3041F480912701843021F481E08093CE
:1009C0001D1434C0809126018A3069F58091270179
:1009D000823059F5809118149091191420912901B1
:1009E000222F30E0522F442720912801222F30E07F
:1009F000242B352BFC013383228381E080931F1449
:100A000015C089818A3A91F481E0809322018AEAB3
:100A10008093250181E090E090932401809323014D
:100A200005C0000003C0000001C000000F90CF917E
:100A3000DF91FF91EF91BF91AF919F918F917F9146
:100A40006F915F914F913F912F910F9000925B00BA
:100A50000F900FBE0F901F901895DF93CF93CDB7D7
:100A6000DEB728E131E081E0B90146E00E9441159E
:100A7000CF91DF910895DF93CF930F92CDB7DEB77B
:100A8000898389818093020120E031E081E0B9010E
:100A900046E00E9441150F90CF91DF910895DF93BA
:100AA000CF93CDB7DEB710921A1426E031E081E083
:100AB000B90146E00E944115809123148F5F809315
:100AC0002314CF91DF910895DF93CF93CDB7DEB795
:100AD00010921C142CE031E081E0B90146E00E9444
:100AE0004115CF91DF910895DF93CF93CDB7DEB756
:100AF00010921D1422E131E081E0B90146E00E942C
:100B00004115CF91DF910895DF93CF93CDB7DEB735
:100B10000E94A10BCF91DF910895DF93CF9300D076
:100B20000F92CDB7DEB789837B836A838981813059
:100B300061F48A819B81009721F480E00E94F20C8D
:100B400012C080E00E94460D0EC08981823059F4A7
:100B50008A819B81009721F481E00E94F20C03C0FE
:100B600081E00E94460D0F900F900F90CF91DF9182
:100B70000895DF93CF930F92CDB7DEB78983898134
:100B8000813021F480E00E949A0D06C08981823074
:100B900019F481E00E949A0D0F90CF91DF91089592
:100BA000DF93CF930F92CDB7DEB7898380E0698161
:100BB00045E050E02AE030E00E94BC0D0F90CF915C
:100BC000DF910895DF93CF930F92CDB7DEB789837E
:100BD00081E0698145E050E02AE030E00E94BC0DF0
:100BE0000F90CF91DF910895DF93CF930F92CDB700
:100BF000DEB7898380E0698145E050E02AE030E09B
:100C00000E94BC0D81E0698145E050E02AE030E0BF
:100C10000E94BC0D0F90CF91DF910895DF93CF9389
:100C200000D0CDB7DEB789836A838A818695882F05
:100C300090E0AC014F5F5F4F8A818695882F90E0EE
:100C40009C012F5F3F4F80E069810E94870E8A815F
:100C50008695882F90E0AC014F5F5F4F8A81869523
:100C6000882F90E09C012F5F3F4F81E069810E94B7
:100C7000870E0F900F90CF91DF910895DF93CF9360
:100C8000CDB7DEB710920414109203141092FC1327
:100C90001092FB131092FE131092FD131092001489
:100CA0001092FF131092021410920114CF91DF9151
:100CB0000895DF93CF9300D0CDB7DEB79A838983B1
:100CC00089819A8161E00E949009882309F456C0C5
:100CD00082E090E00E9431099C018091FB13909189
:100CE000FC13820F931F9093FC138093FB1383E0FC
:100CF00090E00E9431099C018091FD139091FE13B8
:100D0000820F931F9093FE138093FD138091031421
:100D1000909104140196909304148093031480918D
:100D20000314909104148830910541F51092041435
:100D3000109203148091FB139091FC139695879564
:100D40009695879596958795909300148093FF13B9
:100D50008091FD139091FE139695879596958795B2
:100D60009695879590930214809301141092FC132A
:100D70001092FB131092FE131092FD130F900F9020
:100D8000CF91DF910895DF93CF93CDB7DEB7299749
:100D90000FB6F894DEBF0FBECDBF8AE289831A82F8
:100DA00082E08B838091FF1390910014892F992703
:100DB0008C838091FF13909100148D838091011496
:100DC00090910214892F99278E838091011490911C
:100DD00002148F8383E2888783E2898780E09E0103
:100DE0002F5F3F4FB90149E00E94411529960FB688
:100DF000F894DEBF0FBECDBFCF91DF910895DF9392
:100E0000CF93CDB7DEB7CF91DF910895DF93CF9326
:100E100000D0CDB7DEB79A83898389819A8164E057
:100E20000E949009882309F456C080E896E125E0E5
:100E300034E1B9010E94DE1580910514882309F47C
:100E40004AC0809182168330C9F580918316813023
:100E500021F481E00E94B9053EC080918316823062
:100E600021F482E00E94B90536C080918316833058
:100E700059F481E060E070E00E948D0582E060E05E
:100E800070E00E948D0527C080918316843059F44C
:100E900081E061E070E00E948D0582E061E070E039
:100EA0000E948D0518C0809183168530A1F481E0E1
:100EB0000E94B90582E00E94B9050DC0809182169A
:100EC000823019F40E94C30606C0809182168823DE
:100ED00011F40E94F5080F900F90CF91DF910895C3
:100EE000DF93CF9300D000D000D0CDB7DEB79D8385
:100EF0008C836E8381E08A8381E089834DC0898100
:100F0000882F90E02C813D81820F931FFC0180810E
:100F10009E012D5F3F4FB9010E94882B8823B1F4B9
:100F20008981882F90E02C813D81820F931FFC01E5
:100F300080818A3259F08981882F90E02C813D810F
:100F4000820F931FFC018081833221F58981882FD4
:100F500090E02C813D81820F931FFC0180818A32B9
:100F6000A9F08981882F90E02C813D81820F931F09
:100F7000FC018081833251F08981882F90E02C819F
:100F80003D81820F931F2B81FC01208389818F5F1C
:100F9000898302C080E00CC08981282F30E08E81D7
:100FA000882F90E002978217930708F0A8CF8A81D4
:100FB00026960FB6F894DEBF0FBECDBFCF91DF915E
:100FC0000895DF93CF93CDB7DEB70E94E809109262
:100FD00006141092081410920714CF91DF9108950F
:100FE000DF93CF9300D0CDB7DEB79A838983898111
:100FF0009A8161E00E949009882371F08091061423
:10100000882331F40E94E90881E08093061404C02B
:101010000E941C08109206140F900F90CF91DF9140
:101020000895DF93CF93CDB7DEB7809107149091E9
:101030000814CF91DF910895EF92FF920F931F93C1
:10104000DF93CF93CDB7DEB7A1970FB6F894DEBF8D
:101050000FBECDBF19828AC08981082F10E0898117
:10106000882F90E00196982F990F80EE692F0E94AB
:101070009A0A882F90E0982F88279C01C801880F32
:10108000991FAE014F5F5F4F840F951F0196DC01E2
:101090002D933C938981082F10E08981882F90E05F
:1010A000880F991F9E012F5F3F4F820F931F01965C
:1010B000FC01E080F1808981880F982F9D5F80EE90
:1010C000692F0E949A0A882F90E09701282B392BCC
:1010D000C801880F991FAE014F5F5F4F840F951FA6
:1010E0000196DC012D933C938981E82FF0E0898102
:1010F000882F90E0880F991F9E012F5F3F4F820F2E
:10110000931F0196DC018D919C912981222F30E063
:101110002F5F3F4FB9010E94E52B9B01CF01880F44
:10112000991FAE014F5F5F4F840F951F0196FC0121
:10113000318320838981882F90E0880F991F9E0139
:101140002F5F3F4F820F931F0196DC012D913C9141
:1011500011978091071490910814820F931F909318
:1011600008148093071489818F5F89838981803176
:1011700008F472CF8091071490910814929582958B
:101180008F7089279F708927909308148093071484
:101190008A819B818E31910578F48A819B81982F79
:1011A00085E0692F0E940E068A819B819093081426
:1011B000809307140E94F508A1960FB6F894DEBF3D
:1011C0000FBECDBFCF91DF911F910F91FF90EF9098
:1011D0000895DF93CF93CDB7DEB780EE60E041E5B1
:1011E0000E94EF09CF91DF910895DF93CF93CDB7A0
:1011F000DEB727970FB6F894DEBF0FBECDBF8AE2E9
:1012000089831A821B828091071490910814892F78
:1012100099278C8380910714909108148D8383E221
:101220008E8383E28F8380E09E012F5F3F4FB90161
:1012300047E00E94411527960FB6F894DEBF0FBE17
:10124000CDBFCF91DF910895DF93CF93CDB7DEB7B8
:1012500080E490E00E94C1160E944217CF91DF9176
:101260000895DF93CF9300D000D0CDB7DEB79C8335
:101270008B838FEF9FEF9A8389838B819C810E9460
:1012800015170E946C1700008AE790E0FC0180812E
:10129000882F90E0807490700097B1F70E943B18FF
:1012A0009A83898389819A810F900F900F900F9074
:1012B000CF91DF910895DF93CF93CDB7DEB7109232
:1012C0000A1410920914CF91DF910895DF93CF9300
:1012D00000D0CDB7DEB79A838983F8948091091442
:1012E00090910A149C012095309589819A81822BD6
:1012F000932B8095909590930A1480930914789479
:101300000F900F90CF91DF910895DF93CF93CDB7DA
:10131000DEB78091091490910A14CF91DF9108955E
:10132000DF93CF9300D00F92CDB7DEB79A83898336
:101330006B838B81282F30E089819A8182239323CC
:10134000009711F081E001C080E00F900F900F90A6
:10135000CF91DF910895DF93CF9300D00F92CDB757
:10136000DEB79B838A831982F89420910914309107
:101370000A148A819B81822B932B90930A14809369
:10138000091481E08983789489810F900F900F90E0
:10139000CF91DF910895DF93CF93CDB7DEB780E192
:1013A00090E061E070E00E94261C81E190E061E045
:1013B00070E00E94261C89EB90E021E0FC01208374
:1013C00088EB90E028E0FC012083CF91DF91089525
:1013D000DF93CF93CDB7DEB7CF91DF910895DF9341
:1013E000CF9300D00F92CDB7DEB789836A834B834A
:1013F0008CEB90E024EAFC01208316C080910B1452
:1014000090910C1421E0F3E0893E9F0708F420E05E
:10141000019690930C1480930B14222329F01092C0
:101420000C1410920B1406C08CEB90E0FC01808130
:10143000882324F78BEB90E02981FC0120838CEB3F
:1014400090E024E8FC01208316C080910B14909159
:101450000C1421E0F3E0893E9F0708F420E0019698
:1014600090930C1480930B14222329F010920C14E7
:1014700010920B1406C08CEB90E0FC018081882355
:1014800024F78BEB90E02A81FC0120838CEB90E029
:1014900024E8FC01208316C080910B1490910C1459
:1014A00021E0F3E0893E9F0708F420E00196909345
:1014B0000C1480930B14222329F010920C14109218
:1014C0000B1406C08CEB90E0FC018081882324F78C
:1014D0008BEB90E02B81FC0120838CEB90E024E8E7
:1014E000FC01208316C080910B1490910C1421E014
:1014F000F3E0893E9F0708F420E0019690930C14D6
:1015000080930B14222329F010920C1410920B14C8
:1015100006C08CEB90E0FC018081882324F78CEBE3
:1015200090E024E9FC0120830F900F900F90CF9161
:10153000DF910895DF93CF9300D00F92CDB7DEB740
:101540008A836B8310920C1410920B1419828CEB0B
:1015500090E024EAFC01208316C080910B14909146
:101560000C1421E0F3E0893E9F0708F420E0019687
:1015700090930C1480930B14222329F010920C14D6
:1015800010920B1406C08CEB90E0FC018081882344
:1015900024F78BEB90E02A81FC0120838CEB90E018
:1015A00024E8FC01208316C080910B1490910C1448
:1015B00021E0F3E0893E9F0708F420E00196909334
:1015C0000C1480930B14222329F010920C14109207
:1015D0000B1406C08CEB90E0FC018081882324F77B
:1015E0008BEB90E02B81FC0120838CEB90E024E8D6
:1015F000FC01208316C080910B1490910C1421E003
:10160000F3E0893E9F0708F420E0019690930C14C4
:1016100080930B14222329F010920C1410920B14B7
:1016200006C08CEB90E0FC018081882324F78CEBD2
:1016300090E024EAFC01208316C080910B14909165
:101640000C1421E0F3E0893E9F0708F420E00196A6
:1016500090930C1480930B14222329F010920C14F5
:1016600010920B1406C08CEB90E0FC018081882363
:1016700024F78BEB90E02A812F5FFC0120838CEB19
:1016800090E024ECFC01208316C080910B14909113
:101690000C1421E0F3E0893E9F0708F420E0019656
:1016A00090930C1480930B14222329F010920C14A5
:1016B00010920B1406C08CEB90E0FC018081882313
:1016C00024F78CEB90E024E8FC01208311C080918A
:1016D0000B1490910C1421E0F3E0893E9F0708F46D
:1016E00020E0019690930C1480930B14222339F47C
:1016F0008CEB90E0FC01808188234CF701C0000056
:101700008BEB90E0FC01808189838CEB90E024E9F5
:10171000FC01208389810F900F900F90CF91DF9172
:101720000895DF93CF93CDB7DEB7F894CF91DF91D3
:101730000895DF93CF93CDB7DEB77894CF91DF9143
:101740000895DF93CF930F92CDB7DEB72AE33FE042
:1017500080E061E070E041E050E00E94B911198240
:1017600039C18981282F30E08981882F90E0880F46
:10177000991F825E9E4FFC0140815181C901880FF3
:10178000991FBC01660F771F660F771F660F771FC3
:10179000860F971F820F931F8E54994EFC01518321
:1017A00040838981282F30E0C901880F991FAC013F
:1017B000440F551F440F551F440F551F840F951F8D
:1017C000820F931F8C54994E21E030E0FC0131834D
:1017D00020838981282F30E0C901880F991FAC012F
:1017E000440F551F440F551F440F551F840F951F5D
:1017F000820F931F8A54994E21E030E0FC0131831F
:1018000020838981282F30E0C901880F991FAC01FE
:10181000440F551F440F551F440F551F840F951F2C
:10182000820F931F8854994E21E030E0FC013183F0
:1018300020838981282F30E0C901880F991FAC01CE
:10184000440F551F440F551F440F551F840F951FFC
:10185000820F931F8654994EFC0110828981282F94
:1018600030E0C901880F991FAC01440F551F440F88
:10187000551F440F551F840F951F820F931F8554CA
:10188000994EFC01118210828981282F30E0C90114
:10189000880F991FAC01440F551F440F551F440F6B
:1018A000551F840F951F820F931F8354994EFC017F
:1018B000118210828981282F30E0C901880F991F79
:1018C000AC01440F551F440F551F440F551F840F83
:1018D000951F820F931F8154994EFC011182108233
:1018E0008981282F30E0C901880F991FAC01440F6E
:1018F000551F440F551F440F551F840F951F820F0E
:10190000931F8F53994EFC01118210828981282FD9
:1019100030E0C901880F991FAC01440F551F440FD7
:10192000551F440F551F840F951F820F931F8D5312
:10193000994EFC0110828981282F30E0C901880F5F
:10194000991FAC01440F551F440F551F440F551FDD
:10195000840F951F820F931F8C53994EFC011082A8
:101960008981282F30E0C901880F991FAC01440FED
:10197000551F440F551F440F551F840F951F820F8D
:10198000931F8E54994EFC01808191810E94381BD7
:101990008981282F30E0C901880F991FAC01440FBD
:1019A000551F440F551F440F551F840F951F820F5D
:1019B000931F8A54994EFC0180819181009721F4F4
:1019C00089810E94F20C03C089810E94460D8981A1
:1019D0008F5F89838981823008F4C3CE0F90CF91C5
:1019E000DF910895DF93CF930F92CDB7DEB7898350
:1019F0008981282F30E0C901880F991FAC01440F5D
:101A0000551F440F551F440F551F840F951F820FFC
:101A1000931F8C54994EFC018081918181309105F6
:101A2000C9F48981282F30E0C901880F991FAC01C2
:101A3000440F551F440F551F440F551F840F951F0A
:101A4000820F931F8E54994EFC01808191810E94D8
:101A5000821B18C08981282F30E0C901880F991F87
:101A6000AC01440F551F440F551F440F551F840FE1
:101A7000951F820F931F8E54994EFC018081918196
:101A80000E945D1B0F90CF91DF910895DF93CF935C
:101A90000F92CDB7DEB789838981282F30E0C90145
:101AA000880F991FAC01440F551F440F551F440F59
:101AB000551F840F951F820F931F8C54994EFC0164
:101AC0008081918181309105C9F48981282F30E08E
:101AD000C901880F991FAC01440F551F440F551FB2
:101AE000440F551F840F951F820F931F8E54994EDC
:101AF000FC01808191810E945D1B18C08981282F83
:101B000030E0C901880F991FAC01440F551F440FE5
:101B1000551F440F551F840F951F820F931F8E541E
:101B2000994EFC01808191810E94821B0F90CF9180
:101B3000DF910895DF93CF930F92CDB7DEB78983FE
:101B40008981282F30E0C901880F991FAC01440F0B
:101B5000551F440F551F440F551F840F951F820FAB
:101B6000931F8E54994EFC01808191810E94A71B86
:101B70000F90CF91DF910895DF93CF9300D000D0E5
:101B800000D0CDB7DEB789836A835C834B833E8305
:101B90002D838981282F30E0C901880F991FAC015E
:101BA000440F551F440F551F440F551F840F951F99
:101BB000820F931F8654994EFC018081813009F475
:101BC0009DC08981282F30E0C901880F991FAC0181
:101BD000440F551F440F551F440F551F840F951F69
:101BE000820F931F8554994E2B813C81FC013183D8
:101BF00020838981282F30E0C901880F991FAC010B
:101C0000440F551F440F551F440F551F840F951F38
:101C1000820F931F8354994EFC0111821082898197
:101C2000282F30E0C901880F991FAC01440F551FC0
:101C3000440F551F440F551F840F951F820F931F8C
:101C40008154994E2D813E81FC013183208389810D
:101C5000282F30E0C901880F991FAC01440F551F90
:101C6000440F551F440F551F840F951F820F931F5C
:101C70008F53994EFC01118210828981282F30E008
:101C8000C901880F991FAC01440F551F440F551F00
:101C9000440F551F840F951F820F931F8D53994E2C
:101CA0002A81FC0120838981282F30E0C901880F17
:101CB000991FAC01440F551F440F551F440F551F6A
:101CC000840F951F820F931F8C53994EFC01108235
:101CD0008981282F30E0C901880F991FAC01440F7A
:101CE000551F440F551F440F551F840F951F820F1A
:101CF000931F8654994E21E0FC01208326960FB64F
:101D0000F894DEBF0FBECDBFCF91DF910895DF9372
:101D1000CF9300D000D000D0CDB7DEB789836A83DF
:101D20005C834B833E832D838981282F30E0C9015A
:101D3000880F991FAC01440F551F440F551F440FC6
:101D4000551F840F951F820F931F8554994E2B8129
:101D50003C81FC01318320838981282F30E0C90137
:101D6000880F991FAC01440F551F440F551F440F96
:101D7000551F840F951F820F931F8354994EFC01AA
:101D8000118210828981282F30E0C901880F991FA4
:101D9000AC01440F551F440F551F440F551F840FAE
:101DA000951F820F931F8154994E2D813E81FC0116
:101DB000318320838981282F30E0C901880F991F42
:101DC000AC01440F551F440F551F440F551F840F7E
:101DD000951F820F931F8F53994EFC011182108221
:101DE0008981282F30E0C901880F991FAC01440F69
:101DF000551F440F551F440F551F840F951F820F09
:101E0000931F8D53994E2A81FC0120838981282FAD
:101E100030E0C901880F991FAC01440F551F440FD2
:101E2000551F440F551F840F951F820F931F8C530E
:101E3000994EFC0110828981282F30E0C901880F5A
:101E4000991FAC01440F551F440F551F440F551FD8
:101E5000840F951F820F931F8654994E21E0FC0139
:101E6000208326960FB6F894DEBF0FBECDBFCF916C
:101E7000DF910895DF93CF930F92CDB7DEB719822C
:101E80003CC28981282F30E0C901880F991FAC011D
:101E9000440F551F440F551F440F551F840F951FA6
:101EA000820F931F8654994EFC018081813009F086
:101EB00021C28981282F30E0C901880F991FAC0108
:101EC000440F551F440F551F440F551F840F951F76
:101ED000820F931F8C53994EFC0160818981282FBA
:101EE00030E0C901880F991FAC01440F551F440F02
:101EF000551F440F551F840F951F820F931F8D533D
:101F0000994EFC018081681708F05DC18981282FF6
:101F100030E0C901880F991FAC01440F551F440FD1
:101F2000551F440F551F840F951F820F931F885410
:101F3000994EFC01808191818130910509F08CC01E
:101F40008981882F90E09C01220F331FA901440F43
:101F5000551F440F551F440F551F240F351F280FC1
:101F6000391F2F53394EF90120813181A9014F5F6B
:101F70005F4F9C01220F331FB901660F771F660F59
:101F8000771F660F771F260F371F820F931F8F5300
:101F9000994EFC01518340838981282F30E0C9018B
:101FA000880F991FAC01440F551F440F551F440F54
:101FB000551F840F951F820F931F8F53994EFC015D
:101FC000408151818981282F30E0C901880F991FF4
:101FD000BC01660F771F660F771F660F771F860F8E
:101FE000971F820F931F8154994EFC01808191812C
:101FF0004817590709F07EC189810E94F20C898136
:10200000282F30E0C901880F991FAC01440F551FDC
:10201000440F551F440F551F840F951F820F931FA8
:102020008854994EFC01118210828981282F30E05A
:10203000C901880F991FAC01440F551F440F551F4C
:10204000440F551F840F951F820F931F8F53994E76
:10205000FC01118210824EC18981882F90E09C0181
:10206000220F331FA901440F551F440F551F440F62
:10207000551F240F351F280F391F2354394EF901DE
:1020800020813181A9014F5F5F4F9C01220F331FD7
:10209000B901660F771F660F771F660F771F260F30
:1020A000371F820F931F8354994EFC015183408345
:1020B0008981282F30E0C901880F991FAC01440F96
:1020C000551F440F551F440F551F840F951F820F36
:1020D000931F8354994EFC01408151818981282F9F
:1020E00030E0C901880F991FBC01660F771F660F8A
:1020F000771F660F771F860F971F820F931F8554D8
:10210000994EFC01808191814817590709F0F2C06E
:1021100089810E94460D8981282F30E0C901880FEE
:10212000991FAC01440F551F440F551F440F551FF5
:10213000840F951F820F931F8854994E21E030E041
:10214000FC01318320838981282F30E0C901880F69
:10215000991FAC01440F551F440F551F440F551FC5
:10216000840F951F820F931F8354994EFC01118297
:1021700010828981882F90E09C01220F331FA901D2
:10218000440F551F440F551F440F551F240F351F73
:10219000280F391F2C53394EF9012081622F6F5FB0
:1021A0009C01220F331FA901440F551F440F551FD7
:1021B000440F551F240F351F820F931F8C53994EC8
:1021C000FC01608397C08981282F30E0C901880F06
:1021D000991FAC01440F551F440F551F440F551F45
:1021E000840F951F820F931F8654994EFC01108215
:1021F0008981282F30E0C901880F991FAC01440F55
:10220000551F440F551F440F551F840F951F820FF4
:10221000931F8554994EFC01118210828981282FC9
:1022200030E0C901880F991FAC01440F551F440FBE
:10223000551F440F551F840F951F820F931F835402
:10224000994EFC01118210828981282F30E0C9014A
:10225000880F991FAC01440F551F440F551F440FA1
:10226000551F840F951F820F931F8154994EFC01B7
:10227000118210828981282F30E0C901880F991FAF
:10228000AC01440F551F440F551F440F551F840FB9
:10229000951F820F931F8F53994EFC01118210825C
:1022A0008981282F30E0C901880F991FAC01440FA4
:1022B000551F440F551F440F551F840F951F820F44
:1022C000931F8D53994EFC0110828981282F30E095
:1022D000C901880F991FAC01440F551F440F551FAA
:1022E000440F551F840F951F820F931F8C53994ED7
:1022F000FC01108289818F5F89838981823008F493
:10230000C0CD0F90CF91DF910895DF93CF930F92BF
:10231000CDB7DEB7198224C08981282F30E0C901EA
:10232000880F991F880F991F880F991F820F931F7D
:102330008852994EFC0110828981282F30E0C90112
:10234000880F991F880F991F880F991F820F931F5D
:102350008152994EFC011182108289818F5F89839D
:1023600089818823C9F20E94F6120F90CF91DF91E4
:102370000895DF93CF93CDB7DEB727970FB6F894C4
:10238000DEBF0FBECDBF89837B836A835D834C83B1
:102390003F832E838981282F30E0C901880F991F40
:1023A000880F991F880F991F820F931F8852994E8B
:1023B00021E0FC0120838981282F30E0C901880FAA
:1023C000991F880F991F880F991F820F931F87529B
:1023D000994E2A813B81FC01318320838981282FFA
:1023E00030E0C901880F991F880F991F880F991F26
:1023F000820F931F8552994EFC01118210828981B0
:10240000282F30E0C901880F991F880F991F880F66
:10241000991F820F931F8352994E2C813D81FC019D
:10242000318320838981282F30E0C901880F991FCB
:10243000880F991F880F991F820F931F8152994E01
:102440002E813F81FC013183208327960FB6F894BB
:10245000DEBF0FBECDBFCF91DF910895DF93CF9345
:102460000F92CDB7DEB789838981282F30E0C9016B
:10247000880F991F880F991F880F991F820F931F2C
:102480008852994EFC0110820F90CF91DF910895F0
:10249000DF93CF930F92CDB7DEB789838981282F41
:1024A00030E0C901880F991F880F991F880F991F65
:1024B000820F931F8852994EFC0110828981282F28
:1024C00030E0C901880F991F880F991F880F991F45
:1024D000820F931F8752994EFC01118210828981CD
:1024E000282F30E0C901880F991F880F991F880F86
:1024F000991F820F931F8552994EFC011182108201
:102500008981282F30E0C901880F991F880F991FF2
:10251000880F991F820F931F8352994E22E030E05B
:10252000FC01318320838981282F30E0C901880F85
:10253000991F880F991F880F991F820F931F81522F
:10254000994EFC01118210820F90CF91DF91089576
:10255000DF93CF930F92CDB7DEB789838981282F80
:1025600030E0C901880F991F880F991F880F991FA4
:10257000820F931F8552994EFC01118210820F9099
:10258000CF91DF910895DF93CF9300D00F92CDB715
:10259000DEB789837B836A838981282F30E0C90174
:1025A000880F991F880F991F880F991F820F931FFB
:1025B0008552994EFC01118210828981282F30E0CA
:1025C000C901880F991F880F991F880F991F820FC3
:1025D000931F8752994E2A813B81FC0131832083CE
:1025E0000F900F900F90CF91DF910895DF93CF93CD
:1025F00000D0CDB7DEB760E177E280E090E09E01E9
:102600002F5F3F4FA9010E941D138CE90E94E22316
:1026100089819A810E94AF2382E090E00E94312359
:1026200082E090E00E94452482E090E00E9416241F
:102630000F900F90CF91DF910895EF92FF920F933B
:102640001F93DF93CF93CDB7DEB72E970FB6F894D5
:10265000DEBF0FBECDBF69877A878B879C875E8779
:102660004D8789859A85AB85BC8520E83EE340E0AF
:1026700050E0BC01CD010E94C62BDC01CB01815092
:102680009841AC4FBF4F20E038EE43E050E0BC0132
:10269000CD010E94F92BDA01C9019C838B838B81C8
:1026A0009C818F3F910569F060F080E094E09A830F
:1026B00089838D859E8525E030E0FC013183208370
:1026C0003EC08B819C818038910560F080E091E074
:1026D0009A8389838D859E8524E030E0FC013183D7
:1026E00020832DC08B819C818830910560F080E42F
:1026F00090E09A8389838D859E8523E030E0FC01FC
:10270000318320831CC08B819C818230910560F0D5
:1027100088E090E09A8389838D859E8522E030E071
:10272000FC01318320830BC081E090E09A83898390
:102730008D859E8521E030E0FC01318320838981F5
:102740009A81880F991F7C0100E010E080E492E4F8
:10275000AFE0B0E029853A854B855C85BC01CD01B1
:102760000E94F92BC801B7010E94C62B9B01AC0146
:1027700080E094E2A4EFB0E0BC01CD010E94F92B0F
:10278000DA01C9010197A109B1098D839E83AF8345
:10279000B8878D819E81AF81B885880F991FAA1F48
:1027A000BB1F8D839E83AF83B8878D819E81AF8150
:1027B000B8850296A11DB11D8D839E83AF83B88716
:1027C0008D819E812E960FB6F894DEBF0FBECDBFD1
:1027D000CF91DF911F910F91FF90EF9008951F927D
:1027E0000F920FB60F9200905B000F9211242F935F
:1027F0003F934F935F936F937F938F939F93AF9389
:10280000BF93EF93FF93DF93CF930F92CDB7DEB7D4
:1028100080910D148F5F80930D1480910D148A3078
:10282000A9F410920D1481E090E00E94AB09809110
:102830000E148F5F80930E1480910E148A3031F441
:1028400010920E1482E090E00E94AB091982C1C080
:102850008981282F30E0C901880F991F880F991F9F
:10286000880F991F820F931F8852994EFC01808117
:10287000813009F0ABC08981882F90E09C01220F44
:10288000331F220F331F220F331F280F391F2552EA
:10289000394EF90120813181A9014F5F5F4F9C01C1
:1028A000220F331F220F331F220F331F280F391F10
:1028B000C9018552994EFC01518340838981282F9B
:1028C00030E0C901880F991F880F991F880F991F41
:1028D000820F931F8552994EFC014081518189815D
:1028E000282F30E0C901880F991F880F991F880F82
:1028F000991F820F931F8752994EFC01808191810D
:102900004817590709F062C08981282F30E0C901B2
:10291000880F991F880F991F880F991F820F931F87
:102920008352994EFC01808191818230910509F496
:102930004DC08981282F30E0C901880F991F880F69
:10294000991F880F991F820F931F8552994EFC0182
:10295000118210828981282F30E0C901880F991FC8
:10296000880F991F880F991F820F931F8152994ECC
:10297000FC0180819181009799F08981282F30E0B6
:10298000C901880F991F880F991F880F991F820FFF
:10299000931F8152994EFC0180819181FC01099520
:1029A0008981282F30E0C901880F991F880F991F4E
:1029B000880F991F820F931F8352994EFC018081CB
:1029C0009181009719F489810E94481289818F5F53
:1029D00089838981882309F43BCF86E490E0FC0158
:1029E00010820F90CF91DF91FF91EF91BF91AF9146
:1029F0009F918F917F916F915F914F913F912F9117
:102A00000F9000925B000F900FBE0F901F901895D3
:102A1000DF93CF93CDB7DEB784EC90E020E130E0D8
:102A2000FC013183208383E090E00E94952680E0C2
:102A300090E00E94ED2680E090E00E9429270E940D
:102A4000ED250E9441260E9465278CEC90E020E154
:102A500030E0FC013183208383E090E00E94C126B6
:102A600080E090E00E940B2780E090E00E944727E2
:102A70000E9402260E9456260E947A27CF91DF915B
:102A80000895DF93CF9300D000D000D0CDB7DEB74C
:102A90008B837D836C834E8319828B81882319F508
:102AA0001A821DC0000080EC90E0FC018081882F1C
:102AB00090E0807290700097B1F386EC90E02A81EC
:102AC000222F30E04C815D81240F351FF9012081D8
:102AD000FC01208381E089838A818F5F8A839A81C8
:102AE0008E819817F8F28B81813019F51A821DC0FA
:102AF000000088EC90E0FC018081882F90E08072DB
:102B000090700097B1F38EEC90E02A81222F30E094
:102B10004C815D81240F351FF9012081FC01208348
:102B200081E089838A818F5F8A839A818E81981759
:102B3000F8F2898126960FB6F894DEBF0FBECDBF9E
:102B4000CF91DF910895DF93CF9300D00F92CDB74F
:102B5000DEB78A836B8319828A81882399F4000007
:102B600080EC90E0FC018081882F90E08072907072
:102B70000097B1F386EC90E02B81FC01208381E08B
:102B8000898315C08A81813091F4000088EC90E03F
:102B9000FC018081882F90E0807290700097B1F3E3
:102BA0008EEC90E02B81FC01208381E08983898178
:102BB0000F900F900F90CF91DF910895DF93CF93F7
:102BC00000D000D00F92CDB7DEB79B838A837D8380
:102BD0006C83198213C08981882F90E02A813B8100
:102BE000820F931F2981222F30E02F51394EF90196
:102BF0002081FC01208389818F5F89838091131458
:102C00009981981740F3209113148C819D81FC01C8
:102C100020830F900F900F900F900F90CF91DF9126
:102C20000895DF93CF9300D00F92CDB7DEB789839D
:102C30007B836A838981882331F48A819B81909385
:102C4000101480930F148981813031F48A819B8123
:102C500090931214809311140F900F900F90CF91B6
:102C6000DF9108951F920F920FB60F9200905B00B4
:102C70000F9211242F933F934F935F936F937F9302
:102C80008F939F93AF93BF93EF93FF93DF93CF9374
:102C900000D0CDB7DEB71A8286EC90E0FC018081CF
:102CA0008A8380911514882371F48A818A3209F00D
:102CB00050C08AE28093131781E08093141481E05E
:102CC0008093151446C080911414882F90E08D5E77
:102CD000984E2A81FC012083809114148F5F809389
:102CE000141480911414882F90E001978D5E984EF3
:102CF000FC018081833269F580911414882F90E063
:102D000002978D5E984EFC018081833211F5198205
:102D100011C08981882F90E02981222F30E02D5E1B
:102D2000384EF90120818F51994EFC012083898111
:102D30008F5F8983809114149981981750F3809143
:102D40001414809313141092151484E090E00E94E0
:102D5000AB090F900F90CF91DF91FF91EF91BF9151
:102D6000AF919F918F917F916F915F914F913F9123
:102D70002F910F9000925B000F900FBE0F901F904D
:102D80001895DF93CF9300D00F92CDB7DEB79B831A
:102D90008A8381E089838CE790E02CE730E0F901B9
:102DA0002081322F3F732A81207C232BFC0120833A
:102DB00089810F900F900F90CF91DF910895DF934D
:102DC000CF930F92CDB7DEB781E089838CE790E097
:102DD0002CE730E0F90120812062FC012083898109
:102DE0000F90CF91DF910895DF93CF93CDB7DEB7EA
:102DF0008CE790E0FC0180818170CF91DF91089594
:102E0000DF93CF930F92CDB7DEB781E089838CE754
:102E100090E02CE730E0F90120812F7DFC01208338
:102E200089810F90CF91DF910895DF93CF9300D0E8
:102E30000F92CDB7DEB79B838A8381E089838CE7CD
:102E400090E02CE730E0F9012081322F307E2A819A
:102E50002F71232BFC01208389810F900F900F90FD
:102E6000CF91DF910895DF93CF93CDB7DEB78CE795
:102E700090E0FC018081882F90E08F719070CF915D
:102E8000DF910895DF93CF930F92CDB7DEB781E046
:102E900089838AE790E02AE730E0F9012081206801
:102EA000FC01208389810F90CF91DF910895DF93FA
:102EB000CF930F92CDB7DEB781E089838AE790E0A8
:102EC0002AE730E0F90120812F77FC0120838981F6
:102ED0000F90CF91DF910895DF93CF930F92CDB7ED
:102EE000DEB781E089838AE790E02AE730E0F901E4
:102EF00020812064FC01208389810F90CF91DF9194
:102F00000895DF93CF930F92CDB7DEB781E0898329
:102F10008AE790E02AE730E0F90120812062FC0195
:102F2000208389810F90CF91DF910895DF93CF9314
:102F30000F92CDB7DEB781E089838AE790E02AE778
:102F400030E0F90120812F7DFC01208389810F90E1
:102F5000CF91DF910895DF93CF930F92CDB7DEB776
:102F600081E089838AE790E02AE730E0F901208157
:102F70002F7A2061FC01208389810F90CF91DF910E
:102F80000895DF93CF930F92CDB7DEB781E08983A9
:102F90008AE790E02AE730E0F90120812860FC010F
:102FA000208389810F90CF91DF910895DF93CF9394
:102FB0000F92CDB7DEB781E089838AE790E02AE7F8
:102FC00030E0F9012081277FFC01208389810F9067
:102FD000CF91DF910895DF93CF9300D00F92CDB7BB
:102FE000DEB79B838A8381E089838AE790E02AE7C2
:102FF00030E0F9012081322F387F2A812770232B7E
:10300000FC01208389810F900F900F90CF91DF9169
:103010000895DF93CF9300D00F92CDB7DEB79B8397
:103020008A8381E089838BE790E02BE730E0F90128
:103030002081322F387F2A812770232BFC012083A7
:1030400089810F900F900F90CF91DF910895DF93BA
:10305000CF93CDB7DEB70E94F416813029F489E70B
:1030600090E0FC01808104C088E790E0FC01808151
:10307000CF91DF910895DF93CF93CDB7DEB788E787
:1030800090E0FC0180819181CF91DF910895DF93E1
:10309000CF9300D0CDB7DEB78A8381E089838A8160
:1030A000882351F085E590E025E530E0F9012081A5
:1030B0002260FC01208309C085E590E025E530E031
:1030C000F90120812D7FFC01208389810F900F90D1
:1030D000CF91DF910895DF93CF9300D0CDB7DEB7C6
:1030E0008A8381E089838A81882351F085E590E095
:1030F00025E530E0F90120812160FC01208309C031
:1031000085E590E025E530E0F90120812E7FFC0186
:10311000208389810F900F90CF91DF910895DF93E5
:10312000CF9300D00F92CDB7DEB79B838A8381E027
:10313000898389E690E029E630E0F90130812A812F
:10314000232BFC01208389810F900F900F90CF914A
:10315000DF910895DF93CF9300D00F92CDB7DEB704
:103160009B838A8381E0898389E690E029E630E0C9
:10317000F90130812A81232BFC01208389810F9062
:103180000F900F90CF91DF910895DF93CF9300D0F0
:103190000F92CDB7DEB79B838A8381E0898389E66E
:1031A00090E029E630E0F90130812A81232BFC01EF
:1031B000208389810F900F900F90CF91DF91089518
:1031C000DF93CF9300D0CDB7DEB78A8381E08983C8
:1031D0008A81882351F08DE390E02DE330E0F901FE
:1031E00020812160FC01208309C08DE390E02DE364
:1031F00030E0F90120812E7FFC01208389810F902E
:103200000F90CF91DF910895DF93CF9300D0CDB78A
:10321000DEB78A8381E089838A81882351F08DE338
:1032200090E02DE330E0F90120812260FC01208351
:1032300009C08DE390E02DE330E0F90120812D7F7E
:10324000FC01208389810F900F90CF91DF91089529
:10325000DF93CF9300D0CDB7DEB78A8381E0898337
:103260008A81882351F08DE390E02DE330E0F9016D
:1032700020812460FC01208309C08DE390E02DE3D0
:1032800030E0F90120812B7FFC01208389810F90A0
:103290000F90CF91DF910895DF93CF9300D0CDB7FA
:1032A000DEB78A8381E089838A81882351F08CE3A9
:1032B00090E02CE330E0F90120812160FC012083C3
:1032C00009C08CE390E02CE330E0F90120812E7FEF
:1032D000FC01208389810F900F90CF91DF91089599
:1032E000DF93CF9300D0CDB7DEB78A8381E08983A7
:1032F0008A81882351F08CE390E02CE330E0F901DF
:1033000020812260FC01208309C08CE390E02CE343
:1033100030E0F90120812D7FFC01208389810F900D
:103320000F90CF91DF910895DF93CF9300D0CDB769
:10333000DEB78A8381E089838A81882351F08CE318
:1033400090E02CE330E0F90120812460FC0120832F
:1033500009C08CE390E02CE330E0F90120812B7F61
:10336000FC01208389810F900F90CF91DF91089508
:10337000DF93CF9300D0CDB7DEB78A8381E0898316
:103380008A81882351F088E690E028E630E0F90150
:1033900020812160FC01208309C088E690E028E6B6
:1033A00030E0F90120812E7FFC01208389810F907C
:1033B0000F90CF91DF910895DF93CF9300D0CDB7D9
:1033C000DEB78A8381E089838A81882351F088E689
:1033D00090E028E630E0F90120812260FC012083A2
:1033E00009C088E690E028E630E0F90120812D7FD1
:1033F000FC01208389810F900F90CF91DF91089578
:10340000DF93CF9300D0CDB7DEB78A8381E0898385
:103410008A81882351F088E690E028E630E0F901BF
:1034200020812460FC01208309C088E690E028E622
:1034300030E0F90120812B7FFC01208389810F90EE
:103440000F90CF91DF910895DF93CF9300D0CDB748
:10345000DEB78A8381E089838A81882351F088E6F8
:1034600090E028E630E0F90120812860FC0120830B
:1034700009C088E690E028E630E0F9012081277F46
:10348000FC01208389810F900F90CF91DF910895E7
:10349000DF93CF9300D0CDB7DEB78A8381E08983F5
:1034A0008A81882351F08BE390E02BE330E0F9012F
:1034B00020812160FC01208309C08BE390E02BE395
:1034C00030E0F90120812E7FFC01208389810F905B
:1034D0000F90CF91DF910895DF93CF9300D0CDB7B8
:1034E000DEB78A8381E089838A81882351F08BE368
:1034F00090E02BE330E0F90120812260FC01208381
:1035000009C08BE390E02BE330E0F90120812D7FAF
:10351000FC01208389810F900F90CF91DF91089556
:10352000DF93CF9300D0CDB7DEB78A8381E0898364
:103530008A81882351F08BE390E02BE330E0F9019E
:1035400020812460FC01208309C08BE390E02BE301
:1035500030E0F90120812B7FFC01208389810F90CD
:103560000F90CF91DF910895DF93CF9300D0CDB727
:10357000DEB78A8381E089838A81882351F08BE3D7
:1035800090E02BE330E0F90120812860FC012083EA
:1035900009C08BE390E02BE330E0F9012081277F25
:1035A000FC01208389810F900F90CF91DF910895C6
:1035B000DF93CF9300D0CDB7DEB78A8381E08983D4
:1035C00083E790E023E730E0F90130812A81232B63
:1035D000FC01208389810F900F90CF91DF91089596
:1035E000DF93CF9300D0CDB7DEB78A8381E08983A4
:1035F0008DE690E02DE630E0F90130812A81232B21
:10360000FC01208389810F900F90CF91DF91089565
:10361000DF93CF9300D0CDB7DEB78A8381E0898373
:103620008CE690E02CE630E0F90130812A81232BF2
:10363000FC01208389810F900F90CF91DF91089535
:10364000DF93CF9300D0CDB7DEB78A8381E0898343
:103650008BE690E02BE630E0F90130812A81232BC4
:10366000FC01208389810F900F90CF91DF91089505
:10367000DF93CF9300D000D00F92CDB7DEB79D83FC
:103680008C8381E089838C819D8196958795969521
:103690008795969587958A838C8187708B838A819D
:1036A0006B8141E00E94B71C89810F900F900F90B1
:1036B0000F900F90CF91DF910895DF93CF9300D0BB
:1036C00000D00F92CDB7DEB79D838C8381E08983D4
:1036D0008C819D81969587959695879596958795EA
:1036E0008A838C8187708B838A816B8140E00E9402
:1036F000851C89810F900F900F900F900F90CF91A4
:10370000DF910895DF93CF9300D000D00F92CDB713
:10371000DEB79D838C8381E089838C819D81969522
:10372000879596958795969587958A838C818770DE
:103730008B838A816B8141E00E94851C89810F9077
:103740000F900F900F900F90CF91DF910895DF931E
:10375000CF9300D000D00F92CDB7DEB79D838C837E
:1037600081E089838C819D81969587959695879533
:10377000969587958A838C8187708B838A8188232D
:10378000A9F482E290E022E230E0F90160812B812D
:10379000422F50E021E030E0042E02C0220F331F00
:1037A0000A94E2F72627FC01208347C08A818130F2
:1037B000A9F485E290E025E230E0F90160812B81F7
:1037C000422F50E021E030E0042E02C0220F331FD0
:1037D0000A94E2F72627FC0120832FC08A818230D9
:1037E000A9F488E290E028E230E0F90160812B81C1
:1037F000422F50E021E030E0042E02C0220F331FA0
:103800000A94E2F72627FC01208317C08A818330BF
:10381000A1F48BE290E02BE230E0F90160812B8192
:10382000422F50E021E030E0042E02C0220F331F6F
:103830000A94E2F72627FC01208389810F900F90DC
:103840000F900F900F90CF91DF910895DF93CF935A
:10385000CDB7DEB727970FB6F894DEBF0FBECDBF4A
:103860009D838C837F836E8381E089838C819D819E
:103870009695879596958795969587958A838C8159
:1038800087708B838A816B8140E00E94B71C8E8198
:103890009F818130910531F48A816B8141E00E94E2
:1038A000851C05C08A816B8140E00E94851C89814E
:1038B00027960FB6F894DEBF0FBECDBFCF91DF9134
:1038C0000895DF93CF9300D0CDB7DEB78A8381E030
:1038D00089838A81882351F085E590E025E530E0F1
:1038E000F90120812061FC01208309C085E590E079
:1038F00025E530E0F90120812F7EFC0120838981BC
:103900000F900F90CF91DF910895DF93CF9300D068
:1039100000D0CDB7DEB78A836B834C8381E0898387
:103920008A81882329F48B816C810E941B1D17C01A
:103930008A81813029F48B816C810E94E01D0FC047
:103940008A81823029F48B816C810E94A51E07C078
:103950008A81833021F48B816C810E946A1F898166
:103960000F900F900F900F90CF91DF910895DF93FC
:10397000CF9300D000D0CDB7DEB78A836B834C8362
:1039800081E089838A81882329F48B816C810E945C
:10399000641D17C08A81813029F48B816C810E945B
:1039A000291E0FC08A81823029F48B816C810E948C
:1039B000EE1E07C08A81833021F48B816C810E94C6
:1039C000B31F89810F900F900F900F90CF91DF91CF
:1039D0000895DF93CF9300D000D0CDB7DEB78A83B0
:1039E0006B834C8381E089838A81882329F48B81CE
:1039F0006C810E94A21D17C08A81813029F48B81BD
:103A00006C810E94671E0FC08A81823029F48B81ED
:103A10006C810E942C1F07C08A81833021F48B8126
:103A20006C810E94F11F89810F900F900F900F9071
:103A3000CF91DF910895DF93CF9300D00F92CDB750
:103A4000DEB78A836B8381E089838B818823A9F029
:103A500082E290E022E230E0F90160812A81422F87
:103A600050E021E030E0042E02C0220F331F0A9400
:103A7000E2F7262BFC01208315C082E290E022E2CF
:103A800030E0F90160812A81422F50E021E030E0EE
:103A9000042E02C0220F331F0A94E2F7209526233A
:103AA000FC01208389810F900F900F90CF91DF91BF
:103AB0000895DF93CF93CDB7DEB782E290E0FC01AB
:103AC0008081CF91DF910895DF93CF9300D00F9243
:103AD000CDB7DEB78A836B8381E089838B818823AE
:103AE000A9F082E290E022E230E0F90160812A81CF
:103AF000422F50E021E030E0042E02C0220F331F9D
:103B00000A94E2F7262BFC01208315C082E290E0A4
:103B100022E230E0F90160812A81422F50E021E069
:103B200030E0042E02C0220F331F0A94E2F72095E2
:103B30002623FC01208389810F900F900F90CF9155
:103B4000DF910895DF93CF9300D00F92CDB7DEB70A
:103B50008A836B8381E089838B818823A9F080E24B
:103B600090E020E230E0F90160812A81422F50E0AC
:103B700021E030E0042E02C0220F331F0A94E2F746
:103B8000262BFC01208315C080E290E020E230E08B
:103B9000F90160812A81422F50E021E030E0042EBB
:103BA00002C0220F331F0A94E2F720952623FC015E
:103BB000208389810F900F900F90CF91DF9108950E
:103BC000DF93CF9300D00F92CDB7DEB78A836B839C
:103BD00081E089838B818823A9F085E290E025E24A
:103BE00030E0F90160812A81422F50E021E030E08D
:103BF000042E02C0220F331F0A94E2F7262BFC0189
:103C0000208315C085E290E025E230E0F901608173
:103C10002A81422F50E021E030E0042E02C0220F22
:103C2000331F0A94E2F720952623FC012083898123
:103C30000F900F900F90CF91DF910895DF93CF9366
:103C4000CDB7DEB785E290E0FC018081CF91DF91B6
:103C50000895DF93CF9300D00F92CDB7DEB78A835C
:103C60006B8381E089838B818823A9F084E290E0D3
:103C700024E230E0F90160812A81422F50E021E006
:103C800030E0042E02C0220F331F0A94E2F7262BE5
:103C9000FC01208315C084E290E024E230E0F901C9
:103CA00060812A81422F50E021E030E0042E02C0E2
:103CB000220F331F0A94E2F720952623FC0120836C
:103CC00089810F900F900F90CF91DF910895DF932E
:103CD000CF9300D00F92CDB7DEB78A836B8381E09C
:103CE00089838B818823A9F083E290E023E230E08E
:103CF000F90160812A81422F50E021E030E0042E5A
:103D000002C0220F331F0A94E2F7262BFC01208306
:103D100015C083E290E023E230E0F90160812A815E
:103D2000422F50E021E030E0042E02C0220F331F6A
:103D30000A94E2F720952623FC01208389810F90C5
:103D40000F900F90CF91DF910895DF93CF9300D024
:103D50000F92CDB7DEB78A836B8381E089838B8135
:103D60008823A9F088E290E028E230E0F901608140
:103D70002A81422F50E021E030E0042E02C0220FC1
:103D8000331F0A94E2F7262BFC01208315C088E23A
:103D900090E028E230E0F90160812A81422F50E072
:103DA00021E030E0042E02C0220F331F0A94E2F714
:103DB00020952623FC01208389810F900F900F907E
:103DC000CF91DF910895DF93CF93CDB7DEB788E22F
:103DD00090E0FC018081CF91DF910895DF93CF9334
:103DE00000D00F92CDB7DEB78A836B8381E08983E1
:103DF0008B818823A9F087E290E027E230E0F90187
:103E000060812A81422F50E021E030E0042E02C080
:103E1000220F331F0A94E2F7262BFC01208315C0E2
:103E200087E290E027E230E0F90160812A81422FA9
:103E300050E021E030E0042E02C0220F331F0A942C
:103E4000E2F720952623FC01208389810F900F90B3
:103E50000F90CF91DF910895DF93CF9300D00F9211
:103E6000CDB7DEB78A836B8381E089838B8188231A
:103E7000A9F086E290E026E230E0F90160812A8133
:103E8000422F50E021E030E0042E02C0220F331F09
:103E90000A94E2F7262BFC01208315C086E290E00D
:103EA00026E230E0F90160812A81422F50E021E0D2
:103EB00030E0042E02C0220F331F0A94E2F720954F
:103EC0002623FC01208389810F900F900F90CF91C2
:103ED000DF910895DF93CF9300D00F92CDB7DEB777
:103EE0008A836B8381E089838B818823A9F08BE2AD
:103EF00090E02BE230E0F90160812A81422F50E00E
:103F000021E030E0042E02C0220F331F0A94E2F7B2
:103F1000262BFC01208315C08BE290E02BE230E0E1
:103F2000F90160812A81422F50E021E030E0042E27
:103F300002C0220F331F0A94E2F720952623FC01CA
:103F4000208389810F900F900F90CF91DF9108957A
:103F5000DF93CF93CDB7DEB78BE290E0FC01808199
:103F6000CF91DF910895DF93CF9300D00F92CDB71B
:103F7000DEB78A836B8381E089838B818823A9F0F4
:103F80008AE290E02AE230E0F90160812A81422F42
:103F900050E021E030E0042E02C0220F331F0A94CB
:103FA000E2F7262BFC01208315C08AE290E02AE28A
:103FB00030E0F90160812A81422F50E021E030E0B9
:103FC000042E02C0220F331F0A94E2F72095262305
:103FD000FC01208389810F900F900F90CF91DF918A
:103FE0000895DF93CF9300D00F92CDB7DEB78A83C9
:103FF0006B8381E089838B818823A9F089E290E03B
:1040000029E230E0F90160812A81422F50E021E06D
:1040100030E0042E02C0220F331F0A94E2F7262B51
:10402000FC01208315C089E290E029E230E0F9012B
:1040300060812A81422F50E021E030E0042E02C04E
:10404000220F331F0A94E2F720952623FC012083D8
:1040500089810F900F900F90CF91DF910895DF939A
:10406000CF9300D00F92CDB7DEB79B838A8381E0D8
:10407000898383E590E023E530E0F90130812A81EE
:10408000232BFC01208389810F900F900F90CF91FB
:10409000DF910895DF93CF9300D0CDB7DEB78A8349
:1040A00081E089838A81882351F083E590E023E5CC
:1040B00030E0F90120812160FC01208309C083E503
:1040C00090E023E530E0F90120812E7FFC01208380
:1040D00089810F900F90CF91DF910895DF93CF9357
:1040E00000D0CDB7DEB78A8381E089838A818823B7
:1040F00051F085E590E025E530E0F901208120646C
:10410000FC01208309C085E590E025E530E0F90158
:1041100020812F7BFC01208389810F900F90CF910C
:10412000DF910895DF93CF9300D0CDB7DEB78A83B8
:1041300081E089838A81882351F085E590E025E537
:1041400030E0F90120812062FC01208309C085E56F
:1041500090E025E530E0F90120812F7DFC012083EE
:1041600089810F900F90CF91DF910895DF93CF93C6
:1041700000D0CDB7DEB78A8381E089838A81882326
:1041800051F084E690E024E630E0F90120812068D7
:10419000FC01208309C084E690E024E630E0F901C8
:1041A00020812F77FC01208389810F900F90CF9180
:1041B000DF910895DF93CF9300D0CDB7DEB78A8328
:1041C00081E089838A81882351F084E690E024E6A7
:1041D00030E0F90120812064FC01208309C084E6DD
:1041E00090E024E630E0F90120812F7BFC01208360
:1041F00089810F900F90CF91DF910895DF93CF9336
:1042000000D0CDB7DEB78A8381E089838A81882395
:1042100051F084E690E024E630E0F901208120624C
:10422000FC01208309C084E690E024E630E0F90137
:1042300020812F7DFC01208389810F900F90CF91E9
:10424000DF910895DF93CF9300D0CDB7DEB78A8397
:1042500081E089838A81882351F084E690E024E616
:1042600030E0F90120812061FC01208309C084E64F
:1042700090E024E630E0F90120812F7EFC012083CC
:1042800089810F900F90CF91DF910895DF93CF93A5
:1042900000D0CDB7DEB78A8381E089838A81882305
:1042A00051F084E690E024E630E0F90120812860B6
:1042B000FC01208309C084E690E024E630E0F901A7
:1042C0002081277FFC01208389810F900F90CF915F
:1042D000DF910895DF93CF9300D0CDB7DEB78A8307
:1042E00081E089838A81882351F084E690E024E686
:1042F00030E0F90120812460FC01208309C084E6BC
:1043000090E024E630E0F90120812B7FFC0120833E
:1043100089810F900F90CF91DF910895DF93CF9314
:1043200000D0CDB7DEB78A8381E089838A81882374
:1043300051F084E690E024E630E0F901208122602B
:10434000FC01208309C084E690E024E630E0F90116
:1043500020812D7FFC01208389810F900F90CF91C8
:10436000DF910895DF93CF9300D0CDB7DEB78A8376
:1043700081E089838A81882351F084E690E024E6F5
:1043800030E0F90120812160FC01208309C084E62E
:1043900090E024E630E0F90120812E7FFC012083AB
:1043A00089810F900F90CF91DF910895DF93CF9384
:1043B00000D0CDB7DEB78A8381E0898386E690E0BE
:1043C0002A81FC01208389810F900F90CF91DF918A
:1043D0000895DF93CF9300D0CDB7DEB78A8381E015
:1043E00089838A81882351F081E690E021E630E0DC
:1043F000F90120812068FC01208309C081E690E05A
:1044000021E630E0F90120812F77FC0120838981AA
:104410000F900F90CF91DF910895DF93CF9300D04D
:104420000F92CDB7DEB79B838A8381E0898381E6D3
:1044300090E021E630E0F90130812A812F70232BB2
:10444000FC01208389810F900F900F90CF91DF9115
:104450000895DF93CF930F92CDB7DEB784E590E058
:10446000FC018081198289810F90CF91DF9108959D
:10447000DF93CF930F92CDB7DEB784E590E0FC01D8
:104480008081198289810F90CF91DF910895DF9308
:10449000CF930F92CDB7DEB784E590E0FC01808129
:1044A000198289810F90CF91DF910895DF93CF9387
:1044B0000F92CDB7DEB784E590E0FC0180811982D0
:1044C00089810F90CF91DF910895DF93CF930F9261
:1044D000CDB7DEB784E590E0FC0180811982898147
:1044E0000F90CF91DF910895DF93CF930F92CDB7C7
:1044F000DEB780E690E0FC018081198289810F900F
:10450000CF91DF910895DF93CF9300D0CDB7DEB781
:104510008A8381E089838A81882351F080E690E054
:1045200020E630E0F90120812064FC01208309C0ED
:1045300080E690E020E630E0F90120812F7BFC014D
:10454000208389810F900F90CF91DF910895DF93A1
:10455000CF930F92CDB7DEB780E690E0FC0180816B
:10456000198289810F90CF91DF910895DF93CF93C6
:1045700000D0CDB7DEB78A8381E089838A81882322
:1045800051F080E690E020E630E0F90120812860DB
:10459000FC01208309C080E690E020E630E0F901CC
:1045A0002081277FFC01208389810F900F90CF917C
:1045B000DF910895DF93CF9300D00F92CDB7DEB790
:1045C0009B838A8381E0898380E690E020E630E067
:1045D000F90130812A81232BFC01208389810F90EE
:1045E0000F900F90CF91DF910895DF93CF9300D07C
:1045F0000F92CDB7DEB79B838A8381E0898384E401
:1046000090E024E430E0F9012081322F3F732A81C9
:10461000207C232BFC01208389810F900F900F9029
:10462000CF91DF910895DF93CF9300D00F92CDB754
:10463000DEB79B838A8381E0898385E490E025E46B
:1046400030E0F9012081322F3F7C2A812073232B17
:10465000FC01208389810F900F900F90CF91DF9103
:104660000895DF93CF9300D00F92CDB7DEB79B8331
:104670008A8381E089838A819B81817090708823FD
:1046800051F084E490E024E430E0F90120812160DD
:10469000FC01208309C084E490E024E430E0F901C7
:1046A00020812E7FFC0120838A819B818270907003
:1046B00096958795009751F084E490E024E430E0EB
:1046C000F90120812260FC01208309C084E490E08C
:1046D00024E430E0F90120812D7FFC0120838A81D0
:1046E0009B81887090709695879596958795009791
:1046F00051F085E490E025E430E0F9012081286064
:10470000FC01208309C085E490E025E430E0F90154
:104710002081277FFC01208389810F900F900F90CB
:10472000CF91DF910895DF93CF9300D00F92CDB753
:10473000DEB79B838A8381E0898385E490E025E46A
:1047400030E0F90130812A81207C232BFC01208379
:1047500089810F900F900F90CF91DF910895DF9393
:10476000CF9300D0CDB7DEB79A83898385E490E0FC
:1047700025E430E0F9012081322F387F298127702C
:10478000232BFC0120830F900F90CF91DF91089590
:10479000DF93CF930F92CDB7DEB7898386E490E0A5
:1047A0002981FC0120830F90CF91DF910895DF9341
:1047B000CF93CDB7DEB786E490E0FC018081CF9146
:1047C000DF910895DF93CF930F92CDB7DEB7898342
:1047D00087E490E02981FC0120830F90CF91DF9145
:1047E0000895DF93CF93CDB7DEB787E490E0FC0167
:1047F0008081CF91DF910895DF93CF930F92CDB752
:10480000DEB7898388E490E02981FC0120830F9042
:10481000CF91DF910895DF93CF93CDB7DEB788E4D2
:1048200090E0FC018081CF91DF910895DF93CF93D9
:1048300000D0CDB7DEB79A8389838EE690E02EE66E
:1048400030E0F901308129812770232BFC0120837E
:104850000F900F90CF91DF910895DF93CF9300D009
:10486000CDB7DEB79A8389838EE690E02EE630E0FE
:10487000F90130812981277020952323FC012083B1
:104880000F900F90CF91DF910895DF93CF9300D0D9
:10489000CDB7DEB79A8389838EE690E02EE630E0CE
:1048A000F90130812981277020952323FC01208381
:1048B0000F900F90CF91DF910895DF93CF9300D0A9
:1048C000CDB7DEB78A8381E0898386EC90E02A81C8
:1048D000FC01208389810F900F90CF91DF91089583
:1048E000DF93CF9300D0CDB7DEB78A8381E0898391
:1048F0008EEC90E02A81FC01208389810F900F903B
:10490000CF91DF910895DF93CF93CDB7DEB786ECDB
:1049100090E0FC018081CF91DF910895DF93CF93E8
:10492000CDB7DEB78EEC90E0FC018081CF91DF91B6
:104930000895DF93CF93CDB7DEB780EC90E0FC0114
:1049400080818072CF91DF910895DF93CF93CDB7AF
:10495000DEB788EC90E0FC0180818072CF91DF911E
:104960000895DF93CF93CDB7DEB780EC90E0FC01E4
:104970008081882F90E08C719070CF91DF910895A5
:10498000DF93CF93CDB7DEB788EC90E0FC01808158
:10499000882F90E08C719070CF91DF910895DF9314
:1049A000CF9300D0CDB7DEB79A83898389819A816E
:1049B000009761F480EC90E020EC30E0F901308168
:1049C000298120952323FC0120830AC080EC90E0FC
:1049D00020EC30E0F90130812981232BFC01208378
:1049E0000F900F90CF91DF910895DF93CF9300D078
:1049F000CDB7DEB79A83898389819A81009761F464
:104A000088EC90E028EC30E0F90130812981209594
:104A10002323FC0120830AC088EC90E028EC30E0DE
:104A2000F90130812981232BFC0120830F900F9005
:104A3000CF91DF910895DF93CF93CDB7DEB780ECB0
:104A400090E0FC018081882F90E082709070CF917F
:104A5000DF910895DF93CF93CDB7DEB788EC90E078
:104A6000FC018081882F90E082709070CF91DF915F
:104A70000895DF93CF930F92CDB7DEB781E089839E
:104A800080EC90E020EC30E0F90120812160FC0115
:104A9000208389810F90CF91DF910895DF93CF9389
:104AA0000F92CDB7DEB781E0898388EC90E028ECE7
:104AB00030E0F90120812160FC01208389810F9081
:104AC000CF91DF910895DF93CF93CDB7DEB780EC20
:104AD00090E0FC0180818170CF91DF910895DF9398
:104AE000CF93CDB7DEB788EC90E0FC018081817078
:104AF000CF91DF910895DF93CF93CDB7DEB780ECF0
:104B000090E0FC0180818078CF91DF910895DF9360
:104B1000CF93CDB7DEB788EC90E0FC018081807840
:104B2000CF91DF910895DF93CF930F92CDB7DEB78A
:104B300081E0898380EC90E020EC30E0F901208175
:104B40002064FC01208389810F90CF91DF9108952B
:104B5000DF93CF930F92CDB7DEB781E0898388ECE6
:104B600090E028EC30E0F90120812064FC012083F2
:104B700089810F90CF91DF910895DF93CF93CDB7C7
:104B8000DEB780EC90E0FC0180818074CF91DF91F2
:104B90000895DF93CF93CDB7DEB788EC90E0FC01AA
:104BA00080818074CF91DF910895DF93CF93CDB74B
:104BB000DEB780EC90E0FC0180818072CF91DF91C4
:104BC0000895DF93CF93CDB7DEB788EC90E0FC017A
:104BD00080818072CF91DF910895DF93CF930F9200
:104BE000CDB7DEB781E0898381EC90E021EC30E045
:104BF000F90120812860FC01208389810F90CF91E9
:104C0000DF910895DF93CF930F92CDB7DEB781E0A8
:104C1000898389EC90E029EC30E0F901208128605B
:104C2000FC01208389810F90CF91DF910895DF935C
:104C3000CF930F92CDB7DEB781E0898381EC90E00E
:104C400021EC30E0F9012081277FFC01208389815C
:104C50000F90CF91DF910895DF93CF930F92CDB74F
:104C6000DEB781E0898389EC90E029EC30E0F9013E
:104C70002081277FFC01208389810F90CF91DF91D4
:104C80000895DF93CF930F92CDB7DEB781E089838C
:104C900081EC90E021EC30E0F90120812061FC0101
:104CA000208389810F90CF91DF910895DF93CF9377
:104CB0000F92CDB7DEB781E0898389EC90E029ECD3
:104CC00030E0F90120812061FC01208389810F906F
:104CD000CF91DF910895DF93CF930F92CDB7DEB7D9
:104CE00081E0898381EC90E021EC30E0F9012081C2
:104CF0002F7EFC01208389810F90CF91DF91089551
:104D0000DF93CF930F92CDB7DEB781E0898389EC33
:104D100090E029EC30E0F90120812F7EFC01208316
:104D200089810F90CF91DF910895DF93CF9300D0C9
:104D30000F92CDB7DEB79B838A8381E0898381ECB4
:104D400090E021EC30E0F9012081322F3B7F2A8175
:104D50002470232BFC01208382EC90E022EC30E0D5
:104D6000F9012081322F397F2A81220F2670232BCF
:104D7000FC01208389810F900F900F90CF91DF91DC
:104D80000895DF93CF9300D00F92CDB7DEB79B830A
:104D90008A8381E0898389EC90E029EC30E0F90195
:104DA0002081322F3B7F2A812470232BFC0120831A
:104DB0008AEC90E02AEC30E0F9012081322F397F33
:104DC0002A81220F2670232BFC01208389810F90DA
:104DD0000F900F90CF91DF910895DF93CF9300D084
:104DE0000F92CDB7DEB79B838A8381E0898382EC03
:104DF00090E022EC30E0F9012081322F3F7C2A81C3
:104E00002073232BFC01208389810F900F900F903A
:104E1000CF91DF910895DF93CF9300D00F92CDB75C
:104E2000DEB79B838A8381E089838AEC90E02AEC59
:104E300030E0F9012081322F3F7C2A812073232B1F
:104E4000FC01208389810F900F900F90CF91DF910B
:104E50000895DF93CF9300D00F92CDB7DEB79B8339
:104E60008A8381E0898382EC90E022EC30E0F901D2
:104E70002081322F377F2A812870232BFC01208349
:104E800089810F900F900F90CF91DF910895DF935C
:104E9000CF9300D00F92CDB7DEB79B838A8381E09A
:104EA00089838AEC90E02AEC30E0F9012081322FEE
:104EB000377F2A812870232BFC01208389810F9062
:104EC0000F900F90CF91DF910895DF93CF930F92C2
:104ED000CDB7DEB781E0898381EC90E021EC30E052
:104EE000F90120812068FC01208389810F90CF91F6
:104EF000DF910895DF93CF930F92CDB7DEB781E0B6
:104F0000898389EC90E029EC30E0F9012081206868
:104F1000FC01208389810F90CF91DF910895DF9369
:104F2000CF930F92CDB7DEB781E0898381EC90E01B
:104F300021EC30E0F90120812F77FC012083898169
:104F40000F90CF91DF910895DF93CF930F92CDB75C
:104F5000DEB781E0898389EC90E029EC30E0F9014B
:104F600020812F77FC01208389810F90CF91DF91E1
:104F70000895DF93CF930F92CDB7DEB781E0898399
:104F800081EC90E021EC30E0F90120812064FC010B
:104F9000208389810F90CF91DF910895DF93CF9384
:104FA0000F92CDB7DEB781E0898389EC90E029ECE0
:104FB00030E0F90120812064FC01208389810F9079
:104FC000CF91DF910895DF93CF930F92CDB7DEB7E6
:104FD00081E0898381EC90E021EC30E0F9012081CF
:104FE0002F7BFC01208389810F90CF91DF91089561
:104FF000DF93CF930F92CDB7DEB781E0898389EC41
:1050000090E029EC30E0F90120812F7BFC01208326
:1050100089810F90CF91DF910895DF93CF930F9205
:10502000CDB7DEB781E0898381EC90E021EC30E000
:10503000F90120812062FC01208389810F90CF91AA
:10504000DF910895DF93CF930F92CDB7DEB781E064
:10505000898389EC90E029EC30E0F901208120621D
:10506000FC01208389810F90CF91DF910895DF9318
:10507000CF930F92CDB7DEB781E0898381EC90E0CA
:1050800021EC30E0F90120812F7DFC012083898112
:105090000F90CF91DF910895DF93CF930F92CDB70B
:1050A000DEB781E0898389EC90E029EC30E0F901FA
:1050B00020812F7DFC01208389810F90CF91DF918A
:1050C0000895DF93CF9300D00F92CDB7DEB79B83C7
:1050D0008A8381E0898382EC90E022EC30E0F90160
:1050E0002081322F3E7F2A812170232BFC012083D7
:1050F00089810F900F900F90CF91DF910895DF93EA
:10510000CF9300D00F92CDB7DEB79B838A8381E027
:1051100089838AEC90E02AEC30E0F9012081322F7B
:105120003E7F2A812170232BFC01208389810F90EF
:105130000F900F90CF91DF9108950F931F93DF93FE
:10514000CF9300D000D00F92CDB7DEB76A837B83B8
:105150008C839D8319820E946325882361F50E94B8
:105160001B25009741F504EC10E08A819B81AC81FE
:10517000BD81880F991FAA1FBB1F880F991FAA1FE7
:10518000BB1F880F991FAA1FBB1F880F991FAA1F3B
:10519000BB1F9C01AD0180E094E2A4EFB0E0BC0134
:1051A000CD010E94F92BDA01C9010197F801918321
:1051B000808381E0898389810F900F900F900F90F9
:1051C0000F90CF91DF911F910F9108950F931F932F
:1051D000DF93CF9300D000D00F92CDB7DEB76A83B4
:1051E0007B838C839D8319820E946F25882361F5C0
:1051F0000E942A25009741F50CEC10E08A819B81E2
:10520000AC81BD81880F991FAA1FBB1F880F991FF2
:10521000AA1FBB1F880F991FAA1FBB1F880F991FAA
:10522000AA1FBB1F9C01AD0180E094E2A4EFB0E097
:10523000BC01CD010E94F92BDA01C9010197F801E7
:105240009183808381E0898389810F900F900F90F3
:105250000F900F90CF91DF911F910F9108950F93B1
:105260001F93DF93CF9300D000D00F92CDB7DEB75E
:105270006A837B838C839D8319820E9463258823A4
:1052800049F50E941B258230910521F504EC10E0C0
:105290008A819B81AC81BD81880F991FAA1FBB1F8A
:1052A000880F991FAA1FBB1F880F991FAA1FBB1F1A
:1052B0009C01AD0180E094E2A4EFB0E0BC01CD011F
:1052C0000E94F92BDA01C9010197F80191838083CB
:1052D00081E0898389810F900F900F900F900F903C
:1052E000CF91DF911F910F9108950F931F93DF933B
:1052F000CF9300D000D00F92CDB7DEB76A837B8307
:105300008C839D8319820E946F25882349F50E9412
:105310002A258230910521F50CEC10E08A819B81D1
:10532000AC81BD81880F991FAA1FBB1F880F991FD1
:10533000AA1FBB1F880F991FAA1FBB1F9C01AD018D
:1053400080E094E2A4EFB0E0BC01CD010E94F92B13
:10535000DA01C9010197F8019183808381E0898393
:1053600089810F900F900F900F900F90CF91DF9148
:105370001F910F9108950F931F93DF93CF9300D048
:1053800000D00F92CDB7DEB76A837B838C839D8379
:1053900019820E9463258130E1F404EC10E08A81D7
:1053A0009B81AC81BD819C01AD01220F331F441F45
:1053B000551F80E094E2A4EFB0E0BC01CD010E9453
:1053C000F92BDA01C9010197F8019183808381E00B
:1053D000898389810F900F900F900F900F90CF913C
:1053E000DF911F910F9108950F931F93DF93CF9338
:1053F00000D000D00F92CDB7DEB76A837B838C8359
:105400009D8319820E946F258130E1F40CEC10E03D
:105410008A819B81AC81BD819C01AD01220F331F2C
:10542000441F551F80E094E2A4EFB0E0BC01CD0121
:105430000E94F92BDA01C9010197F8019183808359
:1054400081E0898389810F900F900F900F900F90CA
:10545000CF91DF911F910F910895DF93CF93CDB737
:10546000DEB70E94492A0E946F2A0E94990B83E0AE
:105470000E94F4050E9485099093171480931614D6
:105480000E94852A80911614909117140E94660933
:10549000F1CFDF93CF930F92CDB7DEB781E0898351
:1054A0000E9408150E9485110E945B090E94240930
:1054B0000E94CB098AE090E00E94381B8AE090E0CD
:1054C0000E945D1B89E090E00E94381B89E090E01B
:1054D0000E945D1B89810F90CF91DF910895DF932A
:1054E000CF930F92CDB7DEB781E089830E94FF068C
:1054F0000E94E1070E9484050E943E060E94670008
:1055000089810F90CF91DF910895DF93CF93CDB72D
:10551000DEB780911614909117140097C1F0809116
:105520001614909117140E940607809116149091FA
:1055300017140E94F00780911614909117140E947E
:10554000590680911614909117140E94CB00CF91A8
:10555000DF910895DF93CF9300D000D000D0CDB776
:10556000DEB79C838B836D834E8319821A8212C0AF
:105570008A81882F90E02B813C81820F931FFC0150
:1055800090818D81981719F48A81898307C08A8157
:105590008F5F8A839A818E81981750F3898126962E
:1055A0000FB6F894DEBF0FBECDBFCF91DF91089547
:1055B000DF93CF9300D00F92CDB7DEB789837B8383
:1055C0006A8389818A3048F48981282F205D8A8105
:1055D0009B81FC01208381E001C080E00F900F904F
:1055E0000F90CF91DF910895DF93CF93CDB7DEB7C2
:1055F0002B970FB6F894DEBF0FBECDBF8F83798790
:1056000068875B874A8788EE93E09A8389838A85D7
:105610009B85FC0110828F81882F90E09C838B8377
:105620008F818823C1F48A859B85FC018081882F26
:1056300090E028853985820F931F20E3FC012083A9
:105640008A859B85FC018081282F2F5F8A859B8519
:10565000FC01208354C01D824EC08B819C81298116
:105660003A81B9010E94E52B9B01C901009731F4F1
:105670008A859B85FC018081882381F11E828B8134
:105680009C8129813A81B9010E94E52B9B01C901C6
:105690009E012A5F3F4FB9010E94D82A8B819C81CD
:1056A00029813A81B9010E94E52B9C838B838A85ED
:1056B0009B85FC018081882F90E028853985820FA9
:1056C000931F2E81FC0120838A859B85FC018081AC
:1056D000282F2F5F8A859B85FC01208389819A81F1
:1056E0002AE030E0B9010E94E52B9B013A8329832F
:1056F0008D818F5F8D838D81843008F4AECF2B96A2
:105700000FB6F894DEBF0FBECDBFCF91DF910895E5
:10571000DF93CF9300D000D0CDB7DEB78A837C83F0
:105720006B8381E089838A81803358F08A818A3350
:1057300040F48A81282F20538B819C81FC01208397
:105740001DC08A81813658F08A81873640F48A816B
:10575000282F21558B819C81FC0120830FC08A81D9
:10576000813458F08A81873440F48A81282F21536C
:105770008B819C81FC01208301C0198289810F905B
:105780000F900F900F90CF91DF910895629FD001FD
:10579000739FF001829FE00DF11D649FE00DF11DEC
:1057A000929FF00D839FF00D749FF00D659FF00D9B
:1057B0009927729FB00DE11DF91F639FB00DE11D88
:1057C000F91FBD01CF0111240895AA1BBB1B51E194
:1057D00007C0AA1FBB1FA617B70710F0A61BB70B61
:1057E000881F991F5A95A9F780959095BC01CD0106
:1057F0000895A1E21A2EAA1BBB1BFD010DC0AA1F12
:10580000BB1FEE1FFF1FA217B307E407F50720F029
:10581000A21BB30BE40BF50B661F771F881F991FA4
:105820001A9469F760957095809590959B01AC01ED
:0A583000BD01CF010895F894FFCFE9
:10583A00AA0E00000000AA0D00000000AA01000242
:10584A000100AA0402000000AA08000000001C00CF
:02585A001D002F
:00000001FF
