:100000000C9446000C9465000C9465000C946500FB
:100010000C9465000C9465000C9465000C946500CC
:100020000C9465000C9465000C9465000C946500BC
:100030000C9465000C9465000C9465000C946500AC
:100040000C942D0A0C9465000C9465000C946500CA
:100050000C94A80D0C9465000C9465000C9465003C
:100060000C9465000C9465000C9465000C9465007C
:100070000C9465000C9465000C9465000C9465006C
:100080000C9465000C9465000C94650011241FBE4F
:10009000C0E0D0E4DEBFCDBF11E0A0E0B1E0EAE80F
:1000A000FFE200E00BBF02C007900D92A430B10741
:1000B000D9F711E0A4E0B1E001C01D92AE3EB10756
:1000C000E1F70E9452160C94C3170C9400000E9492
:1000D000C60708951F93CF93DF93EC0162E00E945F
:1000E0004205882321F0109104011130E1F0CE0186
:1000F00068E00E944205882391F00E94EB048695F7
:10010000C82FD0E0219680E065E0AE019E010E94FC
:10011000E80881E065E0AE019E010E94E808DF91F9
:10012000CF911F91089580E062E045E050E02AE021
:1001300030E00E94E80881E062E045E050E02AE01B
:1001400030E00E94E80810930401D1CF813051F0D3
:10015000823009F008956115710579F081E00E94FF
:10016000910808956115710521F480E00E947108DD
:10017000089580E00E949108089581E00E9471082E
:100180000895813039F0823009F0089581E00E94AD
:10019000B108089580E00E94B1080895682F80E0BA
:1001A00045E050E02AE030E00E94C7080895682F3B
:1001B00081E045E050E02AE030E00E94C708089561
:1001C0001F93182F80E0612F45E050E02AE030E0D7
:1001D0000E94C70881E0612F45E050E02AE030E04E
:1001E0000E94C7081F9108951F93CF93DF93182F84
:1001F0006695C62FD0E0219680E0612FAE019E016A
:100200000E94E80881E0612FAE019E010E94E8088B
:10021000DF91CF911F9108951F93182F80E062E026
:1002200045E050E02AE030E00E94E80881E062E02A
:1002300045E050E02AE030E00E94E8081093040115
:100240001F9108950F931F93CF93DF93EC018B01C0
:1002500080E00E9406099983888381E00E94060954
:10026000F80191838083DF91CF911F910F910895C1
:100270001F93DF93CF93CDB7DEB728970FB6F894CF
:10028000DEBF0FBECDBF80E00E940609182F81E0BF
:100290000E9406099AE299831A8293E09B8397E071
:1002A0009C831D838E8383E28F83888780E0BE01D9
:1002B0006F5F7F4F48E00E944A0D28960FB6F89472
:1002C000DEBF0FBECDBFCF91DF911F910895109279
:1002D0000E0110920D01109206011092050110926C
:1002E00008011092070110920A0110920901109260
:1002F0000C0110920B010895DF93CF93CDB7DEB7B9
:1003000029970FB6F894DEBF0FBECDBF61E00E9403
:100310004205882349F429960FB6F894DEBF0FBE34
:10032000CDBFCF91DF91089582E090E00E941E053D
:100330002091050130910601280F391F30930601E5
:100340002093050183E090E00E941E0520910701A3
:1003500030910801280F391F3093080120930701BD
:1003600080910D0190910E01019690930E01809362
:100370000D018830910579F610920E0110920D0151
:1003800080910501909106019695879596958795A0
:100390009695879590930A01809309013695279544
:1003A000369527953695279530930C0120930B01B0
:1003B0001092060110920501109208011092070197
:1003C0004AE249831A8242E04B839C838D833E83B9
:1003D0002F8383E28887898780E0BE016F5F7F4F2C
:1003E00049E00E944A0D97CFDF93CF93CDB7DEB798
:1003F00029970FB6F894DEBF0FBECDBF8AE289837E
:100400001A8282E08B838091090190910A019C837A
:100410008D8380910B0190910C019E838F8383E2E9
:100420008887898780E0BE016F5F7F4F49E00E9427
:100430004A0D29960FB6F894DEBF0FBECDBFCF91FF
:10044000DF910895089564E00E944205882309F42D
:10045000089580E291E06FE071E00E948A0D809142
:100460000F018823A9F380912201833039F0823073
:1004700051F1882369F70E94F004089580912301C7
:100480008130F1F08230E1F0833059F08430F1F0C6
:10049000853091F0863029F18730D1F60E943801FD
:1004A000089581E060E070E00E94A60082E060E0D4
:1004B00070E00E94A600089581E00E94C10082E0E1
:1004C0000E94C10008950E94F401089581E061E056
:1004D00070E00E94A60082E061E070E00E94A60049
:1004E0000895809124010E940C0108959F92AF927B
:1004F000BF92CF92DF92EF92FF920F931F93DF9301
:10050000CF930F92CDB7DEB75C01E62EFF248EEFBE
:100510009FEFE80EF91EE114F10461F101E010E033
:10052000992493946E010894C11CD11C0CC0F8014D
:1005300080818A3211F0833259F59394092D10E0AD
:10054000E016F106B8F00A0D1B1DF8018081B60116
:100550000E945217882359F3F80180818A3269F387
:10056000833259F3898180839394092D10E0E0163A
:10057000F10648F781E00F90CF91DF911F910F9125
:10058000FF90EF90DF90CF90BF90AF909F90089535
:1005900080E0F1CF0E9459051092100110921201D3
:1005A0001092110108951F93DF93CF93CDB7DEB75B
:1005B000A0970FB6F894DEBF0FBECDBF61E00E94DA
:1005C0004205882309F4F1C180911001882309F4C0
:1005D000F6C180EE62E00E94DF05182F80EE63E036
:1005E0000E94DF05312F20E090E0822B932B9A832D
:1005F00089832091110130911201280F391F309306
:1006000012012093110180EE64E00E94DF05182F93
:1006100080EE65E00E94DF05312F20E090E0822B24
:10062000932B969587952091110130911201280FF7
:10063000391F309312012093110180EE66E00E9471
:10064000DF05182F80EE67E00E94DF05312F20E0E4
:1006500090E0822B932B63E070E00E948D178091D5
:10066000110190911201860F971F909312018093B0
:10067000110180EE68E00E94DF05182F80EE69E02E
:100680000E94DF05312F20E090E0822B932B96957E
:100690008795969587952091110130911201280F29
:1006A000391F309312012093110180EE6AE00E94FD
:1006B000DF05182F80EE6BE00E94DF05312F20E070
:1006C00090E0822B932B65E070E00E948D17809163
:1006D000110190911201860F971F90931201809340
:1006E000110180EE6CE00E94DF05182F80EE6DE0B6
:1006F0000E94DF05312F20E090E0822B932B66E0F3
:1007000070E00E948D178091110190911201860F67
:10071000971F909312018093110180EE6EE00E946A
:10072000DF05182F80EE6FE00E94DF05312F20E0FB
:1007300090E0822B932B67E070E00E948D178091F0
:10074000110190911201860F971F909312018093CF
:10075000110180EE60E10E94DF05182F80EE61E15B
:100760000E94DF05312F20E090E0822B932B96959D
:10077000879596958795969587952091110130914B
:100780001201280F391F309312012093110180EEBE
:1007900062E10E94DF05182F80EE63E10E94DF0511
:1007A000312F20E090E0822B932B69E070E00E94D3
:1007B0008D178091110190911201860F971F9093D0
:1007C00012018093110180EE64E10E94DF05182F71
:1007D00080EE65E10E94DF05312F20E090E0822B62
:1007E000932B6AE070E00E948D1780911101909127
:1007F0001201860F971F909312018093110180EED2
:1008000066E10E94DF05182F80EE67E10E94DF0598
:10081000312F20E090E0822B932B6BE070E00E9460
:100820008D178091110190911201860F971F90935F
:1008300012018093110180EE68E10E94DF05182FFC
:1008400080EE69E10E94DF05312F20E090E0822BED
:10085000932B6CE070E00E948D17809111019091B4
:100860001201860F971F909312018093110180EE61
:100870006AE10E94DF05182F80EE6BE10E94DF0520
:10088000312F20E090E0822B932B6DE070E00E94EE
:100890008D178091110190911201860F971F9093EF
:1008A00012018093110180EE6CE10E94DF05182F88
:1008B00080EE6DE10E94DF05312F20E090E0822B79
:1008C000932B6EE070E00E948D1780911101909142
:1008D0001201860F971F909312018093110180EEF1
:1008E0006EE10E94DF05182F80EE6FE10E94DF05A8
:1008F000312F20E090E0822B932B6FE070E00E947C
:100900008D178091110190911201860F971F90937E
:1009100012018093110180EE60E20E94DF05182F22
:1009200080EE61E20E94DF05312F20E090E0822B13
:10093000932B929582958F7089279F70892720919C
:10094000110130911201820F931F929582958F7041
:1009500089279F70892790931201809311018981C3
:100960009A818E31910558F48530910588F19093E4
:1009700012018093110188E090E00E944B051092D3
:1009800010018AE289831A821B8280911101909161
:1009900012019C838D8383E28E838F8380E0BE016E
:1009A0006F5F7F4F47E00E944A0DA0960FB6F89404
:1009B000DEBF0FBECDBFCF91DF911F91089580EEB6
:1009C00060E041E50E945C0581E080931001EDCF7D
:1009D00085E090E0CCCF80911101909112010895B3
:1009E000DF93CF93CDB7DEB727970FB6F894DEBF6E
:1009F0000FBECDBF8AE289831A821B8280911101CA
:100A0000909112019C838D8383E28E838F8380E09B
:100A1000BE016F5F7F4F47E00E944A0D27960FB6D9
:100A2000F894DEBF0FBECDBFCF91DF91089580E473
:100A300090E00E940E0E0E94390E08950E94290E29
:100A40000E94470E80917A0086FDFCCF0E948E0E98
:100A5000089510921401109213010895F8942091B2
:100A600013013091140180959095822393239093E4
:100A7000140180931301789408958091130190914B
:100A80001401089570E06823792381E061157105F0
:100A900009F480E00895F894209113013091140135
:100AA000282B392B3093140120931301789481E083
:100AB00008950E94000B089594EA9093BC00209141
:100AC00015013091160109C02F5F3F4FF901319791
:100AD00053E0E93EF50708F05BC09091BC0097FF3A
:100AE000F3CF30931601209315018093BB0084E867
:100AF0008093BC00809115019091160109C0019668
:100B00009C012150304053E0293E350708F052C087
:100B10002091BC0027FFF3CF90931601809315011D
:100B20006093BB0084E88093BC0080911501909194
:100B3000160108C001969C012150304053E0293E27
:100B4000350798F52091BC0027FFF4CF909316014C
:100B5000809315014093BB0084E88093BC00809192
:100B600015019091160108C001969C01215030405A
:100B700043E0293E340788F42091BC0027FFF4CFDE
:100B8000909316018093150184E98093BC00089529
:100B90001092160110921501A8CF10921601109212
:100BA000150184E98093BC000895109216011092FB
:100BB0001501D0CF1092160110921501B1CF1092ED
:100BC00016011092150194EA9093BC0040E050E0A9
:100BD00020E030E009C0A9014F5F5F4F93E04A3E3B
:100BE000590709F483C09A019091BC0097FFF3CF95
:100BF00050931601409315018093BB0094E89093A5
:100C0000BC0009C0A9014F5F5F4F93E0293E39073F
:100C100008F090C09A019091BC0097FFF3CF5093D9
:100C20001601409315016093BB0094E89093BC00BB
:100C300009C0A9014F5F5F4F93E0293E390708F0D3
:100C40006EC09A019091BC0097FFF3CF50931601AC
:100C50004093150194EA9093BC0009C0A9014F5F2D
:100C60005F4F93E0293E390708F052C09A019091F6
:100C7000BC0097FFF3CF50931601409315018F5F8F
:100C80008093BB0084EC8093BC008091150190910F
:100C9000160107C0C901019643E0293E340788F5D3
:100CA0009C014091BC0047FFF5CF909316018093C3
:100CB000150184E88093BC00809115019091160184
:100CC00007C0C901019643E0293E340728F49C017E
:100CD0004091BC0047FFF5CF90931601809315011A
:100CE0008091BB0094E99093BC0008951092160186
:100CF0001092150120E030E040911501509116014D
:100D00007BCF109216011092150120E030E0D1CF78
:100D1000109216011092150120E030E0B0CF109231
:100D200016011092150120E030E04091150150911C
:100D3000160190CF109216011092150120E030E0BC
:100D400040911501509116016ECFF8940895789452
:100D5000089580915A01813009F442C080916D015B
:100D6000813009F00895909177018091760198176C
:100D700008F08AC080916B0190916C0181309105DF
:100D800009F499C08091700190917101019690933E
:100D900071018093700120916E0130916F01821773
:100DA000930701F780916701909168018130910567
:100DB00009F4D7C080916501909166010E942710C7
:100DC00081E090E090936C0180936B01109271012F
:100DD00010927001809177018F5F80937701089561
:100DE00090916301809164018917B8F58091580151
:100DF000909159018130910509F485C080915D0180
:100E000090915E01019690935E0180935D01209127
:100E10005B0130915C018217930709F09FCF8091AD
:100E20005401909155018130910509F493C080914E
:100E30005201909153010E94271081E090E090931D
:100E400059018093580110925E0110925D018091CA
:100E500064018F5F8093640181CF10925A011092D8
:100E60005C0110925B0110925E0110925D01109284
:100E7000600110925F011092620110926101109264
:100E80006301109264016ACF10926D0110926F019C
:100E900010926E0110927101109270011092730104
:100EA00010927201109275011092740110927601E5
:100EB00010927701089580917401909175010196C7
:100EC00090937501809374012091720130917301A8
:100ED0008217930709F046CF8091670190916801CE
:100EE0008130910509F44BC08091650190916601B4
:100EF0000E94341010926C0110926B0110927501D7
:100F0000109274010895809161019091620101969F
:100F1000909362018093610120915F0130916001A3
:100F20008217930709F01ACF8091540190915501CF
:100F300081309105E9F080915201909153010E9416
:100F400034101092590110925801109262011092BF
:100F5000610104CF80915201909153010E9434109D
:100F60006CCF80916501909166010E94341028CF6A
:100F700080915201909153010E942710E2CF8091FD
:100F80006501909166010E942710B4CF8091000105
:100F900090910101909353018093520121E030E040
:100FA00030935501209354013093570120935601FB
:100FB000309359012093580110925A0110925C010C
:100FC00010925B0110925E0110925D01109260011F
:100FD00010925F0110926201109261011092630100
:100FE000109264010E94E010809156019091570187
:100FF000009709F467C080915401909155018130A8
:10100000910509F467C080915201909153010E94AB
:1010100027108091020190910301909366018093C3
:10102000650121E030E0309368012093670130933F
:101030006A012093690130936C0120936B01109237
:101040006D0110926F0110926E0110927101109259
:10105000700110927301109272011092750110923A
:10106000740110927601109277010E94E010809135
:10107000690190916A010097B9F48091670190919C
:10108000680181309105B9F0809165019091660108
:101090000E94341080E061E070E041E050E029EA15
:1010A00036E00E943A0908958091670190916801A5
:1010B0008130910549F380916501909166010E940C
:1010C0002710E8CF8091540190915501813091050E
:1010D00009F499CF80915201909153010E943410EC
:1010E00098CF90E09C01220F331FF901EE0FFF1FF4
:1010F000EE0FFF1FEE0FFF1FE20FF31FE80FF91FA8
:10110000EE5AFE4F828193818130910529F08081D2
:1011100091810E9434100895808191810E9427104E
:10112000089590E09C01220F331FF901EE0FFF1F7D
:10113000EE0FFF1FEE0FFF1FE20FF31FE80FF91F67
:10114000EE5AFE4F828193818130910529F0808192
:1011500091810E9427100895808191810E9434100E
:10116000089590E09C01220F331FF901EE0FFF1F3D
:10117000EE0FFF1FEE0FFF1FE20FF31FE80FF91F27
:10118000EE5AFE4F808191810E946D0F089590E08C
:10119000DC01AA0FBB1FFD01EE0FFF1FEE0FFF1FAB
:1011A000EE0FFF1FEA0FFB1FE80FF91FEE5AFE4F6D
:1011B0008085813061F05287418714861386368797
:1011C0002587108A1786618B128A81E080870895AF
:1011D00090E0DC01AA0FBB1FFD01EE0FFF1FEE0F19
:1011E000FF1FEE0FFF1FEA0FFB1FE80FF91FEE5A5C
:1011F000FE4F528741871486138636872587108ACB
:101200001786618B128A81E08087089590E09C01A7
:10121000220F331FF901EE0FFF1FEE0FFF1FEE0F1E
:10122000FF1FE20FF31FE80FF91FEE5AFE4F8681F2
:1012300097810895109278011092800110927F0199
:101240001092810110928901109288018CE90E940C
:10125000E91385E090E00E94DF1382E090E00E94B5
:10126000B91382E090E00E94001482E090E00E94B6
:10127000F113089590E0FC01EE0FFF1FEE0FFF1F2A
:10128000EE0FFF1FE80FF91FE858FE4F81E0808343
:101290007283618314821382568345833087278348
:1012A000089590E0FC01EE0FFF1FEE0FFF1FEE0F01
:1012B000FF1FE80FF91FE858FE4F1082089590E0D5
:1012C000FC01EE0FFF1FEE0FFF1FEE0FFF1FE80FD9
:1012D000F91FE858FE4F1082128211821482138285
:1012E00082E090E09683858310861782089590E0CF
:1012F000FC01EE0FFF1FEE0FFF1FEE0FFF1FE80FA9
:10130000F91FE858FE4F14821382089590E0FC0103
:10131000EE0FFF1FEE0FFF1FEE0FFF1FE80FF91F6D
:10132000E858FE4F148213827283618308958CE91A
:101330000E94E91385E090E00E94DF1382E090E0D4
:101340000E94B91382E090E00E94001482E090E0D5
:101350000E94F1130895AF92BF92CF92DF92EF9265
:10136000FF920F931F93CF93DF937B018C01EA01D0
:1013700020E83EE340E050E00E946E176150784163
:101380008C4F9F4F20E038EE43E050E00E94A117C1
:101390002F3F310511F008F042C02038310590F49C
:1013A0002830310508F04FC02230310508F441C023
:1013B00082E090E099838883E0E1AE2EB12CC12CCD
:1013C000D12C09C084E090E099838883A12CA2E00D
:1013D000BA2EC12CD12C60E472E48FE090E0A80119
:1013E00097010E94A117C601B5010E946E179B01CB
:1013F000AC0160E074E284EF90E00E94A117220F3C
:10140000331F441F551FC901DF91CF911F910F91C9
:10141000FF90EF90DF90CF90BF90AF90089585E060
:1014200090E099838883A12CB8E0BB2EC12CD12CED
:10143000D2CF81E090E09983888372E0A72EB12C0F
:10144000C12CD12CC8CF83E090E099838883F0E849
:10145000AF2EB12CC12CD12CBECF1F920F920FB644
:101460000F920BB60F9211242F933F934F935F93DC
:101470006F937F938F939F93AF93BF93EF93FF935C
:10148000809117018F5F80931701809117018A3037
:1014900009F49FC0809178018130C9F08091810169
:1014A000813009F452C016BCFF91EF91BF91AF910A
:1014B0009F918F917F916F915F914F913F912F916C
:1014C0000F900BBE0F900FBE0F901F90189580913C
:1014D0007B0190917C01019690937C0180937B012C
:1014E00020917B0130917C018091790190917A016A
:1014F0002817390799F680917D0190917E018230FD
:10150000910561F210927C0110927B01E0917F01C4
:10151000F0918001309709F0099580917D019091BB
:101520007E01009709F0BACFE8E7F1E01092780168
:10153000128211821482138282E090E090937E01E5
:1015400080937D0110861782A9CF809184019091AC
:1015500085010196909385018093840120918401F7
:10156000309185018091820190918301281739077C
:1015700009F099CF80918601909187018230910581
:1015800009F491CF1092850110928401E0918801B5
:10159000F0918901309709F0099580918601909129
:1015A0008701009709F07FCF10928101109283018B
:1015B00010928201109285011092840182E090E0E5
:1015C000909387018093860110928901109288017F
:1015D0006ACF1092170181E090E00E944B05809144
:1015E00018018F5F80931801809118018A3009F0EB
:1015F00051CF1092180182E090E00E944B054ACF33
:101600001092B9008CE08093B80084E08093BC0015
:10161000089594EA9093BC002FEF30E003C021506E
:10162000304099F09091BC0097FFF9CF8093BB00B8
:1016300084E88093BC008FEF90E002C0019741F0F6
:101640002091BC0027FFFACF08951092BC00EECF86
:101650001092BC00089584E98093BC0008958093A3
:10166000BB0084E88093BC008FEF90E002C001973C
:1016700029F02091BC0027FFFACF08951092BC00FA
:1016800008958823B1F094EC9093BC002FEF30E0E4
:1016900003C02150304079F09091BC0097FFF9CF02
:1016A0009091BB00882319F484E98093BC00892FB2
:1016B000089594E8E9CF1092BC00F2CF84EC8093B7
:1016C000BC008FEF90E002C0019739F02091BC0080
:1016D00027FFFACF8091BB0008951092BC00809143
:1016E000BB00089584E88093BC008FEF90E002C0B7
:1016F000019751F02091BC0027FFFACF8091BB00E9
:1017000094E99093BC0008951092BC008091BB00B6
:1017100094E99093BC0008958FEF90E002C0019788
:1017200029F02091BC0027FFFACF08951092BC0049
:101730000895880F816094EA9093BC002FEF30E009
:1017400004C02150304009F43DC09091BC0097FF87
:10175000F8CF8093BB0084E88093BC002FEF30E08B
:1017600003C02150304089F18091BC0087FFF9CF40
:10177000442371F1942F9150E62FF72F64E951E043
:10178000D1F450E084E88093BC002FEF30E003C038
:101790002150304091F08091BC0087FFF9CF8091BB
:1017A000BB00552311F46093BC008193992341F051
:1017B000915051E031F384ECE6CF1092BC00EFCFB2
:1017C000842F08951092BC00C4CF1092BC00D0CFDB
:1017D00080E00895382F330F94EA9093BC00EFEF28
:1017E000F0E003C0319709F46CC09091BC0097FF02
:1017F000F9CF3093BB0094E89093BC00EFEFF0E09A
:1018000003C0319709F460C09091BC0097FFF9CFF5
:101810006093BB0094E89093BC006FEF70E004C04D
:101820006150704009F453C09091BC0097FFF8CF0D
:10183000880F816094EA9093BC006FEF70E004C061
:101840006150704009F446C09091BC0097FFF8CFFA
:101850008093BB0084E88093BC006FEF70E003C00E
:1018600061507040D1F19091BC0097FFF9CF2223D5
:1018700031F1322F3150E42FF52F64E981E0D1F4BA
:1018800080E094E89093BC004FEF50E003C04150DB
:10189000504091F09091BC0097FFF9CF9091BB0020
:1018A000882311F46093BC009193332341F03150AD
:1018B00081E031F394ECE6CF1092BC00EFCF822FA1
:1018C00008951092BC0095CF1092BC00A1CF109249
:1018D000BC00AECF1092BC00BBCF1092BC00C7CFF3
:1018E000880F94EA9093BC002FEF30E003C02150A2
:1018F000304091F19091BC0097FFF9CF8093BB00ED
:1019000084E88093BC008FEF90E002C0019739F12A
:101910002091BC0027FFFACF6093BB0084E880933E
:10192000BC008FEF90E002C00197E1F02091BC0075
:1019300027FFFACF4093BB0084E88093BC008FEF71
:1019400090E002C0019789F02091BC0027FFFACFF8
:1019500084E98093BC0008951092BC00CFCF109210
:10196000BC00DACF1092BC00E5CF1092BC0084E935
:101970008093BC000895482F440F94EA9093BC00D4
:101980002FEF30E004C02150304009F45BC090914B
:10199000BC0097FFF8CF4093BB0094E89093BC0045
:1019A0002FEF30E004C02150304009F44EC0909138
:1019B000BC0097FFF8CF6093BB0094E89093BC0005
:1019C0002FEF30E004C02150304009F441C0909125
:1019D000BC0097FFF8CF880F816094EA9093BC0019
:1019E0002FEF30E003C021503040A9F19091BC00AE
:1019F00097FFF9CF8093BB0084E88093BC008FEF02
:101A000090E002C0019751F12091BC0027FFFACF6E
:101A100084E88093BC008FEF90E002C0019751F002
:101A20002091BC0027FFFACF8091BB0094E99093EE
:101A3000BC0008951092BC008091BB0094E9909383
:101A4000BC0008951092BC00A6CF1092BC00B3CF8A
:101A50001092BC00C0CF1092BC00CCCF1092BC0042
:101A6000D7CF80E190E09093C5008093C40083E0DD
:101A700090E00E94C81480E090E00E94EC1480E0A6
:101A800090E00E94FE140E9490140E94AC140E94E8
:101A900010150895882389F4442311F1E62FF72FB8
:101AA00090E08091C00085FFFCCF81918093C600BB
:101AB0009F5F9417B0F381E00895813089F4442347
:101AC00089F0E62FF72F90E08091C80085FFFCCFCA
:101AD00081918093CE009F5F9417B0F381E00895C9
:101AE00080E0089580E00895882321F0813051F04E
:101AF00080E008958091C00085FFFCCF6093C60010
:101B000081E008958091C80085FFFCCF6093CE00EE
:101B100081E0089520911B01222381F040E0242FD1
:101B200030E0FC01E20FF31F26573E4FD9012C9104
:101B300020834F5F20911B01421788F3FB01208314
:101B40000895882321F470931A0160931901089570
:101B50001F920F920FB60F920BB60F9211242F9374
:101B60003F934F935F936F937F938F939F93AF9325
:101B7000BF93EF93FF938091C60090911D0199232D
:101B8000B1F48A3209F442C0FF91EF91BF91AF9155
:101B90009F918F917F916F915F914F913F912F9185
:101BA0000F900BBE0F900FBE0F901F901895409195
:101BB0001C01242F30E0F901E454FE4F80834F5F75
:101BC00040931C01842F90E084549E4FFC01319778
:101BD00050815332C9F60297FC0180818332A1F60D
:101BE000442359F0ECEBF1E0AAE8B1E023543E4F76
:101BF00081918D93E217F307D9F740931B0110925F
:101C00001D0184E090E00E944B05BECF8093BC0193
:101C100081E080931C0180931D01B6CFECE7F0E0DA
:101C20009081807C9F73892B808381E00895ECE70D
:101C3000F0E080818062808381E0089580917C0063
:101C400081700895ECE7F0E080818F7D808381E0F2
:101C50000895ECE7F0E090818F71907E892B80836E
:101C600081E0089520917C0030E02F713070C9012F
:101C70000895EAE7F0E080818068808381E008953C
:101C8000EAE7F0E080818F77808381E00895EAE7DA
:101C9000F0E080818064808381E00895EAE7F0E0ED
:101CA00080818062808381E00895EAE7F0E08081AE
:101CB0008F7D808381E00895EAE7F0E080818F7A6C
:101CC0008061808381E00895EAE7F0E080818860A8
:101CD000808381E00895EAE7F0E08081877F808358
:101CE00081E00895EAE7F0E090818770987F892B82
:101CF000808381E00895EBE7F0E090818770987F22
:101D0000892B808381E0089580917C0080FD03C051
:101D1000809178000895809179000895209178004D
:101D200030917900C9010895882329F485B78D7F02
:101D300085BF81E0089585B7826085BF81E0089501
:101D4000882329F485B78E7F85BF81E0089585B704
:101D5000816085BF81E00895E9E6F0E09081982BED
:101D6000908381E00895E9E6F0E09081982B9083DC
:101D700081E00895E9E6F0E09081982B908381E07E
:101D80000895882319F4E89881E00895E89A81E09D
:101D90000895882319F4E99881E00895E99A81E08B
:101DA0000895882319F4EA9881E00895EA9A81E079
:101DB0000895882319F4E09881E00895E09A81E07D
:101DC0000895882319F4E19881E00895E19A81E06B
:101DD0000895882319F4E29881E00895E29A81E059
:101DE0000895882339F4809168008E7F809368007D
:101DF00081E008958091680081608093680081E0AF
:101E00000895882339F4809168008D7F809368005D
:101E100081E008958091680082608093680081E08D
:101E20000895882339F4809168008B7F809368003F
:101E300081E008958091680084608093680081E06B
:101E40000895882339F480916800877F8093680023
:101E500081E008958091680088608093680081E047
:101E60000895882319F4D89881E00895D89A81E0DC
:101E70000895882319F4D99881E00895D99A81E0CA
:101E80000895882319F4DA9881E00895DA9A81E0B8
:101E90000895882319F4DB9881E00895DB9A81E0A6
:101EA0000895E3E7F0E09081982B908381E0089516
:101EB000EDE6F0E09081982B908381E00895ECE6C8
:101EC000F0E09081982B908381E00895EBE6F0E0BC
:101ED0009081982B908381E008959C0136952795F9
:101EE00036952795369527958770222391F02130D6
:101EF000E1F0223031F1233051F49BB121E030E0A8
:101F000002C0220F331F8A95E2F792279BB981E026
:101F1000089592B121E030E002C0220F331F8A956C
:101F2000E2F7922792B981E0089595B121E030E07F
:101F300002C0220F331F8A95E2F7922795B981E0FC
:101F4000089598B121E030E002C0220F331F8A9536
:101F5000E2F7922798B9DBCF882329F485B78F7EE3
:101F600085BF81E0089585B7806185BF81E00895D0
:101F7000882379F4442311F522B181E090E002C076
:101F8000880F991F6A95E2F78095822382B981E0D4
:101F900008958130F9F0823051F18330C1F7442344
:101FA00009F04AC02BB181E090E002C0880F991F70
:101FB0006A95E2F7809582238BB9E9CF22B181E05F
:101FC00090E002C0880F991F6A95E2F7282B22B98A
:101FD00081E008954423C1F025B181E090E002C082
:101FE000880F991F6A95E2F7282B25B9D0CF442393
:101FF000B9F028B181E090E002C0880F991F6A957E
:10200000E2F7282B28B9C3CF25B181E090E002C0C8
:10201000880F991F6A95E2F78095822385B9B7CF1B
:1020200028B181E090E002C0880F991F6A95E2F71D
:102030008095822388B9ABCF2BB181E090E002C0BC
:10204000880F991F6A95E2F7282B2BB9A0CFBC0106
:10205000969587959695879596958795677041E0B3
:102060000E94B80F81E00895BC01969587959695DA
:10207000879596958795677040E00E94B80F81E03C
:102080000895882379F4442311F522B181E090E08A
:1020900002C0880F991F6A95E2F78095822382B962
:1020A00081E008958130F9F0823051F18330C1F739
:1020B000442309F04AC02AB181E090E002C0880FB1
:1020C000991F6A95E2F7809582238AB9E9CF22B1F8
:1020D00081E090E002C0880F991F6A95E2F7282BF3
:1020E00022B981E008954423C1F024B181E090E059
:1020F00002C0880F991F6A95E2F7282B24B9D0CF28
:102100004423B9F027B181E090E002C0880F991F05
:102110006A95E2F7282B27B9C3CF24B181E090E07C
:1021200002C0880F991F6A95E2F78095822384B9CF
:10213000B7CF27B181E090E002C0880F991F6A9560
:10214000E2F78095822387B9ABCF2AB181E090E096
:1021500002C0880F991F6A95E2F7282B2AB9A0CFF1
:10216000FF920F931F93CF93DF93EB018C01169592
:102170000795169507951695079547E0F42EF822D2
:10218000802F6F2D40E00E944110C130D10561F0D9
:10219000802F6F2D40E00E94B80F81E0DF91CF913A
:1021A0001F910F91FF900895802F6F2D41E00E94A5
:1021B000B80F81E0DF91CF911F910F91FF900895AB
:1021C000BC019695879596958795969587956770A6
:1021D00041E00E94411081E00895882379F444236E
:1021E00011F520B181E090E002C0880F991F6A9537
:1021F000E2F78095822380B981E008958130F9F07B
:10220000823051F18330C1F7442309F04AC029B12B
:1022100081E090E002C0880F991F6A95E2F78095EF
:10222000822389B9E9CF20B181E090E002C0880F14
:10223000991F6A95E2F7282B20B981E0089544237D
:10224000C1F023B181E090E002C0880F991F6A9528
:10225000E2F7282B23B9D0CF4423B9F026B181E08F
:1022600090E002C0880F991F6A95E2F7282B26B9E3
:10227000C3CF23B181E090E002C0880F991F6A9517
:10228000E2F78095822383B9B7CF26B181E090E051
:1022900002C0880F991F6A95E2F78095822386B95C
:1022A000ABCF29B181E090E002C0880F991F6A95F9
:1022B000E2F7282B29B9A0CF662369F492B121E077
:1022C00030E002C0220F331F8A95E2F720952923C0
:1022D00022B981E0089592B121E030E002C0220FDE
:1022E000331F8A95E2F7922B92B981E0089582B16B
:1022F0000895662369F492B121E030E002C0220F14
:10230000331F8A95E2F72095292322B981E00895A9
:1023100092B121E030E002C0220F331F8A95E2F72C
:10232000922B92B981E00895662369F490B121E07F
:1023300030E002C0220F331F8A95E2F7209529234F
:1023400020B981E0089590B121E030E002C0220F71
:10235000331F8A95E2F7922B90B981E008956623A6
:1023600069F495B121E030E002C0220F331F8A9555
:10237000E2F72095292325B981E0089595B121E060
:1023800030E002C0220F331F8A95E2F7922B95B9F5
:1023900081E0089585B10895662369F494B121E040
:1023A00030E002C0220F331F8A95E2F720952923DF
:1023B00024B981E0089594B121E030E002C0220FF9
:1023C000331F8A95E2F7922B94B981E00895662332
:1023D00069F493B121E030E002C0220F331F8A95E7
:1023E000E2F72095292323B981E0089593B121E0F4
:1023F00030E002C0220F331F8A95E2F7922B93B987
:1024000081E00895662369F498B121E030E002C0CC
:10241000220F331F8A95E2F72095292328B981E0FE
:10242000089598B121E030E002C0220F331F8A9551
:10243000E2F7922B98B981E0089588B10895662358
:1024400069F497B121E030E002C0220F331F8A9572
:10245000E2F72095292327B981E0089597B121E07B
:1024600030E002C0220F331F8A95E2F7922B97B912
:1024700081E00895662369F496B121E030E002C05E
:10248000220F331F8A95E2F72095292326B981E090
:10249000089596B121E030E002C0220F331F8A95E3
:1024A000E2F7922B96B981E00895662369F49BB117
:1024B00021E030E002C0220F331F8A95E2F7209519
:1024C00029232BB981E008959BB121E030E002C0BF
:1024D000220F331F8A95E2F7922B9BB981E0089572
:1024E0008BB10895662369F49AB121E030E002C00F
:1024F000220F331F8A95E2F7209529232AB981E01C
:1025000008959AB121E030E002C0220F331F8A956E
:10251000E2F7922B9AB981E00895662369F499B1A4
:1025200021E030E002C0220F331F8A95E2F72095A8
:10253000292329B981E0089599B121E030E002C052
:10254000220F331F8A95E2F7922B99B981E0089503
:1025500093B7982B93BF81E00895882329F483B71C
:102560008E7F83BF81E0089583B7816083BF81E060
:102570000895882329F485B78F7B85BF81E008956E
:1025800085B7806485BF81E00895882329F485B7E5
:102590008F7D85BF81E0089585B7806285BF81E02A
:1025A0000895882339F4809164008F7780936400C4
:1025B00081E008958091640080688093640081E0E8
:1025C0000895882339F4809164008F7B80936400A0
:1025D00081E008958091640080648093640081E0CC
:1025E0000895882339F4809164008F7D809364007E
:1025F00081E008958091640080628093640081E0AE
:102600000895882339F4809164008F7E809364005C
:1026100081E008958091640080618093640081E08E
:102620000895882339F480916400877F8093640043
:1026300081E008958091640088608093640081E067
:102640000895882339F4809164008B7F809364001F
:1026500081E008958091640084608093640081E04B
:102660000895882339F4809164008D7F80936400FD
:1026700081E008958091640082608093640081E02D
:102680000895882339F4809164008E7F80936400DC
:1026900081E008958091640081608093640081E00E
:1026A00008958093660081E00895882339F480912D
:1026B00061008F778093610081E0089580916100CF
:1026C00080688093610081E00895E1E6F0E0908108
:1026D0008F70892B808381E0089584B780E008950E
:1026E00084B780E0089584B780E0089584B780E0DF
:1026F000089584B780E008958091600080E0089597
:10270000882339F4809160008F7B8093600081E0A2
:1027100008958091600080648093600081E0089556
:102720008091600080E00895882339F480916000F2
:10273000877F8093600081E00895809160008860C9
:102740008093600081E00895E0E6F0E09081982BAE
:10275000908381E0089594B5807C9F73892B84BD1C
:1027600081E0089595B580739F7C892B85BD81E0BC
:10277000089580FF0FC094B5916094BD81FF0FC094
:1027800094B5926094BD83FD0FC085B5877F85BDEC
:1027900081E0089594B59E7F94BD81FDF1CF94B5FD
:1027A0009D7F94BD83FFF1CF85B5886085BD81E0B5
:1027B000089595B5807C892B85BD81E0089595B5F8
:1027C0008770987F892B85BD089586BD089586B54D
:1027D000089587BD089587B5089588BD089588B583
:1027E0000895EEE6F0E090818770892B808308954C
:1027F000EEE6F0E0908187708095892380830895CC
:10280000EEE6F0E0908187708095892380830895BB
:102810008093C60081E008958093CE0081E0089502
:102820008091C60008958091CE0008958091C000E7
:10283000807208958091C800807208952091C00030
:1028400030E02C713070C90108952091C80030E04B
:102850002C713070C9010895009731F02091C000AB
:10286000282B2093C00008958091C0008093C00061
:102870000895009731F02091C800282B2093C800BC
:1028800008958091C8008093C80008952091C000E9
:1028900030E022703070C90108952091C80030E006
:1028A00022703070C9010895E0ECF0E08081816011
:1028B000808381E00895E8ECF0E08081816080838E
:1028C00081E008958091C000817008958091C800D2
:1028D000817008958091C000807808958091C8002B
:1028E00080780895E0ECF0E080818064808381E06E
:1028F0000895E8ECF0E080818064808381E00895B1
:102900008091C000807408958091C80080740895FB
:102910008091C000807208958091C80080720895EF
:10292000E1ECF0E080818860808381E00895E9EC4B
:10293000F0E080818860808381E00895E1ECF0E040
:102940008081877F808381E00895E9ECF0E08081D9
:10295000877F808381E00895E1ECF0E080818061F1
:10296000808381E00895E9ECF0E0808180618083DC
:1029700081E00895E1ECF0E080818F7E808381E04A
:102980000895E9ECF0E080818F7E808381E00895F6
:10299000E1ECF0E02081982F94702B7F922B9083B4
:1029A000E2ECF0E09081880F8670997F892B80831C
:1029B00081E00895E9ECF0E02081982F94702B7F5E
:1029C000922B9083EAECF0E09081880F8670997FDB
:1029D000892B808381E00895E2ECF0E090818073A0
:1029E0009F7C892B808381E00895EAECF0E0908160
:1029F00080739F7C892B808381E00895E2ECF0E076
:102A000090818870977F892B808381E00895EAEC1C
:102A1000F0E090818870977F892B808381E0089512
:102A2000E1ECF0E080818068808381E00895E9EC4A
:102A3000F0E080818068808381E00895E1ECF0E03F
:102A400080818F77808381E00895E9ECF0E08081D8
:102A50008F77808381E00895E1ECF0E080818064ED
:102A6000808381E00895E9ECF0E0808180648083D8
:102A700081E00895E1ECF0E080818F7B808381E04C
:102A80000895E9ECF0E080818F7B808381E00895F8
:102A9000E1ECF0E080818062808381E00895E9ECE0
:102AA000F0E080818062808381E00895E1ECF0E0D5
:102AB00080818F7D808381E00895E9ECF0E0808162
:102AC0008F7D808381E00895E2ECF0E09081817059
:102AD0009E7F892B808381E00895EAECF0E090816D
:102AE00081709E7F892B808381E008952091C000B2
:102AF00020FD26C02091C00021FD20C09B01AC011B
:102B0000220F331F441F551F220F331F441F551F11
:102B1000220F331F441F551F220F331F441F551F01
:102B200060E074E284EF90E00E94A11721503040F1
:102B30003093C5002093C40081E0089580E008959B
:102B400080E008952091C80020FD26C02091C80093
:102B500021FD20C09B01AC01220F331F441F551FD4
:102B6000220F331F441F551F220F331F441F551FB1
:102B7000220F331F441F551F60E074E284EF90E082
:102B80000E94A117215030403093CD002093CC00FB
:102B900081E0089580E0089580E008952091C000CC
:102BA00020FD22C02091C00021FD02C080E00895D8
:102BB0009B01AC01220F331F441F551F220F331FEF
:102BC000441F551F220F331F441F551F60E074E23E
:102BD00084EF90E00E94A117215030403093C5004F
:102BE0002093C40081E0089580E008952091C800FA
:102BF00020FD22C02091C80021FD02C080E0089580
:102C00009B01AC01220F331F441F551F220F331F9E
:102C1000441F551F220F331F441F551F60E074E2ED
:102C200084EF90E00E94A117215030403093CD00F6
:102C30002093CC0081E0089580E008952091C000A9
:102C400020FD02C080E008959B01AC01220F331FDC
:102C5000441F551F60E074E284EF90E00E94A117CA
:102C6000215030403093C5002093C40081E0089586
:102C70002091C80020FD02C080E008959B01AC01B6
:102C8000220F331F441F551F60E074E284EF90E071
:102C90000E94A117215030403093CD002093CC00EA
:102CA00081E008950E94310D0E941A090E942905B1
:102CB0000E9417050E94000B8AE090E00E94E0103D
:102CC0008AE090E00E94341089E090E00E94E010D9
:102CD00089E090E00E9434100E9422020E94CA0201
:102CE0000E9467000E9467010E94A70683E00E947D
:102CF000E00004C080E090E00E942E050E943D05A7
:102D000090931F0180931E010097A1F30E9423025C
:102D100080911E0190911F010E94D30280911E019B
:102D200090911F010E947C0180911E0190911F01D2
:102D30000E946A0080911E0190911F01DDCF442303
:102D400069F0FC012081261759F0319680E003C01C
:102D50009191961731F08F5F8417D0F380E008953A
:102D600080E008958A3028F4805DFB01808381E053
:102D7000089580E008951F93CF93DF93EB01FA014C
:102D80001082882309F46EC0282F30E0C90168EE54
:102D900073E00E948D176115710509F046C040E08F
:102DA000C90164E670E00E948D176115710509F490
:102DB00052C06A3008F453C010E0C90164E670E004
:102DC0000E948D179C01DE01A40FB11D1C93408150
:102DD0004F5F4083C9016AE070E00E948D17611562
:102DE000710509F455C06A3008F456C010E0C901F5
:102DF0006AE070E00E948D179C01DE01A40FB11DF6
:102E00001C9340814F5F408321153105A1F5442378
:102E100041F020E0205DC40FD11D288380818F5FA9
:102E20008083DF91CF911F9108956A30C0F140E017
:102E3000C90168EE73E00E948D179C0148834081B0
:102E40004F5F4083C90164E670E00E948D176115F1
:102E5000710509F0AECF442309F4BCCF60E0162F12
:102E6000105DABCF80E3888380818F5F8083DF91AB
:102E7000CF911F9108952A3068F220E0C40FD11D30
:102E8000288380818F5F8083DF91CF911F91089588
:102E9000442309F4B9CF60E0162F105DA8CF462F68
:102EA000405DC6CF982F90539A3090F0982F91564E
:102EB000963048F0982F9154963070F48153FB016E
:102EC000808381E008958155FB01808381E008952E
:102ED000FB01908381E0089580E00895629FD00116
:102EE000739FF001829FE00DF11D649FE00DF11DC5
:102EF000929FF00D839FF00D749FF00D659FF00D74
:102F00009927729FB00DE11DF91F639FB00DE11D60
:102F1000F91FBD01CF0111240895AA1BBB1B51E16C
:102F200007C0AA1FBB1FA617B70710F0A61BB70B39
:102F3000881F991F5A95A9F780959095BC01CD01DE
:102F40000895A1E21A2EAA1BBB1BFD010DC0AA1FEA
:102F5000BB1FEE1FFF1FA217B307E407F50720F002
:102F6000A21BB30BE40BF50B661F771F881F991F7D
:102F70001A9469F760957095809590959B01AC01C6
:0A2F8000BD01CF010895F894FFCFC2
:042F8A001C001D000A
:00000001FF
