:100000000C9446000C9466000C9466000C946600F8
:100010000C9466000C9466000C9466000C946600C8
:100020000C9466000C9466000C9466000C946600B8
:100030000C9466000C9466000C9466000C946600A8
:100040000C945B080C9466000C9466000C9466009B
:100050000C94350A0C9466000C9466000C946600AF
:100060000C9466000C9466000C9466000C94660078
:100070000C9466000C9466000C9466000C94660068
:100080000C9466000C9466000C94660011241FBE4C
:10009000C0E0D0E4DEBFCDBF11E0A0E0B1E0EAEC0B
:1000A000F6E200E00BBF02C007900D92A430B1074A
:1000B000D9F71BBE11E0A4E0B1E001C01D92A93E3A
:1000C000B107E1F70E9421120C9463130C94000015
:1000D0000E94FE040895813059F46115710521F4E0
:1000E00080E00E947C04089580E00E94BD04089591
:1000F000823051F46115710521F481E00E947C0485
:10010000089581E00E94BD040895813021F480E0CB
:100110000E94FD050895823019F481E00E94FD05DA
:100120000895682F80E045E050E02AE030E00E942A
:1001300013060895682F81E045E050E02AE030E0A2
:100140000E9413060895CF93C82F80E06C2F45E0DE
:1001500050E02AE030E00E94130681E06C2F45E079
:1001600050E02AE030E00E941306CF9108951F93DB
:10017000CF93DF93182FC62FC695D0E0219680E04D
:10018000612FAE019E010E94BD0681E0612FAE018C
:100190009E010E94BD06DF91CF911F910895CF93DC
:1001A000C82F80E062E044E150E024E630E00E94A5
:1001B000BD0681E062E044E150E024E630E00E94C8
:1001C000BD06C0930401CF910895CF93DF93EC0156
:1001D00062E00E942503882331F080910401813080
:1001E00011F40E94CF00CE0162E00E942503882313
:1001F00031F00E944502682F85E00E94B700DF9130
:10020000CF910895109206011092050110920E01EF
:1002100010920D0110920C0110920B0110920A0124
:100220001092090110920801109207010895CF93CE
:10023000DF93CDB7DEB729970FB6F894DEBF0FBEB8
:10024000CDBF8AE289831A8282E08B838091090183
:1002500090910A019C838D83809107019091080100
:100260009E838F8383E28887898780E0BE016F5FEA
:100270007F4F49E00E94BF0929960FB6F894DEBF70
:100280000FBECDBFDF91CF91089561E00E9425039D
:10029000882309F44EC082E090E00E940003209180
:1002A0000D0130910E01280F391F30930E0120935C
:1002B0000D0183E090E00E94000320910B0130913A
:1002C0000C01280F391F30930C0120930B018091F2
:1002D0000501909106010196909306018093050116
:1002E0008830910531F51092060110920501809138
:1002F0000D0190910E019695879596958795969507
:10030000879590930A018093090136952795369534
:100310002795369527953093080120930701109271
:100320000E0110920D0110920C0110920B010E940F
:1003300017010895089564E00E942503882309F4B5
:100340004EC082E291E06FE071E00E94090A809164
:100350000F01882309F443C0809124018330B1F553
:1003600080912501813019F40E9485000895823022
:1003700019F40E9485000895833059F481E060E00B
:1003800070E00E946B0082E060E070E00E946B0011
:100390000895843059F481E061E070E00E946B00C0
:1003A00082E061E070E00E946B000895853039F4CE
:1003B00081E00E94850082E00E94850008958630D9
:1003C00071F4809126010E94CF000895823019F4C3
:1003D0000E9417010895882311F40E944A0208958B
:1003E000AF92BF92CF92DF92FF920F931F93CF9362
:1003F000DF930F92CDB7DEB75C0170E00F2EFEEFFA
:10040000CF2EFFEFDF2EF02DC60ED71EC114D10464
:1004100039F101E010E0FF24F3940A0D1B1DF801EF
:100420008081BE016F5F7F4F0E94F212882341F4EA
:10043000F80180818A3261F0833251F080E011C08E
:10044000F80180818A3221F0833211F08981808322
:10045000F3940F2D10E0C016D106F8F681E001C02C
:1004600081E00F90DF91CF911F910F91FF90DF906E
:10047000CF90BF90AF9008950E943D03109212015B
:100480001092110110921001089580911001909125
:1004900011010895CF93DF93CDB7DEB727970FB63D
:1004A000F894DEBF0FBECDBF8AE289831A821B8219
:1004B00080911001909111019C838D8383E28E8342
:1004C0008F8380E0BE016F5F7F4F47E00E94BF09CE
:1004D00027960FB6F894DEBF0FBECDBFDF91CF9148
:1004E0000895AF92BF92CF92DF92EF92FF920F9357
:1004F0001F93CF93DF93CDB7DEB7A0970FB6F894D5
:10050000DEBF0FBECDBF61E00E942503882309F442
:100510005FC080911201882349F480EE60E041E5DC
:100520000E943E0381E08093120152C06E01089444
:10053000C11CD11CEE24FF24E39413E06E2D660F42
:1005400080EE0E94BD03082F80EE612F0E94BD0344
:10055000B02EAA2490E08A299B29B7010E942D136E
:10056000F601619371936F018091100190911101D7
:10057000680F791F70931101609310011E5F08943A
:10058000E11CF11C1332D1F6729562956F706727EA
:100590007F706727709311016093100189819A81A0
:1005A0008E31910588F48530910520F485E090E046
:1005B0009A83898389819A81909311018093100194
:1005C00088E090E00E942E030E944A0210921201DD
:1005D000A0960FB6F894DEBF0FBECDBFDF91CF91CE
:1005E0001F910F91FF90EF90DF90CF90BF90AF9051
:1005F000089580E490E00E949D0A0E94C70A089531
:100600000E94B80A0E94D50AEAE7F0E0808186FDE0
:10061000FDCF0E941C0B089510921401109213013B
:100620000895F894209113013091140180959095CC
:100630008223932390931401809313017894089557
:100640008091130190911401089570E0682379233B
:1006500081E06115710509F480E008959C01F8942A
:100660008091130190911401822B932B909314018C
:1006700080931301789481E008950895742F94EA8B
:100680009093BC00ECEBF0E014C020911501309188
:100690001601A9014F5F5F4F50931601409315015A
:1006A00093E0293E390728F01092160110921501A7
:1006B00003C0908199234CF78093BB0084E880931A
:1006C000BC00ECEBF0E014C0809115019091160194
:1006D0009C012F5F3F4F309316012093150123E0BB
:1006E000893E920728F0109216011092150103C05E
:1006F000808188234CF76093BB0084E88093BC0022
:10070000ECEBF0E014C080911501909116019C0172
:100710002F5F3F4F309316012093150123E0893E50
:10072000920728F0109216011092150103C08081E3
:1007300088234CF77093BB0084E88093BC00ECEBFB
:10074000F0E014C080911501909116019C012F5F7B
:100750003F4F309316012093150123E0893E920705
:1007600028F0109216011092150103C08081882391
:100770004CF784E98093BC000895482F109216012D
:100780001092150184EA8093BC00ECEBF0E014C0F9
:1007900080911501909116019C012F5F3F4F30937E
:1007A00016012093150123E0893E920728F010924C
:1007B00016011092150103C0808188234CF74093E5
:1007C000BB0084E88093BC00ECEBF0E014C08091A7
:1007D0001501909116019C012F5F3F4F3093160138
:1007E0002093150123E0893E920728F0109216010C
:1007F0001092150103C0808188234CF76093BB00E1
:1008000084E88093BC00ECEBF0E014C0809115010B
:10081000909116019C012F5F3F4F3093160120935A
:10082000150123E0893E920728F0109216011092DC
:10083000150103C0808188234CF784EA8093BC00B3
:10084000ECEBF0E014C080911501909116019C0131
:100850002F5F3F4F309316012093150123E0893E0F
:10086000920728F0109216011092150103C08081A2
:1008700088234CF74F5F4093BB0084EC8093BC000F
:10088000ECEBF0E014C080911501909116019C01F1
:100890002F5F3F4F309316012093150123E0893ECF
:1008A000920728F0109216011092150103C0808162
:1008B00088234CF784E88093BC00ECEBF0E00FC099
:1008C00080911501909116019C012F5F3F4F30934D
:1008D00016012093150123E0893E920718F48081C8
:1008E000882374F78091BB0094E99093BC0008952D
:1008F000F894089578940895282F30E0220F331F3C
:10090000220F331FF901EE0FFF1FEE0FFF1F2E0FF7
:100910003F1FF901EC5AFE4F22813381213031050E
:10092000B1F4282F30E0C901880F991F880F991F53
:10093000FC01EE0FFF1FEE0FFF1F8E0F9F1FFC012C
:10094000EC5AFE4F808191810E94890D0895282FD5
:1009500030E0C901880F991F880F991FFC01EE0F25
:10096000FF1FEE0FFF1F8E0F9F1FFC01EC5AFE4F63
:10097000808191810E94960D0895282F30E0220FEA
:10098000331F220F331FF901EE0FFF1FEE0FFF1F62
:100990002E0F3F1FF901EC5AFE4F22813381213087
:1009A0003105B1F4282F30E0C901880F991F880F55
:1009B000991FFC01EE0FFF1FEE0FFF1F8E0F9F1FF1
:1009C000FC01EC5AFE4F808191810E94960D0895A2
:1009D000282F30E0C901880F991F880F991FFC014B
:1009E000EE0FFF1FEE0FFF1F8E0F9F1FFC01EC5A33
:1009F000FE4F808191810E94890D0895AF92BF9230
:100A0000CF92DF92FF920F931F93CF93DF9380E0FB
:100A100061E070E041E050E02EE535E00E945307D0
:100A20000F2EF0E0AF2EF1E0BF2EF02DC4E5D1E0A7
:100A30008E010D5E1F4FFF24CC24DD24C394F501ED
:100A4000819191915F0199838883DB82CA82DD82E3
:100A5000CC82DF82CE82F8013B971082F8013A9770
:100A600010821B861A861D861C861F861E86198A82
:100A7000188AF80131971082F801108288819981D3
:100A80000E94060E8C819D81009721F48F2D0E947B
:100A90007C0403C08F2D0E94BD04F39464960C5E09
:100AA0001F4FF2E0FF1659F6DF91CF911F910F9182
:100AB000FF90DF90CF90BF90AF9008954F925F92DC
:100AC0006F927F928F929F92AF92BF92CF92DF925E
:100AD000EF92FF921F93CF93DF93CCE5D1E00F2EDF
:100AE000FAE0AF2EBB24F02DAC0EBD1E0F2EFBE0A6
:100AF000CF2EDD24F02DCC0EDD1E0F2EFEEFEF2EBF
:100B0000FFEFFF2EF02DEC0EFD1E10E0882499243F
:100B100083948881813009F053C0D6019C91D5011E
:100B20008C919817B8F5F7018081918181309105FA
:100B3000B1F48285938501969387828720853185DC
:100B400082179307E9F5812F0E947C04D701119643
:100B50001C921E921B961C921E921A9731C0F7018E
:100B600086819781019697838683248135818217B8
:100B7000930731F5812F0E94BD04D70111969C92F5
:100B80008E9217961C921E921697F60180818F5FA7
:100B9000808316C01882D70115961C921E92149756
:100BA00017961C921E92169719961C921E921897D1
:100BB0001B961C921E921A97F5011082D6011C9268
:100BC0001F5F6496E4E1F0E0AE0EBF1ECE0EDF1EA6
:100BD000EE0EFF1E123009F09CCFDF91CF911F91D6
:100BE000FF90EF90DF90CF90BF90AF909F908F904D
:100BF0007F906F905F904F900895282F30E0C9014B
:100C0000880F991F880F991FFC01EE0FFF1FEE0F31
:100C1000FF1F8E0F9F1FFC01EC5AFE4F80819181B8
:100C20000E94EA0B0895CF93DF93782FDA01E90150
:100C300090E0880F991F880F991F9C01220F331F86
:100C4000220F331F820F931FFC01EC5AFE4F808549
:100C5000813009F48FC044E551E0872F90E0880F80
:100C6000991F880F991F9C01220F331F220F331FDA
:100C7000820F931FFA01E80FF91FB387A287872F0E
:100C800090E0880F991F880F991F9C01220F331F36
:100C9000220F331F820F931FFA01E80FF91F1586E9
:100CA0001486872F90E0880F991F880F991F9C0149
:100CB000220F331F220F331F820F931FFA01E80FF9
:100CC000F91FD787C687872F90E0880F991F880F55
:100CD000991F9C01220F331F220F331F820F931F76
:100CE000FA01E80FF91F118A108A872F90E0880F08
:100CF000991F880F991F9C01220F331F220F331F4A
:100D0000820F931FFA01E80FF91F628B872F90E083
:100D1000880F991F880F991F9C01220F331F220FE4
:100D2000331F820F931FFA01E80FF91F138A872FD1
:100D300090E0880F991F880F991F9C01220F331F85
:100D4000220F331F820F931FFA01E80FF91F11863C
:100D5000872F90E0880F991F880F991F9C01220F01
:100D6000331F220F331F820F931F480F591F81E03B
:100D7000FA018087DF91CF910895CF93DF93782F89
:100D8000E901A4E5B1E090E0880F991F880F991F51
:100D90009C01220F331F220F331F820F931FFD016F
:100DA000E80FF91F53874287872F90E0880F991F1C
:100DB000880F991F9C01220F331F220F331F820FB0
:100DC000931FFD01E80FF91F15861486872F90E009
:100DD000880F991F880F991F9C01220F331F220F24
:100DE000331F820F931FFD01E80FF91FD787C687B6
:100DF000872F90E0880F991F880F991F9C01220F61
:100E0000331F220F331F820F931FFD01E80FF91FBD
:100E1000118A108A872F90E0880F991F880F991FD9
:100E20009C01220F331F220F331F820F931FFD01DE
:100E3000E80FF91F628B872F90E0880F991F880FAA
:100E4000991F9C01220F331F220F331F820F931F04
:100E5000FD01E80FF91F138A872F90E0880F991F73
:100E6000880F991F9C01220F331F220F331F820FFF
:100E7000931FFD01E80FF91F81E08087872F90E025
:100E8000880F991F880F991F9C01220F331F220F73
:100E9000331F820F931FA80FB91F19961C92199721
:100EA000DF91CF910895DB01BA01A90190E09C0187
:100EB000220F331F220F331F220F331F820F931F66
:100EC000FC01E458FE4F81E08083B283A183148249
:100ED00013827683658350874783089590E0FC01F1
:100EE000EE0FFF1FEE0FFF1FEE0FFF1F8E0F9F1F56
:100EF000FC01E458FE4F1082089590E0FC01EE0FD3
:100F0000FF1FEE0FFF1FEE0FFF1FE80FF91FE45842
:100F1000FE4F1082128211821482138282E090E0CE
:100F20009683858310861782089590E0FC01EE0F6A
:100F3000FF1FEE0FFF1FEE0FFF1F8E0F9F1FFC0105
:100F4000E458FE4F14821382089590E0FC01EE0FE6
:100F5000FF1FEE0FFF1FEE0FFF1FE80FF91FE458F2
:100F6000FE4F148213827283618308958F929F9241
:100F7000AF92BF92CF92DF92EF92FF92CF93DF9327
:100F80004B015C01EA0120E83EE340E050E00E94B2
:100F90000E13615078418C4F9F4F20E038EE43E0B4
:100FA00050E00E9441132F3F310541F038F085E0B9
:100FB00090E09983888380E094E022C02038310556
:100FC00038F084E090E09983888380E091E018C055
:100FD0002830310538F083E090E09983888380E4FD
:100FE00090E00EC02230310538F082E090E0998325
:100FF000888388E090E004C081E090E09983888352
:101000006C01CC0CDD1CEE24FF2460E472E48FE064
:1010100090E0A50194010E944113C701B6010E940E
:101020000E139B01AC0160E074E284EF90E00E943B
:101030004113BA01A901440F551F661F771F842F62
:10104000952FDF91CF91FF90EF90DF90CF90BF90E1
:10105000AF909F908F900895CF93DF9300D0CDB73E
:10106000DEB760E177E280E090E0AE014F5F5F4F76
:101070000E94B6078CE90E947E0F89819A810E94A6
:10108000740F82E090E00E94510F82E090E00E9495
:10109000950F82E090E00E94860F0F900F90DF91F5
:1010A000CF91089510927C011092840110928301D7
:1010B0000E942C0808951F920F920FB60F920BB644
:1010C0000F9211242F933F934F935F936F937F93CE
:1010D0008F939F93AF93BF93EF93FF9380911801EA
:1010E0008F5F80931801809118018A30A9F41092C3
:1010F000180181E090E00E942E03809117018F5F1C
:1011000080931701809117018A3031F410921701F2
:1011100082E090E00E942E0380917C01813079F57D
:1011200080917F019091800101969093800180933E
:101130007F0120917F013091800180917D0190910C
:101140007E0128173907D9F480918101909182019D
:1011500082309105A1F01092800110927F01E09100
:101160008301F0918401309709F009958091810104
:1011700090918201009719F480E00E947D0716BCCF
:10118000FF91EF91BF91AF919F918F917F916F915F
:101190005F914F913F912F910F900BBE0F900FBE1B
:1011A0000F901F9018951092B9008CE08093B800B2
:1011B00084E08093BC00089584E98093BC00089586
:1011C0008FEF90E0ECEBF0E005C0019719F410927E
:1011D000BC00089520812223C4F70895CF9388236B
:1011E00051F084EC8093BC000E94E008C091BB00E9
:1011F0008C2FCF91089584E88093BC000E94E00872
:10120000C091BB000E94DC08F3CF80E00E94EE0892
:10121000089581E00E94EE0808958093BB0084E861
:101220008093BC000E94E00808951F93CF93DF9342
:10123000182FCCEBD0E084EA88830E94E00810935A
:10124000BB0084E888830E94E008DF91CF911F9162
:101250000895EF92FF920F931F93CF93DF93062F82
:10126000F72EE42E880F81600E941509EE2081F090
:101270001E2DC02FDF2D01E0FF24802F113009F437
:101280008F2D0E94EE0889931150B9F78E2D01C061
:1012900080E0DF91CF911F910F91FF90EF90089523
:1012A000FF920F931F93CF93DF93182F062FEA011E
:1012B000F22E880F0E941509802F0E940D09812FA0
:1012C000BE014F2D0E942909DF91CF911F910F91EF
:1012D000FF900895CF93DF93D62FC42F880F0E94DD
:1012E00015098D2F0E940D098C2F0E940D090E9457
:1012F000DC08DF91CF910895CF93DF930F92CDB7A4
:10130000DEB7AE014F5F5F4F21E00E945009898137
:101310000F90DF91CF910895CF93DF93C0E1D0E09C
:10132000D093C500C093C40083E090E00E945910A0
:1013300080E090E00E947D1080E090E00E948F109D
:101340000E9421100E943D100E94A110D093CD0058
:10135000C093CC0083E090E00E946B1080E090E0AE
:101360000E94861080E090E00E9498100E94281051
:101370000E9444100E94A810DF91CF910895CF934E
:10138000DF93882399F4442389F0A62FB72F90E0A8
:10139000E0ECF0E0C6ECD0E0808185FFFDCF8D91E0
:1013A00088839F5F9417C1F781E018C0813099F45A
:1013B000442399F0A62FB72F90E0E8ECF0E0CEECB4
:1013C000D0E0808185FFFDCF8D9188839F5F94174A
:1013D000C1F781E003C080E001C080E0DF91CF91E0
:1013E0000895882349F4E0ECF0E0808185FFFDCF8B
:1013F0006093C60081E00895813049F4E8ECF0E0A4
:10140000808185FFFDCF6093CE0081E0089580E06C
:101410000895CF93DF93AC0180911B01882391F055
:10142000A0E025E831E08A2F90E0F901E80FF91FEC
:10143000E081840F951FEC01E883AF5F80911B0171
:10144000A81788F3FB018083DF91CF91089588234B
:1014500029F470931F0160931E010895813021F4D7
:1014600070931D0160931C0108951F920F920FB697
:101470000F920BB60F9211242F933F934F935F93CC
:101480006F937F938F939F93AF93BF93EF93FF934C
:101490008091C60090911901992351F48A32D1F5B7
:1014A0008093B70181E080931A018093190132C0C3
:1014B00030911A0147EB51E0FA01E30FF11D8083EF
:1014C000232F2F5F20931A01822F90E0480F591F7E
:1014D000FA01319740814332E9F48B549E4FFC016D
:1014E00080818332B9F4222369F0E7EBF1E0A5E8CB
:1014F000B1E0CF010196830F911D31913D93E81723
:10150000F907D9F720931B011092190184E090E0AC
:101510000E942E03FF91EF91BF91AF919F918F9108
:101520007F916F915F914F913F912F910F900BBEE3
:101530000F900FBE0F901F901895ECE7F0E0908190
:10154000807C9F73982B908381E00895ECE7F0E016
:1015500080818062808381E0089580917C00817029
:101560000895ECE7F0E080818F7D808381E008952D
:10157000ECE7F0E090818F71907E982B908381E072
:10158000089580917C0090E08F7190700895EAE753
:10159000F0E080818068808381E00895EAE7F0E0F0
:1015A00080818F77808381E00895EAE7F0E0808191
:1015B0008064808381E00895EAE7F0E080818062C2
:1015C000808381E00895EAE7F0E080818F7D808369
:1015D00081E00895EAE7F0E080818F7A806180837E
:1015E00081E00895EAE7F0E080818860808381E00F
:1015F0000895EAE7F0E08081877F808381E00895A5
:10160000EAE7F0E090818770987F982B908381E0E3
:101610000895EBE7F0E090818770987F982B908396
:1016200081E008950E94AD0A813019F4809179001B
:1016300008958091780008958091780090917900C4
:101640000895882321F085B7826085BF03C085B7E0
:101650008D7F85BF81E00895882321F085B7816063
:1016600085BF03C085B78E7F85BF81E00895E9E619
:10167000F0E09081892B808381E00895E9E6F0E035
:101680009081892B808381E00895E9E6F0E09081E4
:10169000892B808381E00895882311F0E89A01C0A6
:1016A000E89881E00895882311F0E99A01C0E9984B
:1016B00081E00895882311F0EA9A01C0EA9881E058
:1016C0000895882311F0E09A01C0E09881E0089520
:1016D000882311F0E19A01C0E19881E00895882300
:1016E00011F0E29A01C0E29881E00895882331F078
:1016F000E8E6F0E080818160808305C0E8E6F0E004
:1017000080818E7F808381E00895882331F0E8E630
:10171000F0E080818260808305C0E8E6F0E08081AF
:101720008D7F808381E00895882331F0E8E6F0E042
:1017300080818460808305C0E8E6F0E080818B7F53
:10174000808381E00895882331F0E8E6F0E080812D
:101750008860808305C0E8E6F0E08081877F808331
:1017600081E00895882311F0D89A01C0D89881E0CB
:101770000895882311F0D99A01C0D99881E008957D
:10178000882311F0DA9A01C0DA9881E0089588235D
:1017900011F0DB9A01C0DB9881E00895E3E7F0E007
:1017A0009081892B808381E00895EDE6F0E09081BF
:1017B000892B808381E00895ECE6F0E09081892B0D
:1017C000808381E00895EBE6F0E09081892B8083AF
:1017D00081E008959C013695279536952795369595
:1017E00027958770222369F442B121E030E0B901E6
:1017F00002C0660F771F8A95E2F7CB01842782B972
:101800002CC0213069F445B121E030E0B90102C0BB
:10181000660F771F8A95E2F7CB01842785B91DC033
:10182000223069F448B121E030E0B90102C0660F0E
:10183000771F8A95E2F7CB01842788B90EC0233041
:1018400061F44BB121E030E0B90102C0660F771FAF
:101850008A95E2F7CB0184278BB981E0089588232C
:1018600021F085B7806185BF03C085B78F7E85BFB6
:1018700081E00895662369F042B121E030E0B901CA
:1018800002C0660F771F8A95E2F7CB01842B82B9DD
:101890000DC042B121E030E0B90102C0660F771FF0
:1018A0008A95E2F7CB018095842382B981E008957F
:1018B00082B10895662369F042B121E030E0B901B8
:1018C00002C0660F771F8A95E2F7CB01842B82B99D
:1018D0000DC042B121E030E0B90102C0660F771FB0
:1018E0008A95E2F7CB018095842382B981E008953F
:1018F000662369F040B121E030E0B90102C0660F13
:10190000771F8A95E2F7CB01842B80B90DC040B1D7
:1019100021E030E0B90102C0660F771F8A95E2F737
:10192000CB018095842380B981E00895662369F016
:1019300045B121E030E0B90102C0660F771F8A95FA
:10194000E2F7CB01842B85B90DC045B121E030E031
:10195000B90102C0660F771F8A95E2F7CB01809527
:10196000842385B981E0089585B10895662369F0DF
:1019700044B121E030E0B90102C0660F771F8A95BB
:10198000E2F7CB01842B84B90DC044B121E030E0F3
:10199000B90102C0660F771F8A95E2F7CB018095E7
:1019A000842384B981E00895662369F043B121E07E
:1019B00030E0B90102C0660F771F8A95E2F7CB01CC
:1019C000842B83B90DC043B121E030E0B90102C0DE
:1019D000660F771F8A95E2F7CB018095842383B940
:1019E00081E00895662369F048B121E030E0B90153
:1019F00002C0660F771F8A95E2F7CB01842B88B966
:101A00000DC048B121E030E0B90102C0660F771F78
:101A10008A95E2F7CB018095842388B981E0089507
:101A200088B10895662369F047B121E030E0B9013B
:101A300002C0660F771F8A95E2F7CB01842B87B926
:101A40000DC047B121E030E0B90102C0660F771F39
:101A50008A95E2F7CB018095842387B981E00895C8
:101A6000662369F046B121E030E0B90102C0660F9B
:101A7000771F8A95E2F7CB01842B86B90DC046B15A
:101A800021E030E0B90102C0660F771F8A95E2F7C6
:101A9000CB018095842386B981E00895662369F09F
:101AA0004BB121E030E0B90102C0660F771F8A9583
:101AB000E2F7CB01842B8BB90DC04BB121E030E0B4
:101AC000B90102C0660F771F8A95E2F7CB018095B6
:101AD00084238BB981E00895882329F4862F642F0D
:101AE0000E943A0C14C0813029F4862F642F0E9482
:101AF000960C0DC0823029F4862F642F0E94F20CC0
:101B000006C0833021F4862F642F0E944E0D81E0A1
:101B10000895BC0196958795969587959695879596
:101B2000677041E00E946C0D81E00895BC019695BC
:101B300087959695879596958795677040E00E9462
:101B40006C0D81E008958BB10895662369F04AB168
:101B500021E030E0B90102C0660F771F8A95E2F7F5
:101B6000CB01842B8AB90DC04AB121E030E0B90124
:101B700002C0660F771F8A95E2F7CB018095842318
:101B80008AB981E00895882329F4862F642F0E9462
:101B90005A0C14C0813029F4862F642F0E94B60C91
:101BA0000DC0823029F4862F642F0E94120D06C0CA
:101BB000833021F4862F642F0E94A50D81E00895C3
:101BC0000F931F93CF93DF93EC018B01969587952D
:101BD0009695879596958795D82FC7706C2F40E07E
:101BE0000E94C30D0130110531F48D2F6C2F41E09F
:101BF0000E946C0D05C08D2F6C2F40E00E946C0D73
:101C000081E0DF91CF911F910F910895BC019695CE
:101C100087959695879596958795677041E00E9480
:101C2000C30D81E00895662369F049B121E030E0F9
:101C3000B90102C0660F771F8A95E2F7CB01842BAA
:101C400089B90DC049B121E030E0B90102C0660F89
:101C5000771F8A95E2F7CB018095842389B981E0CB
:101C60000895882329F4862F642F0E94780C14C0CD
:101C7000813029F4862F642F0E94D40C0DC082304D
:101C800029F4862F642F0E94300D06C0833021F482
:101C9000862F642F0E94130E81E0089593B7892B3D
:101CA00083BF81E00895882321F083B7816083BFDB
:101CB00003C083B78E7F83BF81E00895882321F01E
:101CC00085B7806485BF03C085B78F7B85BF81E002
:101CD0000895882321F085B7806285BF03C085B74A
:101CE0008F7D85BF81E00895882331F0E4E6F0E040
:101CF00080818068808305C0E4E6F0E080818F7792
:101D0000808381E00895882331F0E4E6F0E080816B
:101D10008064808305C0E4E6F0E080818F7B80836F
:101D200081E00895882331F0E4E6F0E0808180626C
:101D3000808305C0E4E6F0E080818F7D808381E0D0
:101D40000895882331F0E4E6F0E0808180618083AB
:101D500005C0E4E6F0E080818F7E808381E0089515
:101D6000882331F0E4E6F0E080818860808305C05C
:101D7000E4E6F0E08081877F808381E00895882316
:101D800031F0E4E6F0E080818460808305C0E4E621
:101D9000F0E080818B7F808381E00895882331F09B
:101DA000E4E6F0E080818260808305C0E4E6F0E054
:101DB00080818D7F808381E00895882331F0E4E67F
:101DC000F0E080818160808305C0E4E6F0E08081FE
:101DD0008E7F808381E008958093660081E008957E
:101DE000882331F0E1E6F0E080818068808305C0DF
:101DF000E1E6F0E080818F77808381E00895E1E67D
:101E0000F0E090818F70982B908381E0089584B7E3
:101E100080E0089584B780E0089584B780E0089555
:101E200084B780E0089584B780E0089580916000D1
:101E300080E00895882331F0E0E6F0E0808180645E
:101E4000808305C0E0E6F0E080818F7B808381E0C5
:101E500008958091600080E00895882331F0E0E6E5
:101E6000F0E080818860808305C0E0E6F0E080815A
:101E7000877F808381E00895E0E6F0E09081892B00
:101E8000808381E0089594B5807C9F73982B94BDE6
:101E900081E0089595B580739F7C982B95BD81E076
:101EA000089580FF04C094B5916094BD03C094B5BB
:101EB0009E7F94BD81FF04C094B5926094BD03C021
:101EC00094B59D7F94BD83FF04C085B5886085BDB2
:101ED00003C085B5877F85BD81E0089595B5807C79
:101EE000982B95BD81E0089595B58770987F982BC4
:101EF00095BD089586BD089586B5089587BD08955A
:101F000087B5089588BD089588B50895EEE6F0E098
:101F100090818770982B90830895EEE6F0E0908191
:101F200087708095982390830895EEE6F0E0908185
:101F3000877080959823908308958093C60081E0F0
:101F400008958093CE0081E008958091C6000895A1
:101F50008091CE0008958091C00080720895809194
:101F6000C800807208958091C00090E08C719070DC
:101F700008958091C80090E08C719070089500974A
:101F800029F4E0ECF0E0808180830895E0ECF0E05B
:101F90009081892B80830895009729F4E8ECF0E084
:101FA000808180830895E8ECF0E09081892B808324
:101FB00008958091C00090E08270907008958091A3
:101FC000C80090E0827090700895E0ECF0E08081AD
:101FD0008160808381E00895E8ECF0E08081816099
:101FE000808381E008958091C00081700895809180
:101FF000C800817008958091C00080780895809114
:10200000C80080780895E0ECF0E0808180648083EF
:1020100081E00895E8ECF0E080818064808381E0D5
:1020200008958091C000807408958091C8008074E4
:1020300008958091C000807208958091C8008072D8
:102040000895E1ECF0E080818860808381E008956C
:10205000E9ECF0E080818860808381E00895E1EC24
:10206000F0E08081877F808381E00895E9ECF0E0F3
:102070008081877F808381E00895E1ECF0E08081BA
:102080008061808381E00895E9ECF0E080818061E7
:10209000808381E00895E1ECF0E080818F7E808391
:1020A00081E00895E9ECF0E080818F7E808381E01B
:1020B0000895E1ECF0E09081282F24709B7F922B13
:1020C0009083E2ECF0E09081880F8670997F892BF5
:1020D000808381E00895E9ECF0E09081282F24705E
:1020E0009B7F922B9083EAECF0E09081880F8670C2
:1020F000997F892B808381E00895E2ECF0E0908164
:1021000080739F7C982B908381E00895EAECF0E047
:10211000908180739F7C982B908381E00895E2ECFE
:10212000F0E090818870977F982B908381E00895EC
:10213000EAECF0E090818870977F982B908381E0A3
:102140000895E1ECF0E080818068808381E008956B
:10215000E9ECF0E080818068808381E00895E1EC23
:10216000F0E080818F77808381E00895E9ECF0E0F2
:1021700080818F77808381E00895E1ECF0E08081B9
:102180008064808381E00895E9ECF0E080818064E0
:10219000808381E00895E1ECF0E080818F7B808393
:1021A00081E00895E9ECF0E080818F7B808381E01D
:1021B0000895E1ECF0E080818062808381E0089501
:1021C000E9ECF0E080818062808381E00895E1ECB9
:1021D000F0E080818F7D808381E00895E9ECF0E07C
:1021E00080818F7D808381E00895E2ECF0E0908132
:1021F00081709E7F982B908381E00895EAECF0E057
:10220000908181709E7F982B908381E00895CF927A
:10221000DF92EF92FF926B017C010E94F30F882303
:1022200021F50E94D90F009711F5CC0CDD1CEE1C96
:10223000FF1CCC0CDD1CEE1CFF1CA7019601220F1D
:10224000331F441F551F220F331F441F551F60E0CB
:1022500074E284EF90E00E944113215030403093AB
:10226000C5002093C40081E003C080E001C080E08D
:10227000FF90EF90DF90CF900895CF92DF92EF9292
:10228000FF926B017C010E94F70F882321F50E94C9
:10229000DF0F009711F5CC0CDD1CEE1CFF1CCC0CE5
:1022A000DD1CEE1CFF1CA7019601220F331F441FEB
:1022B000551F220F331F441F551F60E074E284EF47
:1022C00090E00E944113215030403093CD00209384
:1022D000CC0081E003C080E001C080E0FF90EF907F
:1022E000DF90CF900895CF92DF92EF92FF926B0133
:1022F0007C010E94F30F882309F50E94D90F8230D8
:102300009105F1F4CC0CDD1CEE1CFF1CCC0CDD1C8B
:10231000EE1CFF1CA7019601220F331F441F551FFF
:1023200060E074E284EF90E00E944113215030405D
:102330003093C5002093C40081E003C080E001C059
:1023400080E0FF90EF90DF90CF900895CF92DF92E2
:10235000EF92FF926B017C010E94F70F882309F531
:102360000E94DF0F82309105F1F4CC0CDD1CEE1CD5
:10237000FF1CCC0CDD1CEE1CFF1CA7019601220FDC
:10238000331F441F551F60E074E284EF90E00E9409
:102390004113215030403093CD002093CC0081E098
:1023A00003C080E001C080E0FF90EF90DF90CF900D
:1023B0000895CF92DF92EF92FF926B017C010E9411
:1023C000F30F8130A1F4A7019601220F331F441FA0
:1023D000551F60E074E284EF90E00E9441132150A9
:1023E00030403093C5002093C40081E001C080E0FC
:1023F000FF90EF90DF90CF900895CF92DF92EF9211
:10240000FF926B017C010E94F70F8130A1F4A701BC
:102410009601220F331F441F551F60E074E284EFC2
:1024200090E00E944113215030403093CD00209322
:10243000CC0081E001C080E0FF90EF90DF90CF9072
:1024400008950E948C090E9452080E940C030E9469
:10245000F9020E94D3088AE090E00E94060E8AE00A
:1024600090E00E94960D89E090E00E94060E89E0BF
:1024700090E00E94960D0E949A010E943C020E94E8
:1024800068000E9402010E947A0483E00E94A30077
:102490000E94200390932101809320010097A1F0D6
:1024A0000E949B0180912001909121010E94710264
:1024B00080912001909121010E944501809120018D
:1024C000909121010E94E5008091200190912101CD
:1024D0000E941103DDCF442379F0FC0120812617EF
:1024E00069F0319680E003C09191961741F08F5FBB
:1024F0008417D1F780E0089580E0089580E0089582
:102500008A3028F4805DFB01808381E0089580E0BB
:1025100008956F927F928F929F92AF92BF92DF92B7
:10252000EF92FF920F931F93CF93DF930F92CDB74C
:10253000DEB74B015A01FA011082882341F480E38F
:10254000FB018083FA0180818F5F80833CC0182F5C
:1025500000E0DD246894D2F80F2EF8EEEF2EF3E0C1
:10256000FF2EF02D0F2EFAE06F2E7724F02D812F05
:10257000902FB7010E942D136115710521F4F5010B
:1025800080818823C9F01982862FBE016F5F7F4F3B
:102590000E948012812F902FB7010E942D13182FB7
:1025A000092FF5018081F401E80FF11D89818083F5
:1025B000F50180818F5F8083C701B3010E942D13D5
:1025C0007B01DA94A1F60F90DF91CF911F910F91CB
:1025D000FF90EF90DF90BF90AF909F908F907F9093
:1025E0006F900895982F90539A3020F4FB019083B8
:1025F00081E00895982F9156963028F48155FB017B
:10260000808381E00895982F9154963028F4815367
:10261000FB01808381E0089580E00895629FD001EE
:10262000739FF001829FE00DF11D649FE00DF11D8D
:10263000929FF00D839FF00D749FF00D659FF00D3C
:102640009927729FB00DE11DF91F639FB00DE11D29
:10265000F91FBD01CF0111240895AA1BBB1B51E135
:1026600007C0AA1FBB1FA617B70710F0A61BB70B02
:10267000881F991F5A95A9F780959095BC01CD01A7
:102680000895A1E21A2EAA1BBB1BFD010DC0AA1FB3
:10269000BB1FEE1FFF1FA217B307E407F50720F0CB
:1026A000A21BB30BE40BF50B661F771F881F991F46
:1026B0001A9469F760957095809590959B01AC018F
:0A26C000BD01CF010895F894FFCF8B
:0426CA001C001D00D3
:00000001FF
