:100000000C9446000C9465000C9465000C946500FB
:100010000C9465000C9465000C9465000C946500CC
:100020000C9465000C9465000C9465000C946500BC
:100030000C9465000C94C5100C9465000C9465003C
:100040000C94C7130C9465000C9465000C94650027
:100050000C94B6140C9465000C9465000C94650027
:100060000C9465000C9465000C9465000C9465007C
:100070000C941C150C9465000C9465000C946500A0
:100080000C9465000C9465000C94650011241FBE4F
:10009000C0E0D0E4DEBFCDBF11E0A0E0B1E0EEEB08
:1000A000FDE300E00BBF02C007900D92A031B10745
:1000B000D9F713E0A0E1B1E001C01D92AB34B10764
:1000C000E1F70E9482150C94DD1E0C9400001F9332
:1000D00080E06AE54AE520E00E94E60711E0813011
:1000E00009F010E081E06AE54AE520E00E94E607B9
:1000F000813069F182E06AE54AE520E00E94E60786
:10010000813019F183E06AE54AE520E00E94E607C4
:100110008130C9F084E06AE54AE520E00E94E60704
:10012000813079F085E06AE54AE520E00E94E60743
:10013000813019F080E01F91089510621F33D1F7CC
:10014000FACF1061EFCF1860E5CF1460DBCF1260FB
:10015000D1CF10921101109212010E9418070E9433
:10016000670008951F93CF93DF93EC0161E00E9435
:100170005A098823A1F4CE0162E00E945A0988231B
:1001800021F080911101882321F0DF91CF911F91FF
:1001900008950E946910DF91CF911F910895809179
:1001A0001101882371F1853009F453C0863009F4B8
:1001B00091C0813009F4CBC08230A1F1833009F4C1
:1001C000DEC08430C1F6809100018430F9F4809162
:1001D0001001882309F47FC1813009F46EC3823095
:1001E00009F42FC4833009F4E7C3843009F49FC3B2
:1001F000853009F475C484E0809300010E94691081
:10020000BACF80910001882309F4B5CF0E9467001E
:10021000813009F0B0CF80911101809300010E94DC
:100220006910A9CF80910001823081F7809110017F
:10023000882309F48DC1813009F401C3823009F4A7
:10024000B1C1833009F4B0C4843009F4EEC182E056
:10025000D3CF80910001853009F48DCF80E06AE52D
:1002600046E420E00E94BB0711E0813009F010E075
:1002700081E06AE546E420E00E94BB07813009F492
:10028000DBC082E06AE546E420E00E94BB078130E3
:1002900009F4D0C083E06AE54EE620E00E94BB0787
:1002A000813009F4CBC084E06AE54EE620E00E948C
:1002B000BB07813009F4BCC085E06AE54EE620E06A
:1002C0000E94BB07813009F056CF10621F3309F43A
:1002D000A2CF51CF80910001863009F44CCF80E04D
:1002E00062E84AE520E00E94BB0711E0813009F096
:1002F00010E081E06AE54AE520E00E94BB0781301A
:1003000009F4A4C082E062E34AE520E00E94BB0752
:10031000813009F499C083E062E34AE520E00E945D
:10032000BB07813009F48EC084E06AE54AE520E02D
:100330000E94BB07813009F483C085E062E84AE58A
:1003400020E00E94BB07813009F015CFBECF80911D
:100350000001813009F05ACF80911001882309F4FF
:1003600077C0813009F4DFC1823009F41BC18330CA
:1003700009F420C2843009F458C181E03DCF909146
:100380000001933009F042CF90911001992309F4B4
:1003900082C1913009F4DAC3923009F486C49330F3
:1003A00009F440C4943009F4C6C4953009F024CF50
:1003B00080E062E34AE5209112010E94BB0711E050
:1003C000813009F010E081E062E34AE520911201FA
:1003D0000E94BB07813009F408C582E062E34AE568
:1003E000209112010E94BB07813009F4FCC483E014
:1003F00062E34AE5209112010E94BB07813009F4B3
:10040000F0C484E062E34AE5209112010E94BB0738
:10041000813009F4E4C485E062E34AE520911201E9
:100420000E94BB07813009F4CBC480911101E4CE56
:10043000106142CF14602ECF126023CF186033CFEB
:1004400010617BCF186070CF146065CF12605ACFF7
:100450006AE54AE5209112010E94BB0711E0813054
:1004600009F010E081E06AE54EE6209112010E9459
:10047000BB07813009F459C282E06AE54AE5209160
:1004800012010E94BB07813009F44DC283E06AE586
:1004900046E4209112010E94BB07813009F480C01C
:1004A00084E06AE54AE5209112010E94BB07813091
:1004B00009F437C185E06AE546E4209112010E9403
:1004C000BB07813009F0B1CF10621F3309F0ADCF07
:1004D00080931001AACF62E34AE5209112010E94A5
:1004E000BB0711E0813009F010E081E062E34AE5EA
:1004F000209112010E94BB07813009F412C482E0EE
:1005000062E34AE5209112010E94BB07813009F4A1
:1005100006C483E062E34AE5209112010E94BB0712
:10052000813009F4FAC384E062E34AE520911201C4
:100530000E94BB07813009F4EEC385E062E34AE51F
:10054000209112010E94BB07813009F06ECFBCCF11
:100550006AE54AE5209112010E94BB0711E0813053
:1005600009F010E081E06AE542E8209112010E9462
:10057000BB07813009F463C282E06AE54AE5209155
:1005800012010E94BB07813009F40CC383E06AE5C5
:1005900042E3209112010E94BB07813009F080CF15
:1005A00018607ECF80E062E84EE6209112010E9442
:1005B000BB0711E0813009F010E081E062E34AE519
:1005C000209112010E94BB07813009F4B2C382E07E
:1005D00062E84EE6209112010E94BB07813009F4C7
:1005E000A6C383E062E84AE5209112010E94BB079E
:1005F000813009F49AC384E062E346E42091120159
:100600000E94BB07813009F48EC385E062E84AE5A9
:10061000209112010E94BB07813009F006CF1062C1
:100620001F3309F002CF83E053CF80E062E34AE555
:10063000209112010E94BB0711E0813009F010E007
:1006400081E062E84EE6209112010E94BB078130F2
:1006500009F444C282E062E34AE5209112010E945B
:10066000BB07813009F438C283E062E346E420919D
:1006700012010E94BB07813009F42CC284E062E8B9
:100680004AE5209112010E94BB07813009F420C283
:1006900085E062E311CF80E062E84AE52091120133
:1006A0000E94BB0711E0813009F010E081E062E8B0
:1006B0004AE5209112010E94BB07813009F41260C3
:1006C00082E062E84AE5209112010E94BB07813076
:1006D00009F4146083E062E84AE5209112010E9467
:1006E000BB07813009F4186084E062E84AE5209194
:1006F00012010E94BB07813009F4106185E062E8B5
:100700004AE5209112010E94BB07813009F08DCE8D
:1007100010621F3309F089CE80931001809111017E
:100720006BCD1061C7CE80E062E34EE620911201EE
:100730000E94BB0711E0813009F010E081E062E81F
:100740004AE5209112010E94BB07813009F445C39C
:1007500082E062E34EE6209112010E94BB078130E5
:1007600009F439C383E062E34AE5209112010E9453
:10077000BB07813009F42DC384E062E846E4209190
:1007800012010E94BB07813009F421C385E062E3B6
:100790004AE5209112010E94BB07813009F045CE45
:1007A00010621F3309F041CE82E0809310018091E6
:1007B000110122CD80E062E84AE5209112010E94F9
:1007C000BB0711E0813009F010E081E062E34EE602
:1007D000209112010E94BB07813009F4126082E06F
:1007E00062E84AE5209112010E94BB07813009F4BA
:1007F000146083E062E846E4209112010E94BB0786
:10080000813009F4186084E062E34AE52091120126
:100810000E94BB07813009F4106185E062E846E47C
:10082000209112010E94BB07813009F0FECD1062B9
:100830001F3309F0FACD84E080931001F6CD80E0FB
:1008400062E84AE5209112010E94BB0711E0813065
:1008500009F010E081E062E34EE6209112010E946F
:10086000BB07813009F4126082E062E84AE520911A
:1008700012010E94BB07813009F4146083E062E832
:1008800046E4209112010E94BB07813009F41860F0
:1008900084E062E34AE5209112010E94BB078130A7
:1008A00009F4106185E062E846E4209112010E949B
:1008B000BB07813009F0B9CD73CF80E062E34AE530
:1008C000209112010E94BB0711E0813009F010E075
:1008D00081E062E34EE6209112010E94BB07813065
:1008E00009F4126082E062E34AE5209112010E945D
:1008F000BB07813009F4146083E062E346E4209191
:1009000012010E94BB07813009F4186084E062E3A1
:100910004AE5209112010E94BB07813009F4106161
:1009200085E062E3C1CF1460B1CD1260A5CD80E057
:1009300062E84EE6209112010E94BB0711E081306F
:1009400009F010E081E062E84AE5209112010E947E
:10095000BB07813009F4126082E062E84EE6209124
:1009600012010E94BB07813009F4146083E062E841
:100970004AE5209112010E94BB07813009F41860FA
:1009800084E062E846E4209112010E94BB078130B6
:1009900009F4106185E062E84AE5209112010E94A5
:1009A000BB07813009F041CD10621F3309F03DCD06
:1009B00085E08093100139CD80E062E34EE620911E
:1009C00012010E94BB0711E0813009F010E081E0C4
:1009D00062E84AE5209112010E94BB07813009F4C8
:1009E000126082E062E34EE6209112010E94BB0792
:1009F000813009F4146083E062E84AE52091120135
:100A00000E94BB07813009F4186084E062E346E489
:100A1000209112010E94BB07813009F4106185E02A
:100A200062E84AE5209112010E94BB07813009F07B
:100A3000FCCC10621F3309F0F8CC84E049CD126081
:100A40009BCD80E062E34AE5209112010E94BB0742
:100A500011E0813009F010E081E062E84EE620917B
:100A600012010E94BB07813009F4126082E062E348
:100A70004AE5209112010E94BB07813009F41460FD
:100A800083E062E846E4209112010E94BB078130B6
:100A900009F4186084E062E34AE5209112010E94A3
:100AA000BB07813009F4106185E062E846E42091DB
:100AB00012010E94BB07813009F0B7CC10621F33CE
:100AC00009F0B3CC83E0809310018091110194CBA5
:100AD0001061DECD1860D2CD1460C6CD1260BACDE3
:100AE00080E062E84AE5209112010E94BB0711E014
:100AF000813009F010E081E062E84AE520911201BE
:100B00000E94BB07813009F4126082E062E84AE586
:100B1000209112010E94BB07813009F4146083E028
:100B200062E84AE5209112010E94BB07813009F476
:100B3000186084E062E84AE5209112010E94BB0738
:100B4000813009F4106185E062E867CC80E062E8FA
:100B50004AE5209112010E94BB0711E0813009F0A3
:100B600010E081E062E84EE6209112010E94BB078E
:100B7000813009F4126082E062E84AE520911201B6
:100B80000E94BB07813009F4146083E062E846E408
:100B9000209112010E94BB07813009F4186084E0A3
:100BA00062E878CE1460F2CC80E062E34EE62091F9
:100BB00012010E94BB0711E0813009F010E081E0D2
:100BC00062E84AE5209112010E94BB07813009F4D6
:100BD000126082E062E34EE6209112010E94BB07A0
:100BE000813009F4146083E062E34AE52091120148
:100BF0000E94BB07813009F4186084E062E846E493
:100C0000209112010E94BB07813009F4106185E038
:100C100062E34AE5209112010E94BB07813009F08E
:100C200004CC05CE80E062E84EE6209112010E94DD
:100C3000BB0711E0813009F010E081E062E34AE592
:100C4000209112010E94BB07813009F4DEC082E0CE
:100C500062E84EE6209112010E94BB07813009F440
:100C6000D2C083E062E34AE5209112010E94BB07F3
:100C7000813009F4C6C084E062E846E420911201A4
:100C80000E94BB07813009F4BAC085E062E34AE5FF
:100C9000209112010E94BB07813009F0C6CB10627F
:100CA0001F3309F0C2CB84E037CD80E062E84AE52B
:100CB000209112010E94BB0711E0813009F010E081
:100CC00081E062E34EE6209112010E94BB07813071
:100CD00009F4126082E062E84AE5209112010E9464
:100CE000BB07813009F4146083E062E346E420919D
:100CF00012010E94BB07813009F4186084E062E8A9
:100D00004AE5209112010E94BB07813009F410616D
:100D100085E062E3CBCE106110CC186004CC146087
:100D2000F8CB1260ECCB106170CC186064CC14600E
:100D300058CC12604CCC80E062E34EE62091120168
:100D40000E94BB0711E0813009F010E081E062E30E
:100D50004AE5209112010E94BB07813009F44DC081
:100D600082E062E34EE6209112010E94BB078130CF
:100D700009F441C083E062E34AE5209112010E9438
:100D8000BB078130B1F184E062E346E420911201B7
:100D90000E94BB07813059F185E062E34AE520916A
:100DA00012010E94BB07813009F03FCB10621F3354
:100DB00009F03BCB85E080931001809111011CCAA2
:100DC00010621F3309F031CB109210012ECB10614D
:100DD000DDCC1860D1CC1460C5CC1260B9CC1061E8
:100DE0001ACB18600ECB146002CB1260F6CA1061E9
:100DF000D3CF1860C8CF1460BDCF1260B1CF1061DF
:100E000044CF186038CF14602CCF126020CF81E11E
:100E100091E00895109210018093110160931201E6
:100E200008951092100180931101609312010895AA
:100E3000DF92EF92FF920F931F932AE0D22ED0926F
:100E4000130182E0809314011AE5109315018AE0E2
:100E50006AE570E00E94CB0C9BE0E92EE09217015E
:100E600083E080931801109319018BE06AE570E02C
:100E70000E94CB0C0DE000931B0184E080931C01C9
:100E800010931D018DE06AE570E00E94CB0C8CE0B0
:100E9000F82EF0921F0185E080932001109321012C
:100EA0008CE06AE570E00E94CB0C8FE08093230118
:100EB00086E080932401109325018FE06AE570E0BD
:100EC0000E94CB0C8EE08093270187E0809328015D
:100ED000109329018EE06AE570E00E94CB0C86E158
:100EE00080932B0188E080932C0110932D0186E1E3
:100EF0006AE570E00E94CB0C87E180932F0189E0C6
:100F0000809330011093310187E16AE570E00E941F
:100F1000CB0C8EE180933301D092340110933501D4
:100F20006AE570E00E94CB0C8FE180933701E0927C
:100F30003801109339016AE570E00E94CB0C8CE116
:100F400080933B01F0923C0110933D016AE570E013
:100F50000E94CB0C8DE180933F01009340011093E0
:100F600041016AE570E00E94CB0C1F910F91FF9048
:100F7000EF90DF9008951F93CF93DF93C82FD0E0B9
:100F8000CC0FDD1FCC0FDD1FCC0FDD1FCD5EDE4F84
:100F90006A834E83898170E0422F0E94D90D182FF9
:100FA0006E818D8170E040E00E94D90D813029F082
:100FB00080E0DF91CF911F910895113009F080E01A
:100FC000982F926081E0933099F7F3CF1F93CF93DE
:100FD000DF93C82FD0E0CC0FDD1FCC0FDD1FCC0F6F
:100FE000DD1FCD5EDE4F6A834E83898170E0422F24
:100FF0000E94160F182F6E818D8170E040E00E94D4
:10100000160F813029F080E0DF91CF911F91089574
:10101000113009F080E0982F926081E0933099F7C9
:10102000F3CF81E080930101109243018AE5809320
:1010300044018CE88093450188E06AE570E00E94F5
:10104000CB0C6091450189E070E00E94CB0C0895C3
:10105000CF93DF93EC0162E00E945A09882321F0CC
:1010600080910101813091F0CE0167E00E945A0920
:10107000882321F080910101813019F0DF91CF9117
:10108000089510920101DF91CF910895E0914301FD
:10109000F0E0EE5FFE4F608180E070E040E00E9493
:1010A000D90D813049F0809143018930E9F61092E1
:1010B000430110920101D8CF809143018F5F80934B
:1010C0004301F3CF1092430181E080930101089521
:1010D0001092010108951F93982F142F80934401BB
:1010E0006093450180E0692F70E00E94D90D609106
:1010F000450181E070E0412F0E94D90D1F910895B4
:101100000895CF93DF93EC0166E00E945A0988238B
:1011100009F041C0CE0165E00E945A09882319F404
:10112000DF91CF91089583E00E94560C83EE91E009
:1011300066E471E00E948F1460914601662329F1F4
:101140008091E401813009F045C08091E501882358
:1011500009F451C0813009F447C08230B1F4809164
:10116000E701882309F47BC0813009F480C0823014
:1011700009F481C0833009F480C0843009F47FC051
:1011800060E08091E6010E940A0783E00E94700CF3
:10119000DF91CF91089582E00E94560C85E192E0A4
:1011A00067E471E00E94681485E192E06091470174
:1011B0000E94A61480914701882341F08091170274
:1011C000882321F4809119028E3148F082E00E9438
:1011D000700CA0CF83EE91E00E947F14D6CF87E001
:1011E00090E00E946909F2CF8091E601882369F6B8
:1011F0000E946208CACF8091E801882371F1813092
:1012000081F1823081F1833081F1843091F140E0CD
:101210008091E6018823D9F08130C9F08230B9F09D
:101220008330A9F0843099F0853089F0863079F0E8
:10123000873069F0883059F0893049F08A3039F0C8
:101240008B3029F08C3019F08D3009F09ECF6091F1
:10125000E70170E00E94D90D98CF44E6D9CF64E64B
:1012600090CF40E5D5CF4CE3D3CF48E2D1CF60E576
:1012700088CF44E1CDCF6CE384CF68E282CF64E1D4
:1012800080CF10924901109248010895F89420915E
:101290004801309149018095909582239323909342
:1012A0004901809348017894089580914801909174
:1012B0004901089521E030E002C0220F331F6A95F2
:1012C000E2F72823392381E02115310509F480E074
:1012D000089521E030E002C0220F331F8A95E2F723
:1012E0008091480190914901822B932B9093490161
:1012F0008093480181E00895F894089578940895C2
:1013000080914B02813009F4A6C080915A0281304D
:1013100009F46EC0809169028130B9F18091780240
:10132000813009F00895909182028091810298178E
:1013300008F008C180917702813009F41AC18091C8
:101340007B0290917C02019690937C0280937B02B9
:101350002091790230917A028217930719F78091D0
:101360007502813009F48DC1809174020E94DC17EE
:1013700081E08093770210927C0210927B02809130
:1013800082028F5F80938202089590917302809110
:101390007202981708F0BFC080916802813009F48A
:1013A00009C180916C0290916D02019690936D023B
:1013B00080936C0220916A0230916B02821793072E
:1013C00009F0ACCF80916602813009F45FC1809151
:1013D00065020E94DC1781E08093680210926D0222
:1013E00010926C02809173028F5F8093730296CF8C
:1013F0009091640280916302981708F075C0809103
:101400005902813009F4F7C080915D0290915E022B
:10141000019690935E0280935D0220915B02309171
:101420005C028217930709F075CF809157028130D3
:1014300009F431C1809156020E94DC1781E080934B
:10144000590210925E0210925D02809164028F5FD9
:10145000809364025FCF9091540280915502891766
:1014600060F580914A02813009F4E6C080914E0215
:1014700090914F02019690934F0280934E022091DB
:101480004C0230914D028217930709F03ECF8091B4
:101490004802813009F4F0C0809147020E94DC17B5
:1014A00081E080934A0210924F0210924E02809186
:1014B00055028F5F8093550228CF10924B021092F5
:1014C0004D0210924C0210924F0210924E02109256
:1014D0005102109250021092530210925202109236
:1014E00054021092550211CF10925A0210925C02CF
:1014F00010925B0210925E0210925D0210926002E6
:1015000010925F02109262021092610210926302C6
:1015100010926402FFCE1092690210926B02109238
:101520006A0210926D0210926C0210926F02109279
:101530006E0210927102109270021092720210925A
:101540007302ECCE1092780210927A021092790215
:1015500010927C0210927B0210927E0210927D0209
:101560001092800210927F021092810210928202E9
:10157000089580917F02909180020196909380025D
:1015800080937F0220917D0230917E028217930723
:1015900009F0C8CE80917502813009F490C0809125
:1015A00074020E94E6171092770210928002109245
:1015B0007F0208958091700290917102019690933C
:1015C00071028093700220916E0230916F02821737
:1015D000930709F0A3CE80916602813009F460C0C0
:1015E000809165020E94E6171092680210927102C3
:1015F0001092700293CE80916102909162020196E6
:10160000909362028093610220915F0230916002A8
:101610008217930709F07ECE80915702813009F43A
:1016200044C0809156020E94E6171092590210920F
:101630006202109261026ECE80915202909153022A
:101640000196909353028093520220915002309160
:1016500051028217930709F058CE809148028130D9
:1016600049F1809147020E94E61710924A021092B7
:1016700053021092520249CE809147020E94E6170F
:101680000FCF809174020E94E61772CE809165029E
:101690000E94E617A0CE809156020E94E617CECE99
:1016A000809165020E94DC179FCF809156020E94B4
:1016B000DC17BBCF809147020E94DC17D6CF809108
:1016C00074020E94DC176FCF80910B018093470258
:1016D0001092480291E09093490290934A0210922E
:1016E0004B0210924D0210924C0210924F02109237
:1016F0004E02109251021092500210925302109218
:10170000520210925402109255020E948518809144
:101710004902882309F4C0C080914802813009F44D
:10172000C0C0809147020E94DC1780910C01809319
:1017300056021092570291E09093580290935902EA
:1017400010925A0210925C0210925B0210925E029A
:1017500010925D021092600210925F02109262027B
:101760001092610210926302109264020E94851826
:1017700080915802882309F485C0809157028130F6
:1017800009F485C0809156020E94DC1780910D01FA
:10179000809365021092660291E0909367029093A5
:1017A00068021092690210926B0210926A02109203
:1017B0006D0210926C0210926F0210926E021092E3
:1017C00071021092700210927202109273020E94C3
:1017D000851880916702882309F44AC080916602C7
:1017E000813009F44AC0809165020E94DC17809123
:1017F0000E01809374021092750291E0909376022C
:10180000909377021092780210927A0210927902E5
:1018100010927C0210927B0210927E0210927D0246
:101820001092800210927F02109281021092820226
:101830000E94851880917602882389F48091750230
:10184000813089F0809174020E94E61781E061E0A6
:1018500070E041E020E839E00E94F11208958091A3
:101860007502813079F3809174020E94DC17EECF0B
:1018700080916602813009F4B6CF809165020E94A2
:10188000E617B5CF80915702813009F47BCF809164
:1018900056020E94E6177ACF80914802813009F4FF
:1018A00040CF809147020E94E6173FCF90E09C0115
:1018B000220F331F280F391FF901EE0FFF1FEE0F04
:1018C000FF1FE20FF31FE95BFD4F8181813021F0A3
:1018D00080810E94E617089580810E94DC17089598
:1018E00090E09C01220F331F280F391FF901EE0FE2
:1018F000FF1FEE0FFF1FE20FF31FE95BFD4F81811A
:10190000813021F080810E94DC17089580810E943F
:10191000E617089590E09C01220F331F280F391F0E
:10192000F901EE0FFF1FEE0FFF1FE20FF31FE95B40
:10193000FD4F80810E942517089590E0DC01AA0FD9
:10194000BB1FA80FB91FFD01EE0FFF1FEE0FFF1FFA
:10195000EA0FFB1FE95BFD4F568345831086178214
:1019600032872187148613866587168681E08483F3
:10197000089510928000E1E8F0E080818260808329
:101980001092850010928400B19AEFE6F0E0808119
:101990008260808308951F93482F5091D6012AE4D6
:1019A00031E0852F90E0FC01EE0FFF1F880F991F9B
:1019B000880F991F880F991FE80FF91FE20FF31F77
:1019C00081E081875091D601852F90E0FC01EE0FD8
:1019D000FF1F880F991F880F991F880F991FE80F05
:1019E000F91FE20FF31F10865091D601852F90E06A
:1019F000FC01EE0FFF1F880F991F880F991F880F9A
:101A0000991FE80FF91FE20FF31F40831091D601D1
:101A1000EEEBF0E06E9FC0016F9F900D7E9F900DEA
:101A2000112462E170E00E94A71E60577E4F660F8E
:101A3000771F812F90E0FC01EE0FFF1F880F991F89
:101A4000880F991F880F991FE80FF91FE20FF31FE6
:101A5000728361835091D6016091D601862F90E008
:101A6000FC01EE0FFF1F880F991F880F991F880F29
:101A7000991FE80FF91FE20FF31F61817281852F13
:101A800090E0FC01EE0FFF1F880F991F880F991F30
:101A9000880F991FE80FF91FE20FF31F7483638308
:101AA0005091D601852F90E0FC01EE0FFF1F880FAB
:101AB000991F880F991F880F991FE80FF91FE20FD0
:101AC000F31F84E68583842F0E9485188091D601B8
:101AD0008F5F8093D6011F9108951F939091D60137
:101AE000992309F464C090E01FEF13C0911730F5FB
:101AF000492F50E02091D60130E02150304042176C
:101B0000530709F449C09F5F2091D601921708F04E
:101B10004EC04091D601242F30E0F901EE0FFF1F97
:101B2000220F331F220F331F220F331FE20FF31F29
:101B3000E65BFE4F20812817C9F6192F492F50E088
:101B40009A012F5F3F4FDA01AA0FBB1FBA01660F40
:101B5000771F660F771F660F771FA60FB71FF90154
:101B6000EE0FFF1F220F331F220F331F220F331FD1
:101B7000E20FF31FA65BBE4FE65BFE4F2AE001902B
:101B80000D922150E1F72091D60130E021503040F4
:101B90004217530709F0B7CF2091D6012150209367
:101BA000D6019F5F2091D601921708F4B2CF1F9102
:101BB0000895282F90E0FC01EE0FFF1F880F991F5A
:101BC000880F991F880F991FE80FF91FE65BFE4FDA
:101BD0008085813009F401C1EEEBF0E06E9FC00119
:101BE0006F9F900D7E9F900D112462E170E00E9426
:101BF000A71E60577E4F660F771F822F90E0FC0173
:101C0000EE0FFF1F880F991F880F991F880F991FCC
:101C1000E80FF91FE65BFE4F74836383822F90E029
:101C2000FC01EE0FFF1F880F991F880F991F880F67
:101C3000991FE80FF91FE65BFE4F63817481822FC5
:101C400090E0FC01EE0FFF1F880F991F880F991F6E
:101C5000880F991FE80FF91FE65BFE4F8181928183
:101C60006817790709F4DEC0822F90E0FC01EE0FBF
:101C7000FF1F880F991F880F991F880F991FE80F62
:101C8000F91FE65BFE4F4583822F90E0FC01EE0FCB
:101C9000FF1F880F991F880F991F880F991FE80F42
:101CA000F91FE65BFE4F81E08087822F90E0FC0108
:101CB000EE0FFF1F880F991F880F991F880F991F1C
:101CC000E80FF91FE65BFE4F41815281822F90E0C1
:101CD000FC01EE0FFF1F880F991F880F991F880FB7
:101CE000991FE80FF91FE65BFE4F83819481481727
:101CF000590708F074C0822F90E0FC01EE0FFF1F1F
:101D0000880F991F880F991F880F991FE80FF91FD7
:101D1000E65BFE4F83819481422F50E0FA01EE0F83
:101D2000FF1F440F551F440F551F440F551FE40F4D
:101D3000F51FE65BFE4FA181B281422F50E0FA0110
:101D4000EE0FFF1F440F551F440F551F440F551F23
:101D5000E40FF51FE65BFE4F65818A1B9B0B70E06D
:101D6000645F7F4F0E94A71E822F90E0FC01EE0F60
:101D7000FF1F880F991F880F991F880F991FE80F61
:101D8000F91FE65BFE4F77836683822F90E0FC01AC
:101D9000EE0FFF1F880F991F880F991F880F991F3B
:101DA000E80FF91FE65BFE4F868197810097E1F50A
:101DB000822F90E0FC01EE0FFF1F880F991F880F04
:101DC000991F880F991FE80FF91FE65BFE4F81E00E
:101DD00090E09783868380E0089580E00895822FC5
:101DE00090E0FC01EE0FFF1F880F991F880F991FCD
:101DF000880F991FE80FF91FE65BFE4F81819281E2
:101E0000422F50E0FA01EE0FFF1F440F551F440F01
:101E1000551F440F551FE40FF51FE65BFE4FA381CE
:101E2000B4818BCF81E0089580E00895282FEEEBF8
:101E3000F0E06E9FC0016F9F900D7E9F900D11246A
:101E400062E170E00E94A71E60577E4F660F771F09
:101E5000822F90E0FC01EE0FFF1F880F991F880F63
:101E6000991F880F991FE80FF91FE65BFE4F7483D7
:101E70006383822F90E0FC01EE0FFF1F880F991FF4
:101E8000880F991F880F991FE80FF91FE65BFE4F17
:101E900063817481822F90E0FC01EE0FFF1F880F99
:101EA000991F880F991F880F991FE80FF91FE65B8C
:101EB000FE4F818192816817790709F4DEC0822F75
:101EC00090E0FC01EE0FFF1F880F991F880F991FEC
:101ED000880F991FE80FF91FE65BFE4F4583822F9D
:101EE00090E0FC01EE0FFF1F880F991F880F991FCC
:101EF000880F991FE80FF91FE65BFE4F81E080878E
:101F0000822F90E0FC01EE0FFF1F880F991F880FB2
:101F1000991F880F991FE80FF91FE65BFE4F41815B
:101F20005281822F90E0FC01EE0FFF1F880F991F56
:101F3000880F991F880F991FE80FF91FE65BFE4F66
:101F4000838194814817590708F472C0822F90E06A
:101F5000FC01EE0FFF1F880F991F880F991F880F34
:101F6000991FE80FF91FE65BFE4F81819281422F96
:101F700050E0FA01EE0FFF1F440F551F440F551F8D
:101F8000440F551FE40FF51FE65BFE4FA381B4819C
:101F9000422F50E0FA01EE0FFF1F440F551F440F70
:101FA000551F440F551FE40FF51FE65BFE4F65817B
:101FB0008A1B9B0B70E0645F7F4F0E94A71E822FDD
:101FC00090E0FC01EE0FFF1F880F991F880F991FEB
:101FD000880F991FE80FF91FE65BFE4F7783668332
:101FE000822F90E0FC01EE0FFF1F880F991F880FD2
:101FF000991F880F991FE80FF91FE65BFE4F868136
:1020000097810097C1F5822F90E0FC01EE0FFF1F32
:10201000880F991F880F991F880F991FE80FF91FC4
:10202000E65BFE4F81E090E09783868380E0089531
:10203000822F90E0FC01EE0FFF1F880F991F880F81
:10204000991F880F991FE80FF91FE65BFE4F8381E8
:102050009481422F50E0FA01EE0FFF1F440F551FED
:10206000440F551F440F551FE40FF51FE65BFE4F4D
:10207000A181B2818DCF80E0089581E00895282F5D
:1020800030E0F901EE0FFF1F220F331F220F331F25
:10209000220F331FE20FF31FE65BFE4F808508958A
:1020A000282F30E0F901EE0FFF1F220F331F220F00
:1020B000331F220F331FE20FF31FE65BFE4F8181B8
:1020C00092818052934065E170E00E94A71ECB018F
:1020D00008950F931F93DF93CF93CDB7DEB7639728
:1020E0000FB6F894DEBF0FBECDBF8AE2898381E0D0
:1020F0008A831B828091D601882309F442C040E084
:102100008E010C5F1F4F25E130E0842F90E0FC0131
:10211000EE0FFF1F880F991F880F991F880F991FB7
:10212000E80FF91FE65BFE4F83819481F801E40F0D
:10213000F11D80529340B9010E94A71E60834F5F3A
:102140008091D601481708F38091D601F801E80F75
:10215000F11D83E280839091D601FE01E90FF11D0C
:102160008583CE01019663E10E94A61463960FB6A3
:10217000F894DEBF0FBECDBFCF91DF911F910F91BD
:1021800008958E010C5F1F4FDFCF1F920F920FB685
:102190000F920BB60F9211242F933F934F935F939F
:1021A0006F937F938F939F93AF93BF93EF93FF931F
:1021B00080910F0187FD8AC080910F01992787FDCB
:1021C0009095FC01EE0FFF1F880F991F880F991F34
:1021D000880F991FE80FF91FE65BFE4F818581305C
:1021E00009F479C080910F018F5F80930F012091D6
:1021F0000F018091D601332727FD309590E02817F5
:1022000039070CF047C020918400309185008091FF
:102210000F01992787FD9095FC01EE0FFF1F880F96
:10222000991F880F991F880F991FE80FF91FE65B08
:10223000FE4F81819281820F931F9093890080933A
:10224000880080910F01992787FD9095FC01EE0F82
:10225000FF1F880F991F880F991F880F991FE80F7C
:10226000F91FE65BFE4F8185813009F456C0FF916E
:10227000EF91BF91AF919F918F917F916F915F91FE
:102280004F913F912F910F900BBE0F900FBE0F906B
:102290001F90189580918400909185002EE48732DC
:1022A000920768F080918400909185000796909342
:1022B0008900809388008FEF80930F01D8CF80E250
:1022C0009EE49093890080938800F5CF109285005A
:1022D0001092840087CF20910F018091D60133277F
:1022E00027FD309590E0281739070CF07BCF8091BF
:1022F0000F01992787FD9095FC01EE0FFF1F880FB6
:10230000991F880F991F880F991FE80FF91FE65B27
:10231000FE4F80810E94E61765CF20910F018091CA
:10232000D601332727FD309590E0281739070CF0A8
:102330009ECF80910F01992787FD9095FC01EE0FAC
:10234000FF1F880F991F880F991F880F991FE80F8B
:10235000F91FE65BFE4F80810E94DC1780910F0120
:10236000992787FD9095FC01EE0FFF1F880F991F9D
:10237000880F991F880F991FE80FF91FE65BFE4F22
:102380008085813009F073CF80910F01992787FDF7
:102390009095FC01EE0FFF1F880F991F880F991F62
:1023A000880F991FE80FF91FE65BFE4F21813281EC
:1023B00080910F01992787FD9095FC01EE0FFF1F7B
:1023C000880F991F880F991F880F991FE80FF91F11
:1023D000E65BFE4F838194812817390708F096C089
:1023E00080910F01992787FD9095FC01EE0FFF1F4B
:1023F000880F991F880F991F880F991FE80FF91FE1
:10240000E65BFE4F2181328180910F01992787FD84
:102410009095DC01AA0FBB1F880F991F880F991F89
:10242000880F991FA80FB91FA65BBE4F16968D91F6
:102430009C911797820F931F9283818380910F0144
:10244000992787FD9095FC01EE0FFF1F880F991FBC
:10245000880F991F880F991FE80FF91FE65BFE4F41
:102460002181328180910F01992787FD9095FC0190
:10247000EE0FFF1F880F991F880F991F880F991F54
:10248000E80FF91FE65BFE4F838194812817390717
:1024900008F4EDCE80910F01992787FD909520914A
:1024A0000F01332727FD3095F901EE0FFF1F220F93
:1024B000331F220F331F220F331FE20FF31FE65B80
:1024C000FE4F23813481FC01EE0FFF1F880F991FFF
:1024D000880F991F880F991FE80FF91FE65BFE4FC1
:1024E0003283218380910F01992787FD9095FC010C
:1024F000EE0FFF1F880F991F880F991F880F991FD4
:10250000E80FF91FE65BFE4F1086B1CE80910F01F8
:10251000992787FD9095FC01EE0FFF1F880F991FEB
:10252000880F991F880F991FE80FF91FE65BFE4F70
:102530008181928120910F01332727FD3095D901A8
:10254000AA0FBB1F220F331F220F331F220F331F6F
:10255000A20FB31FA65BBE4F16962D913C91179705
:10256000821B930B9283818380910F01992787FDB2
:102570009095FC01EE0FFF1F880F991F880F991F80
:10258000880F991FE80FF91FE65BFE4F218132810A
:1025900080910F01992787FD9095FC01EE0FFF1F99
:1025A000880F991F880F991F880F991FE80FF91F2F
:1025B000E65BFE4F838194818217930708F457CE20
:1025C00069CF8AEF0E948B1B83E00E94811B82E00F
:1025D0000E945B1B82E00E94A21B82E00E94931B70
:1025E0000895E82FF0E0EE0FFF1FEE0FFF1FEE0F34
:1025F000FF1FED57FD4F81E080837283618314825A
:1026000013824583378326830895E82FF0E0EE0F89
:10261000FF1FEE0FFF1FEE0FFF1FED57FD4F108244
:102620000895E82FF0E0EE0FFF1FEE0FFF1FEE0FF3
:10263000FF1FED57FD4F1082128211821482138208
:1026400082E08583178216820895E82FF0E0EE0F6E
:10265000FF1FEE0FFF1FEE0FFF1FED57FD4F148200
:1026600013820895E82FF0E0EE0FFF1FEE0FFF1F1B
:10267000EE0FFF1FED57FD4F1482138272836183AB
:1026800008958AEF0E948B1B83E00E94811B82E0E9
:102690000E945B1B82E00E94A21B82E00E94931BAF
:1026A0000895AF92BF92CF92DF92EF92FF920F9375
:1026B0001F93CF93DF937B018C01EA0120E83EE377
:1026C00040E050E00E947C1E615078418C4F9F4F4B
:1026D00020E038EE43E050E00E94BB1E2F3F310562
:1026E00009F0E8F52038310578F42830310508F094
:1026F00046C022303105D8F182E08883E0E1AE2E79
:10270000B12CC12CD12C07C084E08883A12CA2E07D
:10271000BA2EC12CD12C60E472E48FE090E0A801C5
:1027200097010E94BB1EC601B5010E947C1E9B0141
:10273000AC0160E074E284EF90E00E94BB1E220FC7
:10274000331F441F551FC901DF91CF911F910F9176
:10275000FF90EF90DF90CF90BF90AF90089585E00D
:102760008883A12CB8E0BB2EC12CD12CD4CF81E022
:10277000888372E0A72EB12CC12CD12CCCCF83E062
:102780008883F0E8AF2EB12CC12CD12CC4CF1F927E
:102790000F920FB60F920BB60F9211242F933F9307
:1027A0004F935F936F937F938F939F93AF93BF9359
:1027B000EF93FF938091D7018F5F8093D701809132
:1027C000D7018436F1F08091D7016AE00E949B1E08
:1027D000992321F480E090E00E946909FF91EF9134
:1027E000BF91AF919F918F917F916F915F914F9129
:1027F0003F912F910F900BBE0F900FBE0F901F9027
:1028000018951092D70181E090E00E9469098091AB
:10281000D8018F5F8093D8018091D8018A30D9F098
:102820008091D901853059F08091DA018230B1F67A
:102830001092DA0184E090E00E946909CFCF1092F3
:10284000D9018091DA018F5F8093DA0183E090E013
:102850000E946909E9CF1092D8018091D9018F5F58
:102860008093D90182E090E00E946909D9CF80E18C
:1028700090E09093C5008093C400E1ECF0E02081EB
:10288000206120832081286020832081206820838C
:10289000E2ECF0E02081226020832081246020830C
:1028A0009093CD008093CC00E9ECF0E080818061D2
:1028B0008083808188608083808180688083EAEC67
:1028C000F0E08081826080838081846080830895CD
:1028D0002091DB01222381F040E0242F30E0FC0135
:1028E000E20FF31F29513D4FD9012C9120834F5FF7
:1028F0002091DB01421788F3FB01208308956623B2
:1029000069F0E82FF92F90E08091C00085FFFCCF9F
:1029100081918093C6009F5F9617B0F30895209130
:10292000DE01222381F040E0242F30E0FC01E20FA1
:10293000F31F2B543D4FD9012C9120834F5F2091E1
:10294000DE01421788F3FB0120830895662369F0B6
:10295000E82FF92F90E08091C80085FFFCCF81918E
:102960008093CE009F5F9617B0F308951F920F9249
:102970000FB60F920BB60F9211242F933F934F93E4
:102980005F936F937F938F939F93AF93BF93EF93D7
:10299000FF938091C6009091DD019923B1F48A32B2
:1029A00009F442C0FF91EF91BF91AF919F918F9138
:1029B0007F916F915F914F913F912F910F900BBE3F
:1029C0000F900FBE0F901F9018954091DC01242F9F
:1029D00030E0F901E75EFC4F80834F5F4093DC01FC
:1029E000842F90E0875E9C4FFC01319750815332D9
:1029F000C9F60297FC0180818332A1F6442359F085
:102A0000E9E1F3E0A7EEB2E0265E3C4F81918D93C1
:102A1000E217F307D9F74093DB011092DD0186E05E
:102A200090E00E946909BECF8093190381E08093F2
:102A3000DC018093DD01B6CF1F920F920FB60F928B
:102A40000BB60F9211242F933F934F935F936F9385
:102A50007F938F939F93AF93BF93EF93FF93809157
:102A6000CE009091E0019923B1F48A3209F442C07A
:102A7000FF91EF91BF91AF919F918F917F916F9156
:102A80005F914F913F912F910F900BBE0F900FBE12
:102A90000F901F9018954091DF01242F30E0F9012D
:102AA000ED57FD4F80834F5F4093DF01842F90E00F
:102AB0008D579D4FFC01319750815332C9F60297D3
:102AC000FC0180818332A1F6442359F0E3E8F2E06F
:102AD000A5EBB2E02C573D4F81918D93E217F307A0
:102AE000D9F74093DE011092E00185E090E00E946A
:102AF0006909BECF8093830281E08093DF018093D8
:102B0000E001B6CF0E94E1120E9441090E94640BCD
:102B10000E9437140E94B90C0E9480080E9411087C
:102B20000E94A9000E947E0909C08091E101909154
:102B3000E2010E94460980E00E948A0C0E94550929
:102B40009093E2018093E1018091E1019091E20193
:102B5000009759F38091E1019091E2010E94810870
:102B60008091E1019091E2010E94B2008091E10127
:102B70009091E2010E9428088091E1019091E20188
:102B800062E00E945A09882381F281E00E948A0C47
:102B9000CCCFECE7F0E09081807C9F73892B808321
:102BA00081E00895ECE7F0E080818062808381E03D
:102BB000089580917C0081700895ECE7F0E08081B9
:102BC0008F7D808381E00895ECE7F0E090818F7144
:102BD000907E892B808381E0089580917C008F71A5
:102BE0000895EAE7F0E080818068808381E00895BD
:102BF000EAE7F0E080818F77808381E00895EAE75B
:102C0000F0E080818064808381E00895EAE7F0E06D
:102C100080818062808381E00895EAE7F0E080812E
:102C20008F7D808381E00895EAE7F0E080818F7AEC
:102C30008061808381E00895EAE7F0E08081886028
:102C4000808381E00895EAE7F0E08081877F8083D8
:102C500081E00895EAE7F0E090818770987F892B02
:102C6000808381E00895EBE7F0E090818770987FA2
:102C7000892B808381E0089580917C0080FD03C0D2
:102C800080917800089580917900089520917800CE
:102C900030917900C9010895882329F485B78D7F83
:102CA00085BF81E0089585B7826085BF81E0089582
:102CB000882329F485B78E7F85BF81E0089585B785
:102CC000816085BF81E00895E9E6F0E09081982B6E
:102CD000908381E00895E9E6F0E09081982B90835D
:102CE00081E00895E9E6F0E09081982B908381E0FF
:102CF0000895882319F4E89881E00895E89A81E01E
:102D00000895882319F4E99881E00895E99A81E00B
:102D10000895882319F4EA9881E00895EA9A81E0F9
:102D20000895882319F4E09881E00895E09A81E0FD
:102D30000895882319F4E19881E00895E19A81E0EB
:102D40000895882319F4E29881E00895E29A81E0D9
:102D50000895882339F4809168008E7F80936800FD
:102D600081E008958091680081608093680081E02F
:102D70000895882339F4809168008D7F80936800DE
:102D800081E008958091680082608093680081E00E
:102D90000895882339F4809168008B7F80936800C0
:102DA00081E008958091680084608093680081E0EC
:102DB0000895882339F480916800877F80936800A4
:102DC00081E008958091680088608093680081E0C8
:102DD0000895882319F4D89881E00895D89A81E05D
:102DE0000895882319F4D99881E00895D99A81E04B
:102DF0000895882319F4DA9881E00895DA9A81E039
:102E00000895882319F4DB9881E00895DB9A81E026
:102E10000895E3E7F0E09081982B908381E0089596
:102E2000EDE6F0E09081982B908381E00895ECE648
:102E3000F0E09081982B908381E00895EBE6F0E03C
:102E40009081982B908381E00895982F9695969580
:102E500096958770992391F09130E1F0923031F19D
:102E6000933051F49BB121E030E002C0220F331FB8
:102E70008A95E2F792279BB981E0089592B121E00B
:102E800030E002C0220F331F8A95E2F7922792B9F1
:102E900081E0089595B121E030E002C0220F331F98
:102EA0008A95E2F7922795B981E0089598B121E0DB
:102EB00030E002C0220F331F8A95E2F7922798B9BB
:102EC000DBCF882329F485B78F7E85BF81E0089505
:102ED00085B7806185BF81E00895882379F4442314
:102EE00011F522B181E090E002C0880F991F6A9528
:102EF000E2F78095822382B981E008958130F9F06C
:102F0000823051F18330C1F7442309F04AC02BB11C
:102F100081E090E002C0880F991F6A95E2F78095E2
:102F200082238BB9E9CF22B181E090E002C0880F03
:102F3000991F6A95E2F7282B22B981E0089544236E
:102F4000C1F025B181E090E002C0880F991F6A9519
:102F5000E2F7282B25B9D0CF4423B9F028B181E07E
:102F600090E002C0880F991F6A95E2F7282B28B9D4
:102F7000C3CF25B181E090E002C0880F991F6A9508
:102F8000E2F78095822385B9B7CF28B181E090E040
:102F900002C0880F991F6A95E2F78095822388B94D
:102FA000ABCF2BB181E090E002C0880F991F6A95EA
:102FB000E2F7282B2BB9A0CF682F677086958695EE
:102FC000869541E00E946D1781E00895682F677033
:102FD00086958695869540E00E946D1781E008955C
:102FE000882379F4442311F521B181E090E002C0F7
:102FF000880F991F6A95E2F78095822381B981E055
:1030000008958130F9F0823051F18330C1F74423C3
:1030100009F04AC02AB181E090E002C0880F991FF0
:103020006A95E2F7809582238AB9E9CF21B181E0E0
:1030300090E002C0880F991F6A95E2F7282B21B90A
:1030400081E008954423C1F024B181E090E002C002
:10305000880F991F6A95E2F7282B24B9D0CF442313
:10306000B9F027B181E090E002C0880F991F6A95FE
:10307000E2F7282B27B9C3CF24B181E090E002C04A
:10308000880F991F6A95E2F78095822384B9B7CF9C
:1030900027B181E090E002C0880F991F6A95E2F79E
:1030A0008095822387B9ABCF2AB181E090E002C03E
:1030B000880F991F6A95E2F7282B2AB9A0CFFF92B3
:1030C0000F931F93F62E082F069506950695182F39
:1030D0001770802F612F40E00E94F0178F2D8130F4
:1030E00051F0802F612F40E00E946D1781E01F9109
:1030F0000F91FF900895802F612F41E00E946D177E
:1031000081E01F910F91FF900895682F6770869559
:103110008695869541E00E94F01781E00895882306
:1031200079F4442311F520B181E090E002C0880FCA
:10313000991F6A95E2F78095822380B981E008950E
:103140008130F9F0823051F18330C1F7442309F026
:103150004AC029B181E090E002C0880F991F6A95AA
:10316000E2F78095822389B9E9CF20B181E090E030
:1031700002C0880F991F6A95E2F7282B20B981E0D9
:1031800008954423C1F023B181E090E002C0880F8C
:10319000991F6A95E2F7282B23B9D0CF4423B9F0C1
:1031A00026B181E090E002C0880F991F6A95E2F78E
:1031B000282B26B9C3CF23B181E090E002C0880F4D
:1031C000991F6A95E2F78095822383B9B7CF26B11C
:1031D00081E090E002C0880F991F6A95E2F7809520
:1031E000822386B9ABCF29B181E090E002C0880F7D
:1031F000991F6A95E2F7282B29B9A0CF662369F4B5
:1032000092B121E030E002C0220F331F8A95E2F72D
:103210002095292322B981E0089592B121E030E080
:1032200002C0220F331F8A95E2F7922B92B981E0F8
:10323000089582B10895662369F491B121E030E0E8
:1032400002C0220F331F8A95E2F72095292321B966
:1032500081E0089591B121E030E002C0220F331FD8
:103260008A95E2F7922B91B981E00895662369F47B
:1032700090B121E030E002C0220F331F8A95E2F7BF
:103280002095292320B981E0089590B121E030E014
:1032900002C0220F331F8A95E2F7922B90B981E08A
:1032A0000895662369F495B121E030E002C0220F51
:1032B000331F8A95E2F72095292325B981E00895E7
:1032C00095B121E030E002C0220F331F8A95E2F76A
:1032D000922B95B981E0089585B10895662369F42C
:1032E00094B121E030E002C0220F331F8A95E2F74B
:1032F0002095292324B981E0089594B121E030E09C
:1033000002C0220F331F8A95E2F7922B94B981E015
:103310000895662369F493B121E030E002C0220FE2
:10332000331F8A95E2F72095292323B981E0089578
:1033300093B121E030E002C0220F331F8A95E2F7FB
:10334000922B93B981E00895662369F498B121E046
:1033500030E002C0220F331F8A95E2F7209529231F
:1033600028B981E0089598B121E030E002C0220F31
:10337000331F8A95E2F7922B98B981E0089588B1BE
:103380000895662369F497B121E030E002C0220F6E
:10339000331F8A95E2F72095292327B981E0089504
:1033A00097B121E030E002C0220F331F8A95E2F787
:1033B000922B97B981E00895662369F496B121E0D4
:1033C00030E002C0220F331F8A95E2F720952923AF
:1033D00026B981E0089596B121E030E002C0220FC5
:1033E000331F8A95E2F7922B96B981E00895662300
:1033F00069F49BB121E030E002C0220F331F8A95AF
:10340000E2F7209529232BB981E008959BB121E0B3
:1034100030E002C0220F331F8A95E2F7922B9BB94E
:1034200081E008958BB10895662369F49AB121E093
:1034300030E002C0220F331F8A95E2F7209529233E
:103440002AB981E008959AB121E030E002C0220F4C
:10345000331F8A95E2F7922B9AB981E0089566238B
:1034600069F499B121E030E002C0220F331F8A9540
:10347000E2F72095292329B981E0089599B121E047
:1034800030E002C0220F331F8A95E2F7922B99B9E0
:1034900081E0089593B7982B93BF81E00895882326
:1034A00029F483B78E7F83BF81E0089583B781605D
:1034B00083BF81E00895882329F485B78F7B85BF7A
:1034C00081E0089585B7806485BF81E008958823F1
:1034D00029F485B78F7D85BF81E0089585B7806227
:1034E00085BF81E00895882339F4809164008F7747
:1034F0008093640081E008958091640080688093E7
:10350000640081E00895882339F4809164008F7B02
:103510008093640081E008958091640080648093CA
:10352000640081E00895882339F4809164008F7DE0
:103530008093640081E008958091640080628093AC
:10354000640081E00895882339F4809164008F7EBF
:103550008093640081E0089580916400806180938D
:10356000640081E00895882339F480916400877FA6
:103570008093640081E00895809164008860809366
:10358000640081E00895882339F4809164008B7F82
:103590008093640081E0089580916400846080934A
:1035A000640081E00895882339F4809164008D7F60
:1035B0008093640081E0089580916400826080932C
:1035C000640081E00895882339F4809164008E7F3F
:1035D0008093640081E0089580916400816080930D
:1035E000640081E008958093660081E00895882357
:1035F00039F4809161008F778093610081E00895B4
:103600008091610080688093610081E00895E1E627
:10361000F0E090818F70892B808381E0089584B7DA
:1036200080E0089584B780E0089584B780E008952D
:1036300084B780E0089584B780E0089580916000A9
:1036400080E00895882339F4809160008F7B809317
:10365000600081E008958091600080648093600044
:1036600081E008958091600080E00895882339F416
:1036700080916000877F8093600081E00895809151
:10368000600088608093600081E00895E0E6F0E0EB
:103690009081982B908381E0089594B5807C9F73EE
:1036A000892B84BD81E0089595B580739F7C892B1B
:1036B00085BD81E0089580FF0FC024B5216024BD41
:1036C00081FF0FC024B5226024BD83FD0FC085B5E6
:1036D000877F85BD81E0089524B52E7F24BD81FDBF
:1036E000F1CF24B52D7F24BD83FFF1CF85B5886050
:1036F00085BD81E0089595B5807C892B85BD81E0ED
:10370000089595B58770987F892B85BD089586BDEE
:10371000089586B5089587BD089587B5089588BD35
:10372000089588B50895EEE6F0E090818770892BC2
:1037300080830895EEE6F0E090818770809589237C
:1037400080830895EEE6F0E090818770809589236C
:10375000808308958093C60081E008958093CE0011
:1037600081E008958091C60008958091CE0008956B
:103770008091C000807208958091C8008072089581
:103780008091C0008C7108958091C8008C7108955B
:10379000882331F09091C000982B9093C000089539
:1037A0008091C0008093C0000895882331F09091EB
:1037B000C800982B9093C80008958091C80080930A
:1037C000C80008958091C000827008958091C8005B
:1037D00082700895E0ECF0E080818160808381E078
:1037E0000895E8ECF0E080818160808381E00895B5
:1037F0008091C000817008958091C8008170089503
:103800008091C000807808958091C80080780895E4
:10381000E0ECF0E080818064808381E00895E8EC52
:10382000F0E080818064808381E008958091C00011
:10383000807408958091C800807408958091C000BC
:10384000807208958091C80080720895E1ECF0E0E4
:1038500080818860808381E00895E9ECF0E08081D8
:103860008860808381E00895E1ECF0E08081877FCB
:10387000808381E00895E9ECF0E08081877F808398
:1038800081E00895E1ECF0E080818061808381E057
:103890000895E9ECF0E080818061808381E0089503
:1038A000E1ECF0E080818F7E808381E00895E9EC97
:1038B000F0E080818F7E808381E00895E1ECF0E08C
:1038C0002081982F94702B7F922B9083E2ECF0E074
:1038D0009081880F8670997F892B808381E008957D
:1038E000E9ECF0E02081982F94702B7F922B90834D
:1038F000EAECF0E09081880F8670997F892B8083B5
:1039000081E00895E2ECF0E0908180739F7C892B48
:10391000808381E00895EAECF0E0908180739F7CE1
:10392000892B808381E00895E2ECF0E0908188703B
:10393000977F892B808381E00895EAECF0E0908105
:103940008870977F892B808381E00895E1ECF0E017
:1039500080818068808381E00895E9ECF0E08081D7
:103960008068808381E00895E1ECF0E080818F77CA
:10397000808381E00895E9ECF0E080818F77808397
:1039800081E00895E1ECF0E080818064808381E053
:103990000895E9ECF0E080818064808381E00895FF
:1039A000E1ECF0E080818F7B808381E00895E9EC99
:1039B000F0E080818F7B808381E00895E1ECF0E08E
:1039C00080818062808381E00895E9ECF0E080816D
:1039D0008062808381E00895E1ECF0E080818F7D5A
:1039E000808381E00895E9ECF0E080818F7D808321
:1039F00081E00895E2ECF0E0908181709E7F892B58
:103A0000808381E00895EAECF0E0908181709E7FF0
:103A1000892B808381E008952091C00020FD26C07D
:103A20002091C00021FD20C09B01AC01220F331F5B
:103A3000441F551F220F331F441F551F220F331FD2
:103A4000441F551F220F331F441F551F60E074E2AF
:103A500084EF90E00E94BB1E215030403093C5009F
:103A60002093C40081E0089580E0089580E00895E7
:103A70002091C80020FD26C02091C80021FD20C053
:103A80009B01AC01220F331F441F551F220F331F10
:103A9000441F551F220F331F441F551F220F331F72
:103AA000441F551F60E074E284EF90E00E94BB1E4B
:103AB000215030403093CD002093CC0081E0089518
:103AC00080E0089580E008952091C00020FD22C08C
:103AD0002091C00021FD02C080E008959B01AC014F
:103AE000220F331F441F551F220F331F441F551F22
:103AF000220F331F441F551F60E074E284EF90E0F3
:103B00000E94BB1E215030403093C5002093C4005A
:103B100081E0089580E008952091C80020FD22C032
:103B20002091C80021FD02C080E008959B01AC01F6
:103B3000220F331F441F551F220F331F441F551FD1
:103B4000220F331F441F551F60E074E284EF90E0A2
:103B50000E94BB1E215030403093CD002093CC00FA
:103B600081E0089580E008952091C00020FD02C00A
:103B700080E008959B01AC01220F331F441F551FA5
:103B800060E074E284EF90E00E94BB1E2150304060
:103B90003093C5002093C40081E008952091C800AF
:103BA00020FD02C080E008959B01AC01220F331F6D
:103BB000441F551F60E074E284EF90E00E94BB1E3A
:103BC000215030403093CD002093CC0081E0089507
:103BD000442369F0FC012081261759F0319680E0DA
:103BE00003C09191961731F08F5F8417D0F380E076
:103BF000089580E00895CF93DF939C01FB0183E05B
:103C0000283E3807A0F0C8EED3E0C901BE010E94EB
:103C1000A71E862F8295807F108281836C9FC001B2
:103C20006D9F900D7C9F900D1124281B390B24361D
:103C30003105B8F0C4E6D0E0C901BE010E94A71E5C
:103C4000562F442780819181842B952B91838083EB
:103C50006C9FC0016D9F900D7C9F900D1124281BBF
:103C6000390B2A30310500F1C9016AE070E00E9489
:103C7000A71E70E0AB0142955295507F5427407FBC
:103C8000542780819181842B952B91838083CB0154
:103C9000880F991F660F771F660F771F660F771FB4
:103CA000860F971F281B390B2115310531F08081B4
:103CB0009181822B932B91838083DF91CF91089503
:103CC000982F90539A3090F0982F9156963048F054
:103CD000982F9154963070F48153FB01808381E0DA
:103CE00008958155FB01808381E00895FB01908355
:103CF00081E0089580E00895629FD001739FF001F4
:103D0000829FE00DF11D649FE00DF11D929FF00D6B
:103D1000839FF00D749FF00D659FF00D9927729FA2
:103D2000B00DE11DF91F639FB00DE11DF91FBD012D
:103D3000CF0111240895991B79E004C0991F9617AB
:103D400008F0961B881F7A95C9F780950895AA1BDD
:103D5000BB1B51E107C0AA1FBB1FA617B70710F076
:103D6000A61BB70B881F991F5A95A9F780959095A8
:103D7000BC01CD010895A1E21A2EAA1BBB1BFD01B7
:103D80000DC0AA1FBB1FEE1FFF1FA217B307E4073A
:103D9000F50720F0A21BB30BE40BF50B661F771F92
:103DA000881F991F1A9469F7609570958095909572
:0E3DB0009B01AC01BD01CF010895F894FFCF37
:103DBE0007015A5A1E1E5A5A96965A07061011FF96
:00000001FF
