:100000000C9446000C9465000C9465000C946500FB
:100010000C9465000C9465000C9465000C946500CC
:100020000C9465000C9465000C9465000C946500BC
:100030000C9465000C94B7110C9465000C94650049
:100040000C94B9140C9465000C9465000C94650034
:100050000C94A8150C9465000C9465000C94650034
:100060000C9465000C9465000C9465000C9465007C
:100070000C940E160C9465000C9465000C946500AD
:100080000C9465000C9465000C94650011241FBE4F
:10009000C0E0D0E4DEBFCDBF11E0A0E0B1E0EAE710
:1000A000FEE300E00BBF02C007900D92A431B10740
:1000B000D9F713E0A4E1B1E001C01D92AD35B1075D
:1000C000E1F70E9474160C943B1F0C9400001092F0
:1000D0001401109215018FEF9FEF909318018093F8
:1000E000170190931A01809319018AE580931601F4
:1000F0000E94EC0790931C0180931B010E9437091A
:1001000090931E0180931D0181E00895CF93DF93AA
:10011000EC0162E00E944C0A882351F080911401A6
:10012000882309F454C080911501813009F459C025
:10013000CE0164E00E944C0A882339F0E0911D0151
:10014000F0911E018281882349F0CE0167E00E9470
:100150004C0A882389F4DF91CF910895E0911B0127
:10016000F0911C018081882381F7809115018823FB
:1001700061F70E942E09E9CF0E94120A909318019C
:100180008093170120911501222329F721E0209364
:100190001501E0911D01F0911E01208120931601AF
:1001A0002281213009F45AC0E0911B01F0911C0119
:1001B0002081222309F04AC08B30910508F441C008
:1001C00086E060E00E94EF07DF91CF9108950E94E2
:1001D0002E0981E08093140180911501813009F08E
:1001E000A7CFE0911D01F0911E018281882309F0C3
:1001F0009FCF80911701909118018E31910558F58C
:100200002091190130911A012817390750F1809176
:1002100016018B3590F58A35A9F5E0911B01F09117
:100220001C018081823011F0882389F50E94170A11
:10023000809117019091180190931A0180931901F0
:1002400077CF82E060E00E94EF0785CF80E060E03A
:100250000E94EF0780CF109215016ACF0E943409E7
:100260007ACF81E060E00E94EF07E0911D01F091FC
:100270001E0182818823E1F6D9CF84E060E00E94EC
:10028000EF07F3CF83E060E00E94EF07EECF82E05C
:1002900060E00E94EF07E9CF1F9380E06AE54AE53E
:1002A00020E00E94C40811E0813009F010E081E0F4
:1002B0006AE54AE520E00E94C408813069F182E0E5
:1002C0006AE54AE520E00E94C408813019F183E024
:1002D0006AE54AE520E00E94C4088130C9F084E064
:1002E0006AE54AE520E00E94C408813079F085E0A3
:1002F0006AE54AE520E00E94C408813019F080E0F8
:100300001F91089510621F33D1F7FACF1061EFCF1C
:100310001860E5CF1460DBCF1260D1CF10922001BE
:10032000109221010E94F6070E944C0108951F932C
:10033000CF93DF93EC0161E00E944C0A8823A1F483
:10034000CE0162E00E944C0A882321F080912001B6
:10035000882321F0DF91CF911F9108950E945B11B6
:10036000DF91CF911F91089580912001882371F131
:10037000853009F453C0863009F491C0813009F406
:10038000CBC08230A1F1833009F4DEC08430C1F6E5
:10039000809100018430F9F480911F01882309F4D1
:1003A0007FC1813009F46EC3823009F42FC48330D9
:1003B00009F4E7C3843009F49FC3853009F475C498
:1003C00084E0809300010E945B11BACF809100010C
:1003D000882309F4B5CF0E944C01813009F0B0CFD9
:1003E00080912001809300010E945B11A9CF809130
:1003F0000001823081F780911F01882309F48DC1AB
:10040000813009F401C3823009F4B1C1833009F4A9
:10041000B0C4843009F4EEC182E0D3CF80910001F2
:10042000853009F48DCF80E06AE546E420E00E9443
:10043000990811E0813009F010E081E06AE546E4B6
:1004400020E00E949908813009F4DBC082E06AE56F
:1004500046E420E00E949908813009F4D0C083E08E
:100460006AE54EE620E00E949908813009F4CBC08D
:1004700084E06AE54EE620E00E949908813009F4A4
:10048000BCC085E06AE54EE620E00E949908813014
:1004900009F056CF10621F3309F4A2CF51CF8091DB
:1004A0000001863009F44CCF80E062E84AE520E0A4
:1004B0000E94990811E0813009F010E081E06AE5BE
:1004C0004AE520E00E949908813009F4A4C082E046
:1004D00062E34AE520E00E949908813009F499C05E
:1004E00083E062E34AE520E00E949908813009F444
:1004F0008EC084E06AE54AE520E00E9499088130D8
:1005000009F483C085E062E84AE520E00E9499088A
:10051000813009F015CFBECF80910001813009F004
:100520005ACF80911F01882309F477C0813009F4E4
:10053000DFC1823009F41BC1833009F420C284304A
:1005400009F458C181E03DCF90910001933009F04A
:1005500042CF90911F01992309F482C1913009F48F
:10056000DAC3923009F486C4933009F440C494305D
:1005700009F4C6C4953009F024CF80E062E34AE56F
:10058000209121010E94990811E0813009F010E0CA
:1005900081E062E34AE5209121010E9499088130BF
:1005A00009F408C582E062E34AE5209121010E9436
:1005B0009908813009F4FCC483E062E34AE52091A4
:1005C00021010E949908813009F4F0C484E062E3BB
:1005D0004AE5209121010E949908813009F4E4C480
:1005E00085E062E34AE5209121010E94990881306B
:1005F00009F4CBC480912001E4CE106142CF146095
:100600002ECF126023CF186033CF10617BCF1860DC
:1006100070CF146065CF12605ACF6AE54AE5209129
:1006200021010E94990811E0813009F010E081E079
:100630006AE54EE6209121010E949908813009F473
:1006400059C282E06AE54AE5209121010E94990899
:10065000813009F44DC283E06AE546E4209121012E
:100660000E949908813009F480C084E06AE54AE577
:10067000209121010E949908813009F437C185E059
:100680006AE546E4209121010E949908813009F031
:10069000B1CF10621F3309F0ADCF80931F01AACFF5
:1006A00062E34AE5209121010E94990811E081301E
:1006B00009F010E081E062E34AE5209121010E9407
:1006C0009908813009F412C482E062E34AE520917E
:1006D00021010E949908813009F406C483E062E395
:1006E0004AE5209121010E949908813009F4FAC35A
:1006F00084E062E34AE5209121010E94990881305B
:1007000009F4EEC385E062E34AE5209121010E94ED
:100710009908813009F06ECFBCCF6AE54AE5209197
:1007200021010E94990811E0813009F010E081E078
:100730006AE542E8209121010E949908813009F47C
:1007400063C282E06AE54AE5209121010E9499088E
:10075000813009F40CC383E06AE542E32091210172
:100760000E949908813009F080CF18607ECF80E028
:1007700062E84EE6209121010E94990811E0813043
:1007800009F010E081E062E34AE5209121010E9436
:100790009908813009F4B2C382E062E84EE6209104
:1007A00021010E949908813009F4A6C383E062E820
:1007B0004AE5209121010E949908813009F49AC3E9
:1007C00084E062E346E4209121010E94990881308F
:1007D00009F48EC385E062E84AE5209121010E9478
:1007E0009908813009F006CF10621F3309F002CF5B
:1007F00083E053CF80E062E34AE5209121010E942B
:10080000990811E0813009F010E081E062E84EE6DD
:10081000209121010E949908813009F444C282E0AC
:1008200062E34AE5209121010E949908813009F490
:1008300038C283E062E346E4209121010E949908D6
:10084000813009F42CC284E062E84AE5209121015C
:100850000E949908813009F420C285E062E311CF3B
:1008600080E062E84AE5209121010E94990811E0A8
:10087000813009F010E081E062E84AE52091210131
:100880000E949908813009F4126082E062E84AE52A
:10089000209121010E949908813009F4146083E0BD
:1008A00062E84AE5209121010E949908813009F40B
:1008B000186084E062E84AE5209121010E949908CD
:1008C000813009F4106185E062E84AE52091210158
:1008D0000E949908813009F08DCE10621F3309F013
:1008E00089CE80931F01809120016BCD1061C7CE0E
:1008F00080E062E34EE6209121010E94990811E018
:10090000813009F010E081E062E84AE520912101A0
:100910000E949908813009F445C382E062E34EE603
:10092000209121010E949908813009F439C383E0A4
:1009300062E34AE5209121010E949908813009F47F
:100940002DC384E062E846E4209121010E949908C9
:10095000813009F421C385E062E34AE52091210159
:100960000E949908813009F045CE10621F3309F0CA
:1009700041CE82E080931F018091200122CD80E052
:1009800062E84AE5209121010E94990811E0813036
:1009900009F010E081E062E34EE6209121010E941F
:1009A0009908813009F4126082E062E84AE52091FA
:1009B00021010E949908813009F4146083E062E803
:1009C00046E4209121010E949908813009F41860C1
:1009D00084E062E34AE5209121010E949908813078
:1009E00009F4106185E062E846E4209121010E944B
:1009F0009908813009F0FECD10621F3309F0FACD5D
:100A000084E080931F01F6CD80E062E84AE5209102
:100A100021010E94990811E0813009F010E081E085
:100A200062E34EE6209121010E949908813009F489
:100A3000126082E062E84AE5209121010E94990853
:100A4000813009F4146083E062E846E420912101DA
:100A50000E949908813009F4186084E062E34AE555
:100A6000209121010E949908813009F4106185E0EC
:100A700062E846E4209121010E949908813009F042
:100A8000B9CD73CF80E062E34AE5209121010E9455
:100A9000990811E0813009F010E081E062E34EE650
:100AA000209121010E949908813009F4126082E0AE
:100AB00062E34AE5209121010E949908813009F4FE
:100AC000146083E062E346E4209121010E949908CA
:100AD000813009F4186084E062E34AE52091210145
:100AE0000E949908813009F4106185E062E3C1CF6A
:100AF0001460B1CD1260A5CD80E062E84EE6209191
:100B000021010E94990811E0813009F010E081E094
:100B100062E84AE5209121010E949908813009F498
:100B2000126082E062E84EE6209121010E9499085D
:100B3000813009F4146083E062E84AE520912101E4
:100B40000E949908813009F4186084E062E846E464
:100B5000209121010E949908813009F4106185E0FB
:100B600062E84AE5209121010E949908813009F04C
:100B700041CD10621F3309F03DCD85E080931F0108
:100B800039CD80E062E34EE6209121010E94990870
:100B900011E0813009F010E081E062E84AE520913F
:100BA00021010E949908813009F4126082E062E319
:100BB0004EE6209121010E949908813009F41460C9
:100BC00083E062E84AE5209121010E949908813082
:100BD00009F4186084E062E346E4209121010E9458
:100BE0009908813009F4106185E062E84AE52091B6
:100BF00021010E949908813009F0FCCC10621F335A
:100C000009F0F8CC84E049CD12609BCD80E062E32E
:100C10004AE5209121010E94990811E0813009F0F4
:100C200010E081E062E84EE6209121010E949908DF
:100C3000813009F4126082E062E34AE520912101EB
:100C40000E949908813009F4146083E062E846E468
:100C5000209121010E949908813009F4186084E0F4
:100C600062E34AE5209121010E949908813009F44C
:100C7000106185E062E846E4209121010E94990814
:100C8000813009F0B7CC10621F3309F0B3CC83E098
:100C900080931F018091200194CB1061DECD1860FC
:100CA000D2CD1460C6CD1260BACD80E062E84AE5CC
:100CB000209121010E94990811E0813009F010E093
:100CC00081E062E84AE5209121010E949908813083
:100CD00009F4126082E062E84AE5209121010E9455
:100CE0009908813009F4146083E062E84AE52091B4
:100CF00021010E949908813009F4186084E062E8BB
:100D00004AE5209121010E949908813009F410617F
:100D100085E062E867CC80E062E84AE52091210145
:100D20000E94990811E0813009F010E081E062E84A
:100D30004EE6209121010E949908813009F4126049
:100D400082E062E84AE5209121010E949908813001
:100D500009F4146083E062E846E4209121010E94D6
:100D60009908813009F4186084E062E878CE146054
:100D7000F2CC80E062E34EE6209121010E949908C6
:100D800011E0813009F010E081E062E84AE520914D
:100D900021010E949908813009F4126082E062E327
:100DA0004EE6209121010E949908813009F41460D7
:100DB00083E062E34AE5209121010E949908813095
:100DC00009F4186084E062E846E4209121010E9461
:100DD0009908813009F4106185E062E34AE52091C9
:100DE00021010E949908813009F004CC05CE80E0F1
:100DF00062E84EE6209121010E94990811E08130BD
:100E000009F010E081E062E34AE5209121010E94AF
:100E10009908813009F4DEC082E062E84EE6209154
:100E200021010E949908813009F4D2C083E062E375
:100E30004AE5209121010E949908813009F4C6C039
:100E400084E062E846E4209121010E949908813003
:100E500009F4BAC085E062E34AE5209121010E94CD
:100E60009908813009F0C6CB10621F3309F0C2CB5C
:100E700084E037CD80E062E84AE5209121010E94BC
:100E8000990811E0813009F010E081E062E34EE65C
:100E9000209121010E949908813009F4126082E0BA
:100EA00062E84AE5209121010E949908813009F405
:100EB000146083E062E346E4209121010E949908D6
:100EC000813009F4186084E062E84AE5209121014C
:100ED0000E949908813009F4106185E062E3CBCE6D
:100EE000106110CC186004CC1460F8CB1260ECCB0D
:100EF000106170CC186064CC146058CC12604CCC7B
:100F000080E062E34EE6209121010E94990811E001
:100F1000813009F010E081E062E34AE5209121018F
:100F20000E949908813009F44DC082E062E34EE6E8
:100F3000209121010E949908813009F441C083E089
:100F400062E34AE5209121010E9499088130B1F1C4
:100F500084E062E346E4209121010E9499088130F7
:100F600059F185E062E34AE5209121010E94990848
:100F7000813009F03FCB10621F3309F03BCB85E095
:100F800080931F01809120011CCA10621F3309F059
:100F900031CB10921F012ECB1061DDCC1860D1CC6B
:100FA0001460C5CC1260B9CC10611ACB18600ECB9E
:100FB000146002CB1260F6CA1061D3CF1860C8CF9C
:100FC0001460BDCF1260B1CF106144CF186038CF2C
:100FD00014602CCF126020CF80E291E0089510922F
:100FE0001F0180932001609321010895DF92EF9209
:100FF000FF920F931F932AE0D22ED092220182E01B
:10100000809323011AE5109324018AE06AE570E0D9
:101010000E94BD0D9BE0E92EE092260183E08093C3
:101020002701109328018BE06AE570E00E94BD0D56
:101030000DE000932A0184E080932B0110932C0192
:101040008DE06AE570E00E94BD0D8CE0F82EF09214
:101050002E0185E080932F01109330018CE06AE52A
:1010600070E00E94BD0D8FE08093320186E0809396
:101070003301109334018FE06AE570E00E94BD0DEA
:101080008EE08093360187E080933701109338011A
:101090008EE06AE570E00E94BD0D86E180933A0122
:1010A00088E080933B0110933C0186E16AE570E0A3
:1010B0000E94BD0D87E180933E0189E080933F014E
:1010C0001093400187E16AE570E00E94BD0D8EE15A
:1010D00080934201D0924301109344016AE570E08D
:1010E0000E94BD0D8FE180934601E092470110936D
:1010F00048016AE570E00E94BD0D8CE180934A01D1
:10110000F0924B0110934C016AE570E00E94BD0D16
:101110008DE180934E0100934F01109350016AE5D9
:1011200070E00E94BD0D1F910F91FF90EF90DF9036
:1011300008951F93CF93DF93C82FD0E0CC0FDD1F0E
:10114000CC0FDD1FCC0FDD1FCE5DDE4F6A834E83DB
:10115000898170E0422F0E94CB0E182F6E818D8105
:1011600070E040E00E94CB0E813029F080E0DF91FA
:10117000CF911F910895113009F080E0982F92606F
:1011800081E0933099F7F3CF1F93CF93DF93C82F6C
:10119000D0E0CC0FDD1FCC0FDD1FCC0FDD1FCE5DEF
:1011A000DE4F6A834E83898170E0422F0E940810CF
:1011B000182F6E818D8170E040E00E940810813010
:1011C00029F080E0DF91CF911F910895113009F04F
:1011D00080E0982F926081E0933099F7F3CFCF931E
:1011E000DF931092550110925201C3E5D1E08AE5D8
:1011F00088838CE8898388E06AE570E00E94BD0DF1
:10120000698189E070E00E94BD0DDF91CF91089562
:1012100062E00E944C0A882321F0809155018130C0
:1012200009F00895E0915201F0E0EF5FFE4F608118
:1012300080E070E040E00E94CB0E813049F0809168
:101240005201893071F710925201109255010895A0
:10125000809152018F5F80935201F3CF109252011F
:1012600081E080935501089510925501089583E51A
:1012700091E008951F93982F142F8093530160934A
:10128000540180E0692F70E00E94CB0E6091540100
:1012900081E070E0412F0E94CB0E1F9108950895C8
:1012A000CF93DF93EC0166E00E944C0A882309F09B
:1012B00041C0CE0165E00E944C0A882319F4DF91F9
:1012C000CF91089583E00E94480D85EF91E066E597
:1012D00071E00E94811560915601662329F1809189
:1012E000F601813009F041C08091F701882309F4AB
:1012F00053C0813009F449C08230B1F48091F901C2
:10130000882309F47DC0813009F482C0823009F459
:1013100083C0833009F482C0843009F481C060E066
:101320008091F8010E94EF0783E00E94620DDF9137
:10133000CF91089582E00E94480D87E292E067E530
:1013400071E00E945A1587E292E0609157010E9475
:10135000981580915701882321F0809129028823D4
:1013600049F082E00E94620DA4CF85EF91E00E94D7
:101370007115DACF80912B02809358011092590198
:1013800087E090E00E945B0AECCF8091F80188230F
:1013900059F60E942E09C8CF8091FA01882371F175
:1013A000813081F1823081F1833081F1843091F19B
:1013B00040E08091F8018823D9F08130C9F0823073
:1013C000B9F08330A9F0843099F0853089F0863007
:1013D00079F0873069F0883059F0893049F08A30E7
:1013E00039F08B3029F08C3019F08D3009F09CCF1A
:1013F0006091F90170E00E94CB0E96CF44E6D9CF00
:1014000064E68ECF40E5D5CF4CE3D3CF48E2D1CFD1
:1014100060E586CF44E1CDCF6CE382CF68E280CF38
:1014200064E17ECF80915801909159010895DF9336
:10143000CF9300D000D00F92CDB7DEB7CE0101968A
:10144000DC01EAE0F1E025E001900D922150E1F7A6
:1014500065E00E9471150F900F900F900F900F9004
:10146000CF91DF91089510925B0110925A01089577
:10147000F89420915A0130915B01809590958223D8
:10148000932390935B0180935A01789408958091FF
:101490005A0190915B01089521E030E002C0220FD3
:1014A000331F6A95E2F72823392381E0211531059E
:1014B00009F480E0089521E030E002C0220F331FDC
:1014C0008A95E2F780915A0190915B01822B932BD0
:1014D00090935B0180935A0181E00895F8940895F8
:1014E0007894089580915D02813009F4A6C08091BE
:1014F0006C02813009F46EC080917B028130B9F1B9
:1015000080918A02813009F008959091940280912F
:101510009302981708F008C180918902813009F47C
:101520001AC180918D0290918E02019690938E0245
:1015300080938D0220918B0230918C028217930749
:1015400019F780918702813009F48DC1809186025C
:101550000E94CE1881E08093890210928E02109230
:101560008D02809194028F5F8093940208959091F0
:10157000850280918402981708F0BFC080917A029A
:10158000813009F409C180917E0290917F02019619
:1015900090937F0280937E0220917C0230917D02A5
:1015A0008217930709F0ACCF80917802813009F45B
:1015B0005FC1809177020E94CE1881E080937A0209
:1015C00010927F0210927E02809185028F5F80933D
:1015D000850296CF9091760280917502981708F057
:1015E00075C080916B02813009F4F7C080916F0261
:1015F0009091700201969093700280936F022091F7
:101600006D0230916E028217930709F075CF8091B9
:101610006902813009F431C1809168020E94CE18BC
:1016200081E080936B021092700210926F028091A1
:1016300076028F5F809376025FCF909166028091F1
:101640006702891760F580915C02813009F4E6C079
:101650008091600290916102019690936102809363
:10166000600220915E0230915F028217930709F0B9
:101670003ECF80915A02813009F4F0C08091590226
:101680000E94CE1881E080935C0210926102109259
:101690006002809167028F5F8093670228CF10926B
:1016A0005D0210925F0210925E021092610210922F
:1016B0006002109263021092620210926502109210
:1016C0006402109266021092670211CF10926C02AF
:1016D00010926E0210926D021092700210926F02C0
:1016E00010927202109271021092740210927302A0
:1016F0001092750210927602FFCE10927B02109229
:101700007D0210927C0210927F0210927E02109253
:101710008102109280021092830210928202109233
:10172000840210928502ECCE10928A0210928C02F2
:1017300010928B0210928E0210928D0210929002E3
:1017400010928F02109292021092910210929302C4
:1017500010929402089580919102909192020196C4
:10176000909392028093910220918F023091900287
:101770008217930709F0C8CE80918702813009F45F
:1017800090C0809186020E94D8181092890210920F
:1017900092021092910208958091820290918302A8
:1017A000019690938302809382022091800230916F
:1017B00081028217930709F0A3CE809178028130CD
:1017C00009F460C0809177020E94D81810927A02C2
:1017D000109283021092820293CE809173029091B4
:1017E00074020196909374028093730220917102A7
:1017F000309172028217930709F07ECE80916902C0
:10180000813009F444C0809168020E94D818109277
:101810006B0210927402109273026ECE8091640279
:1018200090916502019690936502809364022091E5
:101830006202309163028217930709F058CE8091BB
:101840005A02813049F1809159020E94D8181092B1
:101850005C02109265021092640249CE8091590296
:101860000E94D8180FCF809186020E94D81872CE9D
:10187000809177020E94D818A0CE809168020E94C1
:10188000D818CECE809177020E94CE189FCF80913B
:1018900068020E94CE18BBCF809159020E94CE18D8
:1018A000D6CF809186020E94CE186FCF80910F0113
:1018B0008093590210925A0291E090935B029093A8
:1018C0005C0210925D0210925F0210925E02109212
:1018D00061021092600210926302109262021092F2
:1018E00065021092640210926602109267020E94D2
:1018F000771980915B02882309F4C0C080915A0255
:10190000813009F4C0C0809159020E94CE188091A4
:101910001001809368021092690291E090936A022C
:1019200090936B0210926C0210926E0210926D02F4
:101930001092700210926F02109272021092710255
:101940001092740210927302109275021092760235
:101950000E94771980916A02882309F485C08091DA
:101960006902813009F485C0809168020E94CE1816
:1019700080911101809377021092780291E0909308
:10198000790290937A0210927B0210927D0210925B
:101990007C0210927F0210927E02109281021092BD
:1019A000800210928302109282021092840210929E
:1019B00085020E94771980917902882309F44AC030
:1019C00080917802813009F44AC0809177020E94A8
:1019D000CE1880911201809386021092870291E0C6
:1019E000909388029093890210928A0210928C023E
:1019F00010928B0210928E0210928D021092900221
:101A000010928F0210929202109291021092930201
:101A1000109294020E94771980918802882389F499
:101A200080918702813089F0809186020E94D818C7
:101A300081E061E070E041E022E73AE00E94E313D8
:101A4000089580918702813079F3809186020E9407
:101A5000CE18EECF80917802813009F4B6CF809114
:101A600077020E94D818B5CF80916902813009F4BD
:101A70007BCF809168020E94D8187ACF80915A0259
:101A8000813009F440CF809159020E94D8183FCF8D
:101A900090E09C01220F331F280F391FF901EE0F30
:101AA000FF1FEE0FFF1FE20FF31FE75AFD4F81816B
:101AB000813021F080810E94D818089580810E9491
:101AC000CE18089590E09C01220F331F280F391F74
:101AD000F901EE0FFF1FEE0FFF1FE20FF31FE75A92
:101AE000FD4F8181813021F080810E94CE180895C0
:101AF00080810E94D818089590E09C01220F331F26
:101B0000280F391FF901EE0FFF1FEE0FFF1FE20F25
:101B1000F31FE75AFD4F80810E941718089590E047
:101B2000DC01AA0FBB1FA80FB91FFD01EE0FFF1F9D
:101B3000EE0FFF1FEA0FFB1FE75AFD4F5683458349
:101B4000108617823287218714861386658716864A
:101B500081E08483089510928000E1E8F0E08081C4
:101B6000826080831092850010928400B19AEFE623
:101B7000F0E080818260808308951F93482F509108
:101B8000E8012CE531E0852F90E0FC01EE0FFF1F0E
:101B9000880F991F880F991F880F991FE80FF91F49
:101BA000E20FF31F81E081875091E801852F90E0DB
:101BB000FC01EE0FFF1F880F991F880F991F880FD8
:101BC000991FE80FF91FE20FF31F10865091E801EB
:101BD000852F90E0FC01EE0FFF1F880F991F880FE3
:101BE000991F880F991FE80FF91FE20FF31F408319
:101BF0001091E801EEEBF0E06E9FC0016F9F900D39
:101C00007E9F900D112462E170E00E94051F6057D5
:101C10007E4F660F771F812F90E0FC01EE0FFF1FB4
:101C2000880F991F880F991F880F991FE80FF91FB8
:101C3000E20FF31F728361835091E8016091E80124
:101C4000862F90E0FC01EE0FFF1F880F991F880F71
:101C5000991F880F991FE80FF91FE20FF31F618189
:101C60007281852F90E0FC01EE0FFF1F880F991FF6
:101C7000880F991F880F991FE80FF91FE20FF31FB4
:101C8000748363835091E801852F90E0FC01EE0F8F
:101C9000FF1F880F991F880F991F880F991FE80F42
:101CA000F91FE20FF31F84E68583842F0E947719C2
:101CB0008091E8018F5F8093E8011F9108951F9341
:101CC0009091E801992309F464C090E01FEF13C0DC
:101CD000911730F5492F50E02091E80130E0215074
:101CE00030404217530709F449C09F5F2091E80133
:101CF000921708F04EC04091E801242F30E0F9011E
:101D0000EE0FFF1F220F331F220F331F220F331F2F
:101D1000E20FF31FE45AFE4F20812817C9F6192F4E
:101D2000492F50E09A012F5F3F4FDA01AA0FBB1FE6
:101D3000BA01660F771F660F771F660F771FA60F12
:101D4000B71FF901EE0FFF1F220F331F220F331FA2
:101D5000220F331FE20FF31FA45ABE4FE45AFE4F67
:101D60002AE001900D922150E1F72091E80130E046
:101D7000215030404217530709F0B7CF2091E801B6
:101D800021502093E8019F5F2091E801921708F409
:101D9000B2CF1F910895282F90E0FC01EE0FFF1F96
:101DA000880F991F880F991F880F991FE80FF91F37
:101DB000E45AFE4F8085813009F401C1EEEBF0E07A
:101DC0006E9FC0016F9F900D7E9F900D112462E168
:101DD00070E00E94051F60577E4F660F771F822FAD
:101DE00090E0FC01EE0FFF1F880F991F880F991FCD
:101DF000880F991FE80FF91FE45AFE4F748363831D
:101E0000822F90E0FC01EE0FFF1F880F991F880FB3
:101E1000991F880F991FE80FF91FE45AFE4F63813D
:101E20007481822F90E0FC01EE0FFF1F880F991F35
:101E3000880F991F880F991FE80FF91FE45AFE4F6A
:101E4000818192816817790709F4DEC0822F90E0C2
:101E5000FC01EE0FFF1F880F991F880F991F880F35
:101E6000991FE80FF91FE45AFE4F4583822F90E037
:101E7000FC01EE0FFF1F880F991F880F991F880F15
:101E8000991FE80FF91FE45AFE4F81E08087822FE7
:101E900090E0FC01EE0FFF1F880F991F880F991F1C
:101EA000880F991FE80FF91FE45AFE4F41815281B4
:101EB000822F90E0FC01EE0FFF1F880F991F880F03
:101EC000991F880F991FE80FF91FE45AFE4F83816D
:101ED00094814817590708F074C0822F90E0FC01E4
:101EE000EE0FFF1F880F991F880F991F880F991FEA
:101EF000E80FF91FE45AFE4F83819481422F50E08E
:101F0000FA01EE0FFF1F440F551F440F551F440FDA
:101F1000551FE40FF51FE45AFE4FA181B281422FF5
:101F200050E0FA01EE0FFF1F440F551F440F551FDD
:101F3000440F551FE40FF51FE45AFE4F65818A1BBD
:101F40009B0B70E0645F7F4F0E94051F822F90E023
:101F5000FC01EE0FFF1F880F991F880F991F880F34
:101F6000991FE80FF91FE45AFE4F77836683822F8B
:101F700090E0FC01EE0FFF1F880F991F880F991F3B
:101F8000880F991FE80FF91FE45AFE4F8681978149
:101F90000097E1F5822F90E0FC01EE0FFF1F880F04
:101FA000991F880F991F880F991FE80FF91FE45A8E
:101FB000FE4F81E090E09783868380E0089580E083
:101FC0000895822F90E0FC01EE0FFF1F880F991FEC
:101FD000880F991F880F991FE80FF91FE45AFE4FC9
:101FE00081819281422F50E0FA01EE0FFF1F440FD2
:101FF000551F440F551F440F551FE40FF51FE45A9A
:10200000FE4FA381B4818BCF81E0089580E00895D5
:10201000282FEEEBF0E06E9FC0016F9F900D7E9F2A
:10202000900D112462E170E00E94051F60577E4F01
:10203000660F771F822F90E0FC01EE0FFF1F880FC5
:10204000991F880F991F880F991FE80FF91FE45AED
:10205000FE4F74836383822F90E0FC01EE0FFF1F1D
:10206000880F991F880F991F880F991FE80FF91F74
:10207000E45AFE4F63817481822F90E0FC01EE0FE1
:10208000FF1F880F991F880F991F880F991FE80F4E
:10209000F91FE45AFE4F818192816817790709F48C
:1020A000DEC0822F90E0FC01EE0FFF1F880F991F0A
:1020B000880F991F880F991FE80FF91FE45AFE4FE8
:1020C0004583822F90E0FC01EE0FFF1F880F991FC0
:1020D000880F991F880F991FE80FF91FE45AFE4FC8
:1020E00081E08087822F90E0FC01EE0FFF1F880FB8
:1020F000991F880F991F880F991FE80FF91FE45A3D
:10210000FE4F41815281822F90E0FC01EE0FFF1FB4
:10211000880F991F880F991F880F991FE80FF91FC3
:10212000E45AFE4F838194814817590708F472C01E
:10213000822F90E0FC01EE0FFF1F880F991F880F80
:10214000991F880F991FE80FF91FE45AFE4F8181EC
:102150009281422F50E0FA01EE0FFF1F440F551FEE
:10216000440F551F440F551FE40FF51FE45AFE4F4F
:10217000A381B481422F50E0FA01EE0FFF1F440FFC
:10218000551F440F551F440F551FE40FF51FE45A08
:10219000FE4F65818A1B9B0B70E0645F7F4F0E943E
:1021A000051F822F90E0FC01EE0FFF1F880F991F83
:1021B000880F991F880F991FE80FF91FE45AFE4FE7
:1021C00077836683822F90E0FC01EE0FFF1F880F5C
:1021D000991F880F991F880F991FE80FF91FE45A5C
:1021E000FE4F868197810097C1F5822F90E0FC0118
:1021F000EE0FFF1F880F991F880F991F880F991FD7
:10220000E80FF91FE45AFE4F81E090E09783868340
:1022100080E00895822F90E0FC01EE0FFF1F880FF1
:10222000991F880F991F880F991FE80FF91FE45A0B
:10223000FE4F83819481422F50E0FA01EE0FFF1F81
:10224000440F551F440F551F440F551FE40FF51F32
:10225000E45AFE4FA181B2818DCF80E0089581E0E4
:102260000895282F30E0F901EE0FFF1F220F331FD2
:10227000220F331F220F331FE20FF31FE45AFE4FCA
:1022800080850895282F30E0F901EE0FFF1F220FFF
:10229000331F220F331F220F331FE20FF31FE45AA5
:1022A000FE4F818192818052934065E170E00E94EF
:1022B000051FCB0108950F931F93DF93CF93CDB7E5
:1022C000DEB763970FB6F894DEBF0FBECDBF8AE2CC
:1022D000898381E08A831B828091E801882309F445
:1022E00042C040E08E010C5F1F4F25E130E0842F9B
:1022F00090E0FC01EE0FFF1F880F991F880F991FB8
:10230000880F991FE80FF91FE45AFE4F83819481CB
:10231000F801E40FF11D80529340B9010E94051F9E
:1023200060834F5F8091E801481708F38091E801CE
:10233000F801E80FF11D83E280839091E801FE012E
:10234000E90FF11D8583CE01019663E10E94981586
:1023500063960FB6F894DEBF0FBECDBFCF91DF916D
:102360001F910F9108958E010C5F1F4FDFCF1F92B9
:102370000F920FB60F920BB60F9211242F933F932B
:102380004F935F936F937F938F939F93AF93BF937D
:10239000EF93FF938091130187FD8AC08091130111
:1023A000992787FD9095FC01EE0FFF1F880F991F5D
:1023B000880F991F880F991FE80FF91FE45AFE4FE5
:1023C0008185813009F479C0809113018F5F8093FA
:1023D0001301209113018091E801332727FD3095E7
:1023E00090E0281739070CF047C020918400309105
:1023F000850080911301992787FD9095FC01EE0FD0
:10240000FF1F880F991F880F991F880F991FE80FCA
:10241000F91FE45AFE4F81819281820F931F90939E
:1024200089008093880080911301992787FD9095FA
:10243000FC01EE0FFF1F880F991F880F991F880F4F
:10244000991FE80FF91FE45AFE4F8185813009F486
:1024500056C0FF91EF91BF91AF919F918F917F9166
:102460006F915F914F913F912F910F900BBE0F9005
:102470000FBE0F901F901895809184009091850059
:102480002EE48732920768F0809184009091850055
:10249000079690938900809388008FEF80931301B3
:1024A000D8CF80E29EE49093890080938800F5CF96
:1024B000109285001092840087CF209113018091A3
:1024C000E801332727FD309590E0281739070CF0F5
:1024D0007BCF80911301992787FD9095FC01EE0F2A
:1024E000FF1F880F991F880F991F880F991FE80FEA
:1024F000F91FE45AFE4F80810E94D81865CF2091C1
:1025000013018091E801332727FD309590E02817CB
:1025100039070CF09ECF80911301992787FD909584
:10252000FC01EE0FFF1F880F991F880F991F880F5E
:10253000991FE80FF91FE45AFE4F80810E94CE18C0
:1025400080911301992787FD9095FC01EE0FFF1FE5
:10255000880F991F880F991F880F991FE80FF91F7F
:10256000E45AFE4F8085813009F073CF80911301CA
:10257000992787FD9095FC01EE0FFF1F880F991F8B
:10258000880F991F880F991FE80FF91FE45AFE4F13
:102590002181328180911301992787FD9095FC015B
:1025A000EE0FFF1F880F991F880F991F880F991F23
:1025B000E80FF91FE45AFE4F8381948128173907E9
:1025C00008F096C080911301992787FD9095FC0132
:1025D000EE0FFF1F880F991F880F991F880F991FF3
:1025E000E80FF91FE45AFE4F2181328180911301D7
:1025F000992787FD9095DC01AA0FBB1F880F991FB3
:10260000880F991F880F991FA80FB91FA45ABE4F92
:1026100016968D919C911797820F931F92838183B9
:1026200080911301992787FD9095FC01EE0FFF1F04
:10263000880F991F880F991F880F991FE80FF91F9E
:10264000E45AFE4F2181328180911301992787FD41
:102650009095FC01EE0FFF1F880F991F880F991F9F
:10266000880F991FE80FF91FE45AFE4F8381948168
:102670002817390708F4EDCE80911301992787FDBB
:10268000909520911301332727FD3095F901EE0F26
:10269000FF1F220F331F220F331F220F331FE20FA2
:1026A000F31FE45AFE4F23813481FC01EE0FFF1F1C
:1026B000880F991F880F991F880F991FE80FF91F1E
:1026C000E45AFE4F3283218380911301992787FDBD
:1026D0009095FC01EE0FFF1F880F991F880F991F1F
:1026E000880F991FE80FF91FE45AFE4F1086B1CEEC
:1026F00080911301992787FD9095FC01EE0FFF1F34
:10270000880F991F880F991F880F991FE80FF91FCD
:10271000E45AFE4F8181928120911301332727FDD6
:102720003095D901AA0FBB1F220F331F220F331F71
:10273000220F331FA20FB31FA45ABE4F16962D911E
:102740003C911797821B930B928381838091130195
:10275000992787FD9095FC01EE0FFF1F880F991FA9
:10276000880F991F880F991FE80FF91FE45AFE4F31
:102770002181328180911301992787FD9095FC0179
:10278000EE0FFF1F880F991F880F991F880F991F41
:10279000E80FF91FE45AFE4F838194818217930753
:1027A00008F457CE69CF8AEF0E947D1C83E00E9417
:1027B000731C82E00E944D1C82E00E94941C82E007
:1027C0000E94851C0895E82FF0E0EE0FFF1FEE0F2A
:1027D000FF1FEE0FFF1FEB56FD4F81E080837283DA
:1027E0006183148213824583378326830895E82FFB
:1027F000F0E0EE0FFF1FEE0FFF1FEE0FFF1FEB5677
:10280000FD4F10820895E82FF0E0EE0FFF1FEE0F4E
:10281000FF1FEE0FFF1FEB56FD4F10821282118239
:102820001482138282E08583178216820895E82F2E
:10283000F0E0EE0FFF1FEE0FFF1FEE0FFF1FEB5636
:10284000FD4F148213820895E82FF0E0EE0FFF1F72
:10285000EE0FFF1FEE0FFF1FEB56FD4F148213828A
:102860007283618308958AEF0E947D1C83E00E9439
:10287000731C82E00E944D1C82E00E94941C82E046
:102880000E94851C0895AF92BF92CF92DF92EF9283
:10289000FF920F931F93CF93DF937B018C01EA018B
:1028A00020E83EE340E050E00E94DA1E61507841AB
:1028B0008C4F9F4F20E038EE43E050E00E94191FFC
:1028C0002F3F310509F0E8F52038310578F428303C
:1028D000310508F046C022303105D8F182E0888306
:1028E000E0E1AE2EB12CC12CD12C07C084E088834E
:1028F000A12CA2E0BA2EC12CD12C60E472E48FE0AE
:1029000090E0A80197010E94191FC601B5010E941D
:10291000DA1E9B01AC0160E074E284EF90E00E945B
:10292000191F220F331F441F551FC901DF91CF917B
:102930001F910F91FF90EF90DF90CF90BF90AF90DD
:10294000089585E08883A12CB8E0BB2EC12CD12C42
:10295000D4CF81E0888372E0A72EB12CC12CD12C7A
:10296000CCCF83E08883F0E8AF2EB12CC12CD12CE2
:10297000C4CF1F920F920FB60F920BB60F92112475
:102980002F933F934F935F936F937F938F939F9377
:10299000AF93BF93EF93FF938091E9018F5F809393
:1029A000E9018091E9018436F1F08091E9016AE062
:1029B0000E94F91E992321F480E090E00E945B0AB6
:1029C000FF91EF91BF91AF919F918F917F916F9107
:1029D0005F914F913F912F910F900BBE0F900FBEC3
:1029E0000F901F9018951092E90181E090E00E94ED
:1029F0005B0A8091EA018F5F8093EA018091EA018E
:102A00008A30D9F08091EB01853059F08091EC014A
:102A10008230B1F61092EC0184E090E00E945B0AF3
:102A2000CFCF1092EB018091EC018F5F8093EC018E
:102A300083E090E00E945B0AE9CF1092EA01809166
:102A4000EB018F5F8093EB0182E090E00E945B0AD4
:102A5000D9CF80E190E09093C5008093C400E1EC71
:102A6000F0E0208120612083208128602083208164
:102A700020682083E2ECF0E0208122602083208126
:102A8000246020839093CD008093CC00E9ECF0E0AB
:102A9000808180618083808188608083808180687C
:102AA0008083EAECF0E080818260808380818460B2
:102AB000808308952091ED01222381F040E0242FAE
:102AC00030E0FC01E20FF31F27503D4FD9012C915C
:102AD00020834F5F2091ED01421788F3FB01208393
:102AE0000895662369F0E82FF92F90E08091C000E7
:102AF00085FFFCCF81918093C6009F5F9617B0F34E
:102B000008952091F001222381F040E0242F30E04D
:102B1000FC01E20FF31F29533D4FD9012C91208373
:102B20004F5F2091F001421788F3FB012083089545
:102B3000662369F0E82FF92F90E08091C80085FFA7
:102B4000FCCF81918093CE009F5F9617B0F30895DC
:102B50001F920F920FB60F920BB60F9211242F9364
:102B60003F934F935F936F937F938F939F93AF9315
:102B7000BF93EF93FF938091C6009091EF0199234B
:102B8000B1F48A3209F442C0FF91EF91BF91AF9145
:102B90009F918F917F916F915F914F913F912F9175
:102BA0000F900BBE0F900FBE0F901F901895409185
:102BB000EE01242F30E0F901E55DFC4F80834F5F8B
:102BC0004093EE01842F90E0855D9C4FFC0131978E
:102BD00050815332C9F60297FC0180818332A1F6FD
:102BE000442359F0EBE2F3E0A9EFB2E0245D3C4F5F
:102BF00081918D93E217F307D9F74093ED0110927D
:102C0000EF0186E090E00E945B0ABECF80932B0329
:102C100081E08093EE018093EF01B6CF1F920F9277
:102C20000FB60F920BB60F9211242F933F934F9331
:102C30005F936F937F938F939F93AF93BF93EF9324
:102C4000FF938091CE009091F2019923B1F48A32E2
:102C500009F442C0FF91EF91BF91AF919F918F9185
:102C60007F916F915F914F913F912F910F900BBE8C
:102C70000F900FBE0F901F9018954091F101242FD7
:102C800030E0F901EB56FD4F80834F5F4093F10137
:102C9000842F90E08B569D4FFC0131975081533229
:102CA000C9F60297FC0180818332A1F6442359F0D2
:102CB000E5E9F2E0A7ECB2E02A563D4F81918D9311
:102CC000E217F307D9F74093F0011092F20185E083
:102CD00090E00E945B0ABECF8093950281E08093D2
:102CE000F1018093F201B6CF0E94D3130E94330A00
:102CF0000E94560C0E9429150E94AB0D0E944F099C
:102D00000E94EF080E948E010E94700A09C0809103
:102D1000F3019091F4010E94380A80E00E947C0D3A
:102D20000E94470A9093F4018093F3018091F3018C
:102D30009091F401009759F38091F3019091F4017F
:102D40000E9450098091F3019091F4010E94970133
:102D50008091F3019091F4010E9408098091F301A0
:102D60009091F40162E00E944C0A882381F281E094
:102D70000E947C0DCCCFECE7F0E09081807C9F73CB
:102D8000892B808381E00895ECE7F0E08081806208
:102D9000808381E0089580917C0081700895ECE744
:102DA000F0E080818F7D808381E00895ECE7F0E0A2
:102DB00090818F71907E892B808381E0089580912E
:102DC0007C008F710895EAE7F0E08081806880835D
:102DD00081E00895EAE7F0E080818F77808381E0E9
:102DE0000895EAE7F0E080818064808381E00895BF
:102DF000EAE7F0E080818062808381E00895EAE77D
:102E0000F0E080818F7D808381E00895EAE7F0E043
:102E100080818F7A8061808381E00895EAE7F0E025
:102E200080818860808381E00895EAE7F0E0808116
:102E3000877F808381E00895EAE7F0E090818770E2
:102E4000987F892B808381E00895EBE7F0E0908103
:102E50008770987F892B808381E0089580917C0022
:102E600080FD03C0809178000895809179000895D5
:102E70002091780030917900C9010895882329F4C0
:102E800085B78D7F85BF81E0089585B7826085BF56
:102E900081E00895882329F485B78E7F85BF81E07E
:102EA000089585B7816085BF81E00895E9E6F0E087
:102EB0009081982B908381E00895E9E6F0E090817D
:102EC000982B908381E00895E9E6F0E09081982BBB
:102ED000908381E00895882319F4E89881E00895AB
:102EE000E89A81E00895882319F4E99881E008952B
:102EF000E99A81E00895882319F4EA9881E0089519
:102F0000EA9A81E00895882319F4E09881E0089511
:102F1000E09A81E00895882319F4E19881E008950A
:102F2000E19A81E00895882319F4E29881E00895F8
:102F3000E29A81E00895882339F4809168008E7FB9
:102F40008093680081E0089580916800816080939B
:102F5000680081E00895882339F4809168008D7FAE
:102F60008093680081E0089580916800826080937A
:102F7000680081E00895882339F4809168008B7F90
:102F80008093680081E00895809168008460809358
:102F9000680081E00895882339F480916800877F74
:102FA0008093680081E00895809168008860809334
:102FB000680081E00895882319F4D89881E0089585
:102FC000D89A81E00895882319F4D99881E008956A
:102FD000D99A81E00895882319F4DA9881E0089558
:102FE000DA9A81E00895882319F4DB9881E0089546
:102FF000DB9A81E00895E3E7F0E09081982B9083DD
:1030000081E00895EDE6F0E09081982B908381E0D7
:103010000895ECE6F0E09081982B908381E008958C
:10302000EBE6F0E09081982B908381E00895982F53
:103030009695969596958770992391F09130E1F049
:10304000923031F1933051F49BB121E030E002C075
:10305000220F331F8A95E2F792279BB981E00895EA
:1030600092B121E030E002C0220F331F8A95E2F7CF
:10307000922792B981E0089595B121E030E002C035
:10308000220F331F8A95E2F7922795B981E00895C0
:1030900098B121E030E002C0220F331F8A95E2F799
:1030A000922798B9DBCF882329F485B78F7E85BF17
:1030B00081E0089585B7806185BF81E00895882308
:1030C00079F4442311F522B181E090E002C0880F29
:1030D000991F6A95E2F78095822382B981E008956D
:1030E0008130F9F0823051F18330C1F7442309F087
:1030F0004AC02BB181E090E002C0880F991F6A9509
:10310000E2F7809582238BB9E9CF22B181E090E08C
:1031100002C0880F991F6A95E2F7282B22B981E037
:1031200008954423C1F025B181E090E002C0880FEA
:10313000991F6A95E2F7282B25B9D0CF4423B9F01F
:1031400028B181E090E002C0880F991F6A95E2F7EC
:10315000282B28B9C3CF25B181E090E002C0880FA9
:10316000991F6A95E2F78095822385B9B7CF28B178
:1031700081E090E002C0880F991F6A95E2F7809580
:10318000822388B9ABCF2BB181E090E002C0880FD9
:10319000991F6A95E2F7282B2BB9A0CF682F67708B
:1031A00086958695869541E00E945F1881E0089596
:1031B000682F677086958695869540E00E945F1817
:1031C00081E00895882379F4442311F521B181E049
:1031D00090E002C0880F991F6A95E2F780958223DC
:1031E00081B981E008958130F9F0823051F1833066
:1031F000C1F7442309F04AC02AB181E090E002C03F
:10320000880F991F6A95E2F7809582238AB9E9CFE2
:1032100021B181E090E002C0880F991F6A95E2F722
:10322000282B21B981E008954423C1F024B181E025
:1032300090E002C0880F991F6A95E2F7282B24B905
:10324000D0CF4423B9F027B181E090E002C0880FCD
:10325000991F6A95E2F7282B27B9C3CF24B181E0E3
:1032600090E002C0880F991F6A95E2F7809582234B
:1032700084B9B7CF27B181E090E002C0880F991FD1
:103280006A95E2F78095822387B9ABCF2AB181E0B6
:1032900090E002C0880F991F6A95E2F7282B2AB99F
:1032A000A0CFFF920F931F93F62E082F0695069539
:1032B0000695182F1770802F612F40E00E94E218AA
:1032C0008F2D813051F0802F612F40E00E945F18D8
:1032D00081E01F910F91FF900895802F612F41E0B1
:1032E0000E945F1881E01F910F91FF900895682F51
:1032F000677086958695869541E00E94E21881E088
:103300000895882379F4442311F520B181E090E0F9
:1033100002C0880F991F6A95E2F78095822380B9D1
:1033200081E008958130F9F0823051F18330C1F7A6
:10333000442309F04AC029B181E090E002C0880F1F
:10334000991F6A95E2F78095822389B9E9CF20B168
:1033500081E090E002C0880F991F6A95E2F7282B60
:1033600020B981E008954423C1F023B181E090E0C9
:1033700002C0880F991F6A95E2F7282B23B9D0CF96
:103380004423B9F026B181E090E002C0880F991F74
:103390006A95E2F7282B26B9C3CF23B181E090E0EC
:1033A00002C0880F991F6A95E2F78095822383B93E
:1033B000B7CF26B181E090E002C0880F991F6A95CF
:1033C000E2F78095822386B9ABCF29B181E090E006
:1033D00002C0880F991F6A95E2F7282B29B9A0CF60
:1033E000662369F492B121E030E002C0220F331F5E
:1033F0008A95E2F72095292322B981E0089592B1B8
:1034000021E030E002C0220F331F8A95E2F7922BB1
:1034100092B981E0089582B10895662369F491B16B
:1034200021E030E002C0220F331F8A95E2F7209599
:10343000292321B981E0089591B121E030E002C053
:10344000220F331F8A95E2F7922B91B981E00895FC
:10345000662369F490B121E030E002C0220F331FEF
:103460008A95E2F72095292320B981E0089590B14B
:1034700021E030E002C0220F331F8A95E2F7922B41
:1034800090B981E00895662369F495B121E030E0B8
:1034900002C0220F331F8A95E2F72095292325B910
:1034A00081E0089595B121E030E002C0220F331F82
:1034B0008A95E2F7922B95B981E0089585B1089538
:1034C000662369F494B121E030E002C0220F331F7B
:1034D0008A95E2F72095292324B981E0089594B1D3
:1034E00021E030E002C0220F331F8A95E2F7922BD1
:1034F00094B981E00895662369F493B121E030E046
:1035000002C0220F331F8A95E2F72095292323B9A1
:1035100081E0089593B121E030E002C0220F331F13
:103520008A95E2F7922B93B981E00895662369F4B6
:1035300098B121E030E002C0220F331F8A95E2F7F4
:103540002095292328B981E0089598B121E030E041
:1035500002C0220F331F8A95E2F7922B98B981E0BF
:10356000089588B10895662369F497B121E030E0A9
:1035700002C0220F331F8A95E2F72095292327B92D
:1035800081E0089597B121E030E002C0220F331F9F
:103590008A95E2F7922B97B981E00895662369F442
:1035A00096B121E030E002C0220F331F8A95E2F786
:1035B0002095292326B981E0089596B121E030E0D5
:1035C00002C0220F331F8A95E2F7922B96B981E051
:1035D0000895662369F49BB121E030E002C0220F18
:1035E000331F8A95E2F7209529232BB981E00895AE
:1035F0009BB121E030E002C0220F331F8A95E2F731
:10360000922B9BB981E008958BB10895662369F4EC
:103610009AB121E030E002C0220F331F8A95E2F711
:10362000209529232AB981E008959AB121E030E05C
:1036300002C0220F331F8A95E2F7922B9AB981E0DC
:103640000895662369F499B121E030E002C0220FA9
:10365000331F8A95E2F72095292329B981E008953F
:1036600099B121E030E002C0220F331F8A95E2F7C2
:10367000922B99B981E0089593B7982B93BF81E07D
:103680000895882329F483B78E7F83BF81E008954E
:1036900083B7816083BF81E00895882329F485B7CB
:1036A0008F7B85BF81E0089585B7806485BF81E009
:1036B0000895882329F485B78F7D85BF81E008951B
:1036C00085B7806285BF81E00895882339F48091B1
:1036D00064008F778093640081E008958091640096
:1036E00080688093640081E00895882339F4809194
:1036F00064008F7B8093640081E008958091640072
:1037000080648093640081E00895882339F4809177
:1037100064008F7D8093640081E00895809164004F
:1037200080628093640081E00895882339F4809159
:1037300064008F7E8093640081E00895809164002E
:1037400080618093640081E00895882339F480913A
:103750006400877F8093640081E008958091640015
:1037600088608093640081E00895882339F4809113
:1037700064008B7F8093640081E0089580916400F1
:1037800084608093640081E00895882339F48091F7
:1037900064008D7F8093640081E0089580916400CF
:1037A00082608093640081E00895882339F48091D9
:1037B00064008E7F8093640081E0089580916400AE
:1037C00081608093640081E008958093660081E0C9
:1037D0000895882339F4809161008F778093610088
:1037E00081E008958091610080688093610081E0AC
:1037F0000895E1E6F0E090818F70892B808381E06D
:10380000089584B780E0089584B780E0089584B770
:1038100080E0089584B780E0089584B780E008953B
:103820008091600080E00895882339F480916000E1
:103830008F7B8093600081E00895809160008064B8
:103840008093600081E008958091600080E0089599
:10385000882339F480916000877F8093600081E045
:1038600008958091600088608093600081E00895F1
:10387000E0E6F0E09081982B908381E0089594B584
:10388000807C9F73892B84BD81E0089595B58073FA
:103890009F7C892B85BD81E0089580FF0FC024B5F2
:1038A000216024BD81FF0FC024B5226024BD83FDAB
:1038B0000FC085B5877F85BD81E0089524B52E7F33
:1038C00024BD81FDF1CF24B52D7F24BD83FFF1CF31
:1038D00085B5886085BD81E0089595B5807C892B8C
:1038E00085BD81E0089595B58770987F892B85BD4A
:1038F000089586BD089586B5089587BD089587B556
:10390000089588BD089588B50895EEE6F0E09081A9
:103910008770892B80830895EEE6F0E090818770B0
:103920008095892380830895EEE6F0E0908187708A
:1039300080958923808308958093C60081E008954F
:103940008093CE0081E008958091C6000895809113
:10395000CE0008958091C000807208958091C800C3
:10396000807208958091C0008C7108958091C80084
:103970008C710895882331F09091C000982B90931A
:10398000C00008958091C0008093C00008958823EE
:1039900031F09091C800982B9093C80008958091C1
:1039A000C8008093C80008958091C0008270089577
:1039B0008091C80082700895E0ECF0E08081816021
:1039C000808381E00895E8ECF0E08081816080836D
:1039D00081E008958091C000817008958091C800B1
:1039E000817008958091C000807808958091C8000A
:1039F00080780895E0ECF0E080818064808381E04D
:103A00000895E8ECF0E080818064808381E008958F
:103A10008091C000807408958091C80080740895DA
:103A20008091C000807208958091C80080720895CE
:103A3000E1ECF0E080818860808381E00895E9EC2A
:103A4000F0E080818860808381E00895E1ECF0E01F
:103A50008081877F808381E00895E9ECF0E08081B8
:103A6000877F808381E00895E1ECF0E080818061D0
:103A7000808381E00895E9ECF0E0808180618083BB
:103A800081E00895E1ECF0E080818F7E808381E029
:103A90000895E9ECF0E080818F7E808381E00895D5
:103AA000E1ECF0E02081982F94702B7F922B908393
:103AB000E2ECF0E09081880F8670997F892B8083FB
:103AC00081E00895E9ECF0E02081982F94702B7F3D
:103AD000922B9083EAECF0E09081880F8670997FBA
:103AE000892B808381E00895E2ECF0E0908180737F
:103AF0009F7C892B808381E00895EAECF0E090813F
:103B000080739F7C892B808381E00895E2ECF0E054
:103B100090818870977F892B808381E00895EAECFB
:103B2000F0E090818870977F892B808381E00895F1
:103B3000E1ECF0E080818068808381E00895E9EC29
:103B4000F0E080818068808381E00895E1ECF0E01E
:103B500080818F77808381E00895E9ECF0E08081B7
:103B60008F77808381E00895E1ECF0E080818064CC
:103B7000808381E00895E9ECF0E0808180648083B7
:103B800081E00895E1ECF0E080818F7B808381E02B
:103B90000895E9ECF0E080818F7B808381E00895D7
:103BA000E1ECF0E080818062808381E00895E9ECBF
:103BB000F0E080818062808381E00895E1ECF0E0B4
:103BC00080818F7D808381E00895E9ECF0E0808141
:103BD0008F7D808381E00895E2ECF0E09081817038
:103BE0009E7F892B808381E00895EAECF0E090814C
:103BF00081709E7F892B808381E008952091C00091
:103C000020FD26C02091C00021FD20C09B01AC01F9
:103C1000220F331F441F551F220F331F441F551FF0
:103C2000220F331F441F551F220F331F441F551FE0
:103C300060E074E284EF90E00E94191F2150304050
:103C40003093C5002093C40081E0089580E008957A
:103C500080E008952091C80020FD26C02091C80072
:103C600021FD20C09B01AC01220F331F441F551FB3
:103C7000220F331F441F551F220F331F441F551F90
:103C8000220F331F441F551F60E074E284EF90E061
:103C90000E94191F215030403093CD002093CC005A
:103CA00081E0089580E0089580E008952091C000AB
:103CB00020FD22C02091C00021FD02C080E00895B7
:103CC0009B01AC01220F331F441F551F220F331FCE
:103CD000441F551F220F331F441F551F60E074E21D
:103CE00084EF90E00E94191F215030403093C500AE
:103CF0002093C40081E0089580E008952091C800D9
:103D000020FD22C02091C80021FD02C080E008955E
:103D10009B01AC01220F331F441F551F220F331F7D
:103D2000441F551F220F331F441F551F60E074E2CC
:103D300084EF90E00E94191F215030403093CD0055
:103D40002093CC0081E0089580E008952091C00088
:103D500020FD02C080E008959B01AC01220F331FBB
:103D6000441F551F60E074E284EF90E00E94191F29
:103D7000215030403093C5002093C40081E0089565
:103D80002091C80020FD02C080E008959B01AC0195
:103D9000220F331F441F551F60E074E284EF90E050
:103DA0000E94191F215030403093CD002093CC0049
:103DB00081E00895629FD001739FF001829FE00D22
:103DC000F11D649FE00DF11D929FF00D839FF00D9A
:103DD000749FF00D659FF00D9927729FB00DE11D46
:103DE000F91F639FB00DE11DF91FBD01CF01112423
:103DF0000895991B79E004C0991F961708F0961B47
:103E0000881F7A95C9F780950895AA1BBB1B51E1BD
:103E100007C0AA1FBB1FA617B70710F0A61BB70B3A
:103E2000881F991F5A95A9F780959095BC01CD01DF
:103E30000895A1E21A2EAA1BBB1BFD010DC0AA1FEB
:103E4000BB1FEE1FFF1FA217B307E407F50720F003
:103E5000A21BB30BE40BF50B661F771F881F991F7E
:103E60001A9469F760957095809590959B01AC01C7
:0A3E7000BD01CF010895F894FFCFC3
:103E7A00075A5A1E1E5A5A96965A2A000023230790
:043E8A00061011FF0E
:00000001FF
