:100000000C9446000C9465000C9465000C946500FB
:100010000C9465000C9465000C9465000C946500CC
:100020000C9465000C9465000C9465000C946500BC
:100030000C9465000C9477110C9465000C94650089
:100040000C9479140C9465000C9465000C94650074
:100050000C9468150C9465000C9465000C94650074
:100060000C9465000C9465000C9465000C9465007C
:100070000C94CE150C9465000C9465000C946500EE
:100080000C9465000C9465000C94650011241FBE4F
:10009000C0E0D0E4DEBFCDBF11E0A0E0B1E0EAEF08
:1000A000FDE300E00BBF02C007900D92A431B10741
:1000B000D9F714E0A4E1B1E001C01D92AA31B10763
:1000C000E1F70E9434160C94FB1E0C9400001F9361
:1000D00080E06AE54AE520E00E946B0811E081308B
:1000E00009F010E081E06AE54AE520E00E946B0833
:1000F000813069F182E06AE54AE520E00E946B0800
:10010000813019F183E06AE54AE520E00E946B083E
:100110008130C9F084E06AE54AE520E00E946B087E
:10012000813079F085E06AE54AE520E00E946B08BD
:10013000813019F080E01F91089510621F33D1F7CC
:10014000FACF1061EFCF1860E5CF1460DBCF1260FB
:10015000D1CF10921501109216010E9463070E94E0
:10016000670008951F93CF93DF93EC0161E00E9435
:100170000C0A8823A1F4CE0162E00E940C0A8823B5
:1001800021F080911501882321F0DF91CF911F91FB
:1001900008950E941B11DF91CF911F9108958091C6
:1001A0001501882371F1853009F453C0863009F4B4
:1001B00091C0813009F4CBC08230A1F1833009F4C1
:1001C000DEC08430C1F6809100018430F9F4809162
:1001D0001401882309F47FC1813009F430C38230CF
:1001E00009F439C4833009F4F8C4843009F4B0C484
:1001F000853009F477C484E0809300010E941B11CC
:10020000BACF80910001882309F4B5CF0E9467001E
:10021000813009F0B0CF80911501809300010E94D8
:100220001B11A9CF80910001823081F780911401C8
:10023000882309F48DC1813009F463C3823009F445
:1002400096C3833009F4CFC3843009F424C382E019
:10025000D3CF80910001853009F48DCF80E06AE52D
:1002600042E320E00E94270811E0813009F010E00D
:1002700081E06AE542E320E00E942708813009F42A
:10028000DBC082E06AE542E320E00E94270881307B
:1002900009F4D0C083E06AE542E820E00E94270824
:1002A000813009F4CBC084E06AE542E820E00E9496
:1002B0002708813009F4BCC085E06AE542E820E007
:1002C0000E942708813009F056CF10621F3309F4CD
:1002D000A2CF51CF80910001863009F44CCF80E04D
:1002E0006EE64AE520E00E94270811E0813009F01F
:1002F00010E081E06AE54AE520E00E9427088130AD
:1003000009F4A4C082E066E44AE520E00E942708E0
:10031000813009F499C083E066E44AE520E00E9458
:100320002708813009F48EC084E06AE54AE520E0C0
:100330000E942708813009F483C085E06EE64AE513
:1003400020E00E942708813009F015CFBECF8091B0
:100350000001813009F05ACF80911401882309F4FB
:1003600077C0813009F4A9C1823009F463C18330B8
:1003700009F420C2843009F4E7C181E03DCF9091B7
:100380000001933009F042CF90911401992309F4B0
:1003900009C1913009F46EC4923009F4DAC4933083
:1003A00009F494C4943009F40CC5953009F024CFB5
:1003B00080E066E44AE5209116010E94270811E0DA
:1003C000813009F010E081E066E44AE520911601F1
:1003D0000E942708813009F46AC582E066E44AE594
:1003E000209116010E942708813009F45EC583E040
:1003F00066E44AE5209116010E942708813009F43D
:1004000052C584E066E44AE5209116010E9427085F
:10041000813009F446C585E066E44AE5209116017D
:100420000E942708813009F411C580911501E4CE9E
:10043000106142CF14602ECF126023CF186033CFEB
:1004400010617BCF186070CF146065CF12605ACFF7
:100450006AE54AE5209116010E94270811E08130E3
:1004600009F010E081E06AE542E8209116010E945F
:100470002708813009F4B3C282E06AE54AE5209199
:1004800016010E942708813009F4A7C283E06AE5BB
:1004900042E3209116010E942708813009F480C0B0
:1004A00084E06AE54AE5209116010E942708813020
:1004B00009F4BEC085E06AE542E3209116010E947E
:1004C0002708813009F0B1CF10621F3309F0ADCF9A
:1004D00080931401AACF66E44AE5209116010E9498
:1004E000270811E0813009F010E081E066E44AE578
:1004F000209116010E942708813009F4B7C382E0D9
:1005000066E44AE5209116010E942708813009F42B
:10051000ABC383E066E44AE5209116010E942708F8
:10052000813009F49FC384E066E44AE52091160116
:100530000E942708813009F493C385E066E44AE508
:10054000209116010E942708813009F06ECFBCCFA0
:100550006AE54AE5209116010E94270811E08130E2
:1005600009F010E081E06AE54EE6209116010E9454
:100570002708813009F435C282E06AE54AE5209116
:1005800016010E942708813009F472C383E06AE5EE
:1005900046E4209116010E942708813009F080CF9F
:1005A00018607ECF80E06EE64AE5209116010E9439
:1005B000270811E0813009F010E081E06EE64AE59D
:1005C000209116010E942708813009F4126082E010
:1005D0006EE64AE5209116010E942708813009F451
:1005E000146083E06EE64AE5209116010E94270818
:1005F000813009F4186084E06EE64AE52091160126
:100600000E942708813009F4106185E06EE64AE512
:10061000209116010E942708813009F006CF106250
:100620001F3309F002CF8093140180911501E4CDAE
:10063000106140CF80E066E442E8209116010E94FC
:10064000270811E0813009F010E081E06EE64AE50C
:10065000209116010E942708813009F410C482E01D
:1006600066E442E8209116010E942708813009F4CF
:1006700004C483E066E44AE5209116010E9427083D
:10068000813009F4F8C384E06EE642E3209116015C
:100690000E942708813009F4ECC385E066E44AE54E
:1006A000209116010E942708813009F0BECE106209
:1006B0001F3309F0BACE83E00BCF80E066E44AE551
:1006C000209116010E94270811E0813009F010E006
:1006D00081E06EE642E8209116010E9427088130F1
:1006E00009F4BDC382E066E44AE5209116010E9448
:1006F0002708813009F4B1C383E066E442E3209126
:1007000016010E942708813009F459C384E06EE67F
:100710004AE5209116010E942708813009F499C109
:1007200085E066E442E3209116010E9427088130AB
:1007300009F07BCE10621F3309F077CE82E0809300
:1007400014018091150158CD80E06EE64AE52091B4
:1007500016010E94270811E0813009F010E081E0C5
:1007600066E442E8209116010E942708813009F4CE
:100770007EC382E06EE64AE5209116010E942708BA
:10078000813009F472C383E06EE642E320911601E2
:100790000E942708813009F466C384E066E44AE5D4
:1007A000209116010E942708813009F45AC385E080
:1007B0006EE682CE80E06EE642E8209116010E944D
:1007C000270811E0813009F010E081E066E44AE595
:1007D000209116010E942708813009F4126082E0FE
:1007E0006EE642E8209116010E942708813009F444
:1007F000146083E06EE64AE5209116010E94270806
:10080000813009F4186084E066E442E32091160127
:100810000E942708813009F4106185E06EE64AE500
:10082000209116010E942708813009F0FECD106248
:100830001F3309F0FACD84E080931401F6CD80E0F7
:1008400066E44AE5209116010E94270811E08130F4
:1008500009F010E081E066E442E8209116010E9470
:100860002708813009F4126082E066E44AE52091AD
:1008700016010E942708813009F4146083E066E4C1
:1008800042E3209116010E942708813009F4186084
:1008900084E066E43DCF80E066E44AE520911601FD
:1008A0000E94270811E0813009F010E081E06EE637
:1008B00042E8209116010E942708813009F4126055
:1008C00082E066E44AE5209116010E942708813003
:1008D00009F4146083E066E442E3209116010E946B
:1008E0002708813009F4186084E06EE64AE520911B
:1008F00016010E942708813009F4106185E066E442
:10090000DBCD80E06EE64AE5209116010E942708C3
:1009100011E0813009F010E081E066E442E82091C6
:1009200016010E942708813009F4126082E06EE609
:100930004AE5209116010E942708813009F41460CD
:1009400083E06EE642E3209116010E942708813081
:1009500009F4186084E066E44AE5209116010E94DB
:100960002708813009F4106185E06EE6DBCE80E077
:100970006EE642E8209116010E94270811E08130BE
:1009800009F010E081E066E44AE5209116010E943A
:100990002708813009F4126082E06EE642E8209177
:1009A00016010E942708813009F4146083E06EE686
:1009B0004AE5209116010E942708813009F4186049
:1009C00084E066E442E3209116010E94270881300A
:1009D00009F4106185E06EE662CE146057CD1260B6
:1009E0004BCD1260C9CD80E066E442E8209116014B
:1009F0000E94270811E0813009F010E081E06EE6E6
:100A00004AE5209116010E942708813009F41260FE
:100A100082E066E442E8209116010E9427088130B6
:100A200009F4146083E066E44AE5209116010E940F
:100A30002708813009F4186084E06EE642E32091D3
:100A400016010E942708813009F4106185E066E4F0
:100A5000E6CE106165CE80E066E44AE5209116019D
:100A60000E94270811E0813009F010E081E06EE675
:100A700042E8209116010E942708813009F4126093
:100A800082E066E44AE5209116010E942708813041
:100A900009F4146083E06EE642E3209116010E949F
:100AA0002708813009F4186084E066E44AE5209163
:100AB00016010E942708813009F4106185E06EE676
:100AC00042E3209116010E942708813009F0ADCC45
:100AD00010621F3309F0A9CC83E080931401809148
:100AE00015018ACB80E06EE64AE5209116010E944E
:100AF000270811E0813009F010E081E06EE64AE558
:100B0000209116010E942708813009F4126082E0CA
:100B10006EE64AE5209116010E942708813009F40B
:100B2000146083E06EE64AE5209116010E942708D2
:100B3000813009F4186084E06EE64AE520911601E0
:100B40000E942708813009F4106185E06EE665CCCB
:100B500080E06EE642E8209116010E94270811E02D
:100B6000813009F010E081E06EE64AE5209116013F
:100B70000E942708813009F4126082E06EE642E8A4
:100B8000209116010E942708813009F4146083E047
:100B90006EE64AE5209116010E942708813009F48B
:100BA000186084E06EE642E3209116010E94270857
:100BB000813009F4106185E06EE64AE52091160166
:100BC0000E942708813009F030CC10621F3309F0F1
:100BD0002CCC85E08093140128CC80E066E442E8C8
:100BE000209116010E94270811E0813009F010E0E1
:100BF00081E06EE64AE5209116010E9427088130C7
:100C000009F4126082E066E442E8209116010E9435
:100C10002708813009F4146083E06EE64AE52091EC
:100C200016010E942708813009F4186084E066E408
:100C300042E3209116010E942708813009F41061D7
:100C400085E06EE64AE5209116010E942708813072
:100C500009F0EBCB10621F3309F0E7CB84E038CC0E
:100C600010616BCC18605FCC146053CC126047CC21
:100C700014608CCC80E06EE64AE5209116010E945B
:100C8000270811E0813009F010E081E06EE642E8CB
:100C9000209116010E942708813009F4126082E039
:100CA0006EE64AE5209116010E942708813009F47A
:100CB000146083E06EE642E3209116010E9427084B
:100CC000813009F4186084E06EE646CE80E06EE67E
:100CD00042E8209116010E94270811E0813009F0B6
:100CE00010E081E066E44AE5209116010E942708A1
:100CF000813009F4D4C082E06EE642E8209116010A
:100D00000E942708813009F4C8C083E066E44AE500
:100D1000209116010E942708813009F4BCC084E0AC
:100D20006EE642E3209116010E942708813009F403
:100D3000B0C085E066E44AE5209116010E942708CC
:100D4000813009F072CB10621F3309F06ECB84E062
:100D50006ACC80E06EE64AE5209116010E942708E1
:100D600011E0813009F010E081E066E442E8209172
:100D700016010E942708813009F4126082E06EE6B5
:100D80004AE5209116010E942708813009F4146079
:100D900083E066E442E3209116010E942708813037
:100DA00009F4186084E06EE64AE5209116010E947D
:100DB0002708813009F4106185E066E481CE18606F
:100DC000A5CC80E066E442E8209116010E94270845
:100DD00011E0813009F010E081E066E44AE52091FD
:100DE00016010E942708813009F451C082E066E4B0
:100DF00042E8209116010E942708813009F445C07D
:100E000083E066E44AE5209116010E9427088130BC
:100E1000D1F184E066E442E3209116010E942708A4
:100E2000813079F185E066E44AE5209116010E945F
:100E30002708813009F0F9CA10621F3309F0F5CA9A
:100E400085E08093140180911501D6C910621F338B
:100E500009F0EBCA10921401E8CA14604DCC12607C
:100E600041CC1061A4CC186098CC14608CCC12607A
:100E700080CC106112CC186006CC1460FACB1260E2
:100E8000EECB1061CFCF1860C4CF1460B9CF126021
:100E9000ADCF10614ECF186042CF146036CF1260D4
:100EA0002ACF1061B8CA1860ACCA1460A0CA126018
:100EB00094CA85E191E00895109214018093150180
:100EC000609316010895BF92CF92DF92EF92FF9246
:100ED0000F931F935AE0B52EB092170102E00093D2
:100EE00018011AE51093190110921A018AE06AE5B7
:100EF00070E00E947D0D4BE0C42EC0921B0183E088
:100F000080931C0110931D0134E0E32EE0921E013A
:100F10008BE06AE570E00E947D0D2DE0F22EF092EC
:100F20001F01E0922001109321018DEF8093220197
:100F30008DE06AE570E00E947D0D9CE0D92ED09294
:100F4000230185E08093240110932501109226014E
:100F50008CE06AE570E00E947D0D8FE080932701B0
:100F600086E0809328011093290110922A018FE0D6
:100F70006AE570E00E947D0D8EE080932B0187E092
:100F800080932C0110932D0110922E018EE06AE5C2
:100F900070E00E947D0D86E180932F0188E08093B0
:100FA00030011093310189EFE82EE092320186E1A1
:100FB0006AE570E00E947D0D87E18093330189E04E
:100FC00080933401109335011092360187E16AE570
:100FD00070E00E947D0D8EE180933701B092380160
:100FE0001093390110923A016AE570E00E947D0D7C
:100FF0008FE180933B01C0923C0110933D01109220
:101000003E016AE570E00E947D0D8CE180933F0116
:10101000D092400110934101E09242016AE570E0F4
:101020000E947D0D8DE180934301F0924401109365
:101030004501009346016AE570E00E947D0D1F9115
:101040000F91FF90EF90DF90CF90BF900895EF92B7
:10105000FF921F93DF93CF930F92CDB7DEB7962FFA
:10106000E82EFF24EE0CFF1CEE0CFF1CEE0CFF1C08
:1010700067E171E0E60EF71EF70192834683638114
:10108000772767FD7095690F711D8181422F298334
:101090000E948B0E182FF7016781772767FD7095E7
:1010A0008681680F711D85812981422F0E948B0ED8
:1010B000813041F080E00F90CF91DF911F91FF9040
:1010C000EF900895113009F080E0982F926081E050
:1010D000933081F7F0CFEF92FF921F93DF93CF937E
:1010E0000F92CDB7DEB7962FE82EFF24EE0CFF1C33
:1010F000EE0CFF1CEE0CFF1C67E171E0E60EF71E24
:10110000F701928346836381772767FD7095690FA6
:10111000711D8181422F29830E94C80F182FF7016A
:101120006781772767FD70958681680F711D8581BE
:101130002981422F0E94C80F813041F080E00F903A
:10114000CF91DF911F91FF90EF900895113009F03A
:1011500080E0982F926081E0933081F7F0CFCF93B9
:10116000DF9310924A0110924701C8E4D1E083E571
:10117000888386E9898388E063E570E00E947D0DBD
:10118000698189E070E00E947D0DDF91CF91089523
:1011900062E00E940C0A882321F080914A0181308C
:1011A00009F00895E0914701F0E0EF5FFE4F6081A4
:1011B00080E070E040E00E948B0E813049F0809129
:1011C0004701893071F71092470110924A01089542
:1011D000809147018F5F80934701F3CF10924701C1
:1011E00081E080934A01089510924A01089588E4AD
:1011F00091E008951F93982F142F809348016093D6
:10120000490180E0692F70E00E948B0E60914901D6
:1012100081E070E0412F0E948B0E1F910895089588
:10122000CF93DF93EC0166E00E940C0A882309F05B
:1012300041C0CE0165E00E940C0A882319F4DF91B9
:10124000CF91089583E00E94080D8AEE91E06BE44F
:1012500071E00E94411560914B01662329F1809154
:10126000EB01813009F041C08091EC01882309F441
:1012700053C0813009F449C08230B1F48091EE014D
:10128000882309F47DC0813009F482C0823009F4DA
:1012900083C0833009F482C0843009F481C060E0E7
:1012A0008091ED010E945C0783E00E94220DDF9196
:1012B000CF91089582E00E94080D8CE192E06CE4E9
:1012C00071E00E941A158CE192E060914C010E943D
:1012D000581580914C01882321F080911E028823AB
:1012E00049F082E00E94220DA4CF8AEE91E00E9494
:1012F0003115DACF8091200280934D0110924E017A
:1013000087E090E00E941B0AECCF8091ED018823DA
:1013100059F60E94EE08C8CF8091EF01882371F141
:10132000813081F1823081F1833081F1843091F11B
:1013300040E08091ED018823D9F08130C9F08230FE
:10134000B9F08330A9F0843099F0853089F0863087
:1013500079F0873069F0883059F0893049F08A3067
:1013600039F08B3029F08C3019F08D3009F09CCF9A
:101370006091EE0170E00E948B0E96CF44E6D9CFCB
:1013800064E68ECF40E5D5CF4CE3D3CF48E2D1CF52
:1013900060E586CF44E1CDCF6CE382CF68E280CFB9
:1013A00064E17ECF80914D0190914E010895DF93CD
:1013B000CF9300D000D00F92CDB7DEB7CE0101960B
:1013C000DC01EAE0F1E025E001900D922150E1F727
:1013D00065E00E9431150F900F900F900F900F90C5
:1013E000CF91DF9108951092500110924F0108950E
:1013F000F89420914F01309150018095909582236F
:1014000093239093500180934F0178940895809195
:101410004F0190915001089521E030E002C0220F69
:10142000331F6A95E2F72823392381E0211531051E
:1014300009F480E0089521E030E002C0220F331F5C
:101440008A95E2F780914F0190915001822B932B66
:101450009093500180934F0181E00895F89408958E
:101460007894089580915202813009F4A6C0809149
:101470006102813009F46EC0809170028130B9F14F
:1014800080917F02813009F00895909189028091C6
:101490008802981708F008C180917E02813009F413
:1014A0001AC18091820290918302019690938302E7
:1014B00080938202209180023091810282179307EB
:1014C00019F780917C02813009F48DC180917B02F3
:1014D0000E948E1881E080937E0210928302109207
:1014E0008202809189028F5F809389020895909192
:1014F0007A0280917902981708F0BFC080916F023C
:10150000813009F409C180917302909174020196AF
:101510009093740280937302209171023091720251
:101520008217930709F0ACCF80916D02813009F4E6
:101530005FC180916C020E948E1881E080936F02DF
:10154000109274021092730280917A028F5F8093DE
:101550007A0296CF90916B0280916A02981708F0F8
:1015600075C080916002813009F4F7C080916402F7
:101570009091650201969093650280936402209198
:101580006202309163028217930709F075CF809150
:101590005E02813009F431C180915D020E948E1893
:1015A00081E0809360021092650210926402809143
:1015B0006B028F5F80936B025FCF90915B02809193
:1015C0005C02891760F580915102813009F4E6C010
:1015D0008091550290915602019690935602809305
:1015E000550220915302309154028217930709F05B
:1015F0003ECF80914F02813009F4F0C080914E02BD
:101600000E948E1881E0809351021092560210922F
:10161000550280915C028F5F80935C0228CF10920C
:1016200052021092540210925302109256021092DB
:101630005502109258021092570210925A021092BC
:10164000590210925B0210925C0211CF109261025B
:10165000109263021092620210926502109264026C
:10166000109267021092660210926902109268024C
:1016700010926A0210926B02FFCE109270021092CA
:101680007202109271021092740210927302109200
:1016900076021092750210927802109277021092E0
:1016A000790210927A02ECCE10927F02109281029F
:1016B0001092800210928302109282021092850290
:1016C0001092840210928702109286021092880271
:1016D0001092890208958091860290918702019666
:1016E0009093870280938602209184023091850234
:1016F0008217930709F0C8CE80917C02813009F4EB
:1017000090C080917B020E94981810927E021092E5
:101710008702109286020895809177029091780254
:101720000196909378028093770220917502309110
:1017300076028217930709F0A3CE80916D02813063
:1017400009F460C080916C020E94981810926F0298
:10175000109278021092770293CE80916802909155
:101760006902019690936902809368022091660253
:10177000309167028217930709F07ECE80915E0256
:10178000813009F444C080915D020E949818109243
:10179000600210926902109268026ECE8091590226
:1017A00090915A02019690935A0280935902209187
:1017B0005702309158028217930709F058CE809152
:1017C0004F02813049F180914E020E949818109288
:1017D000510210925A021092590249CE80914E0243
:1017E0000E9498180FCF80917B020E94981872CEA9
:1017F00080916C020E949818A0CE80915D020E9498
:101800009818CECE80916C020E948E189FCF809146
:101810005D020E948E18BBCF80914E020E948E18EE
:10182000D6CF80917B020E948E186FCF80910F01DE
:1018300080934E0210924F0291E090935002909349
:1018400051021092520210925402109253021092BE
:10185000560210925502109258021092570210929E
:101860005A021092590210925B0210925C020E947E
:10187000371980915002882309F4C0C080914F022B
:10188000813009F4C0C080914E020E948E18809170
:10189000100180935D0210925E0291E090935F02CE
:1018A00090936002109261021092630210926202A1
:1018B0001092650210926402109267021092660202
:1018C000109269021092680210926A0210926B02E2
:1018D0000E94371980915F02882309F485C08091A6
:1018E0005E02813009F485C080915D020E948E18ED
:1018F0008091110180936C0210926D0291E090939F
:101900006E0290936F021092700210927202109207
:101910007102109274021092730210927602109269
:10192000750210927802109277021092790210924A
:101930007A020E94371980916E02882309F44AC006
:1019400080916D02813009F44AC080916C020E943E
:101950008E188091120180937B0210927C0291E09C
:1019600090937D0290937E0210927F0210928102EA
:1019700010928002109283021092820210928502CD
:1019800010928402109287021092860210928802AE
:10199000109289020E94371980917D02882389F470
:1019A00080917C02813089F080917B020E9498189E
:1019B00081E061E070E041E022E33AE00E94A3139D
:1019C000089580917C02813079F380917B020E949E
:1019D0008E18EECF80916D02813009F4B6CF8091E0
:1019E0006C020E949818B5CF80915E02813009F494
:1019F0007BCF80915D020E9498187ACF80914F0230
:101A0000813009F440CF80914E020E9498183FCF58
:101A100090E09C01220F331F280F391FF901EE0FB0
:101A2000FF1FEE0FFF1FE20FF31FE25BFD4F8181EF
:101A3000813021F080810E949818089580810E9451
:101A40008E18089590E09C01220F331F280F391F34
:101A5000F901EE0FFF1FEE0FFF1FE20FF31FE25B16
:101A6000FD4F8181813021F080810E948E18089580
:101A700080810E949818089590E09C01220F331FE6
:101A8000280F391FF901EE0FFF1FEE0FFF1FE20FA6
:101A9000F31FE25BFD4F80810E94D717089590E00D
:101AA000DC01AA0FBB1FA80FB91FFD01EE0FFF1F1E
:101AB000EE0FFF1FEA0FFB1FE25BFD4F56834583CE
:101AC00010861782328721871486138665871686CB
:101AD00081E08483089510928000E1E8F0E0808145
:101AE000826080831092850010928400B19AEFE6A4
:101AF000F0E080818260808308951F93482F509189
:101B0000DD0121E531E0852F90E0FC01EE0FFF1FA4
:101B1000880F991F880F991F880F991FE80FF91FC9
:101B2000E20FF31F81E081875091DD01852F90E066
:101B3000FC01EE0FFF1F880F991F880F991F880F58
:101B4000991FE80FF91FE20FF31F10865091DD0176
:101B5000852F90E0FC01EE0FFF1F880F991F880F63
:101B6000991F880F991FE80FF91FE20FF31F408399
:101B70001091DD01EEEBF0E06E9FC0016F9F900DC4
:101B80007E9F900D112462E170E00E94C51E605797
:101B90007E4F660F771F812F90E0FC01EE0FFF1F35
:101BA000880F991F880F991F880F991FE80FF91F39
:101BB000E20FF31F728361835091DD016091DD01BB
:101BC000862F90E0FC01EE0FFF1F880F991F880FF2
:101BD000991F880F991FE80FF91FE20FF31F61810A
:101BE0007281852F90E0FC01EE0FFF1F880F991F77
:101BF000880F991F880F991FE80FF91FE20FF31F35
:101C0000748363835091DD01852F90E0FC01EE0F1A
:101C1000FF1F880F991F880F991F880F991FE80FC2
:101C2000F91FE20FF31F84E68583842F0E94371982
:101C30008091DD018F5F8093DD011F9108951F93D7
:101C40009091DD01992309F464C090E01FEF13C067
:101C5000911730F5492F50E02091DD0130E02150FF
:101C600030404217530709F449C09F5F2091DD01BE
:101C7000921708F04EC04091DD01242F30E0F901A9
:101C8000EE0FFF1F220F331F220F331F220F331FB0
:101C9000E20FF31FEF5AFE4F20812817C9F6192FC4
:101CA000492F50E09A012F5F3F4FDA01AA0FBB1F67
:101CB000BA01660F771F660F771F660F771FA60F93
:101CC000B71FF901EE0FFF1F220F331F220F331F23
:101CD000220F331FE20FF31FAF5ABE4FEF5AFE4FD2
:101CE0002AE001900D922150E1F72091DD0130E0D2
:101CF000215030404217530709F0B7CF2091DD0142
:101D000021502093DD019F5F2091DD01921708F49F
:101D1000B2CF1F910895282F90E0FC01EE0FFF1F16
:101D2000880F991F880F991F880F991FE80FF91FB7
:101D3000EF5AFE4F8085813009F401C1EEEBF0E0EF
:101D40006E9FC0016F9F900D7E9F900D112462E1E8
:101D500070E00E94C51E60577E4F660F771F822F6E
:101D600090E0FC01EE0FFF1F880F991F880F991F4D
:101D7000880F991FE80FF91FEF5AFE4F7483638392
:101D8000822F90E0FC01EE0FFF1F880F991F880F34
:101D9000991F880F991FE80FF91FEF5AFE4F6381B3
:101DA0007481822F90E0FC01EE0FFF1F880F991FB6
:101DB000880F991F880F991FE80FF91FEF5AFE4FE0
:101DC000818192816817790709F4DEC0822F90E043
:101DD000FC01EE0FFF1F880F991F880F991F880FB6
:101DE000991FE80FF91FEF5AFE4F4583822F90E0AD
:101DF000FC01EE0FFF1F880F991F880F991F880F96
:101E0000991FE80FF91FEF5AFE4F81E08087822F5C
:101E100090E0FC01EE0FFF1F880F991F880F991F9C
:101E2000880F991FE80FF91FEF5AFE4F4181528129
:101E3000822F90E0FC01EE0FFF1F880F991F880F83
:101E4000991F880F991FE80FF91FEF5AFE4F8381E2
:101E500094814817590708F074C0822F90E0FC0164
:101E6000EE0FFF1F880F991F880F991F880F991F6A
:101E7000E80FF91FEF5AFE4F83819481422F50E003
:101E8000FA01EE0FFF1F440F551F440F551F440F5B
:101E9000551FE40FF51FEF5AFE4FA181B281422F6B
:101EA00050E0FA01EE0FFF1F440F551F440F551F5E
:101EB000440F551FE40FF51FEF5AFE4F65818A1B33
:101EC0009B0B70E06F5F7F4F0E94C51E822F90E0DA
:101ED000FC01EE0FFF1F880F991F880F991F880FB5
:101EE000991FE80FF91FEF5AFE4F77836683822F01
:101EF00090E0FC01EE0FFF1F880F991F880F991FBC
:101F0000880F991FE80FF91FEF5AFE4F86819781BE
:101F10000097E1F5822F90E0FC01EE0FFF1F880F84
:101F2000991F880F991F880F991FE80FF91FEF5A03
:101F3000FE4F81E090E09783868380E0089580E003
:101F40000895822F90E0FC01EE0FFF1F880F991F6C
:101F5000880F991F880F991FE80FF91FEF5AFE4F3E
:101F600081819281422F50E0FA01EE0FFF1F440F52
:101F7000551F440F551F440F551FE40FF51FEF5A0F
:101F8000FE4FA381B4818BCF81E0089580E0089556
:101F9000282FEEEBF0E06E9FC0016F9F900D7E9FAB
:101FA000900D112462E170E00E94C51E60577E4FC3
:101FB000660F771F822F90E0FC01EE0FFF1F880F46
:101FC000991F880F991F880F991FE80FF91FEF5A63
:101FD000FE4F74836383822F90E0FC01EE0FFF1F9E
:101FE000880F991F880F991F880F991FE80FF91FF5
:101FF000EF5AFE4F63817481822F90E0FC01EE0F57
:10200000FF1F880F991F880F991F880F991FE80FCE
:10201000F91FEF5AFE4F818192816817790709F401
:10202000DEC0822F90E0FC01EE0FFF1F880F991F8A
:10203000880F991F880F991FE80FF91FEF5AFE4F5D
:102040004583822F90E0FC01EE0FFF1F880F991F40
:10205000880F991F880F991FE80FF91FEF5AFE4F3D
:1020600081E08087822F90E0FC01EE0FFF1F880F38
:10207000991F880F991F880F991FE80FF91FEF5AB2
:10208000FE4F41815281822F90E0FC01EE0FFF1F35
:10209000880F991F880F991F880F991FE80FF91F44
:1020A000EF5AFE4F838194814817590708F472C094
:1020B000822F90E0FC01EE0FFF1F880F991F880F01
:1020C000991F880F991FE80FF91FEF5AFE4F818162
:1020D0009281422F50E0FA01EE0FFF1F440F551F6F
:1020E000440F551F440F551FE40FF51FEF5AFE4FC5
:1020F000A381B481422F50E0FA01EE0FFF1F440F7D
:10210000551F440F551F440F551FE40FF51FEF5A7D
:10211000FE4F65818A1B9B0B70E06F5F7F4F0E94B3
:10212000C51E822F90E0FC01EE0FFF1F880F991F44
:10213000880F991F880F991FE80FF91FEF5AFE4F5C
:1021400077836683822F90E0FC01EE0FFF1F880FDC
:10215000991F880F991F880F991FE80FF91FEF5AD1
:10216000FE4F868197810097C1F5822F90E0FC0198
:10217000EE0FFF1F880F991F880F991F880F991F57
:10218000E80FF91FEF5AFE4F81E090E097838683B6
:1021900080E00895822F90E0FC01EE0FFF1F880F72
:1021A000991F880F991F880F991FE80FF91FEF5A81
:1021B000FE4F83819481422F50E0FA01EE0FFF1F02
:1021C000440F551F440F551F440F551FE40FF51FB3
:1021D000EF5AFE4FA181B2818DCF80E0089581E05A
:1021E0000895282F30E0F901EE0FFF1F220F331F53
:1021F000220F331F220F331FE20FF31FEF5AFE4F40
:1022000080850895282F30E0F901EE0FFF1F220F7F
:10221000331F220F331F220F331FE20FF31FEF5A1A
:10222000FE4F818192818052934065E170E00E946F
:10223000C51ECB0108950F931F93DF93CF93CDB7A6
:10224000DEB763970FB6F894DEBF0FBECDBF8AE24C
:10225000898381E08A831B828091DD01882309F4D0
:1022600042C040E08E010C5F1F4F25E130E0842F1B
:1022700090E0FC01EE0FFF1F880F991F880F991F38
:10228000880F991FE80FF91FEF5AFE4F8381948141
:10229000F801E40FF11D80529340B9010E94C51E60
:1022A00060834F5F8091DD01481708F38091DD0165
:1022B000F801E80FF11D83E280839091DD01FE01BA
:1022C000E90FF11D8583CE01019663E10E94581547
:1022D00063960FB6F894DEBF0FBECDBFCF91DF91EE
:1022E0001F910F9108958E010C5F1F4FDFCF1F923A
:1022F0000F920FB60F920BB60F9211242F933F93AC
:102300004F935F936F937F938F939F93AF93BF93FD
:10231000EF93FF938091130187FD8AC08091130191
:10232000992787FD9095FC01EE0FFF1F880F991FDD
:10233000880F991F880F991FE80FF91FEF5AFE4F5A
:102340008185813009F479C0809113018F5F80937A
:102350001301209113018091DD01332727FD309572
:1023600090E0281739070CF047C020918400309185
:10237000850080911301992787FD9095FC01EE0F50
:10238000FF1F880F991F880F991F880F991FE80F4B
:10239000F91FEF5AFE4F81819281820F931F909314
:1023A00089008093880080911301992787FD90957B
:1023B000FC01EE0FFF1F880F991F880F991F880FD0
:1023C000991FE80FF91FEF5AFE4F8185813009F4FC
:1023D00056C0FF91EF91BF91AF919F918F917F91E7
:1023E0006F915F914F913F912F910F900BBE0F9086
:1023F0000FBE0F901F9018958091840090918500DA
:102400002EE48732920768F08091840090918500D5
:10241000079690938900809388008FEF8093130133
:10242000D8CF80E29EE49093890080938800F5CF16
:10243000109285001092840087CF20911301809123
:10244000DD01332727FD309590E0281739070CF080
:102450007BCF80911301992787FD9095FC01EE0FAA
:10246000FF1F880F991F880F991F880F991FE80F6A
:10247000F91FEF5AFE4F80810E94981865CF209176
:1024800013018091DD01332727FD309590E0281757
:1024900039070CF09ECF80911301992787FD909505
:1024A000FC01EE0FFF1F880F991F880F991F880FDF
:1024B000991FE80FF91FEF5AFE4F80810E948E1876
:1024C00080911301992787FD9095FC01EE0FFF1F66
:1024D000880F991F880F991F880F991FE80FF91F00
:1024E000EF5AFE4F8085813009F073CF8091130140
:1024F000992787FD9095FC01EE0FFF1F880F991F0C
:10250000880F991F880F991FE80FF91FEF5AFE4F88
:102510002181328180911301992787FD9095FC01DB
:10252000EE0FFF1F880F991F880F991F880F991FA3
:10253000E80FF91FEF5AFE4F83819481281739075E
:1025400008F096C080911301992787FD9095FC01B2
:10255000EE0FFF1F880F991F880F991F880F991F73
:10256000E80FF91FEF5AFE4F21813281809113014C
:10257000992787FD9095DC01AA0FBB1F880F991F33
:10258000880F991F880F991FA80FB91FAF5ABE4F08
:1025900016968D919C911797820F931F928381833A
:1025A00080911301992787FD9095FC01EE0FFF1F85
:1025B000880F991F880F991F880F991FE80FF91F1F
:1025C000EF5AFE4F2181328180911301992787FDB7
:1025D0009095FC01EE0FFF1F880F991F880F991F20
:1025E000880F991FE80FF91FEF5AFE4F83819481DE
:1025F0002817390708F4EDCE80911301992787FD3C
:10260000909520911301332727FD3095F901EE0FA6
:10261000FF1F220F331F220F331F220F331FE20F22
:10262000F31FEF5AFE4F23813481FC01EE0FFF1F91
:10263000880F991F880F991F880F991FE80FF91F9E
:10264000EF5AFE4F3283218380911301992787FD32
:102650009095FC01EE0FFF1F880F991F880F991F9F
:10266000880F991FE80FF91FEF5AFE4F1086B1CE61
:1026700080911301992787FD9095FC01EE0FFF1FB4
:10268000880F991F880F991F880F991FE80FF91F4E
:10269000EF5AFE4F8181928120911301332727FD4C
:1026A0003095D901AA0FBB1F220F331F220F331FF2
:1026B000220F331FA20FB31FAF5ABE4F16962D9194
:1026C0003C911797821B930B928381838091130116
:1026D000992787FD9095FC01EE0FFF1F880F991F2A
:1026E000880F991F880F991FE80FF91FEF5AFE4FA7
:1026F0002181328180911301992787FD9095FC01FA
:10270000EE0FFF1F880F991F880F991F880F991FC1
:10271000E80FF91FEF5AFE4F8381948182179307C8
:1027200008F457CE69CF8AEF0E943D1C83E00E94D7
:10273000331C82E00E940D1C82E00E94541C82E047
:102740000E94451C0895E82FF0E0EE0FFF1FEE0FEA
:10275000FF1FEE0FFF1FE657FD4F81E0808372835E
:102760006183148213824583378326830895E82F7B
:10277000F0E0EE0FFF1FEE0FFF1FEE0FFF1FE657FB
:10278000FD4F10820895E82FF0E0EE0FFF1FEE0FCF
:10279000FF1FEE0FFF1FE657FD4F108212821182BE
:1027A0001482138282E08583178216820895E82FAF
:1027B000F0E0EE0FFF1FEE0FFF1FEE0FFF1FE657BB
:1027C000FD4F148213820895E82FF0E0EE0FFF1FF3
:1027D000EE0FFF1FEE0FFF1FE657FD4F148213820F
:1027E0007283618308958AEF0E943D1C83E00E94FA
:1027F000331C82E00E940D1C82E00E94541C82E087
:102800000E94451C0895AF92BF92CF92DF92EF9243
:10281000FF920F931F93CF93DF937B018C01EA010B
:1028200020E83EE340E050E00E949A1E615078416B
:102830008C4F9F4F20E038EE43E050E00E94D91EBD
:102840002F3F310509F0E8F52038310578F42830BC
:10285000310508F046C022303105D8F182E0888386
:10286000E0E1AE2EB12CC12CD12C07C084E08883CE
:10287000A12CA2E0BA2EC12CD12C60E472E48FE02E
:1028800090E0A80197010E94D91EC601B5010E94DF
:102890009A1E9B01AC0160E074E284EF90E00E941C
:1028A000D91E220F331F441F551FC901DF91CF913D
:1028B0001F910F91FF90EF90DF90CF90BF90AF905E
:1028C000089585E08883A12CB8E0BB2EC12CD12CC3
:1028D000D4CF81E0888372E0A72EB12CC12CD12CFB
:1028E000CCCF83E08883F0E8AF2EB12CC12CD12C63
:1028F000C4CF1F920F920FB60F920BB60F921124F6
:102900002F933F934F935F936F937F938F939F93F7
:10291000AF93BF93EF93FF938091DE018F5F80931E
:10292000DE018091DE018436F1F08091DE016AE003
:102930000E94B91E992321F480E090E00E941B0AB6
:10294000FF91EF91BF91AF919F918F917F916F9187
:102950005F914F913F912F910F900BBE0F900FBE43
:102960000F901F9018951092DE0181E090E00E9478
:102970001B0A8091DF018F5F8093DF018091DF016F
:102980008A30D9F08091E001853059F08091E101E1
:102990008230B1F61092E10184E090E00E941B0ABF
:1029A000CFCF1092E0018091E1018F5F8093E10130
:1029B00083E090E00E941B0AE9CF1092DF01809132
:1029C000E0018F5F8093E00182E090E00E941B0AAB
:1029D000D9CF80E190E09093C5008093C400E1ECF2
:1029E000F0E02081206120832081286020832081E5
:1029F00020682083E2ECF0E02081226020832081A7
:102A0000246020839093CD008093CC00E9ECF0E02B
:102A100080818061808380818860808380818068FC
:102A20008083EAECF0E08081826080838081846032
:102A3000808308952091E201222381F040E0242F39
:102A400030E0FC01E20FF31F2E5A3C4FD9012C91CC
:102A500020834F5F2091E201421788F3FB0120831E
:102A60000895662369F0E82FF92F90E08091C00067
:102A700085FFFCCF81918093C6009F5F9617B0F3CE
:102A800008952091E501222381F040E0242F30E0D9
:102A9000FC01E20FF31F22513D4FD9012C912083FD
:102AA0004F5F2091E501421788F3FB0120830895D1
:102AB000662369F0E82FF92F90E08091C80085FF28
:102AC000FCCF81918093CE009F5F9617B0F308955D
:102AD0001F920F920FB60F920BB60F9211242F93E5
:102AE0003F934F935F936F937F938F939F93AF9396
:102AF000BF93EF93FF938091C6009091E4019923D7
:102B0000B1F48A3209F442C0FF91EF91BF91AF91C5
:102B10009F918F917F916F915F914F913F912F91F5
:102B20000F900BBE0F900FBE0F901F901895409105
:102B3000E301242F30E0F901EA54FC4F80834F5F1A
:102B40004093E301842F90E08A549C4FFC0131971D
:102B500050815332C9F60297FC0180818332A1F67D
:102B6000442359F0E6EBF3E0A2E5B3E029543C4FEF
:102B700081918D93E217F307D9F74093E201109208
:102B8000E40186E090E00E941B0ABECF8093B6036A
:102B900081E08093E3018093E401B6CF1F920F920E
:102BA0000FB60F920BB60F9211242F933F934F93B2
:102BB0005F936F937F938F939F93AF93BF93EF93A5
:102BC000FF938091CE009091E7019923B1F48A326E
:102BD00009F442C0FF91EF91BF91AF919F918F9106
:102BE0007F916F915F914F913F912F910F900BBE0D
:102BF0000F900FBE0F901F9018954091E601242F63
:102C000030E0F901E657FD4F80834F5F4093E601C6
:102C1000842F90E086579D4FFC01319750815332AD
:102C2000C9F60297FC0180818332A1F6442359F052
:102C3000EAE8F2E0AEEEB2E025573D4F81918D9388
:102C4000E217F307D9F74093E5011092E70185E019
:102C500090E00E941B0ABECF80938A0281E080939D
:102C6000E6018093E701B6CF0E9493130E94F30917
:102C70000E94160C0E94E9140E946B0D0E940F091D
:102C80000E94AF080E94A9000E94300A09C08091EA
:102C9000E8019091E9010E94F80980E00E943C0D52
:102CA0000E94070A9093E9018093E8018091E8016E
:102CB0009091E901009759F38091E8019091E90121
:102CC0000E9410098091E8019091E9010E94B200F0
:102CD0008091E8019091E9010E94C8088091E80183
:102CE0009091E90162E00E940C0A882381F281E060
:102CF0000E943C0DCCCFECE7F0E09081807C9F738C
:102D0000892B808381E00895ECE7F0E08081806288
:102D1000808381E0089580917C0081700895ECE7C4
:102D2000F0E080818F7D808381E00895ECE7F0E022
:102D300090818F71907E892B808381E008958091AE
:102D40007C008F710895EAE7F0E0808180688083DD
:102D500081E00895EAE7F0E080818F77808381E069
:102D60000895EAE7F0E080818064808381E008953F
:102D7000EAE7F0E080818062808381E00895EAE7FD
:102D8000F0E080818F7D808381E00895EAE7F0E0C4
:102D900080818F7A8061808381E00895EAE7F0E0A6
:102DA00080818860808381E00895EAE7F0E0808197
:102DB000877F808381E00895EAE7F0E09081877063
:102DC000987F892B808381E00895EBE7F0E0908184
:102DD0008770987F892B808381E0089580917C00A3
:102DE00080FD03C080917800089580917900089556
:102DF0002091780030917900C9010895882329F441
:102E000085B78D7F85BF81E0089585B7826085BFD6
:102E100081E00895882329F485B78E7F85BF81E0FE
:102E2000089585B7816085BF81E00895E9E6F0E007
:102E30009081982B908381E00895E9E6F0E09081FD
:102E4000982B908381E00895E9E6F0E09081982B3B
:102E5000908381E00895882319F4E89881E008952B
:102E6000E89A81E00895882319F4E99881E00895AB
:102E7000E99A81E00895882319F4EA9881E0089599
:102E8000EA9A81E00895882319F4E09881E0089592
:102E9000E09A81E00895882319F4E19881E008958B
:102EA000E19A81E00895882319F4E29881E0089579
:102EB000E29A81E00895882339F4809168008E7F3A
:102EC0008093680081E0089580916800816080931C
:102ED000680081E00895882339F4809168008D7F2F
:102EE0008093680081E008958091680082608093FB
:102EF000680081E00895882339F4809168008B7F11
:102F00008093680081E008958091680084608093D8
:102F1000680081E00895882339F480916800877FF4
:102F20008093680081E008958091680088608093B4
:102F3000680081E00895882319F4D89881E0089505
:102F4000D89A81E00895882319F4D99881E00895EA
:102F5000D99A81E00895882319F4DA9881E00895D8
:102F6000DA9A81E00895882319F4DB9881E00895C6
:102F7000DB9A81E00895E3E7F0E09081982B90835D
:102F800081E00895EDE6F0E09081982B908381E058
:102F90000895ECE6F0E09081982B908381E008950D
:102FA000EBE6F0E09081982B908381E00895982FD4
:102FB0009695969596958770992391F09130E1F0CA
:102FC000923031F1933051F49BB121E030E002C0F6
:102FD000220F331F8A95E2F792279BB981E008956B
:102FE00092B121E030E002C0220F331F8A95E2F750
:102FF000922792B981E0089595B121E030E002C0B6
:10300000220F331F8A95E2F7922795B981E0089540
:1030100098B121E030E002C0220F331F8A95E2F719
:10302000922798B9DBCF882329F485B78F7E85BF97
:1030300081E0089585B7806185BF81E00895882388
:1030400079F4442311F522B181E090E002C0880FA9
:10305000991F6A95E2F78095822382B981E00895ED
:103060008130F9F0823051F18330C1F7442309F007
:103070004AC02BB181E090E002C0880F991F6A9589
:10308000E2F7809582238BB9E9CF22B181E090E00D
:1030900002C0880F991F6A95E2F7282B22B981E0B8
:1030A00008954423C1F025B181E090E002C0880F6B
:1030B000991F6A95E2F7282B25B9D0CF4423B9F0A0
:1030C00028B181E090E002C0880F991F6A95E2F76D
:1030D000282B28B9C3CF25B181E090E002C0880F2A
:1030E000991F6A95E2F78095822385B9B7CF28B1F9
:1030F00081E090E002C0880F991F6A95E2F7809501
:10310000822388B9ABCF2BB181E090E002C0880F59
:10311000991F6A95E2F7282B2BB9A0CF682F67700B
:1031200086958695869541E00E941F1881E0089556
:10313000682F677086958695869540E00E941F18D7
:1031400081E00895882379F4442311F521B181E0C9
:1031500090E002C0880F991F6A95E2F7809582235C
:1031600081B981E008958130F9F0823051F18330E6
:10317000C1F7442309F04AC02AB181E090E002C0BF
:10318000880F991F6A95E2F7809582238AB9E9CF63
:1031900021B181E090E002C0880F991F6A95E2F7A3
:1031A000282B21B981E008954423C1F024B181E0A6
:1031B00090E002C0880F991F6A95E2F7282B24B986
:1031C000D0CF4423B9F027B181E090E002C0880F4E
:1031D000991F6A95E2F7282B27B9C3CF24B181E064
:1031E00090E002C0880F991F6A95E2F780958223CC
:1031F00084B9B7CF27B181E090E002C0880F991F52
:103200006A95E2F78095822387B9ABCF2AB181E036
:1032100090E002C0880F991F6A95E2F7282B2AB91F
:10322000A0CFFF920F931F93F62E082F06950695B9
:103230000695182F1770802F612F40E00E94A2186A
:103240008F2D813051F0802F612F40E00E941F1898
:1032500081E01F910F91FF900895802F612F41E031
:103260000E941F1881E01F910F91FF900895682F11
:10327000677086958695869541E00E94A21881E048
:103280000895882379F4442311F520B181E090E07A
:1032900002C0880F991F6A95E2F78095822380B952
:1032A00081E008958130F9F0823051F18330C1F727
:1032B000442309F04AC029B181E090E002C0880FA0
:1032C000991F6A95E2F78095822389B9E9CF20B1E9
:1032D00081E090E002C0880F991F6A95E2F7282BE1
:1032E00020B981E008954423C1F023B181E090E04A
:1032F00002C0880F991F6A95E2F7282B23B9D0CF17
:103300004423B9F026B181E090E002C0880F991FF4
:103310006A95E2F7282B26B9C3CF23B181E090E06C
:1033200002C0880F991F6A95E2F78095822383B9BE
:10333000B7CF26B181E090E002C0880F991F6A954F
:10334000E2F78095822386B9ABCF29B181E090E086
:1033500002C0880F991F6A95E2F7282B29B9A0CFE0
:10336000662369F492B121E030E002C0220F331FDE
:103370008A95E2F72095292322B981E0089592B138
:1033800021E030E002C0220F331F8A95E2F7922B32
:1033900092B981E0089582B10895662369F491B1EC
:1033A00021E030E002C0220F331F8A95E2F720951A
:1033B000292321B981E0089591B121E030E002C0D4
:1033C000220F331F8A95E2F7922B91B981E008957D
:1033D000662369F490B121E030E002C0220F331F70
:1033E0008A95E2F72095292320B981E0089590B1CC
:1033F00021E030E002C0220F331F8A95E2F7922BC2
:1034000090B981E00895662369F495B121E030E038
:1034100002C0220F331F8A95E2F72095292325B990
:1034200081E0089595B121E030E002C0220F331F02
:103430008A95E2F7922B95B981E0089585B10895B8
:10344000662369F494B121E030E002C0220F331FFB
:103450008A95E2F72095292324B981E0089594B153
:1034600021E030E002C0220F331F8A95E2F7922B51
:1034700094B981E00895662369F493B121E030E0C6
:1034800002C0220F331F8A95E2F72095292323B922
:1034900081E0089593B121E030E002C0220F331F94
:1034A0008A95E2F7922B93B981E00895662369F437
:1034B00098B121E030E002C0220F331F8A95E2F775
:1034C0002095292328B981E0089598B121E030E0C2
:1034D00002C0220F331F8A95E2F7922B98B981E040
:1034E000089588B10895662369F497B121E030E02A
:1034F00002C0220F331F8A95E2F72095292327B9AE
:1035000081E0089597B121E030E002C0220F331F1F
:103510008A95E2F7922B97B981E00895662369F4C2
:1035200096B121E030E002C0220F331F8A95E2F706
:103530002095292326B981E0089596B121E030E055
:1035400002C0220F331F8A95E2F7922B96B981E0D1
:103550000895662369F49BB121E030E002C0220F98
:10356000331F8A95E2F7209529232BB981E008952E
:103570009BB121E030E002C0220F331F8A95E2F7B1
:10358000922B9BB981E008958BB10895662369F46D
:103590009AB121E030E002C0220F331F8A95E2F792
:1035A000209529232AB981E008959AB121E030E0DD
:1035B00002C0220F331F8A95E2F7922B9AB981E05D
:1035C0000895662369F499B121E030E002C0220F2A
:1035D000331F8A95E2F72095292329B981E00895C0
:1035E00099B121E030E002C0220F331F8A95E2F743
:1035F000922B99B981E0089593B7982B93BF81E0FE
:103600000895882329F483B78E7F83BF81E00895CE
:1036100083B7816083BF81E00895882329F485B74B
:103620008F7B85BF81E0089585B7806485BF81E089
:103630000895882329F485B78F7D85BF81E008959B
:1036400085B7806285BF81E00895882339F4809131
:1036500064008F778093640081E008958091640016
:1036600080688093640081E00895882339F4809114
:1036700064008F7B8093640081E0089580916400F2
:1036800080648093640081E00895882339F48091F8
:1036900064008F7D8093640081E0089580916400D0
:1036A00080628093640081E00895882339F48091DA
:1036B00064008F7E8093640081E0089580916400AF
:1036C00080618093640081E00895882339F48091BB
:1036D0006400877F8093640081E008958091640096
:1036E00088608093640081E00895882339F4809194
:1036F00064008B7F8093640081E008958091640072
:1037000084608093640081E00895882339F4809177
:1037100064008D7F8093640081E00895809164004F
:1037200082608093640081E00895882339F4809159
:1037300064008E7F8093640081E00895809164002E
:1037400081608093640081E008958093660081E049
:103750000895882339F4809161008F778093610008
:1037600081E008958091610080688093610081E02C
:103770000895E1E6F0E090818F70892B808381E0ED
:10378000089584B780E0089584B780E0089584B7F1
:1037900080E0089584B780E0089584B780E00895BC
:1037A0008091600080E00895882339F48091600062
:1037B0008F7B8093600081E0089580916000806439
:1037C0008093600081E008958091600080E008951A
:1037D000882339F480916000877F8093600081E0C6
:1037E00008958091600088608093600081E0089572
:1037F000E0E6F0E09081982B908381E0089594B505
:10380000807C9F73892B84BD81E0089595B580737A
:103810009F7C892B85BD81E0089580FF0FC024B572
:10382000216024BD81FF0FC024B5226024BD83FD2B
:103830000FC085B5877F85BD81E0089524B52E7FB3
:1038400024BD81FDF1CF24B52D7F24BD83FFF1CFB1
:1038500085B5886085BD81E0089595B5807C892B0C
:1038600085BD81E0089595B58770987F892B85BDCA
:10387000089586BD089586B5089587BD089587B5D6
:10388000089588BD089588B50895EEE6F0E090812A
:103890008770892B80830895EEE6F0E09081877031
:1038A0008095892380830895EEE6F0E0908187700B
:1038B00080958923808308958093C60081E00895D0
:1038C0008093CE0081E008958091C6000895809194
:1038D000CE0008958091C000807208958091C80044
:1038E000807208958091C0008C7108958091C80005
:1038F0008C710895882331F09091C000982B90939B
:10390000C00008958091C0008093C000089588236E
:1039100031F09091C800982B9093C8000895809141
:10392000C8008093C80008958091C00082700895F7
:103930008091C80082700895E0ECF0E080818160A1
:10394000808381E00895E8ECF0E0808181608083ED
:1039500081E008958091C000817008958091C80031
:10396000817008958091C000807808958091C8008A
:1039700080780895E0ECF0E080818064808381E0CD
:103980000895E8ECF0E080818064808381E0089510
:103990008091C000807408958091C800807408955B
:1039A0008091C000807208958091C800807208954F
:1039B000E1ECF0E080818860808381E00895E9ECAB
:1039C000F0E080818860808381E00895E1ECF0E0A0
:1039D0008081877F808381E00895E9ECF0E0808139
:1039E000877F808381E00895E1ECF0E08081806151
:1039F000808381E00895E9ECF0E08081806180833C
:103A000081E00895E1ECF0E080818F7E808381E0A9
:103A10000895E9ECF0E080818F7E808381E0089555
:103A2000E1ECF0E02081982F94702B7F922B908313
:103A3000E2ECF0E09081880F8670997F892B80837B
:103A400081E00895E9ECF0E02081982F94702B7FBD
:103A5000922B9083EAECF0E09081880F8670997F3A
:103A6000892B808381E00895E2ECF0E090818073FF
:103A70009F7C892B808381E00895EAECF0E09081BF
:103A800080739F7C892B808381E00895E2ECF0E0D5
:103A900090818870977F892B808381E00895EAEC7C
:103AA000F0E090818870977F892B808381E0089572
:103AB000E1ECF0E080818068808381E00895E9ECAA
:103AC000F0E080818068808381E00895E1ECF0E09F
:103AD00080818F77808381E00895E9ECF0E0808138
:103AE0008F77808381E00895E1ECF0E0808180644D
:103AF000808381E00895E9ECF0E080818064808338
:103B000081E00895E1ECF0E080818F7B808381E0AB
:103B10000895E9ECF0E080818F7B808381E0089557
:103B2000E1ECF0E080818062808381E00895E9EC3F
:103B3000F0E080818062808381E00895E1ECF0E034
:103B400080818F7D808381E00895E9ECF0E08081C1
:103B50008F7D808381E00895E2ECF0E090818170B8
:103B60009E7F892B808381E00895EAECF0E09081CC
:103B700081709E7F892B808381E008952091C00011
:103B800020FD26C02091C00021FD20C09B01AC017A
:103B9000220F331F441F551F220F331F441F551F71
:103BA000220F331F441F551F220F331F441F551F61
:103BB00060E074E284EF90E00E94D91E2150304012
:103BC0003093C5002093C40081E0089580E00895FB
:103BD00080E008952091C80020FD26C02091C800F3
:103BE00021FD20C09B01AC01220F331F441F551F34
:103BF000220F331F441F551F220F331F441F551F11
:103C0000220F331F441F551F60E074E284EF90E0E1
:103C10000E94D91E215030403093CD002093CC001B
:103C200081E0089580E0089580E008952091C0002B
:103C300020FD22C02091C00021FD02C080E0089537
:103C40009B01AC01220F331F441F551F220F331F4E
:103C5000441F551F220F331F441F551F60E074E29D
:103C600084EF90E00E94D91E215030403093C5006F
:103C70002093C40081E0089580E008952091C80059
:103C800020FD22C02091C80021FD02C080E00895DF
:103C90009B01AC01220F331F441F551F220F331FFE
:103CA000441F551F220F331F441F551F60E074E24D
:103CB00084EF90E00E94D91E215030403093CD0017
:103CC0002093CC0081E0089580E008952091C00009
:103CD00020FD02C080E008959B01AC01220F331F3C
:103CE000441F551F60E074E284EF90E00E94D91EEB
:103CF000215030403093C5002093C40081E00895E6
:103D00002091C80020FD02C080E008959B01AC0115
:103D1000220F331F441F551F60E074E284EF90E0D0
:103D20000E94D91E215030403093CD002093CC000A
:103D300081E00895629FD001739FF001829FE00DA2
:103D4000F11D649FE00DF11D929FF00D839FF00D1A
:103D5000749FF00D659FF00D9927729FB00DE11DC6
:103D6000F91F639FB00DE11DF91FBD01CF011124A3
:103D70000895991B79E004C0991F961708F0961BC7
:103D8000881F7A95C9F780950895AA1BBB1B51E13E
:103D900007C0AA1FBB1FA617B70710F0A61BB70BBB
:103DA000881F991F5A95A9F780959095BC01CD0160
:103DB0000895A1E21A2EAA1BBB1BFD010DC0AA1F6C
:103DC000BB1FEE1FFF1FA217B307E407F50720F084
:103DD000A21BB30BE40BF50B661F771F881F991FFF
:103DE0001A9469F760957095809590959B01AC0148
:0A3DF000BD01CF010895F894FFCF44
:103DFA00075353171753538F8F532A000023230750
:043E0A00061011FF8E
:00000001FF
