:100000000C9446000C9465000C9465000C946500FB
:100010000C9465000C9465000C9465000C946500CC
:100020000C9465000C9465000C9465000C946500BC
:100030000C9465000C9465000C9465000C946500AC
:100040000C94AD090C9465000C9465000C9465004B
:100050000C94CD0A0C9465000C9465000C9465001A
:100060000C9465000C9465000C9465000C9465007C
:100070000C945A020C9465000C9465000C94650075
:100080000C9465000C9465000C94650011241FBE4F
:10009000C0E0D0E4DEBFCDBF11E0A0E0B1E0EAE215
:1000A000F8E200E00BBF02C007900D92A232B10748
:1000B000D9F717E1A2E2B1E001C01D92A234B10765
:1000C000E1F70E94C8120C9413140C940000809362
:1000D000211408958093020181E060E071E046E020
:1000E0000E94580A089581E0809323140895CF93C5
:1000F000DF93C2E2D4E110922214FE013197108204
:100100001092241410922314FE0134971082FE01E1
:100110003B971082FE013A971082FE0139971082B8
:10012000FE0138971082FE0137971082FE01369744
:100130001082FE0135971082FE0132971082FE0177
:100140003397108210922B0181E00E9467002D9757
:1001500080E391E0998388830E947300DF91CF91BF
:1001600008956F927F928F929F92AF92BF92CF929B
:10017000DF92EF92FF920F931F93DF93CF93CDB750
:10018000DEB7AF970FB6F894DEBF0FBECDBF8C01C0
:1001900080912114813009F078C1C80161E00E948A
:1001A000A205882309F402C180912214813009F04C
:1001B000FDC080911D14813009F066C010921D149D
:1001C0008AE289831A8281E08B8383E28EA78FA7DC
:1001D00010922D0110922C0180E090E00F2EF6E09D
:1001E0008F2E9924F02D8C0E9D1E0F2EFEE2EF2EE9
:1001F000FF24F02DEC0EFD1E0F2EF5E1CF2EF4E1C5
:10020000DF2EF02D0F2EF8E26F2E7724F02D5E01F9
:100210000894A11CB11C9C838D83F401D6012D91FF
:100220003C91D901A80FB91F14962C9114972193D2
:100230000196EE15FF0591F770922F0160922E0145
:1002400080E0B5014FE20E94580A80912C01909104
:100250002D01889690932D0180932C01B9E0803672
:100260009B07C8F2E0911514F091161413821282C4
:10027000E0911514F09116141182108210921A1444
:1002800010921B1410921C1480912314813009F0D9
:100290008DC0809120148C33D0F480911714882362
:1002A000B1F480911814813021F488E090E00E942C
:1002B000330E1092171481E066E071E046E00E9470
:1002C000580A809120148F5F809320146FC0809112
:1002D00020148C3388F182E294E110922214FC0104
:1002E000319710821092241410922314FC01349739
:1002F0001082FC013B971082FC013A971082FC01AE
:1003000039971082FC0138971082FC0137971082D0
:10031000FC0136971082FC0135971082FC01329760
:1003200010820397FC01108210922B0181E00E9441
:1003300067000E9473003AC080911714813051F415
:1003400080912414853030F4809124148F5F809341
:1003500024142CC080911714813079F480911914E1
:10036000882359F4109224141092191481E06CE03F
:1003700071E046E00E94580A19C08091191481303A
:10038000A9F480911A14882389F480911B1488237E
:1003900069F410921A1481E062E171E046E00E9473
:1003A000580A10921E1481E080931B14C80162E069
:1003B0000E94A205882309F45CC08091221488233E
:1003C000A1F580912414833080F182E294E121E050
:1003D0002093221410922414FC0134971082FC0103
:1003E0003B971082FC013A971082FC0139971082EA
:1003F000FC0138971082FC0137971082FC01369778
:100400001082FC0135971082FC013297108203970D
:10041000DC011C9210922B0188E090E00E94A50E56
:1004200088E090E00E94330E24C080912214813035
:10043000D9F480911A14882389F480911B14813097
:1004400069F480911E14823048F088E090E00E94A8
:10045000260E0E947700109224140BC080911E1467
:100460008F5F80931E1405C0809124148F5F80934A
:100470002414C80168E00E94A205882331F080E0BE
:100480000E946A0081E080931D14AF960FB6F89425
:10049000DEBF0FBECDBFCF91DF911F910F91FF90B7
:1004A000EF90DF90CF90BF90AF909F908F907F9014
:1004B0006F9008951F920F920FB60F920BB60F9286
:1004C00011242F933F934F935F936F937F938F9359
:1004D0009F93AF93BF93EF93FF932091CE008091B2
:1004E0001C14813039F5A0911514B0911614E091C7
:1004F0001514F091161480819181A80FB91F1496DC
:100500002C93019691838083A0911514B0911614B9
:10051000E0911514F09116142D913C911197828160
:1005200093812817390709F079C088E090E00E948C
:10053000AB0574C080912201813009F061C08091C7
:10054000230190912401FC01EB5DFE4F2083019675
:1005500090932401809323018630910509F05EC0B9
:1005600010922201809126018F3041F488E090E0C2
:100570000E94260E81E08093181450C01092181427
:1005800010922401109223018E3049F480912701AA
:100590008D3089F48091280180931F143FC08D30E5
:1005A000B9F480911F140E946A0010921F1481E018
:1005B0008093171433C080912701813019F4809300
:1005C00019142CC0843051F581E080931A1426C090
:1005D0008A3021F580912701823001F5E0911514D0
:1005E000F09116149091290180E02091280130E0CB
:1005F000822B932B9383828381E080931C140EC003
:100600002A3A61F481E0809322018AEA80932501ED
:1006100081E090E09093240180932301FF91EF917A
:10062000BF91AF919F918F917F916F915F914F910A
:100630003F912F910F900BBE0F900FBE0F901F9008
:1006400018950E949E070895813059F4611571052F
:1006500021F480E00E941A07089580E00E945C0760
:100660000895823051F46115710521F481E00E94F2
:100670001A07089581E00E945C070895813021F4F3
:1006800080E00E9445080895823019F481E00E94BC
:1006900045080895682F80E045E050E02AE030E00A
:1006A0000E945C080895682F81E045E050E02AE050
:1006B00030E00E945C0808951F93182F80E0612F9E
:1006C00045E050E02AE030E00E945C0881E0612FC4
:1006D00045E050E02AE030E00E945C081F91089558
:1006E0001F93CF93DF93182F6695C62FD0E02196E6
:1006F00080E0612FAE019E010E948D0881E0612F94
:10070000AE019E010E948D08DF91CF911F91089547
:1007100010920114109200141092F9131092F81311
:100720001092FB131092FA131092FD131092FC1307
:100730001092FF131092FE130895DF93CF93CDB75D
:10074000DEB729970FB6F894DEBF0FBECDBF8AE2A1
:1007500089831A8282E08B838091FC139091FD1330
:100760009C838D838091FE139091FF139E838F83D2
:1007700083E28887898780E0BE016F5F7F4F49E011
:100780000E94580A29960FB6F894DEBF0FBECDBF5F
:10079000CF91DF91089561E00E94A205882309F4BA
:1007A0004EC082E090E00E947D052091F8133091C8
:1007B000F913280F391F3093F9132093F81383E0AE
:1007C00090E00E947D052091FA133091FB13280FD1
:1007D000391F3093FB132093FA13809100149091EA
:1007E00001140196909301148093001488309105B0
:1007F00031F510920114109200148091F813909129
:10080000F9139695879596958795969587959093E4
:10081000FD138093FC1336952795369527953695CD
:1008200027953093FF132093FE131092F913109223
:10083000F8131092FB131092FA130E949D0308956F
:10084000089564E00E94A205882309F446C08DE75C
:1008500096E162E074E10E94A20A8091021488236A
:10086000E1F180917F16833079F580918016813097
:1008700019F40E943E030895823019F40E943E0349
:100880000895833059F481E060E070E00E94240311
:1008900082E060E070E00E9424030895843059F4FF
:1008A00081E061E070E00E94240382E061E070E09A
:1008B0000E9424030895853081F481E00E943E0364
:1008C00082E00E943E030895823019F40E949D0345
:1008D0000895882311F40E94CE0408958F929F9268
:1008E000AF92BF92CF92DF92FF920F931F93DF934D
:1008F000CF930F92CDB7DEB74C0170E00F2EFEEF15
:10090000CF2EFFEFDF2EF02DC60ED71EC114D1045F
:1009100049F101E010E0FF24F3945E010894A11C6A
:10092000B11C080D191DF8018081B5010E94A213A8
:10093000882341F4F80180818A3261F0833251F0DA
:1009400080E011C0F80180818A3221F0833211F0F9
:1009500089818083F3940F2D10E0C016D10608F72B
:1009600081E001C081E00F90CF91DF911F910F9145
:10097000FF90DF90CF90BF90AF909F908F900895A1
:100980000E94CC05109203141092051410920414C6
:10099000089580910414909105140895DF93CF93E6
:1009A000CDB7DEB727970FB6F894DEBF0FBECDBF29
:1009B0008AE289831A821B82809104149091051423
:1009C0009C838D8383E28E838F8380E0BE016F5F83
:1009D0007F4F47E00E94580A27960FB6F894DEBF73
:1009E0000FBECDBFCF91DF910895AF92BF92CF924E
:1009F000DF92EF92FF920F931F93DF93CF93CDB7C8
:100A0000DEB7A0970FB6F894DEBF0FBECDBF61E092
:100A10000E94A205882309F458C0809103148823FA
:100A200049F480EE60E041E50E94CD0581E08093CD
:100A300003144BC06E010894C11CD11CFF246894A0
:100A4000F1F800E010E080EE6F2D0E944F06E82ED6
:100A50006F2D6F5F80EE0E944F060F5F1F4FBE2C01
:100A6000AA2490E08A299B29B8010E94DD13F6018F
:100A7000619371936F018091041490910514680F34
:100A8000791F7093051460930414F2E0FF0E8F2D0C
:100A90008232C9F6729562956F7067277F706727FB
:100AA000709305146093041409811A810E311105A5
:100AB00040F485E0602F0E947003109305140093AA
:100AC00004140E94CE0410920314A0960FB6F8945A
:100AD000DEBF0FBECDBFCF91DF911F910F91FF9071
:100AE000EF90DF90CF90BF90AF90089580E490E0BA
:100AF0000E94360B0E94620B08950E94510B0E94C7
:100B0000700BEAE7F0E0808186FDFDCF0E94B70B15
:100B1000089510920714109206140895F8942091E5
:100B20000614309107148095909582239323909317
:100B30000714809306147894089580910614909178
:100B40000714089570E06823792381E06115710529
:100B500009F480E00895F894209106143091071468
:100B6000822B932B9093071480930614789481E042
:100B7000089580E190E061E070E00E947D0E81E1E7
:100B800090E061E070E00E947D0E81E08093B9000A
:100B900088E08093B8000895089594EA9093BC008B
:100BA0002091081430910914ACEBB0E00DC02F5F18
:100BB0003F4FF901319753E0E93EF50728F01092D5
:100BC00009141092081407C09C91992384F730935C
:100BD0000914209308148093BB0084E88093BC0020
:100BE0008091081490910914ECEBF0E00DC001968F
:100BF0009C012150304053E0293E350728F01092E7
:100C000009141092081407C02081222384F79093BE
:100C10000914809308146093BB0084E88093BC009F
:100C20008091081490910914ECEBF0E00DC001964E
:100C30009C012150304053E0293E350728F01092A6
:100C400009141092081407C02081222384F790937E
:100C50000914809308144093BB0084E88093BC007F
:100C60008091081490910914ECEBF0E00DC001960E
:100C70009C012150304043E0293E340728F0109277
:100C800009141092081407C02081222384F790933E
:100C900009148093081484E98093BC00089510928D
:100CA00009141092081494EA9093BC0020E030E0FC
:100CB000ECEBF0E00EC02F5F3F4FA90141505040D8
:100CC00093E0493E590728F0109209141092081435
:100CD00007C0908199237CF730930914209308145E
:100CE0008093BB0094E89093BC002091081430914D
:100CF0000914ECEBF0E00EC02F5F3F4FA90141500B
:100D0000504093E0493E590728F010920914109280
:100D1000081407C0908199237CF73093091420931D
:100D200008146093BB0094E89093BC0020910814D1
:100D300030910914ECEBF0E00EC02F5F3F4FA9019A
:100D40004150504093E0493E590728F01092091451
:100D50001092081407C0908199237CF730930914EE
:100D60002093081494EA9093BC00209108143091C9
:100D70000914ECEBF0E00EC02F5F3F4FA90141508A
:100D8000504093E0493E590728F010920914109200
:100D9000081407C0908199237CF73093091420939D
:100DA00008148F5F8093BB0084EC8093BC0080911B
:100DB000081490910914ECEBF0E00DC001969C0131
:100DC0002150304043E0293E340728F010920914A6
:100DD0001092081407C02081222384F790930914ED
:100DE0008093081484E88093BC008091081490914B
:100DF0000914ECEBF0E00DC001969C01215030404D
:100E000043E0293E340728F0909309148093081496
:100E100007C02081222384F790930914809308143B
:100E20008091BB0094E99093BC000895F8940895D4
:100E30007894089590E09C01220F331FF901EE0F82
:100E4000FF1FEE0FFF1FEE0FFF1FE20FF31FE80F54
:100E5000F91FE155F94E2281338121303105B1F47A
:100E60009C01220F331FF901EE0FFF1FEE0FFF1F32
:100E7000EE0FFF1F2E0F3F1F820F931FFC01E15546
:100E8000F94E808191810E94260E08959C01220FC7
:100E9000331FF901EE0FFF1FEE0FFF1FEE0FFF1FB5
:100EA0002E0F3F1F820F931FFC01E155F94E8081E9
:100EB00091810E94330E089590E09C01220F331F10
:100EC000F901EE0FFF1FEE0FFF1FEE0FFF1FE20FE6
:100ED000F31FE80FF91FE155F94E228133812130CC
:100EE0003105B1F49C01220F331FF901EE0FFF1FF2
:100EF000EE0FFF1FEE0FFF1F2E0F3F1F820F931FDE
:100F0000FC01E155F94E808191810E94330E0895D4
:100F10009C01220F331FF901EE0FFF1FEE0FFF1F81
:100F2000EE0FFF1F2E0F3F1F820F931FFC01E15595
:100F3000F94E808191810E94260E0895CF92DF9212
:100F4000EF92FF921F93CF93DF9380E061E070E018
:100F500041E050E02AEE37E00E94AB080F2EFEE1A0
:100F6000CF2EF1E0DF2EF02DCFEAD6E110E0EE2417
:100F7000FF24E394F601819191916F019983888315
:100F8000FB82EA82FD82EC82FF82EE8218861A865C
:100F900019861C861B861E861D86188A1F86198A3E
:100FA0001A8A0E94A50E8C819D81009721F4812FC1
:100FB0000E941A0703C0812F0E945C071F5F63967F
:100FC0001230C1F6DF91CF911F91FF90EF90DF902B
:100FD000CF900895CF92DF92EF92FF921F93CF931D
:100FE000DF93C5EBD6E110E0CC24DD24C3947E0171
:100FF0008A818130E9F59C858B85981770F5888109
:1010000099818130910591F489859A8501969A8715
:1010100089872F8138858217930751F5812F0E9488
:101020001A07198218821A86198622C0F70185814B
:101030009681019696838583238134818217930755
:10104000B9F4812F0E945C07F701D182C082168219
:10105000158284858F5F84870BC01A821C821B8255
:101060001E821D8218861F821A8619861B861C8680
:101070001F5F6396123009F0BACFDF91CF911F91B5
:10108000FF90EF90DF90CF90089590E09C01220FA9
:10109000331FF901EE0FFF1FEE0FFF1FEE0FFF1FB3
:1010A0002E0F3F1F820F931FFC01E155F94E8081E7
:1010B00091810E94870C089590E0FC01EE0FFF1FC4
:1010C000DF01AA0FBB1FAA0FBB1FAA0FBB1FEA0F8E
:1010D000FB1FE80FF91FE155F94E70857130E1F003
:1010E000FC01EE0FFF1FDF01AA0FBB1FAA0FBB1FE2
:1010F000AA0FBB1FEA0FFB1FE80FF91FE155F94EBE
:10110000528741871486138636872587108A17866B
:10111000618B128A81E08087089590E0FC01EE0FD8
:10112000FF1FDF01AA0FBB1FAA0FBB1FAA0FBB1F08
:10113000EA0FFB1FE80FF91FE155F94E528741876F
:101140001486138636872587108A1786618B128A44
:1011500081E08087089590E0FC01EE0FFF1FEE0F05
:10116000FF1FEE0FFF1FE80FF91FEB52F94E81E052
:101170008083728361831482138256834583308710
:101180002783089590E0FC01EE0FFF1FEE0FFF1F75
:10119000EE0FFF1F8E0F9F1FFC01EB52F94E1082C6
:1011A000089590E0FC01EE0FFF1FEE0FFF1FEE0F02
:1011B000FF1FE80FF91FEB52F94E108212821182C5
:1011C0001482138282E090E09683858310861782D2
:1011D000089590E0FC01EE0FFF1FEE0FFF1FEE0FD2
:1011E000FF1F8E0F9F1FFC01EB52F94E14821382DA
:1011F000089590E0FC01EE0FFF1FEE0FFF1FEE0FB2
:10120000FF1FE80FF91FEB52F94E1482138272830D
:1012100061830895AF92BF92CF92DF92EF92FF92D7
:101220000F931F93CF93DF937B018C01EA0120E89A
:101230003EE340E050E00E94BE13615078418C4F85
:101240009F4F20E038EE43E050E00E94F1132F3F23
:10125000310541F038F085E090E09983888380E0A3
:1012600094E022C02038310538F084E090E0998382
:10127000888380E091E018C02830310538F083E0A1
:1012800090E09983888380E490E00EC0223031059D
:1012900038F082E090E09983888388E090E004C091
:1012A00081E090E0998388835C01AA0CBB1CCC246C
:1012B000DD2460E472E48FE090E0A80197010E94D1
:1012C000F113C601B5010E94BE139B01AC0160E0A1
:1012D00074E284EF90E00E94F113220F331F441F49
:1012E000551F822F932FDF91CF911F910F91FF9068
:1012F000EF90DF90CF90BF90AF900895DF93CF93A2
:1013000000D0CDB7DEB760E177E280E090E0AE01DB
:101310004F5F5F4F0E940A098CE90E941D1089816E
:101320009A810E94131082E090E00E94F00F82E008
:1013300090E00E94341082E090E00E9425100F900F
:101340000F90CF91DF9108951092D5161092DD166F
:101350001092DC160E947E0908951F920F920FB61C
:101360000F920BB60F9211242F933F934F935F93DD
:101370006F937F938F939F93AF93BF93EF93FF935D
:1013800080910A148F5F80930A1480910A148A3026
:10139000A9F410920A1481E090E00E94AB058091BC
:1013A0000B148F5F80930B1480910B148A3031F4EF
:1013B00010920B1482E090E00E94AB058091D5164C
:1013C000813079F58091D8169091D9160196909335
:1013D000D9168093D8162091D8163091D9168091BD
:1013E000D6169091D71628173907D9F48091DA16B6
:1013F0009091DB1682309105A1F01092D9161092CF
:10140000D816E091DC16F091DD16309709F00995B9
:101410008091DA169091DB16009719F480E00E9413
:10142000D10816BCFF91EF91BF91AF919F918F9121
:101430007F916F915F914F913F912F910F900BBED4
:101440000F900FBE0F901F901895CF93DF93C0E1C0
:10145000D0E0D093C500C093C40083E090E00E9428
:10146000001180E090E00E94241180E090E00E9452
:1014700036110E94C8100E94E4100E944811D093B7
:10148000CD00C093CC0083E090E00E94121180E078
:1014900090E00E942D1180E090E00E943F110E9498
:1014A000CF100E94EB100E944F11DF91CF91089551
:1014B000CF93DF93882399F4442389F0A62FB72F85
:1014C00090E0E0ECF0E0C6ECD0E0808185FFFDCF5D
:1014D0008D9188839F5F9417C0F381E018C081309D
:1014E00099F4442399F0A62FB72F90E0E8ECF0E0B0
:1014F000CEECD0E0808185FFFDCF8D9188839F5F0A
:101500009417C0F381E003C080E001C080E0DF9168
:10151000CF910895882349F4E0ECF0E0808185FFC5
:10152000FDCF6093C60081E00895813049F4E8EC76
:10153000F0E0808185FFFDCF6093CE0081E00895CB
:1015400080E00895CF93DF9320911014222391F02F
:10155000A0E04EED56E12A2F30E0FC01E20FF31F30
:10156000240F351FE90128812083AF5F20911014DB
:10157000A21788F3FB012083DF91CF910895882380
:1015800029F470930D1460930C140895813021F4A4
:1015900070930F1460930E1408951F920F920FB65C
:1015A0000F920BB60F9211242F933F934F935F939B
:1015B0006F937F938F939F93AF93BF93EF93FF931B
:1015C0002091C60080911214882359F42A32D9F54B
:1015D0008AE28093101781E0809311148093121493
:1015E00032C05091111480E197E1FC01E50FF11D2B
:1015F0002083452F4F5F40931114242F30E0820F3A
:10160000931FFC01319780818332E9F4225F384EC9
:10161000F90180818332B9F4442369F0E0E1F7E114
:10162000AEEDB6E1CF010196850F911D21912D936D
:10163000E817F907D9F7409310141092121484E0B8
:1016400090E00E94AB05FF91EF91BF91AF919F9108
:101650008F917F916F915F914F913F912F910F905B
:101660000BBE0F900FBE0F901F901895ECE7F0E0A7
:101670009081807C9F73982B908381E00895ECE7A4
:10168000F0E080818062808381E0089580917C0019
:1016900081700895ECE7F0E080818F7D808381E0A8
:1016A0000895ECE7F0E090818F71907E982B908305
:1016B00081E0089520917C0030E02F713070822FFE
:1016C000932F0895EAE7F0E080818068808381E0CD
:1016D0000895EAE7F0E080818F77808381E00895C4
:1016E000EAE7F0E080818064808381E00895EAE7A2
:1016F000F0E080818062808381E00895EAE7F0E095
:1017000080818F7D808381E00895EAE7F0E0808129
:101710008F7A8061808381E00895EAE7F0E080813C
:101720008860808381E00895EAE7F0E08081877F28
:10173000808381E00895EAE7F0E090818770987FE8
:10174000982B908381E00895EBE7F0E0908187701B
:10175000987F982B908381E008950E94460B8130FA
:1017600019F480917900089580917800089520916E
:10177000780030917900822F932F0895882321F0EB
:1017800085B7826085BF03C085B78D7F85BF81E047
:101790000895882321F085B7816085BF03C085B790
:1017A0008E7F85BF81E00895E9E6F0E09081892B86
:1017B000808381E00895E9E6F0E09081892B8083C1
:1017C00081E00895E9E6F0E09081892B808381E053
:1017D0000895882311F0E89A01C0E89881E00895FF
:1017E000882311F0E99A01C0E99881E008958823DF
:1017F00011F0EA9A01C0EA9881E00895882311F077
:10180000E09A01C0E09881E00895882311F0E19A00
:1018100001C0E19881E00895882311F0E29A01C0A7
:10182000E29881E00895882331F0E8E6F0E08081D5
:101830008160808305C0E8E6F0E080818E7F808350
:1018400081E00895882331F0E8E6F0E0808182604D
:10185000808305C0E8E6F0E080818D7F808381E0B1
:101860000895882331F0E8E6F0E080818460808389
:1018700005C0E8E6F0E080818B7F808381E00895F9
:10188000882331F0E8E6F0E080818860808305C03D
:10189000E8E6F0E08081877F808381E008958823F7
:1018A00011F0D89A01C0D89881E00895882311F0EA
:1018B000D99A01C0D99881E00895882311F0DA9A65
:1018C00001C0DA9881E00895882311F0DB9A01C005
:1018D000DB9881E00895E3E7F0E09081892B808335
:1018E00081E00895EDE6F0E09081892B808381E02E
:1018F0000895ECE6F0E09081892B808381E00895E3
:10190000EBE6F0E09081892B808381E008959C01D3
:1019100036952795369527953695279587702223F6
:1019200069F442B121E030E0B90102C0660F771FCF
:101930008A95E2F7CB01842782B92CC0213069F463
:1019400045B121E030E0B90102C0660F771F8A95EA
:10195000E2F7CB01842785B91DC0223069F448B174
:1019600021E030E0B90102C0660F771F8A95E2F7E7
:10197000CB01842788B90EC0233061F44BB121E03C
:1019800030E0B90102C0660F771F8A95E2F7CB01FC
:1019900084278BB981E00895882321F085B7806181
:1019A00085BF03C085B78F7E85BF81E0089566231C
:1019B00069F042B121E030E0B90102C0660F771F43
:1019C0008A95E2F7CB01842B82B90DC042B121E0A8
:1019D00030E0B90102C0660F771F8A95E2F7CB01AC
:1019E0008095842382B981E0089582B108956623A9
:1019F00069F042B121E030E0B90102C0660F771F03
:101A00008A95E2F7CB01842B82B90DC042B121E067
:101A100030E0B90102C0660F771F8A95E2F7CB016B
:101A20008095842382B981E00895662369F040B1EE
:101A300021E030E0B90102C0660F771F8A95E2F716
:101A4000CB01842B80B90DC040B121E030E0B90159
:101A500002C0660F771F8A95E2F7CB018095842339
:101A600080B981E00895662369F045B121E030E056
:101A7000B90102C0660F771F8A95E2F7CB01842B6C
:101A800085B90DC045B121E030E0B90102C0660F53
:101A9000771F8A95E2F7CB018095842385B981E091
:101AA000089585B10895662369F044B121E030E0DE
:101AB000B90102C0660F771F8A95E2F7CB01842B2C
:101AC00084B90DC044B121E030E0B90102C0660F15
:101AD000771F8A95E2F7CB018095842384B981E052
:101AE0000895662369F043B121E030E0B90102C0F6
:101AF000660F771F8A95E2F7CB01842B83B90DC05F
:101B000043B121E030E0B90102C0660F771F8A952A
:101B1000E2F7CB018095842383B981E008956623A1
:101B200069F048B121E030E0B90102C0660F771FCB
:101B30008A95E2F7CB01842B88B90DC048B121E02A
:101B400030E0B90102C0660F771F8A95E2F7CB013A
:101B50008095842388B981E0089588B1089566232B
:101B600069F047B121E030E0B90102C0660F771F8C
:101B70008A95E2F7CB01842B87B90DC047B121E0EC
:101B800030E0B90102C0660F771F8A95E2F7CB01FA
:101B90008095842387B981E00895662369F046B172
:101BA00021E030E0B90102C0660F771F8A95E2F7A5
:101BB000CB01842B86B90DC046B121E030E0B901DC
:101BC00002C0660F771F8A95E2F7CB0180958423C8
:101BD00086B981E00895662369F04BB121E030E0D9
:101BE000B90102C0660F771F8A95E2F7CB01842BFB
:101BF0008BB90DC04BB121E030E0B90102C0660FD6
:101C0000771F8A95E2F7CB01809584238BB981E019
:101C10000895882329F4862F642F0E94D70C14C0BE
:101C2000813029F4862F642F0E94330D0DC082303D
:101C300029F4862F642F0E948F0D06C0833021F473
:101C4000862F642F0E94EB0D81E00895BC019695CC
:101C500087959695879596958795677041E00E9440
:101C6000090E81E00895BC01969587959695879514
:101C700096958795677040E00E94090E81E008956F
:101C80008BB10895662369F04AB121E030E0B901D3
:101C900002C0660F771F8A95E2F7CB01842B8AB9C1
:101CA0000DC04AB121E030E0B90102C0660F771FD4
:101CB0008A95E2F7CB01809584238AB981E0089563
:101CC000882329F4862F642F0E94F70C14C08130DA
:101CD00029F4862F642F0E94530D0DC0823029F401
:101CE000862F642F0E94AF0D06C0833021F4862F0B
:101CF000642F0E94420E81E008950F931F93CF93AB
:101D0000DF93EB019C0136952795369527953695FF
:101D10002795122F082F0770822F602F40E00E9416
:101D2000600EC130D10531F4812F602F41E00E9457
:101D3000090E05C0812F602F40E00E94090E81E04E
:101D4000DF91CF911F910F910895BC0196958795D2
:101D50009695879596958795677041E00E94600EED
:101D600081E00895662369F049B121E030E0B901CE
:101D700002C0660F771F8A95E2F7CB01842B89B9E1
:101D80000DC049B121E030E0B90102C0660F771FF4
:101D90008A95E2F7CB018095842389B981E0089583
:101DA000882329F4862F642F0E94150D14C08130DA
:101DB00029F4862F642F0E94710D0DC0823029F402
:101DC000862F642F0E94CD0D06C0833021F4862F0C
:101DD000642F0E94B20E81E0089593B7892B83BFD0
:101DE00081E00895882321F083B7816083BF03C019
:101DF00083B78E7F83BF81E00895882321F085B764
:101E0000806485BF03C085B78F7B85BF81E008955F
:101E1000882321F085B7806285BF03C085B78F7D99
:101E200085BF81E00895882331F0E4E6F0E0808109
:101E30008068808305C0E4E6F0E080818F7780834E
:101E400081E00895882331F0E4E6F0E08081806449
:101E5000808305C0E4E6F0E080818F7B808381E0B1
:101E60000895882331F0E4E6F0E080818062808389
:101E700005C0E4E6F0E080818F7D808381E00895F5
:101E8000882331F0E4E6F0E080818061808305C042
:101E9000E4E6F0E080818F7E808381E008958823EE
:101EA00031F0E4E6F0E080818860808305C0E4E6FC
:101EB000F0E08081877F808381E00895882331F07E
:101EC000E4E6F0E080818460808305C0E4E6F0E031
:101ED00080818B7F808381E00895882331F0E4E660
:101EE000F0E080818260808305C0E4E6F0E08081DC
:101EF0008D7F808381E00895882331F0E4E6F0E06F
:101F000080818160808305C0E4E6F0E080818E7F7F
:101F1000808381E008958093660081E0089588239E
:101F200031F0E1E6F0E080818068808305C0E1E681
:101F3000F0E080818F77808381E00895E1E6F0E032
:101F400090818F70982B908381E0089584B780E012
:101F5000089584B780E0089584B780E0089584B739
:101F600080E0089584B780E008958091600080E06B
:101F70000895882331F0E0E6F0E08081806480837A
:101F800005C0E0E6F0E080818F7B808381E00895EA
:101F90008091600080E00895882331F0E0E6F0E071
:101FA00080818860808305C0E0E6F0E08081877FE3
:101FB000808381E00895E0E6F0E09081892B8083C2
:101FC00081E0089594B5807C9F73982B94BD81E047
:101FD000089595B580739F7C982B95BD81E00895F9
:101FE00080FF04C094B5916094BD03C094B59E7FFA
:101FF00094BD81FF04C094B5926094BD03C094B5B4
:102000009D7F94BD83FF04C085B5886085BD03C0F6
:1020100085B5877F85BD81E0089595B5807C982B37
:1020200095BD81E0089595B58770987F982B95BDF3
:10203000089586BD089586B5089587BD089587B52E
:10204000089588BD089588B50895EEE6F0E0908182
:102050008770982B90830895EEE6F0E0908187706A
:102060008095982390830895EEE6F0E09081877044
:1020700080959823908308958093C60081E0089509
:102080008093CE0081E008958091C60008958091EC
:10209000CE0008958091C000807208958091C8009C
:1020A000807208952091C00030E02C713070822F32
:1020B000932F08952091C80030E02C713070822F4A
:1020C000932F0895009729F4E0ECF0E0808180835D
:1020D0000895E0ECF0E02081822B80830895009742
:1020E00029F4E8ECF0E0808180830895E8ECF0E0EA
:1020F0002081822B808308952091C00030E02270DF
:102100003070822F932F08952091C80030E0227004
:102110003070822F932F0895E0ECF0E08081816091
:10212000808381E00895E8ECF0E080818160808325
:1021300081E008958091C000817008958091C80069
:10214000817008958091C000807808958091C800C2
:1021500080780895E0ECF0E080818064808381E005
:102160000895E8ECF0E080818064808381E0089548
:102170008091C000807408958091C8008074089593
:102180008091C000807208958091C8008072089587
:10219000E1ECF0E080818860808381E00895E9ECE3
:1021A000F0E080818860808381E00895E1ECF0E0D8
:1021B0008081877F808381E00895E9ECF0E0808171
:1021C000877F808381E00895E1ECF0E08081806189
:1021D000808381E00895E9ECF0E080818061808374
:1021E00081E00895E1ECF0E080818F7E808381E0E2
:1021F0000895E9ECF0E080818F7E808381E008958E
:10220000E1ECF0E09081282F24709B7F922B90834B
:10221000E2ECF0E09081880F8670997F892B8083B3
:1022200081E00895E9ECF0E09081282F24709B7FF5
:10223000922B9083EAECF0E09081880F8670997F72
:10224000892B808381E00895E2ECF0E09081807337
:102250009F7C982B908381E00895EAECF0E09081D8
:1022600080739F7C982B908381E00895E2ECF0E0EE
:1022700090818870977F982B908381E00895EAEC95
:10228000F0E090818870977F982B908381E008958B
:10229000E1ECF0E080818068808381E00895E9ECE2
:1022A000F0E080818068808381E00895E1ECF0E0D7
:1022B00080818F77808381E00895E9ECF0E0808170
:1022C0008F77808381E00895E1ECF0E08081806485
:1022D000808381E00895E9ECF0E080818064808370
:1022E00081E00895E1ECF0E080818F7B808381E0E4
:1022F0000895E9ECF0E080818F7B808381E0089590
:10230000E1ECF0E080818062808381E00895E9EC77
:10231000F0E080818062808381E00895E1ECF0E06C
:1023200080818F7D808381E00895E9ECF0E08081F9
:102330008F7D808381E00895E2ECF0E090818170F0
:102340009E7F982B908381E00895EAECF0E09081E5
:1023500081709E7F982B908381E00895EF92FF9289
:102360000F931F937B018C010E949A10882321F503
:102370000E947C10009711F5EE0CFF1C001F111F2E
:10238000EE0CFF1C001F111FA8019701220F331F25
:10239000441F551F220F331F441F551F60E074E276
:1023A00084EF90E00E94F113215030403093C5003B
:1023B0002093C40081E003C080E001C080E01F9151
:1023C0000F91FF90EF900895EF92FF920F931F935C
:1023D0007B018C010E949E10882321F50E948410AD
:1023E000009711F5EE0CFF1C001F111FEE0CFF1CD7
:1023F000001F111FA8019701220F331F441F551FF3
:10240000220F331F441F551F60E074E284EF90E0F9
:102410000E94F113215030403093CD002093CC0026
:1024200081E003C080E001C080E01F910F91FF9028
:10243000EF900895EF92FF920F931F937B018C0111
:102440000E949A10882309F50E947C108230910521
:10245000F1F4EE0CFF1C001F111FEE0CFF1C001FFF
:10246000111FA8019701220F331F441F551F60E061
:1024700074E284EF90E00E94F113215030403093D9
:10248000C5002093C40081E003C080E001C080E06B
:102490001F910F91FF90EF900895EF92FF920F938D
:1024A0001F937B018C010E949E10882309F50E94D6
:1024B000841082309105F1F4EE0CFF1C001F111FF7
:1024C000EE0CFF1C001F111FA8019701220F331FE4
:1024D000441F551F60E074E284EF90E00E94F11306
:1024E000215030403093CD002093CC0081E003C0D8
:1024F00080E001C080E01F910F91FF90EF90089560
:10250000EF92FF920F931F937B018C010E949A1010
:102510008130A1F4A8019701220F331F441F551FDA
:1025200060E074E284EF90E00E94F11321503040AB
:102530003093C5002093C40081E001C080E01F916A
:102540000F91FF90EF900895EF92FF920F931F93DA
:102550007B018C010E949E108130A1F4A80197019B
:10256000220F331F441F551F60E074E284EF90E098
:102570000E94F113215030403093CD002093CC00C5
:1025800081E001C080E01F910F91FF90EF900895CE
:102590000E94250A0E94A4090E9489050E947605CE
:1025A0000E94B9058AE090E00E94A50E8AE090E0C2
:1025B0000E94330E89E090E00E94A50E89E090E031
:1025C0000E94330E0E9420040E94C0040E94210336
:1025D0000E9488030E9477000E94180783E00E94EF
:1025E0005C030E949D05909314148093131400972C
:1025F000A1F00E94210480911314909114140E9460
:10260000F50480911314909114140E94CB038091CF
:102610001314909114140E94B1008091131490919E
:1026200014140E948E05DDCF442379F0FC01208133
:10263000261769F0319680E003C09191961741F01A
:102640008F5F8417D0F380E0089580E0089580E0E4
:1026500008958A3028F4805DFB01808381E008952D
:1026600080E008954F925F926F927F928F929F9237
:10267000BF92CF92DF92EF92FF920F931F93DF935F
:10268000CF930F92CDB7DEB74B018A01FA011082CA
:10269000882341F480E3FB018083FA0180818F5F0E
:1026A00080833FC0E82EFF24BB246894B2F80F2E2D
:1026B000F8EECF2EF3E0DF2EF02D2E010894411C12
:1026C000511C0F2EFAE06F2E7724F02D8E2D9F2DAA
:1026D000B6010E94DD136115710521F4F8018081B6
:1026E0008823B9F01982862FB2010E9429138E2DFA
:1026F0009F2DB6010E94DD13E82EF92EF80180818E
:10270000F401E80FF11D89818083F80180818F5FDA
:102710008083BA9431F0C601B3010E94DD136B01CE
:10272000D5CF0F90CF91DF911F910F91FF90EF9038
:10273000DF90CF90BF909F908F907F906F905F9031
:102740004F900895982F90539A3020F4FB01908376
:1027500081E00895982F9156963028F48155FB0119
:10276000808381E00895982F9154963028F4815306
:10277000FB01808381E0089580E00895629FD0018D
:10278000739FF001829FE00DF11D649FE00DF11D2C
:10279000929FF00D839FF00D749FF00D659FF00DDB
:1027A0009927729FB00DE11DF91F639FB00DE11DC8
:1027B000F91FBD01CF0111240895AA1BBB1B51E1D4
:1027C00007C0AA1FBB1FA617B70710F0A61BB70BA1
:1027D000881F991F5A95A9F780959095BC01CD0146
:1027E0000895A1E21A2EAA1BBB1BFD010DC0AA1F52
:1027F000BB1FEE1FFF1FA217B307E407F50720F06A
:10280000A21BB30BE40BF50B661F771F881F991FE4
:102810001A9469F760957095809590959B01AC012D
:0A282000BD01CF010895F894FFCF29
:10282A00AA0E00000000AA0D00000000AA01000282
:10283A000100AA0402000000AA08000000001C000F
:02284A001D006F
:00000001FF
