:100000000C9446000C9465000C9465000C946500FB
:100010000C9465000C9465000C9465000C946500CC
:100020000C9465000C9465000C9465000C946500BC
:100030000C9465000C9465000C9465000C946500AC
:100040000C94CE130C9465000C9465000C94650020
:100050000C9411160C9465000C9465000C946500CA
:100060000C9465000C9465000C9465000C9465007C
:100070000C940C040C9465000C9465000C946500C1
:100080000C9465000C9465000C94650011241FBE4F
:10009000C0E0D0E4DEBFCDBF11E0A0E0B1E0E8EF0A
:1000A000F7E500E00BBF02C007900D92A232B10746
:1000B000D9F71DE0A2E2B1E001C01D92A53EB10753
:1000C000E1F70E940C2A0C94FA2B0C940000DF93A9
:1000D000CF93CDB7DEB71092C50A1092C40A109222
:1000E000C70A1092C60A1092C10A1092BA0A109258
:1000F000BB0A1092BC0A1092BD0A1092BE0A10925E
:10010000BF0A1092C00A1092C30A1092C20A10923B
:10011000940A81E00E94AC008091930A482F50E03D
:1001200024EB34E0429FC001439F900D529F900DFD
:100130001124855D9E4F0E94B9000E94A200CF91BC
:10014000DF910895DF93CF93CDB7DEB781E0809341
:10015000C60ACF91DF910895DF93CF930F92CDB769
:10016000DEB7898389818093C40A0F90CF91DF9194
:100170000895DF93CF9300D0CDB7DEB79A838983FC
:1001800089819A819093B90A8093B80A0F900F9051
:10019000CF91DF910895DF93CF9300D0CDB7DEB735
:1001A0009A8389838091C40A813009F092C0898141
:1001B0009A8161E00E946F09882331F18091C50A1C
:1001C000813011F58091C00A8130C1F41092C00ACB
:1001D0000E9420038091B80A9091B90AFC01138211
:1001E00012828091B80A9091B90AFC0111821082A2
:1001F0001092BD0A1092BE0A1092BF0A8091C60AE0
:10020000813011F40E949C0389819A8162E00E94EE
:100210006F09882309F450C08091C50A882341F5ED
:100220008091C70A833020F181E08093C50A109243
:10023000C70A1092C10A1092BA0A1092BB0A109211
:10024000BC0A1092BD0A1092BE0A1092BF0A109208
:10025000C00A1092C30A1092C20A1092940A88E04F
:1002600090E00E94171B88E090E00E943C1B24C095
:100270008091C50A8130D9F48091BD0A882389F420
:100280008091BE0A813069F48091C10A823048F0C1
:1002900088E090E00E94611B0E9467001092C70AEC
:1002A0000BC08091C10A8F5F8093C10A05C0809105
:1002B000C70A8F5F8093C70A89819A8168E00E948C
:1002C0006F09882331F080E00E94180581E0809357
:1002D000C00A0F900F90CF91DF910895DF93CF93D5
:1002E000CDB7DEB727970FB6F894DEBF0FBECDBFF0
:1002F0001A8219821B821C821E821D821F821A8210
:10030000198288C189819A81815D9E4FFC0180811B
:1003100082958F708093990A89819A818D519A4F25
:10032000FC01808182958F7080939A0A8C8188303D
:1003300061F41C828D819E8101969E838D838D81C7
:100340009E818853954FFC0110829091990A80916B
:100350009A0A891708F04FC08091990A282F30E037
:1003600080919A0A882F90E0A901481B590BCA0175
:100370008430910508F18D819E818853954FFC0151
:100380008081482F8C81882F90E027E030E0281B67
:10039000390B81E090E002C0880F991F2A95E2F79F
:1003A000842B282F8D819E818853954FFC012083BB
:1003B0008B818F5F8B836DC08D819E818853954F1C
:1003C000FC018081482F8C81882F90E027E030E06D
:1003D000281B390B81E090E002C0880F991F2A95F5
:1003E000E2F780958423282F8D819E818853954F35
:1003F000FC0120834EC080919A0A282F30E0809122
:10040000990A882F90E0A901481B590BCA01843032
:10041000910508F18D819E818853954FFC01808163
:10042000482F8C81882F90E027E030E0281B390B83
:1004300081E090E002C0880F991F2A95E2F7842B93
:10044000282F8D819E818853954FFC0120838B81BD
:100450008F5F8B831EC08D819E818853954FFC01D9
:100460008081482F8C81882F90E027E030E0281B86
:10047000390B81E090E002C0880F991F2A95E2F7BE
:1004800080958423282F8D819E818853954FFC0170
:1004900020838C818F5F8C8389819A81815D9E4FBF
:1004A000FC0180818F708093990A89819A818D5196
:1004B0009A4FFC0180818F7080939A0A9091990ADB
:1004C00080919A0A891708F04FC08091990A282FC5
:1004D00030E080919A0A882F90E0A901481B590BBF
:1004E000CA018430910508F18D819E818853954F12
:1004F000FC018081482F8C81882F90E027E030E03C
:10050000281B390B81E090E002C0880F991F2A95C3
:10051000E2F7842B282F8D819E818853954FFC0113
:1005200020838B818F5F8B836DC08D819E818853EB
:10053000954FFC018081482F8C81882F90E027E027
:1005400030E0281B390B81E090E002C0880F991F32
:100550002A95E2F780958423282F8D819E818853E8
:10056000954FFC0120834EC080919A0A282F30E0DD
:100570008091990A882F90E0A901481B590BCA0164
:100580008430910508F18D819E818853954FFC013F
:100590008081482F8C81882F90E027E030E0281B55
:1005A000390B81E090E002C0880F991F2A95E2F78D
:1005B000842B282F8D819E818853954FFC012083A9
:1005C0008B818F5F8B831EC08D819E818853954F59
:1005D000FC018081482F8C81882F90E027E030E05B
:1005E000281B390B81E090E002C0880F991F2A95E3
:1005F000E2F780958423282F8D819E818853954F23
:10060000FC0120838C818F5F8C8389819A81019684
:100610009A83898389819A81F4E0803B9F0708F45B
:1006200071CE8B81863010F081E08F838F81279689
:100630000FB6F894DEBF0FBECDBFCF91DF91089506
:10064000DF93CF93CDB7DEB76B970FB6F894DEBFCD
:100650000FBECDBF1092960A1092950A5BC08AE237
:1006600089831A8281E08B838091950A9091960A02
:10067000892F99278C838091950A9091960A8D8372
:100680001092980A1092970A29C08091970A909127
:10069000980A05964091B80A5091B90A6091950A56
:1006A0007091960A2091970A3091980A260F371F69
:1006B000240F351F2C5F3F4FF90140819E012F5FB2
:1006C0003F4F820F931FFC0140838091970A9091C6
:1006D000980A01969093980A8093970A8091970AB6
:1006E0009091980A8431910580F283E28A8F83E2A7
:1006F0008B8F80E09E012F5F3F4FB9014BE10E943D
:1007000020158091950A9091960A44969093960AA6
:100710008093950A8091950A9091960AF4E0803B27
:100720009F0708F49CCF6B960FB6F894DEBF0FBE00
:10073000CDBFCF91DF910895DF93CF93CDB7DEB7D3
:100740008091C30A8C3378F48091BA0A882359F4D3
:100750008091BB0A813021F488E090E00E943C1B2C
:100760000E942C0556C08091C30A8C3320F1109250
:10077000C50A1092C40A1092C70A1092C60A1092B3
:10078000C10A1092BA0A1092BB0A1092BC0A1092C7
:10079000BD0A1092BE0A1092BF0A1092C00A1092AF
:1007A000C30A1092C20A1092940A81E00E94AC001F
:1007B0000E94A2002EC08091BA0A813051F480912B
:1007C000C70A853030F48091C70A8F5F8093C70ACB
:1007D00020C08091BA0A813049F48091BC0A8823F4
:1007E00029F41092C70A0E94410513C08091BC0AE7
:1007F000813079F48091BD0A882359F48091BE0A32
:10080000882339F40E9451051092C10A81E0809337
:10081000BE0ACF91DF9108951F920F920FB60F92EB
:1008200000905B000F9211242F933F934F935F939F
:100830006F937F938F939F93AF93BF93EF93FF93A8
:10084000DF93CF930F92CDB7DEB78EEC90E0FC0133
:10085000808189838091BF0A813071F54091B80A07
:100860005091B90A8091B80A9091B90AFC0120818F
:100870003181420F531F4C5F5F4F6981FA016083E2
:100880002F5F3F4FFC01318320838091B80A909104
:10089000B90AFC01208131818091B80A9091B90A8E
:1008A000FC01828193812817390709F09CC088E0F8
:1008B00090E00E948A0997C080912201813009F05E
:1008C0007DC080912301909124019C012B5D3E4FBE
:1008D0004981F9014083019690932401809323017B
:1008E00080912301909124018630910509F076C012
:1008F00010922201809126018F3041F488E090E02F
:100900000E94611B81E08093BB0A6DC01092BB0AFC
:100910001092240110922301809126018E3049F417
:10092000809127018D3029F4809128018093C20A9B
:100930005AC0809126018D3051F48091C20A0E94E4
:1009400018051092C20A81E08093BA0A4CC08091C7
:1009500026018E3041F480912701813021F481E01D
:100960008093BC0A40C0809126018E3041F4809172
:100970002701843021F481E08093BD0A34C0809146
:1009800026018A3069F580912701823059F58091DE
:10099000B80A9091B90A20912901222F30E0522FF4
:1009A000442720912801222F30E0242B352BFC01F5
:1009B0003383228381E08093BF0A15C089818A3AFC
:1009C00091F481E0809322018AEA8093250181E0FD
:1009D00090E0909324018093230105C0000003C0A0
:1009E000000001C000000F90CF91DF91FF91EF91C7
:1009F000BF91AF919F918F917F916F915F914F9137
:100A00003F912F910F9000925B000F900FBE0F90BF
:100A10001F901895DF93CF93CDB7DEB728E131E073
:100A200081E0B90146E00E942015CF91DF91089541
:100A3000DF93CF930F92CDB7DEB7898389818093FF
:100A4000020120E031E081E0B90146E00E9420157A
:100A50000F90CF91DF910895DF93CF93CDB7DEB79D
:100A60001092BA0A26E031E081E0B90146E00E9426
:100A700020158091C30A8F5F8093C30ACF91DF91C5
:100A80000895DF93CF93CDB7DEB71092BC0A2CE068
:100A900031E081E0B90146E00E942015CF91DF915D
:100AA0000895DF93CF93CDB7DEB71092BD0A22E150
:100AB00031E081E0B90146E00E942015CF91DF913D
:100AC0000895DF93CF93CDB7DEB70E94800BCF910F
:100AD000DF910895DF93CF9300D00F92CDB7DEB7AB
:100AE00089837B836A838981813061F48A819B81D8
:100AF000009721F480E00E94D10C12C080E00E9497
:100B0000250D0EC08981823059F48A819B8100971E
:100B100021F481E00E94D10C03C081E00E94250DE8
:100B20000F900F900F90CF91DF910895DF93CF93A7
:100B30000F92CDB7DEB789838981813021F480E0BF
:100B40000E94790D06C08981823019F481E00E94EB
:100B5000790D0F90CF91DF910895DF93CF930F928E
:100B6000CDB7DEB7898380E0698145E050E02AE0B7
:100B700030E00E949B0D0F90CF91DF910895DF939D
:100B8000CF930F92CDB7DEB7898381E0698145E0CD
:100B900050E02AE030E00E949B0D0F90CF91DF9152
:100BA0000895DF93CF930F92CDB7DEB7898380E0AE
:100BB000698145E050E02AE030E00E949B0D81E031
:100BC000698145E050E02AE030E00E949B0D0F90E3
:100BD000CF91DF910895DF93CF9300D0CDB7DEB7EB
:100BE00089836A838A818695882F90E0AC014F5F64
:100BF0005F4F8A818695882F90E09C012F5F3F4F41
:100C000080E069810E94660E8A818695882F90E037
:100C1000AC014F5F5F4F8A818695882F90E09C01E1
:100C20002F5F3F4F81E069810E94660E0F900F9009
:100C3000CF91DF910895DF93CF93CDB7DEB71092B8
:100C4000A40A1092A30A10929C0A10929B0A109276
:100C50009E0A10929D0A1092A00A10929F0A10926A
:100C6000A20A1092A10ACF91DF910895DF93CF934A
:100C700000D0CDB7DEB79A83898389819A8161E0FC
:100C80000E946F09882309F458C082E090E00E9416
:100C900010099C0180919B0A90919C0A820F931FDE
:100CA00090939C0A80939B0A83E090E00E94100935
:100CB0009C0180919D0A90919E0A820F931F9093B0
:100CC0009E0A80939D0A8091A30A9091A40A01969E
:100CD0009093A40A8093A30A8091A30A9091A40AF6
:100CE0008830910551F51092A40A1092A30A8091C0
:100CF0009B0A90919C0A96958795969587959695CF
:100D000087959093A00A80939F0A80919D0A909165
:100D10009E0A969587959695879596958795909333
:100D2000A20A8093A10A10929C0A10929B0A109228
:100D30009E0A10929D0A0E94A2060F900F90CF91DA
:100D4000DF910895DF93CF93CDB7DEB729970FB624
:100D5000F894DEBF0FBECDBF8AE289831A8282E09B
:100D60008B8380919F0A9091A00A892F99278C8369
:100D700080919F0A9091A00A8D838091A10A909101
:100D8000A20A892F99278E838091A10A9091A20AA5
:100D90008F8383E2888783E2898780E09E012F5FCB
:100DA0003F4FB90149E00E94201529960FB6F894EB
:100DB000DEBF0FBECDBFCF91DF910895DF93CF93FC
:100DC000CDB7DEB7CF91DF910895DF93CF9300D0F9
:100DD000CDB7DEB79A83898389819A8164E00E94C6
:100DE0006F09882309F456C080E29DE025EA3AE0C5
:100DF000B9010E94BD158091A50A882309F44AC053
:100E00008091220D8330C9F58091230D813021F42A
:100E100081E00E9496053EC08091230D823021F42E
:100E200082E00E94960536C08091230D833059F4EC
:100E300081E060E070E00E946A0582E060E070E0BE
:100E40000E946A0527C08091230D843059F481E007
:100E500061E070E00E946A0582E061E070E00E945B
:100E60006A0518C08091230D8530A1F481E00E94AD
:100E7000960582E00E9496050DC08091220D823079
:100E800019F40E94A20606C08091220D882311F455
:100E90000E94D4080F900F90CF91DF910895DF93B7
:100EA000CF9300D000D000D0CDB7DEB79D838C8328
:100EB0006E8381E08A8381E089834DC08981882F98
:100EC00090E02C813D81820F931FFC0180819E0167
:100ED0002D5F3F4FB9010E94672B8823B1F48981B0
:100EE000882F90E02C813D81820F931FFC0180812F
:100EF0008A3259F08981882F90E02C813D81820FC0
:100F0000931FFC018081833221F58981882F90E035
:100F10002C813D81820F931FFC0180818A32A9F0D0
:100F20008981882F90E02C813D81820F931FFC01E5
:100F30008081833251F08981882F90E02C813D811E
:100F4000820F931F2B81FC01208389818F5F89830E
:100F500002C080E00CC08981282F30E08E81882F6C
:100F600090E002978217930708F0A8CF8A8126960F
:100F70000FB6F894DEBF0FBECDBFCF91DF910895BD
:100F8000DF93CF93CDB7DEB70E94C7091092A60AB0
:100F90001092A80A1092A70ACF91DF910895DF93CB
:100FA000CF9300D0CDB7DEB79A83898389819A81A8
:100FB00061E00E946F09882371F08091A60A88235E
:100FC00031F40E94C80881E08093A60A04C00E9400
:100FD000FB071092A60A0F900F90CF91DF91089512
:100FE000DF93CF93CDB7DEB78091A70A9091A80A7F
:100FF000CF91DF910895EF92FF920F931F93DF93AC
:10100000CF93CDB7DEB7A1970FB6F894DEBF0FBE72
:10101000CDBF19828AC08981082F10E08981882F6D
:1010200090E00196982F990F80EE692F0E94790A1F
:10103000882F90E0982F88279C01C801880F991F5E
:10104000AE014F5F5F4F840F951F0196DC012D931A
:101050003C938981082F10E08981882F90E0880FC8
:10106000991F9E012F5F3F4F820F931F0196FC0136
:10107000E080F1808981880F982F9D5F80EE692F35
:101080000E94790A882F90E09701282B392BC801FC
:10109000880F991FAE014F5F5F4F840F951F019618
:1010A000DC012D933C938981E82FF0E08981882F22
:1010B00090E0880F991F9E012F5F3F4F820F931F73
:1010C0000196DC018D919C912981222F30E02F5FC8
:1010D0003F4FB9010E94C42B9B01CF01880F991F7C
:1010E000AE014F5F5F4F840F951F0196FC01318366
:1010F00020838981882F90E0880F991F9E012F5FA0
:101100003F4F820F931F0196DC012D913C91119767
:101110008091A70A9091A80A820F931F9093A80A22
:101120008093A70A89818F5F89838981803108F440
:1011300072CF8091A70A9091A80A929582958F709C
:1011400089279F7089279093A80A8093A70A8A818C
:101150009B818E31910568F48A819B81982F85E06F
:10116000692F0E94EB058A819B819093A80A809346
:10117000A70A0E94D408A1960FB6F894DEBF0FBE4E
:10118000CDBFCF91DF911F910F91FF90EF90089508
:10119000DF93CF93CDB7DEB780EE60E041E50E94EC
:1011A000CE09CF91DF910895DF93CF93CDB7DEB70E
:1011B00027970FB6F894DEBF0FBECDBF8AE28983B2
:1011C0001A821B828091A70A9091A80A892F9927D9
:1011D0008C838091A70A9091A80A8D8383E28E83E5
:1011E00083E28F8380E09E012F5F3F4FB90147E08C
:1011F0000E94201527960FB6F894DEBF0FBECDBF14
:10120000CF91DF910895DF93CF93CDB7DEB780E420
:1012100090E00E94A0160E942117CF91DF910895BF
:10122000DF93CF9300D000D0CDB7DEB79C838B8304
:101230008FEF9FEF9A8389838B819C810E94F416A4
:101240000E944B1700008AE790E0FC018081882F04
:1012500090E0807490700097B1F70E941A189A83FA
:10126000898389819A810F900F900F900F90CF9171
:10127000DF910895DF93CF93CDB7DEB71092AA0A1E
:101280001092A90ACF91DF910895DF93CF9300D0F8
:10129000CDB7DEB79A838983F8948091A90A90919B
:1012A000AA0A9C012095309589819A81822B932BE3
:1012B000809590959093AA0A8093A90A78940F90AC
:1012C0000F90CF91DF910895DF93CF93CDB7DEB725
:1012D0008091A90A9091AA0ACF91DF910895DF9396
:1012E000CF9300D00F92CDB7DEB79A8389836B83FB
:1012F0008B81282F30E089819A8182239323009764
:1013000011F081E001C080E00F900F900F90CF911D
:10131000DF910895DF93CF9300D00F92CDB7DEB762
:101320009B838A831982F8942091A90A3091AA0A92
:101330008A819B81822B932B9093AA0A8093A90A7E
:1013400081E08983789489810F900F900F90CF91DD
:10135000DF910895DF93CF93CDB7DEB780E190E0C2
:1013600061E070E00E94051C81E190E061E070E0C6
:101370000E94051C89EB90E021E0FC01208388EBB2
:1013800090E028E0FC012083CF91DF910895DF9366
:10139000CF93CDB7DEB7CF91DF910895DF93CF9391
:1013A00000D00F92CDB7DEB789836A834B838CEB75
:1013B00090E024EAFC01208316C08091AB0A909152
:1013C000AC0A21E0F3E0893E9F0708F420E0019693
:1013D0009093AC0A8093AB0A222329F01092AC0AB6
:1013E0001092AB0A06C08CEB90E0FC018081882350
:1013F00024F78BEB90E02981FC0120838CEB90E0BB
:1014000024E8FC01208316C08091AB0A9091AC0ABD
:1014100021E0F3E0893E9F0708F420E001969093D5
:10142000AC0A8093AB0A222329F01092AC0A1092E6
:10143000AB0A06C08CEB90E0FC018081882324F786
:101440008BEB90E02A81FC0120838CEB90E024E878
:10145000FC01208316C08091AB0A9091AC0A21E078
:10146000F3E0893E9F0708F420E001969093AC0AD0
:101470008093AB0A222329F01092AC0A1092AB0A97
:1014800006C08CEB90E0FC018081882324F78BEB75
:1014900090E02B81FC0120838CEB90E024E8FC01A0
:1014A000208316C08091AB0A9091AC0A21E0F3E052
:1014B000893E9F0708F420E001969093AC0A809340
:1014C000AB0A222329F01092AC0A1092AB0A06C094
:1014D0008CEB90E0FC018081882324F78CEB90E07A
:1014E00024E9FC0120830F900F900F90CF91DF91A2
:1014F0000895DF93CF9300D00F92CDB7DEB78A83E4
:101500006B831092AC0A1092AB0A19828CEB90E0BC
:1015100024EAFC01208316C08091AB0A9091AC0AAA
:1015200021E0F3E0893E9F0708F420E001969093C4
:10153000AC0A8093AB0A222329F01092AC0A1092D5
:10154000AB0A06C08CEB90E0FC018081882324F775
:101550008BEB90E02A81FC0120838CEB90E024E867
:10156000FC01208316C08091AB0A9091AC0A21E067
:10157000F3E0893E9F0708F420E001969093AC0ABF
:101580008093AB0A222329F01092AC0A1092AB0A86
:1015900006C08CEB90E0FC018081882324F78BEB64
:1015A00090E02B81FC0120838CEB90E024E8FC018F
:1015B000208316C08091AB0A9091AC0A21E0F3E041
:1015C000893E9F0708F420E001969093AC0A80932F
:1015D000AB0A222329F01092AC0A1092AB0A06C083
:1015E0008CEB90E0FC018081882324F78CEB90E069
:1015F00024EAFC01208316C08091AB0A9091AC0ACA
:1016000021E0F3E0893E9F0708F420E001969093E3
:10161000AC0A8093AB0A222329F01092AC0A1092F4
:10162000AB0A06C08CEB90E0FC018081882324F794
:101630008BEB90E02A812F5FFC0120838CEB90E004
:1016400024ECFC01208316C08091AB0A9091AC0A77
:1016500021E0F3E0893E9F0708F420E00196909393
:10166000AC0A8093AB0A222329F01092AC0A1092A4
:10167000AB0A06C08CEB90E0FC018081882324F744
:101680008CEB90E024E8FC01208311C08091AB0A30
:101690009091AC0A21E0F3E0893E9F0708F420E036
:1016A00001969093AC0A8093AB0A222339F48CEB19
:1016B00090E0FC01808188234CF701C000008BEB97
:1016C00090E0FC01808189838CEB90E024E9FC01AF
:1016D000208389810F900F900F90CF91DF91089513
:1016E000DF93CF93CDB7DEB7F894CF91DF91089514
:1016F000DF93CF93CDB7DEB77894CF91DF91089584
:10170000DF93CF930F92CDB7DEB729E13FE080E0C2
:1017100061E070E041E050E00E949811198239C107
:101720008981282F30E08981882F90E0880F991FC8
:10173000825E9E4FFC0140815181C901880F991F33
:10174000BC01660F771F660F771F660F771F860F26
:10175000971F820F931F8E5A924FFC015183408333
:101760008981282F30E0C901880F991FAC01440FEF
:10177000551F440F551F440F551F840F951F820F8F
:10178000931F8C5A924F21E030E0FC01318320837B
:101790008981282F30E0C901880F991FAC01440FBF
:1017A000551F440F551F440F551F840F951F820F5F
:1017B000931F8A5A924F21E030E0FC01318320834D
:1017C0008981282F30E0C901880F991FAC01440F8F
:1017D000551F440F551F440F551F840F951F820F2F
:1017E000931F885A924F21E030E0FC01318320831F
:1017F0008981282F30E0C901880F991FAC01440F5F
:10180000551F440F551F440F551F840F951F820FFE
:10181000931F865A924FFC0110828981282F30E055
:10182000C901880F991FAC01440F551F440F551F64
:10183000440F551F840F951F820F931F855A924F97
:10184000FC01118210828981282F30E0C901880FA4
:10185000991FAC01440F551F440F551F440F551FCE
:10186000840F951F820F931F835A924FFC011182A0
:1018700010828981282F30E0C901880F991FAC019F
:10188000440F551F440F551F440F551F840F951FBC
:10189000820F931F815A924FFC011182108289811D
:1018A000282F30E0C901880F991FAC01440F551F44
:1018B000440F551F440F551F840F951F820F931F10
:1018C0008F59924FFC01118210828981282F30E0BC
:1018D000C901880F991FAC01440F551F440F551FB4
:1018E000440F551F840F951F820F931F8D59924FE0
:1018F000FC0110828981282F30E0C901880F991FCF
:10190000AC01440F551F440F551F440F551F840F42
:10191000951F820F931F8C59924FFC011082898171
:10192000282F30E0C901880F991FAC01440F551FC3
:10193000440F551F440F551F840F951F820F931F8F
:101940008E5A924FFC01808191810E94171B8981E0
:10195000282F30E0C901880F991FAC01440F551F93
:10196000440F551F440F551F840F951F820F931F5F
:101970008A5A924FFC0180819181009721F48981DC
:101980000E94D10C03C089810E94250D89818F5F3F
:1019900089838981823008F4C3CE0F90CF91DF9183
:1019A0000895DF93CF930F92CDB7DEB789838981F6
:1019B000282F30E0C901880F991FAC01440F551F33
:1019C000440F551F440F551F840F951F820F931FFF
:1019D0008C5A924FFC018081918181309105C9F42C
:1019E0008981282F30E0C901880F991FAC01440F6D
:1019F000551F440F551F440F551F840F951F820F0D
:101A0000931F8E5A924FFC01808191810E94611B2D
:101A100018C08981282F30E0C901880F991FAC01B7
:101A2000440F551F440F551F440F551F840F951F1A
:101A3000820F931F8E5A924FFC01808191810E94E8
:101A40003C1B0F90CF91DF910895DF93CF930F92BE
:101A5000CDB7DEB789838981282F30E0C901880F8F
:101A6000991FAC01440F551F440F551F440F551FBC
:101A7000840F951F820F931F8C5A924FFC01808117
:101A8000918181309105C9F48981282F30E0C90105
:101A9000880F991FAC01440F551F440F551F440F69
:101AA000551F840F951F820F931F8E5A924FFC0172
:101AB000808191810E943C1B18C08981282F30E0D1
:101AC000C901880F991FAC01440F551F440F551FC2
:101AD000440F551F840F951F820F931F8E5A924FEC
:101AE000FC01808191810E94611B0F90CF91DF9159
:101AF0000895DF93CF930F92CDB7DEB789838981A5
:101B0000282F30E0C901880F991FAC01440F551FE1
:101B1000440F551F440F551F840F951F820F931FAD
:101B20008E5A924FFC01808191810E94861B0F90FA
:101B3000CF91DF910895DF93CF9300D000D000D0F4
:101B4000CDB7DEB789836A835C834B833E832D8365
:101B50008981282F30E0C901880F991FAC01440FFB
:101B6000551F440F551F440F551F840F951F820F9B
:101B7000931F865A924FFC018081813009F49DC0E9
:101B80008981282F30E0C901880F991FAC01440FCB
:101B9000551F440F551F440F551F840F951F820F6B
:101BA000931F855A924F2B813C81FC013183208306
:101BB0008981282F30E0C901880F991FAC01440F9B
:101BC000551F440F551F440F551F840F951F820F3B
:101BD000931F835A924FFC01118210828981282F12
:101BE00030E0C901880F991FAC01440F551F440F05
:101BF000551F440F551F840F951F820F931F815A45
:101C0000924F2D813E81FC01318320838981282FD1
:101C100030E0C901880F991FAC01440F551F440FD4
:101C2000551F440F551F840F951F820F931F8F5907
:101C3000924FFC01118210828981282F30E0C90166
:101C4000880F991FAC01440F551F440F551F440FB7
:101C5000551F840F951F820F931F8D59924F2A8114
:101C6000FC0120838981282F30E0C901880F991F4A
:101C7000AC01440F551F440F551F440F551F840FCF
:101C8000951F820F931F8C59924FFC0110828981FE
:101C9000282F30E0C901880F991FAC01440F551F50
:101CA000440F551F440F551F840F951F820F931F1C
:101CB000865A924F21E0FC01208326960FB6F894B5
:101CC000DEBF0FBECDBFCF91DF910895DF93CF93DD
:101CD00000D000D000D0CDB7DEB789836A835C83A3
:101CE0004B833E832D838981282F30E0C901880FE3
:101CF000991FAC01440F551F440F551F440F551F2A
:101D0000840F951F820F931F855A924F2B813C8120
:101D1000FC01318320838981282F30E0C901880F9D
:101D2000991FAC01440F551F440F551F440F551FF9
:101D3000840F951F820F931F835A924FFC011182CB
:101D400010828981282F30E0C901880F991FAC01CA
:101D5000440F551F440F551F440F551F840F951FE7
:101D6000820F931F815A924F2D813E81FC01318356
:101D700020838981282F30E0C901880F991FAC0189
:101D8000440F551F440F551F440F551F840F951FB7
:101D9000820F931F8F59924FFC011182108289810B
:101DA000282F30E0C901880F991FAC01440F551F3F
:101DB000440F551F440F551F840F951F820F931F0B
:101DC0008D59924F2A81FC0120838981282F30E090
:101DD000C901880F991FAC01440F551F440F551FAF
:101DE000440F551F840F951F820F931F8C59924FDC
:101DF000FC0110828981282F30E0C901880F991FCA
:101E0000AC01440F551F440F551F440F551F840F3D
:101E1000951F820F931F865A924F21E0FC01208369
:101E200026960FB6F894DEBF0FBECDBFCF91DF91DF
:101E30000895DF93CF930F92CDB7DEB719823CC2DE
:101E40008981282F30E0C901880F991FAC01440F08
:101E5000551F440F551F440F551F840F951F820FA8
:101E6000931F865A924FFC018081813009F021C274
:101E70008981282F30E0C901880F991FAC01440FD8
:101E8000551F440F551F440F551F840F951F820F78
:101E9000931F8C59924FFC0160818981282F30E07B
:101EA000C901880F991FAC01440F551F440F551FDE
:101EB000440F551F840F951F820F931F8D59924F0A
:101EC000FC018081681708F05DC18981282F30E00E
:101ED000C901880F991FAC01440F551F440F551FAE
:101EE000440F551F840F951F820F931F885A924FDE
:101EF000FC01808191818130910509F08CC089813C
:101F0000882F90E09C01220F331FA901440F551F19
:101F1000440F551F440F551F240F351F280F391F1D
:101F20002F59324FF90120813181A9014F5F5F4F55
:101F30009C01220F331FB901660F771F660F771FB1
:101F4000660F771F260F371F820F931F8F59924FEF
:101F5000FC01518340838981282F30E0C901880F1B
:101F6000991FAC01440F551F440F551F440F551FB7
:101F7000840F951F820F931F8F59924FFC01408150
:101F800051818981282F30E0C901880F991FBC0138
:101F9000660F771F660F771F660F771F860F971FD5
:101FA000820F931F815A924FFC01808191814817C3
:101FB000590709F07EC189810E94D10C8981282F9F
:101FC00030E0C901880F991FAC01440F551F440F21
:101FD000551F440F551F840F951F820F931F885A5A
:101FE000924FFC01118210828981282F30E0C901B3
:101FF000880F991FAC01440F551F440F551F440F04
:10200000551F840F951F820F931F8F59924FFC010C
:10201000118210824EC18981882F90E09C01220F8D
:10202000331FA901440F551F440F551F440F551F5F
:10203000240F351F280F391F235A324FF9012081F1
:102040003181A9014F5F5F4F9C01220F331FB901FE
:10205000660F771F660F771F660F771F260F371FD4
:10206000820F931F835A924FFC01518340838981D1
:10207000282F30E0C901880F991FAC01440F551F6C
:10208000440F551F440F551F840F951F820F931F38
:10209000835A924FFC01408151818981282F30E081
:1020A000C901880F991FBC01660F771F660F771F44
:1020B000660F771F860F971F820F931F855A924FC7
:1020C000FC01808191814817590709F0F2C089818C
:1020D0000E94250D8981282F30E0C901880F991FA2
:1020E000AC01440F551F440F551F440F551F840F5B
:1020F000951F820F931F885A924F21E030E0FC0118
:10210000318320838981282F30E0C901880F991FEE
:10211000AC01440F551F440F551F440F551F840F2A
:10212000951F820F931F835A924FFC0111821082D8
:102130008981882F90E09C01220F331FA901440F51
:10214000551F440F551F440F551F240F351F280FCF
:10215000391F2C59324FF9012081622F6F5F9C018A
:10216000220F331FA901440F551F440F551F440F61
:10217000551F240F351F820F931F8C59924FFC015E
:10218000608397C08981282F30E0C901880F991F8B
:10219000AC01440F551F440F551F440F551F840FAA
:1021A000951F820F931F865A924FFC0110828981DE
:1021B000282F30E0C901880F991FAC01440F551F2B
:1021C000440F551F440F551F840F951F820F931FF7
:1021D000855A924FFC01118210828981282F30E0AC
:1021E000C901880F991FAC01440F551F440F551F9B
:1021F000440F551F840F951F820F931F835A924FD0
:10220000FC01118210828981282F30E0C901880FDA
:10221000991FAC01440F551F440F551F440F551F04
:10222000840F951F820F931F815A924FFC011182D8
:1022300010828981282F30E0C901880F991FAC01D5
:10224000440F551F440F551F440F551F840F951FF2
:10225000820F931F8F59924FFC0111821082898146
:10226000282F30E0C901880F991FAC01440F551F7A
:10227000440F551F440F551F840F951F820F931F46
:102280008D59924FFC0110828981282F30E0C901BD
:10229000880F991FAC01440F551F440F551F440F61
:1022A000551F840F951F820F931F8C59924FFC016D
:1022B000108289818F5F89838981823008F4C0CD43
:1022C0000F90CF91DF910895DF93CF930F92CDB709
:1022D000DEB7198224C08981282F30E0C901880F18
:1022E000991F880F991F880F991F820F931F885875
:1022F000924FFC0110828981282F30E0C901880F9C
:10230000991F880F991F880F991F820F931F81585B
:10231000924FFC011182108289818F5F89838981AC
:102320008823C9F20E94D5120F90CF91DF910895B2
:10233000DF93CF93CDB7DEB727970FB6F894DEBF04
:102340000FBECDBF89837B836A835D834C833F83CC
:102350002E838981282F30E0C901880F991F880FAB
:10236000991F880F991F820F931F8858924F21E061
:10237000FC0120838981282F30E0C901880F991F33
:10238000880F991F880F991F820F931F8758924FAC
:102390002A813B81FC01318320838981282F30E011
:1023A000C901880F991F880F991F880F991F820FE5
:1023B000931F8558924FFC01118210828981282F2A
:1023C00030E0C901880F991F880F991F880F991F46
:1023D000820F931F8358924F2C813D81FC013183E2
:1023E00020838981282F30E0C901880F991F880F29
:1023F000991F880F991F820F931F8158924F2E812A
:102400003F81FC013183208327960FB6F894DEBF0D
:102410000FBECDBFCF91DF910895DF93CF930F9281
:10242000CDB7DEB789838981282F30E0C901880FB5
:10243000991F880F991F880F991F820F931F885823
:10244000924FFC0110820F90CF91DF910895DF939E
:10245000CF930F92CDB7DEB789838981282F30E0E3
:10246000C901880F991F880F991F880F991F820F24
:10247000931F8858924FFC0110828981282F30E0E9
:10248000C901880F991F880F991F880F991F820F04
:10249000931F8758924FFC01118210828981282F47
:1024A00030E0C901880F991F880F991F880F991F65
:1024B000820F931F8558924FFC01118210828981EF
:1024C000282F30E0C901880F991F880F991F880FA6
:1024D000991F820F931F8358924F22E030E0FC0136
:1024E000318320838981282F30E0C901880F991F0B
:1024F000880F991F880F991F820F931F8158924F41
:10250000FC01118210820F90CF91DF910895DF932B
:10251000CF930F92CDB7DEB789838981282F30E022
:10252000C901880F991F880F991F880F991F820F63
:10253000931F8558924FFC01118210820F90CF910A
:10254000DF910895DF93CF9300D00F92CDB7DEB720
:1025500089837B836A838981282F30E0C901880FB2
:10256000991F880F991F880F991F820F931F8558F5
:10257000924FFC01118210828981282F30E0C9011D
:10258000880F991F880F991F880F991F820F931F1B
:102590008758924F2A813B81FC01318320830F9021
:1025A0000F900F90CF91DF910895DF93CF9300D0DC
:1025B000CDB7DEB760E177E280E090E09E012F5F6B
:1025C0003F4FA9010E94FC128CE90E94C12389811E
:1025D0009A810E948E2382E090E00E94102382E084
:1025E00090E00E94242482E090E00E94F5230F9066
:1025F0000F90CF91DF910895EF92FF920F931F9369
:10260000DF93CF93CDB7DEB72E970FB6F894DEBF2A
:102610000FBECDBF69877A878B879C875E874D8782
:1026200089859A85AB85BC8520E83EE340E050E093
:10263000BC01CD010E94A52BDC01CB01815098414A
:10264000AC4FBF4F20E038EE43E050E0BC01CD017D
:102650000E94D82BDA01C9019C838B838B819C81DA
:102660008F3F910569F060F080E094E09A83898360
:102670008D859E8525E030E0FC01318320833EC0BE
:102680008B819C818038910560F080E091E09A8395
:1026900089838D859E8524E030E0FC013183208391
:1026A0002DC08B819C818830910560F080E490E0A2
:1026B0009A8389838D859E8523E030E0FC013183F8
:1026C00020831CC08B819C818230910560F088E062
:1026D00090E09A8389838D859E8522E030E0FC011D
:1026E000318320830BC081E090E09A8389838D85BC
:1026F0009E8521E030E0FC013183208389819A812D
:10270000880F991F7C0100E010E080E492E4AFE0C4
:10271000B0E029853A854B855C85BC01CD010E94DE
:10272000D82BC801B7010E94A52B9B01AC0180E00A
:1027300094E2A4EFB0E0BC01CD010E94D82BDA01F5
:10274000C9010197A109B1098D839E83AF83B88721
:102750008D819E81AF81B885880F991FAA1FBB1FED
:102760008D839E83AF83B8878D819E81AF81B8852D
:102770000296A11DB11D8D839E83AF83B8878D8185
:102780009E812E960FB6F894DEBF0FBECDBFCF91BF
:10279000DF911F910F91FF90EF9008951F920F927C
:1027A0000FB60F9200905B000F9211242F933F936E
:1027B0004F935F936F937F938F939F93AF93BF9349
:1027C000EF93FF93DF93CF930F92CDB7DEB7809156
:1027D000AD0A8F5F8093AD0A8091AD0A8A30A9F46B
:1027E0001092AD0A81E090E00E948A098091AE0AC1
:1027F0008F5F8093AE0A8091AE0A8A3031F41092D6
:10280000AE0A82E090E00E948A091982C1C08981E3
:10281000282F30E0C901880F991F880F991F880F52
:10282000991F820F931F8858924FFC01808181303D
:1028300009F0ABC08981882F90E09C01220F331FE3
:10284000220F331F220F331F280F391F2558324FF5
:10285000F90120813181A9014F5F5F4F9C01220F57
:10286000331F220F331F220F331F280F391FC901B7
:102870008558924FFC01518340838981282F30E095
:10288000C901880F991F880F991F880F991F820F00
:10289000931F8558924FFC01408151818981282FD7
:1028A00030E0C901880F991F880F991F880F991F61
:1028B000820F931F8758924FFC01808191814817A6
:1028C000590709F062C08981282F30E0C901880FBB
:1028D000991F880F991F880F991F820F931F835884
:1028E000924FFC01808191818230910509F44DC0A5
:1028F0008981282F30E0C901880F991F880F991FFF
:10290000880F991F820F931F8558924FFC011182E7
:1029100010828981282F30E0C901880F991F880F04
:10292000991F880F991F820F931F8158924FFC01A6
:1029300080819181009799F08981282F30E0C90129
:10294000880F991F880F991F880F991F820F931F57
:102950008158924FFC0180819181FC010995898108
:10296000282F30E0C901880F991F880F991F880F01
:10297000991F820F931F8358924FFC018081918190
:10298000009719F489810E94271289818F5F8983BA
:102990008981882309F43BCF86E490E0FC01108212
:1029A0000F90CF91DF91FF91EF91BF91AF919F91E8
:1029B0008F917F916F915F914F913F912F910F90E8
:1029C00000925B000F900FBE0F901F901895DF9341
:1029D000CF93CDB7DEB784EC90E028E030E0FC0187
:1029E0003183208383E090E00E94742680E090E0B1
:1029F0000E94CC2680E090E00E9408270E94CC250F
:102A00000E9420260E9444278CEC90E020E130E0D8
:102A1000FC013183208383E090E00E94A02680E0C7
:102A200090E00E94EA2680E090E00E9426270E9423
:102A3000E1250E9435260E945927CF91DF91089504
:102A4000DF93CF9300D000D000D0CDB7DEB78B831B
:102A50007D836C834E8319828B81882319F51A82BA
:102A60001DC0000080EC90E0FC018081882F90E088
:102A7000807290700097B1F386EC90E02A81222F4B
:102A800030E04C815D81240F351FF9012081FC016C
:102A9000208381E089838A818F5F8A839A818E81F6
:102AA0009817F8F28B81813019F51A821DC0000049
:102AB00088EC90E0FC018081882F90E0807290701B
:102AC0000097B1F38EEC90E02A81222F30E04C8108
:102AD0005D81240F351FF9012081FC01208381E0F5
:102AE00089838A818F5F8A839A818E819817F8F211
:102AF000898126960FB6F894DEBF0FBECDBFCF9169
:102B0000DF910895DF93CF9300D00F92CDB7DEB75A
:102B10008A836B8319828A81882399F4000080EC70
:102B200090E0FC018081882F90E080729070009787
:102B3000B1F386EC90E02B81FC01208381E0898356
:102B400015C08A81813091F4000088EC90E0FC018E
:102B50008081882F90E0807290700097B1F38EECA6
:102B600090E02B81FC01208381E0898389810F9093
:102B70000F900F90CF91DF910895DF93CF9300D006
:102B800000D00F92CDB7DEB79B838A837D836C83A1
:102B9000198213C08981882F90E02A813B81820F9E
:102BA000931F2981222F30E02F57324FF9012081C6
:102BB000FC01208389818F5F89838091B30A998189
:102BC000981740F32091B30A8C819D81FC012083EA
:102BD0000F900F900F900F900F90CF91DF9108956D
:102BE000DF93CF9300D00F92CDB7DEB789837B837D
:102BF0006A838981882331F48A819B819093B00A0A
:102C00008093AF0A8981813031F48A819B819093CE
:102C1000B20A8093B10A0F900F900F90CF91DF917D
:102C200008951F920F920FB60F9200905B000F92C3
:102C300011242F933F934F935F936F937F938F93C1
:102C40009F93AF93BF93EF93FF93DF93CF9300D006
:102C5000CDB7DEB71A8286EC90E0FC0180818A83D2
:102C60008091B50A882371F48A818A3209F050C0B4
:102C70008AE28093B30D81E08093B40A81E080936F
:102C8000B50A46C08091B40A882F90E08D54924FC7
:102C90002A81FC0120838091B40A8F5F8093B40A5B
:102CA0008091B40A882F90E001978D54924FFC01D7
:102CB0008081833269F58091B40A882F90E0029771
:102CC0008D54924FFC018081833211F5198211C01D
:102CD0008981882F90E02981222F30E02D54324FB6
:102CE000F90120818F57924FFC01208389818F5FEA
:102CF00089838091B40A9981981750F38091B40A1E
:102D00008093B30A1092B50A84E090E00E948A0989
:102D10000F900F90CF91DF91FF91EF91BF91AF9105
:102D20009F918F917F916F915F914F913F912F91E3
:102D30000F9000925B000F900FBE0F901F901895A0
:102D4000DF93CF9300D00F92CDB7DEB79B838A83FA
:102D500081E089838CE790E02CE730E0F901208165
:102D6000322F3F732A81207C232BFC012083898111
:102D70000F900F900F90CF91DF910895DF93CF9335
:102D80000F92CDB7DEB781E089838CE790E02CE726
:102D900030E0F90120812062FC01208389810F90BD
:102DA000CF91DF910895DF93CF93CDB7DEB78CE756
:102DB00090E0FC0180818170CF91DF910895DF93D5
:102DC000CF930F92CDB7DEB781E089838CE790E097
:102DD0002CE730E0F90120812F7DFC0120838981DF
:102DE0000F90CF91DF910895DF93CF9300D00F9292
:102DF000CDB7DEB79B838A8381E089838CE790E03F
:102E00002CE730E0F9012081322F307E2A812F71AA
:102E1000232BFC01208389810F900F900F90CF917D
:102E2000DF910895DF93CF93CDB7DEB78CE790E0C5
:102E3000FC018081882F90E08F719070CF91DF919D
:102E40000895DF93CF930F92CDB7DEB781E08983EA
:102E50008AE790E02AE730E0F90120812068FC0150
:102E6000208389810F90CF91DF910895DF93CF93D5
:102E70000F92CDB7DEB781E089838AE790E02AE739
:102E800030E0F90120812F77FC01208389810F90A8
:102E9000CF91DF910895DF93CF930F92CDB7DEB737
:102EA00081E089838AE790E02AE730E0F901208118
:102EB0002064FC01208389810F90CF91DF910895D8
:102EC000DF93CF930F92CDB7DEB781E089838AE796
:102ED00090E02AE730E0F90120812062FC012083A4
:102EE00089810F90CF91DF910895DF93CF930F9257
:102EF000CDB7DEB781E089838AE790E02AE730E04A
:102F0000F90120812F7DFC01208389810F90CF91D1
:102F1000DF910895DF93CF930F92CDB7DEB781E0B5
:102F200089838AE790E02AE730E0F90120812F7A4F
:102F30002061FC01208389810F90CF91DF9108955A
:102F4000DF93CF930F92CDB7DEB781E089838AE715
:102F500090E02AE730E0F90120812860FC0120831D
:102F600089810F90CF91DF910895DF93CF930F92D6
:102F7000CDB7DEB781E089838AE790E02AE730E0C9
:102F8000F9012081277FFC01208389810F90CF9157
:102F9000DF910895DF93CF9300D00F92CDB7DEB7C6
:102FA0009B838A8381E089838AE790E02AE730E087
:102FB000F9012081322F387F2A812770232BFC01D1
:102FC000208389810F900F900F90CF91DF9108950A
:102FD000DF93CF9300D00F92CDB7DEB79B838A8368
:102FE00081E089838BE790E02BE730E0F9012081D5
:102FF000322F387F2A812770232BFC01208389817F
:103000000F900F900F90CF91DF910895DF93CF93A2
:10301000CDB7DEB70E94D316813029F489E790E05E
:10302000FC01808104C088E790E0FC018081CF91A1
:10303000DF910895DF93CF93CDB7DEB788E790E0B7
:10304000FC0180819181CF91DF910895DF93CF932F
:1030500000D0CDB7DEB78A8381E089838A81882357
:1030600051F085E590E025E530E0F901208122600E
:10307000FC01208309C085E590E025E530E0F901F9
:1030800020812D7FFC01208389810F900F90CF91AB
:10309000DF910895DF93CF9300D0CDB7DEB78A8359
:1030A00081E089838A81882351F085E590E025E5D8
:1030B00030E0F90120812160FC01208309C085E511
:1030C00090E025E530E0F90120812E7FFC0120838E
:1030D00089810F900F90CF91DF910895DF93CF9367
:1030E00000D00F92CDB7DEB79B838A8381E08983BE
:1030F00089E690E029E630E0F90130812A81232B2E
:10310000FC01208389810F900F900F90CF91DF9168
:103110000895DF93CF9300D00F92CDB7DEB79B8396
:103120008A8381E0898389E690E029E630E0F9012D
:1031300030812A81232BFC01208389810F900F90FD
:103140000F90CF91DF910895DF93CF9300D00F922E
:10315000CDB7DEB79B838A8381E0898389E690E0DF
:1031600029E630E0F90130812A81232BFC012083FC
:1031700089810F900F900F90CF91DF910895DF9389
:10318000CF9300D0CDB7DEB78A8381E089838A816F
:10319000882351F08DE390E02DE330E0F9012081A8
:1031A0002160FC01208309C08DE390E02DE330E035
:1031B000F90120812E7FFC01208389810F900F90DF
:1031C000CF91DF910895DF93CF9300D0CDB7DEB7D5
:1031D0008A8381E089838A81882351F08DE390E09E
:1031E0002DE330E0F90120812260FC01208309C039
:1031F0008DE390E02DE330E0F90120812D7FFC018B
:10320000208389810F900F90CF91DF910895DF93F4
:10321000CF9300D0CDB7DEB78A8381E089838A81DE
:10322000882351F08DE390E02DE330E0F901208117
:103230002460FC01208309C08DE390E02DE330E0A1
:10324000F90120812B7FFC01208389810F900F9051
:10325000CF91DF910895DF93CF9300D0CDB7DEB744
:103260008A8381E089838A81882351F08CE390E00E
:103270002CE330E0F90120812160FC01208309C0AA
:103280008CE390E02CE330E0F90120812E7FFC01FB
:10329000208389810F900F90CF91DF910895DF9364
:1032A000CF9300D0CDB7DEB78A8381E089838A814E
:1032B000882351F08CE390E02CE330E0F901208189
:1032C0002260FC01208309C08CE390E02CE330E015
:1032D000F90120812D7FFC01208389810F900F90BF
:1032E000CF91DF910895DF93CF9300D0CDB7DEB7B4
:1032F0008A8381E089838A81882351F08CE390E07E
:103300002CE330E0F90120812460FC01208309C016
:103310008CE390E02CE330E0F90120812B7FFC016D
:10332000208389810F900F90CF91DF910895DF93D3
:10333000CF9300D0CDB7DEB78A8381E089838A81BD
:10334000882351F088E690E028E630E0F9012081FA
:103350002160FC01208309C088E690E028E630E087
:10336000F90120812E7FFC01208389810F900F902D
:10337000CF91DF910895DF93CF9300D0CDB7DEB723
:103380008A8381E089838A81882351F088E690E0EE
:1033900028E630E0F90120812260FC01208309C089
:1033A00088E690E028E630E0F90120812D7FFC01DD
:1033B000208389810F900F90CF91DF910895DF9343
:1033C000CF9300D0CDB7DEB78A8381E089838A812D
:1033D000882351F088E690E028E630E0F90120816A
:1033E0002460FC01208309C088E690E028E630E0F4
:1033F000F90120812B7FFC01208389810F900F90A0
:10340000CF91DF910895DF93CF9300D0CDB7DEB792
:103410008A8381E089838A81882351F088E690E05D
:1034200028E630E0F90120812860FC01208309C0F2
:1034300088E690E028E630E0F9012081277FFC0152
:10344000208389810F900F90CF91DF910895DF93B2
:10345000CF9300D0CDB7DEB78A8381E089838A819C
:10346000882351F08BE390E02BE330E0F9012081D9
:103470002160FC01208309C08BE390E02BE330E066
:10348000F90120812E7FFC01208389810F900F900C
:10349000CF91DF910895DF93CF9300D0CDB7DEB702
:1034A0008A8381E089838A81882351F08BE390E0CD
:1034B0002BE330E0F90120812260FC01208309C068
:1034C0008BE390E02BE330E0F90120812D7FFC01BC
:1034D000208389810F900F90CF91DF910895DF9322
:1034E000CF9300D0CDB7DEB78A8381E089838A810C
:1034F000882351F08BE390E02BE330E0F901208149
:103500002460FC01208309C08BE390E02BE330E0D2
:10351000F90120812B7FFC01208389810F900F907E
:10352000CF91DF910895DF93CF9300D0CDB7DEB771
:103530008A8381E089838A81882351F08BE390E03C
:103540002BE330E0F90120812860FC01208309C0D1
:103550008BE390E02BE330E0F9012081277FFC0131
:10356000208389810F900F90CF91DF910895DF9391
:10357000CF9300D0CDB7DEB78A8381E0898383E71C
:1035800090E023E730E0F90130812A81232BFC0110
:10359000208389810F900F90CF91DF910895DF9361
:1035A000CF9300D0CDB7DEB78A8381E089838DE6E3
:1035B00090E02DE630E0F90130812A81232BFC01D7
:1035C000208389810F900F90CF91DF910895DF9331
:1035D000CF9300D0CDB7DEB78A8381E089838CE6B4
:1035E00090E02CE630E0F90130812A81232BFC01A8
:1035F000208389810F900F90CF91DF910895DF9301
:10360000CF9300D0CDB7DEB78A8381E089838BE684
:1036100090E02BE630E0F90130812A81232BFC0178
:10362000208389810F900F90CF91DF910895DF93D0
:10363000CF9300D000D00F92CDB7DEB79D838C839F
:1036400081E089838C819D81969587959695879554
:10365000969587958A838C8187708B838A816B810D
:1036600041E00E94961C89810F900F900F900F905F
:103670000F90CF91DF910895DF93CF9300D000D0CA
:103680000F92CDB7DEB79D838C8381E089838C81D7
:103690009D819695879596958795969587958A832A
:1036A0008C8187708B838A816B8140E00E94641CCF
:1036B00089810F900F900F900F900F90CF91DF9115
:1036C0000895DF93CF9300D000D00F92CDB7DEB72F
:1036D0009D838C8381E089838C819D8196958795DC
:1036E00096958795969587958A838C8187708B832D
:1036F0008A816B8141E00E94641C89810F900F9048
:103700000F900F900F90CF91DF910895DF93CF939B
:1037100000D000D00F92CDB7DEB79D838C8381E0BF
:1037200089838C819D8196958795969587959695A9
:1037300087958A838C8187708B838A818823A9F4FB
:1037400082E290E022E230E0F90160812B81422F99
:1037500050E021E030E0042E02C0220F331F0A9413
:10376000E2F72627FC01208347C08A818130A9F433
:1037700085E290E025E230E0F90160812B81422F63
:1037800050E021E030E0042E02C0220F331F0A94E3
:10379000E2F72627FC0120832FC08A818230A9F41A
:1037A00088E290E028E230E0F90160812B81422F2D
:1037B00050E021E030E0042E02C0220F331F0A94B3
:1037C000E2F72627FC01208317C08A818330A1F409
:1037D0008BE290E02BE230E0F90160812B81422FF7
:1037E00050E021E030E0042E02C0220F331F0A9483
:1037F000E2F72627FC01208389810F900F900F901C
:103800000F900F90CF91DF910895DF93CF93CDB7B5
:10381000DEB727970FB6F894DEBF0FBECDBF9D83EE
:103820008C837F836E8381E089838C819D819695D3
:10383000879596958795969587958A838C818770CD
:103840008B838A816B8140E00E94961C8E819F81D0
:103850008130910531F48A816B8141E00E94641CC2
:1038600005C08A816B8140E00E94641C8981279693
:103870000FB6F894DEBF0FBECDBFCF91DF91089594
:10388000DF93CF9300D0CDB7DEB78A8381E0898301
:103890008A81882351F085E590E025E530E0F90143
:1038A00020812061FC01208309C085E590E025E5A9
:1038B00030E0F90120812F7EFC01208389810F9067
:1038C0000F90CF91DF910895DF93CF9300D000D078
:1038D000CDB7DEB78A836B834C8381E089838A818D
:1038E000882329F48B816C810E94FA1C17C08A817D
:1038F000813029F48B816C810E94BF1D0FC08A81A9
:10390000823029F48B816C810E94841E07C08A81D9
:10391000833021F48B816C810E94491F89810F9033
:103920000F900F900F90CF91DF910895DF93CF9379
:1039300000D000D0CDB7DEB78A836B834C8381E0A3
:1039400089838A81882329F48B816C810E94431D9D
:1039500017C08A81813029F48B816C810E94081EF6
:103960000FC08A81823029F48B816C810E94CD1E28
:1039700007C08A81833021F48B816C810E94921F61
:1039800089810F900F900F900F90CF91DF91089544
:10399000DF93CF9300D000D0CDB7DEB78A836B839F
:1039A0004C8381E089838A81882329F48B816C810F
:1039B0000E94811D17C08A81813029F48B816C811E
:1039C0000E94461E0FC08A81823029F48B816C814F
:1039D0000E940B1F07C08A81833021F48B816C8188
:1039E0000E94D01F89810F900F900F900F90CF9160
:1039F000DF910895DF93CF9300D00F92CDB7DEB75C
:103A00008A836B8381E089838B818823A9F082E29A
:103A100090E022E230E0F90160812A81422F50E0FB
:103A200021E030E0042E02C0220F331F0A94E2F797
:103A3000262BFC01208315C082E290E022E230E0D8
:103A4000F90160812A81422F50E021E030E0042E0C
:103A500002C0220F331F0A94E2F720952623FC01AF
:103A6000208389810F900F900F90CF91DF9108955F
:103A7000DF93CF93CDB7DEB782E290E0FC01808187
:103A8000CF91DF910895DF93CF9300D00F92CDB700
:103A9000DEB78A836B8381E089838B818823A9F0D9
:103AA00082E290E022E230E0F90160812A81422F37
:103AB00050E021E030E0042E02C0220F331F0A94B0
:103AC000E2F7262BFC01208315C082E290E022E27F
:103AD00030E0F90160812A81422F50E021E030E09E
:103AE000042E02C0220F331F0A94E2F720952623EA
:103AF000FC01208389810F900F900F90CF91DF916F
:103B00000895DF93CF9300D00F92CDB7DEB78A83AD
:103B10006B8381E089838B818823A9F080E290E028
:103B200020E230E0F90160812A81422F50E021E05B
:103B300030E0042E02C0220F331F0A94E2F7262B36
:103B4000FC01208315C080E290E020E230E0F90122
:103B500060812A81422F50E021E030E0042E02C033
:103B6000220F331F0A94E2F720952623FC012083BD
:103B700089810F900F900F90CF91DF910895DF937F
:103B8000CF9300D00F92CDB7DEB78A836B8381E0ED
:103B900089838B818823A9F085E290E025E230E0DB
:103BA000F90160812A81422F50E021E030E0042EAB
:103BB00002C0220F331F0A94E2F7262BFC01208358
:103BC00015C085E290E025E230E0F90160812A81AC
:103BD000422F50E021E030E0042E02C0220F331FBC
:103BE0000A94E2F720952623FC01208389810F9017
:103BF0000F900F90CF91DF910895DF93CF93CDB7C2
:103C0000DEB785E290E0FC018081CF91DF910895DD
:103C1000DF93CF9300D00F92CDB7DEB78A836B834B
:103C200081E089838B818823A9F084E290E024E2FB
:103C300030E0F90160812A81422F50E021E030E03C
:103C4000042E02C0220F331F0A94E2F7262BFC0138
:103C5000208315C084E290E024E230E0F901608125
:103C60002A81422F50E021E030E0042E02C0220FD2
:103C7000331F0A94E2F720952623FC0120838981D3
:103C80000F900F900F90CF91DF910895DF93CF9316
:103C900000D00F92CDB7DEB78A836B8381E0898332
:103CA0008B818823A9F083E290E023E230E0F901E0
:103CB00060812A81422F50E021E030E0042E02C0D2
:103CC000220F331F0A94E2F7262BFC01208315C034
:103CD00083E290E023E230E0F90160812A81422F03
:103CE00050E021E030E0042E02C0220F331F0A947E
:103CF000E2F720952623FC01208389810F900F9005
:103D00000F90CF91DF910895DF93CF9300D00F9262
:103D1000CDB7DEB78A836B8381E089838B8188236B
:103D2000A9F088E290E028E230E0F90160812A8180
:103D3000422F50E021E030E0042E02C0220F331F5A
:103D40000A94E2F7262BFC01208315C088E290E05C
:103D500028E230E0F90160812A81422F50E021E021
:103D600030E0042E02C0220F331F0A94E2F72095A0
:103D70002623FC01208389810F900F900F90CF9113
:103D8000DF910895DF93CF93CDB7DEB788E290E05F
:103D9000FC018081CF91DF910895DF93CF9300D014
:103DA0000F92CDB7DEB78A836B8381E089838B81E5
:103DB0008823A9F087E290E027E230E0F9016081F2
:103DC0002A81422F50E021E030E0042E02C0220F71
:103DD000331F0A94E2F7262BFC01208315C087E2EB
:103DE00090E027E230E0F90160812A81422F50E023
:103DF00021E030E0042E02C0220F331F0A94E2F7C4
:103E000020952623FC01208389810F900F900F902D
:103E1000CF91DF910895DF93CF9300D00F92CDB76C
:103E2000DEB78A836B8381E089838B818823A9F045
:103E300086E290E026E230E0F90160812A81422F9B
:103E400050E021E030E0042E02C0220F331F0A941C
:103E5000E2F7262BFC01208315C086E290E026E2E3
:103E600030E0F90160812A81422F50E021E030E00A
:103E7000042E02C0220F331F0A94E2F72095262356
:103E8000FC01208389810F900F900F90CF91DF91DB
:103E90000895DF93CF9300D00F92CDB7DEB78A831A
:103EA0006B8381E089838B818823A9F08BE290E08A
:103EB0002BE230E0F90160812A81422F50E021E0BD
:103EC00030E0042E02C0220F331F0A94E2F7262BA3
:103ED000FC01208315C08BE290E02BE230E0F90179
:103EE00060812A81422F50E021E030E0042E02C0A0
:103EF000220F331F0A94E2F720952623FC0120832A
:103F000089810F900F900F90CF91DF910895DF93EB
:103F1000CF93CDB7DEB78BE290E0FC018081CF91EB
:103F2000DF910895DF93CF9300D00F92CDB7DEB726
:103F30008A836B8381E089838B818823A9F08AE25D
:103F400090E02AE230E0F90160812A81422F50E0BE
:103F500021E030E0042E02C0220F331F0A94E2F762
:103F6000262BFC01208315C08AE290E02AE230E093
:103F7000F90160812A81422F50E021E030E0042ED7
:103F800002C0220F331F0A94E2F720952623FC017A
:103F9000208389810F900F900F90CF91DF9108952A
:103FA000DF93CF9300D00F92CDB7DEB78A836B83B8
:103FB00081E089838B818823A9F089E290E029E25E
:103FC00030E0F90160812A81422F50E021E030E0A9
:103FD000042E02C0220F331F0A94E2F7262BFC01A5
:103FE000208315C089E290E029E230E0F901608188
:103FF0002A81422F50E021E030E0042E02C0220F3F
:10400000331F0A94E2F720952623FC01208389813F
:104010000F900F900F90CF91DF910895DF93CF9382
:1040200000D00F92CDB7DEB79B838A8381E089836E
:1040300083E590E023E530E0F90130812A81232BEC
:10404000FC01208389810F900F900F90CF91DF9119
:104050000895DF93CF9300D0CDB7DEB78A8381E098
:1040600089838A81882351F083E590E023E530E05D
:10407000F90120812160FC01208309C083E590E0E3
:1040800023E530E0F90120812E7FFC012083898126
:104090000F900F90CF91DF910895DF93CF9300D0D1
:1040A000CDB7DEB78A8381E089838A81882351F086
:1040B00085E590E025E530E0F90120812064FC01F0
:1040C000208309C085E590E025E530E0F9012081F5
:1040D0002F7BFC01208389810F900F90CF91DF917E
:1040E0000895DF93CF9300D0CDB7DEB78A8381E008
:1040F00089838A81882351F085E590E025E530E0C9
:10410000F90120812062FC01208309C085E590E04F
:1041100025E530E0F90120812F7DFC012083898194
:104120000F900F90CF91DF910895DF93CF9300D040
:10413000CDB7DEB78A8381E089838A81882351F0F5
:1041400084E690E024E630E0F90120812068FC015B
:10415000208309C084E690E024E630E0F901208164
:104160002F77FC01208389810F900F90CF91DF91F1
:104170000895DF93CF9300D0CDB7DEB78A8381E077
:1041800089838A81882351F084E690E024E630E038
:10419000F90120812064FC01208309C084E690E0BD
:1041A00024E630E0F90120812F7BFC012083898106
:1041B0000F900F90CF91DF910895DF93CF9300D0B0
:1041C000CDB7DEB78A8381E089838A81882351F065
:1041D00084E690E024E630E0F90120812062FC01D1
:1041E000208309C084E690E024E630E0F9012081D4
:1041F0002F7DFC01208389810F900F90CF91DF915B
:104200000895DF93CF9300D0CDB7DEB78A8381E0E6
:1042100089838A81882351F084E690E024E630E0A7
:10422000F90120812061FC01208309C084E690E02F
:1042300024E630E0F90120812F7EFC012083898172
:104240000F900F90CF91DF910895DF93CF9300D01F
:10425000CDB7DEB78A8381E089838A81882351F0D4
:1042600084E690E024E630E0F90120812860FC013A
:10427000208309C084E690E024E630E0F901208143
:10428000277FFC01208389810F900F90CF91DF91D0
:104290000895DF93CF9300D0CDB7DEB78A8381E056
:1042A00089838A81882351F084E690E024E630E017
:1042B000F90120812460FC01208309C084E690E09C
:1042C00024E630E0F90120812B7FFC0120838981E5
:1042D0000F900F90CF91DF910895DF93CF9300D08F
:1042E000CDB7DEB78A8381E089838A81882351F044
:1042F00084E690E024E630E0F90120812260FC01B0
:10430000208309C084E690E024E630E0F9012081B2
:104310002D7FFC01208389810F900F90CF91DF9139
:104320000895DF93CF9300D0CDB7DEB78A8381E0C5
:1043300089838A81882351F084E690E024E630E086
:10434000F90120812160FC01208309C084E690E00E
:1043500024E630E0F90120812E7FFC012083898151
:104360000F900F90CF91DF910895DF93CF9300D0FE
:10437000CDB7DEB78A8381E0898386E690E02A8123
:10438000FC01208389810F900F90CF91DF910895D8
:10439000DF93CF9300D0CDB7DEB78A8381E08983E6
:1043A0008A81882351F081E690E021E630E0F9012E
:1043B00020812068FC01208309C081E690E021E68D
:1043C00030E0F90120812F77FC01208389810F9053
:1043D0000F90CF91DF910895DF93CF9300D00F928C
:1043E000CDB7DEB79B838A8381E0898381E690E045
:1043F00021E630E0F90130812A812F70232BFC0166
:10440000208389810F900F900F90CF91DF910895B5
:10441000DF93CF930F92CDB7DEB784E590E0FC0138
:104420008081198289810F90CF91DF910895DF9368
:10443000CF930F92CDB7DEB784E590E0FC01808189
:10444000198289810F90CF91DF910895DF93CF93E7
:104450000F92CDB7DEB784E590E0FC018081198230
:1044600089810F90CF91DF910895DF93CF930F92C1
:10447000CDB7DEB784E590E0FC01808119828981A7
:104480000F90CF91DF910895DF93CF930F92CDB727
:10449000DEB784E590E0FC018081198289810F906C
:1044A000CF91DF910895DF93CF930F92CDB7DEB711
:1044B00080E690E0FC018081198289810F90CF9184
:1044C000DF910895DF93CF9300D0CDB7DEB78A8315
:1044D00081E089838A81882351F080E690E020E69C
:1044E00030E0F90120812064FC01208309C080E6CE
:1044F00090E020E630E0F90120812F7BFC01208351
:1045000089810F900F90CF91DF910895DF93CF9322
:104510000F92CDB7DEB780E690E0FC018081198272
:1045200089810F90CF91DF910895DF93CF9300D0D1
:10453000CDB7DEB78A8381E089838A81882351F0F1
:1045400080E690E020E630E0F90120812860FC015F
:10455000208309C080E690E020E630E0F901208168
:10456000277FFC01208389810F900F90CF91DF91ED
:104570000895DF93CF9300D00F92CDB7DEB79B8322
:104580008A8381E0898380E690E020E630E0F901CB
:1045900030812A81232BFC01208389810F900F9089
:1045A0000F90CF91DF910895DF93CF9300D00F92BA
:1045B000CDB7DEB79B838A8381E0898384E490E072
:1045C00024E430E0F9012081322F3F732A81207CDE
:1045D000232BFC01208389810F900F900F90CF91A6
:1045E000DF910895DF93CF9300D00F92CDB7DEB760
:1045F0009B838A8381E0898385E490E025E430E031
:10460000F9012081322F3F7C2A812073232BFC016A
:10461000208389810F900F900F90CF91DF910895A3
:10462000DF93CF9300D00F92CDB7DEB79B838A8301
:1046300081E089838A819B8181709070882351F009
:1046400084E490E024E430E0F90120812160FC0161
:10465000208309C084E490E024E430E0F901208163
:104660002E7FFC0120838A819B81827090709695B9
:104670008795009751F084E490E024E430E0F9015C
:1046800020812260FC01208309C084E490E024E4BE
:1046900030E0F90120812D7FFC0120838A819B81FC
:1046A000887090709695879596958795009751F0AC
:1046B00085E490E025E430E0F90120812860FC01E8
:1046C000208309C085E490E025E430E0F9012081F1
:1046D000277FFC01208389810F900F900F90CF914D
:1046E000DF910895DF93CF9300D00F92CDB7DEB75F
:1046F0009B838A8381E0898385E490E025E430E030
:10470000F90130812A81207C232BFC0120838981BF
:104710000F900F900F90CF91DF910895DF93CF937B
:1047200000D0CDB7DEB79A83898385E490E025E495
:1047300030E0F9012081322F387F29812770232B27
:10474000FC0120830F900F90CF91DF910895DF93AC
:10475000CF930F92CDB7DEB7898386E490E02981AD
:10476000FC0120830F90CF91DF910895DF93CF93C9
:10477000CDB7DEB786E490E0FC018081CF91DF9178
:104780000895DF93CF930F92CDB7DEB7898387E487
:1047900090E02981FC0120830F90CF91DF91089553
:1047A000DF93CF93CDB7DEB787E490E0FC01808143
:1047B000CF91DF910895DF93CF930F92CDB7DEB7FE
:1047C000898388E490E02981FC0120830F90CF91B8
:1047D000DF910895DF93CF93CDB7DEB788E490E003
:1047E000FC018081CF91DF910895DF93CF9300D0BA
:1047F000CDB7DEB79A8389838EE690E02EE630E06F
:10480000F901308129812770232BFC0120830F902F
:104810000F90CF91DF910895DF93CF9300D0CDB764
:10482000DEB79A8389838EE690E02EE630E0F901C8
:1048300030812981277020952323FC0120830F904C
:104840000F90CF91DF910895DF93CF9300D0CDB734
:10485000DEB79A8389838EE690E02EE630E0F90198
:1048600030812981277020952323FC0120830F901C
:104870000F90CF91DF910895DF93CF9300D0CDB704
:10488000DEB78A8381E0898386EC90E02A81FC018F
:10489000208389810F900F90CF91DF910895DF934E
:1048A000CF9300D0CDB7DEB78A8381E089838EECC9
:1048B00090E02A81FC01208389810F900F90CF9195
:1048C000DF910895DF93CF93CDB7DEB786EC90E00C
:1048D000FC018081CF91DF910895DF93CF93CDB715
:1048E000DEB78EEC90E0FC018081CF91DF910895DE
:1048F000DF93CF93CDB7DEB780EC90E0FC018081F1
:104900008072CF91DF910895DF93CF93CDB7DEB75B
:1049100088EC90E0FC0180818072CF91DF91089556
:10492000DF93CF93CDB7DEB780EC90E0FC018081C0
:10493000882F90E08C719070CF91DF910895DF9374
:10494000CF93CDB7DEB788EC90E0FC018081882F53
:1049500090E08C719070CF91DF910895DF93CF93A9
:1049600000D0CDB7DEB79A83898389819A81009779
:1049700061F480EC90E020EC30E0F9013081298195
:1049800020952323FC0120830AC080EC90E020ECDA
:1049900030E0F90130812981232BFC0120830F9025
:1049A0000F90CF91DF910895DF93CF9300D0CDB7D3
:1049B000DEB79A83898389819A81009761F488ECB4
:1049C00090E028EC30E0F901308129812095232303
:1049D000FC0120830AC088EC90E028EC30E0F9016B
:1049E00030812981232BFC0120830F900F90CF91E0
:1049F000DF910895DF93CF93CDB7DEB780EC90E0E1
:104A0000FC018081882F90E082709070CF91DF91BF
:104A10000895DF93CF93CDB7DEB788EC90E0FC012B
:104A20008081882F90E082709070CF91DF910895FF
:104A3000DF93CF930F92CDB7DEB781E0898380EC0F
:104A400090E020EC30E0F90120812160FC0120831E
:104A500089810F90CF91DF910895DF93CF930F92CB
:104A6000CDB7DEB781E0898388EC90E028EC30E0B8
:104A7000F90120812160FC01208389810F90CF9171
:104A8000DF910895DF93CF93CDB7DEB780EC90E050
:104A9000FC0180818170CF91DF910895DF93CF93E6
:104AA000CDB7DEB788EC90E0FC0180818170CF91BA
:104AB000DF910895DF93CF93CDB7DEB780EC90E020
:104AC000FC0180818078CF91DF910895DF93CF93AF
:104AD000CDB7DEB788EC90E0FC0180818078CF9183
:104AE000DF910895DF93CF930F92CDB7DEB781E0CA
:104AF000898380EC90E020EC30E0F9012081206493
:104B0000FC01208389810F90CF91DF910895DF937D
:104B1000CF930F92CDB7DEB781E0898388EC90E028
:104B200028EC30E0F90120812064FC012083898198
:104B30000F90CF91DF910895DF93CF93CDB7DEB77C
:104B400080EC90E0FC0180818074CF91DF9108952A
:104B5000DF93CF93CDB7DEB788EC90E0FC01808186
:104B60008074CF91DF910895DF93CF93CDB7DEB7F7
:104B700080EC90E0FC0180818072CF91DF910895FC
:104B8000DF93CF93CDB7DEB788EC90E0FC01808156
:104B90008072CF91DF910895DF93CF930F92CDB7BD
:104BA000DEB781E0898381EC90E021EC30E0F9010F
:104BB00020812860FC01208389810F90CF91DF91B3
:104BC0000895DF93CF930F92CDB7DEB781E089834D
:104BD00089EC90E029EC30E0F90120812860FC01AB
:104BE000208389810F90CF91DF910895DF93CF9338
:104BF0000F92CDB7DEB781E0898381EC90E021ECA4
:104C000030E0F9012081277FFC01208389810F900A
:104C1000CF91DF910895DF93CF930F92CDB7DEB799
:104C200081E0898389EC90E029EC30E0F901208172
:104C3000277FFC01208389810F90CF91DF91089518
:104C4000DF93CF930F92CDB7DEB781E0898381ECFC
:104C500090E021EC30E0F90120812061FC0120830B
:104C600089810F90CF91DF910895DF93CF930F92B9
:104C7000CDB7DEB781E0898389EC90E029EC30E0A4
:104C8000F90120812061FC01208389810F90CF915F
:104C9000DF910895DF93CF930F92CDB7DEB781E018
:104CA000898381EC90E021EC30E0F90120812F7EB6
:104CB000FC01208389810F90CF91DF910895DF93CC
:104CC000CF930F92CDB7DEB781E0898389EC90E076
:104CD00029EC30E0F90120812F7EFC0120838981BD
:104CE0000F90CF91DF910895DF93CF9300D00F9273
:104CF000CDB7DEB79B838A8381E0898381EC90E026
:104D000021EC30E0F9012081322F3B7F2A81247091
:104D1000232BFC01208382EC90E022EC30E0F901AF
:104D20002081322F397F2A81220F2670232BFC010C
:104D3000208389810F900F900F90CF91DF9108957C
:104D4000DF93CF9300D00F92CDB7DEB79B838A83DA
:104D500081E0898389EC90E029EC30E0F901208141
:104D6000322F3B7F2A812470232BFC0120838AEC85
:104D700090E02AEC30E0F9012081322F397F2A813E
:104D8000220F2670232BFC01208389810F900F9026
:104D90000F90CF91DF910895DF93CF9300D00F92C2
:104DA000CDB7DEB79B838A8381E0898382EC90E074
:104DB00022EC30E0F9012081322F3F7C2A812073E0
:104DC000232BFC01208389810F900F900F90CF91AE
:104DD000DF910895DF93CF9300D00F92CDB7DEB768
:104DE0009B838A8381E089838AEC90E02AEC30E01F
:104DF000F9012081322F3F7C2A812073232BFC0173
:104E0000208389810F900F900F90CF91DF910895AB
:104E1000DF93CF9300D00F92CDB7DEB79B838A8309
:104E200081E0898382EC90E022EC30E0F90120817E
:104E3000322F377F2A812870232BFC012083898120
:104E40000F900F900F90CF91DF910895DF93CF9344
:104E500000D00F92CDB7DEB79B838A8381E0898330
:104E60008AEC90E02AEC30E0F9012081322F377F84
:104E70002A812870232BFC01208389810F900F90B9
:104E80000F90CF91DF910895DF93CF930F92CDB71D
:104E9000DEB781E0898381EC90E021EC30E0F9011C
:104EA00020812068FC01208389810F90CF91DF91C0
:104EB0000895DF93CF930F92CDB7DEB781E089835A
:104EC00089EC90E029EC30E0F90120812068FC01B8
:104ED000208389810F90CF91DF910895DF93CF9345
:104EE0000F92CDB7DEB781E0898381EC90E021ECB1
:104EF00030E0F90120812F77FC01208389810F9018
:104F0000CF91DF910895DF93CF930F92CDB7DEB7A6
:104F100081E0898389EC90E029EC30E0F90120817F
:104F20002F77FC01208389810F90CF91DF91089525
:104F3000DF93CF930F92CDB7DEB781E0898381EC09
:104F400090E021EC30E0F90120812064FC01208315
:104F500089810F90CF91DF910895DF93CF930F92C6
:104F6000CDB7DEB781E0898389EC90E029EC30E0B1
:104F7000F90120812064FC01208389810F90CF9169
:104F8000DF910895DF93CF930F92CDB7DEB781E025
:104F9000898381EC90E021EC30E0F90120812F7BC6
:104FA000FC01208389810F90CF91DF910895DF93D9
:104FB000CF930F92CDB7DEB781E0898389EC90E083
:104FC00029EC30E0F90120812F7BFC0120838981CD
:104FD0000F90CF91DF910895DF93CF930F92CDB7CC
:104FE000DEB781E0898381EC90E021EC30E0F901CB
:104FF00020812062FC01208389810F90CF91DF9175
:105000000895DF93CF930F92CDB7DEB781E0898308
:1050100089EC90E029EC30E0F90120812062FC016C
:10502000208389810F90CF91DF910895DF93CF93F3
:105030000F92CDB7DEB781E0898381EC90E021EC5F
:1050400030E0F90120812F7DFC01208389810F90C0
:10505000CF91DF910895DF93CF930F92CDB7DEB755
:1050600081E0898389EC90E029EC30E0F90120812E
:105070002F7DFC01208389810F90CF91DF910895CE
:10508000DF93CF9300D00F92CDB7DEB79B838A8397
:1050900081E0898382EC90E022EC30E0F90120810C
:1050A000322F3E7F2A812170232BFC0120838981AE
:1050B0000F900F900F90CF91DF910895DF93CF93D2
:1050C00000D00F92CDB7DEB79B838A8381E08983BE
:1050D0008AEC90E02AEC30E0F9012081322F3E7F0B
:1050E0002A812170232BFC01208389810F900F904E
:1050F0000F90CF91DF9108950F931F93DF93CF937C
:1051000000D000D00F92CDB7DEB76A837B838C834B
:105110009D8319820E944225882361F50E94FA240A
:10512000009741F504EC10E08A819B81AC81BD8140
:10513000880F991FAA1FBB1F880F991FAA1FBB1F8B
:10514000880F991FAA1FBB1F880F991FAA1FBB1F7B
:105150009C01AD0180E094E2A4EFB0E0BC01CD0180
:105160000E94D82BDA01C9010197F801918380834D
:1051700081E0898389810F900F900F900F900F909D
:10518000CF91DF911F910F9108950F931F93DF939C
:10519000CF9300D000D00F92CDB7DEB76A837B8368
:1051A0008C839D8319820E944E25882361F50E947D
:1051B0000925009741F50CEC10E08A819B81AC81B8
:1051C000BD81880F991FAA1FBB1F880F991FAA1F97
:1051D000BB1F880F991FAA1FBB1F880F991FAA1FEB
:1051E000BB1F9C01AD0180E094E2A4EFB0E0BC01E4
:1051F000CD010E94D82BDA01C9010197F8019183F2
:10520000808381E0898389810F900F900F900F90A8
:105210000F90CF91DF911F910F9108950F931F93DE
:10522000DF93CF9300D000D00F92CDB7DEB76A8363
:105230007B838C839D8319820E944225882349F5B4
:105240000E94FA248230910521F504EC10E08A8155
:105250009B81AC81BD81880F991FAA1FBB1F880F3E
:10526000991FAA1FBB1F880F991FAA1FBB1F9C0154
:10527000AD0180E094E2A4EFB0E0BC01CD010E945A
:10528000D82BDA01C9010197F8019183808381E06D
:10529000898389810F900F900F900F900F90CF917D
:1052A000DF911F910F9108950F931F93DF93CF9379
:1052B00000D000D00F92CDB7DEB76A837B838C839A
:1052C0009D8319820E944E25882349F50E94092555
:1052D0008230910521F50CEC10E08A819B81AC8134
:1052E000BD81880F991FAA1FBB1F880F991FAA1F76
:1052F000BB1F880F991FAA1FBB1F9C01AD0180E037
:1053000094E2A4EFB0E0BC01CD010E94D82BDA01F9
:10531000C9010197F8019183808381E089838981A4
:105320000F900F900F900F900F90CF91DF911F91E2
:105330000F9108950F931F93DF93CF9300D000D068
:105340000F92CDB7DEB76A837B838C839D831982EE
:105350000E9442258130E1F404EC10E08A819B81B7
:10536000AC81BD819C01AD01220F331F441F551F2D
:1053700080E094E2A4EFB0E0BC01CD010E94D82B04
:10538000DA01C9010197F8019183808381E0898363
:1053900089810F900F900F900F900F90CF91DF9118
:1053A0001F910F9108950F931F93DF93CF9300D018
:1053B00000D00F92CDB7DEB76A837B838C839D8349
:1053C00019820E944E258130E1F40CEC10E08A81B4
:1053D0009B81AC81BD819C01AD01220F331F441F15
:1053E000551F80E094E2A4EFB0E0BC01CD010E9423
:1053F000D82BDA01C9010197F8019183808381E0FC
:10540000898389810F900F900F900F900F90CF910B
:10541000DF911F910F910895DF93CF93CDB7DEB742
:105420000E94282A0E944E2A0E94780B83E00E9444
:10543000D1050E9464099093B70A8093B60A0E942E
:10544000642A8091B60A9091B70A0E944509F1CF6B
:10545000DF93CF930F92CDB7DEB781E089830E94AF
:10546000E7140E9464110E943A090E9403090E94F5
:10547000AA098AE090E00E94171B8AE090E00E944F
:105480003C1B89E090E00E94171B89E090E00E949D
:105490003C1B89810F90CF91DF910895DF93CF93CB
:1054A0000F92CDB7DEB781E089830E94DE060E94AD
:1054B000C0070E9461050E941B060E946700898147
:1054C0000F90CF91DF910895DF93CF93CDB7DEB7E3
:1054D0008091B60A9091B70A0097C1F08091B60A00
:1054E0009091B70A0E94E5068091B60A9091B70A9A
:1054F0000E94CF078091B60A9091B70A0E943606A3
:105500008091B60A9091B70A0E94CB00CF91DF91AB
:105510000895DF93CF9300D000D000D0CDB7DEB791
:105520009C838B836D834E8319821A8212C08A8179
:10553000882F90E02B813C81820F931FFC0190818A
:105540008D81981719F48A81898307C08A818F5FBA
:105550008A839A818E81981750F3898126960FB697
:10556000F894DEBF0FBECDBFCF91DF910895DF93DA
:10557000CF9300D00F92CDB7DEB789837B836A8348
:1055800089818A3048F48981282F205D8A819B8116
:10559000FC01208381E001C080E00F900F900F900C
:1055A000CF91DF910895DF93CF93CDB7DEB72B97DF
:1055B0000FB6F894DEBF0FBECDBF8F8379876887A3
:1055C0005B874A8788EE93E09A8389838A859B85E7
:1055D000FC0110828F81882F90E09C838B838F81C8
:1055E0008823C1F48A859B85FC018081882F90E007
:1055F00028853985820F931F20E3FC0120838A854B
:105600009B85FC018081282F2F5F8A859B85FC016B
:10561000208354C01D824EC08B819C8129813A8198
:10562000B9010E94C42B9B01C901009731F48A85FE
:105630009B85FC018081882381F11E828B819C8166
:1056400029813A81B9010E94C42B9B01C9019E01A5
:105650002A5F3F4FB9010E94B72A8B819C81298123
:105660003A81B9010E94C42B9C838B838A859B85D8
:10567000FC018081882F90E028853985820F931F57
:105680002E81FC0120838A859B85FC018081282F47
:105690002F5F8A859B85FC01208389819A812AE07E
:1056A00030E0B9010E94C42B9B013A8329838D818C
:1056B0008F5F8D838D81843008F4AECF2B960FB62B
:1056C000F894DEBF0FBECDBFCF91DF910895DF9379
:1056D000CF9300D000D0CDB7DEB78A837C836B83B5
:1056E00081E089838A81803358F08A818A3340F44B
:1056F0008A81282F20538B819C81FC0120831DC02F
:105700008A81813658F08A81873640F48A81282F31
:1057100021558B819C81FC0120830FC08A818134BB
:1057200058F08A81873440F48A81282F21538B8155
:105730009C81FC01208301C0198289810F900F9008
:105740000F900F90CF91DF910895629FD001739FCA
:10575000F001829FE00DF11D649FE00DF11D929F0D
:10576000F00D839FF00D749FF00D659FF00D99274C
:10577000729FB00DE11DF91F639FB00DE11DF91F70
:10578000BD01CF0111240895AA1BBB1B51E107C025
:10579000AA1FBB1FA617B70710F0A61BB70B881FC1
:1057A000991F5A95A9F780959095BC01CD01089550
:1057B000A1E21A2EAA1BBB1BFD010DC0AA1FBB1F15
:1057C000EE1FFF1FA217B307E407F50720F0A21B87
:1057D000B30BE40BF50B661F771F881F991F1A94F4
:1057E00069F760957095809590959B01AC01BD011E
:0857F000CF010895F894FFCFEA
:1057F800AA0E00000000AA0D00000000AA01000186
:105808000100AA0402000000AA08000000001C0011
:025818001D0071
:00000001FF
